{
	"contracts/t_ref_op_NFTSwap.sol": {
		"NTFSwap": {
			"abi": [
				{
					"anonymous": false,
					"inputs": [
						{
							"indexed": true,
							"internalType": "address",
							"name": "seller",
							"type": "address"
						},
						{
							"indexed": true,
							"internalType": "address",
							"name": "nftAddr",
							"type": "address"
						},
						{
							"indexed": true,
							"internalType": "uint256",
							"name": "tokenId",
							"type": "uint256"
						},
						{
							"indexed": false,
							"internalType": "uint256",
							"name": "price",
							"type": "uint256"
						}
					],
					"name": "List",
					"type": "event"
				},
				{
					"anonymous": false,
					"inputs": [
						{
							"indexed": true,
							"internalType": "address",
							"name": "buyer",
							"type": "address"
						},
						{
							"indexed": true,
							"internalType": "address",
							"name": "nftAddr",
							"type": "address"
						},
						{
							"indexed": true,
							"internalType": "uint256",
							"name": "tokenId",
							"type": "uint256"
						},
						{
							"indexed": false,
							"internalType": "uint256",
							"name": "price",
							"type": "uint256"
						}
					],
					"name": "Purchase",
					"type": "event"
				},
				{
					"anonymous": false,
					"inputs": [
						{
							"indexed": true,
							"internalType": "address",
							"name": "seller",
							"type": "address"
						},
						{
							"indexed": true,
							"internalType": "address",
							"name": "nftAddr",
							"type": "address"
						},
						{
							"indexed": true,
							"internalType": "uint256",
							"name": "tokenId",
							"type": "uint256"
						}
					],
					"name": "Revoke",
					"type": "event"
				},
				{
					"anonymous": false,
					"inputs": [
						{
							"indexed": true,
							"internalType": "address",
							"name": "seller",
							"type": "address"
						},
						{
							"indexed": true,
							"internalType": "address",
							"name": "nftAddr",
							"type": "address"
						},
						{
							"indexed": true,
							"internalType": "uint256",
							"name": "tokenId",
							"type": "uint256"
						},
						{
							"indexed": false,
							"internalType": "uint256",
							"name": "newPrice",
							"type": "uint256"
						}
					],
					"name": "Update",
					"type": "event"
				},
				{
					"stateMutability": "payable",
					"type": "fallback"
				},
				{
					"inputs": [
						{
							"internalType": "address",
							"name": "_nftAddr",
							"type": "address"
						},
						{
							"internalType": "uint256",
							"name": "_tokenId",
							"type": "uint256"
						},
						{
							"internalType": "uint256",
							"name": "_price",
							"type": "uint256"
						}
					],
					"name": "list",
					"outputs": [],
					"stateMutability": "nonpayable",
					"type": "function"
				},
				{
					"inputs": [
						{
							"internalType": "address",
							"name": "",
							"type": "address"
						},
						{
							"internalType": "uint256",
							"name": "",
							"type": "uint256"
						}
					],
					"name": "nftList",
					"outputs": [
						{
							"internalType": "address",
							"name": "owner",
							"type": "address"
						},
						{
							"internalType": "uint256",
							"name": "price",
							"type": "uint256"
						}
					],
					"stateMutability": "view",
					"type": "function"
				},
				{
					"inputs": [
						{
							"internalType": "address",
							"name": "operator",
							"type": "address"
						},
						{
							"internalType": "address",
							"name": "from",
							"type": "address"
						},
						{
							"internalType": "uint256",
							"name": "tokenId",
							"type": "uint256"
						},
						{
							"internalType": "bytes",
							"name": "data",
							"type": "bytes"
						}
					],
					"name": "onERC721Received",
					"outputs": [
						{
							"internalType": "bytes4",
							"name": "",
							"type": "bytes4"
						}
					],
					"stateMutability": "nonpayable",
					"type": "function"
				},
				{
					"inputs": [
						{
							"internalType": "address",
							"name": "_nftAddr",
							"type": "address"
						},
						{
							"internalType": "uint256",
							"name": "_tokenId",
							"type": "uint256"
						}
					],
					"name": "purchase",
					"outputs": [],
					"stateMutability": "payable",
					"type": "function"
				},
				{
					"inputs": [
						{
							"internalType": "address",
							"name": "_nftAddr",
							"type": "address"
						},
						{
							"internalType": "uint256",
							"name": "_tokenId",
							"type": "uint256"
						}
					],
					"name": "revoke",
					"outputs": [],
					"stateMutability": "nonpayable",
					"type": "function"
				},
				{
					"inputs": [
						{
							"internalType": "address",
							"name": "_nftAddr",
							"type": "address"
						},
						{
							"internalType": "uint256",
							"name": "_tokenId",
							"type": "uint256"
						},
						{
							"internalType": "uint256",
							"name": "_newPrice",
							"type": "uint256"
						}
					],
					"name": "update",
					"outputs": [],
					"stateMutability": "nonpayable",
					"type": "function"
				}
			],
			"devdoc": {
				"kind": "dev",
				"methods": {
					"onERC721Received(address,address,uint256,bytes)": {
						"details": "Whenever an {IERC721} `tokenId` token is transferred to this contract via {IERC721-safeTransferFrom} by `operator` from `from`, this function is called. It must return its Solidity selector to confirm the token transfer. If any other value is returned or the interface is not implemented by the recipient, the transfer will be reverted. The selector can be obtained in Solidity with `IERC721Receiver.onERC721Received.selector`."
					}
				},
				"version": 1
			},
			"evm": {
				"assembly": "    /* \"contracts/t_ref_op_NFTSwap.sol\":242:4602  contract NTFSwap is IERC721Receiver {... */\n  mstore(0x40, 0x80)\n  callvalue\n  dup1\n  iszero\n  tag_1\n  jumpi\n  0x00\n  dup1\n  revert\ntag_1:\n  pop\n  dataSize(sub_0)\n  dup1\n  dataOffset(sub_0)\n  0x00\n  codecopy\n  0x00\n  return\nstop\n\nsub_0: assembly {\n        /* \"contracts/t_ref_op_NFTSwap.sol\":242:4602  contract NTFSwap is IERC721Receiver {... */\n      mstore(0x40, 0x80)\n      jumpi(tag_1, lt(calldatasize, 0x04))\n      shr(0xe0, calldataload(0x00))\n      dup1\n      0x150b7a02\n      eq\n      tag_3\n      jumpi\n      dup1\n      0x8de93222\n      eq\n      tag_4\n      jumpi\n      dup1\n      0xba5f4fb2\n      eq\n      tag_5\n      jumpi\n      dup1\n      0xd09b6d43\n      eq\n      tag_6\n      jumpi\n      dup1\n      0xdda342bb\n      eq\n      tag_7\n      jumpi\n      dup1\n      0xeac449d9\n      eq\n      tag_8\n      jumpi\n      jump(tag_2)\n    tag_1:\n    tag_2:\n      stop\n        /* \"contracts/t_ref_op_NFTSwap.sol\":1024:1262  function onERC721Received (... */\n    tag_3:\n      callvalue\n      dup1\n      iszero\n      tag_11\n      jumpi\n      0x00\n      dup1\n      revert\n    tag_11:\n      pop\n      tag_12\n      0x04\n      dup1\n      calldatasize\n      sub\n      dup2\n      add\n      swap1\n      tag_13\n      swap2\n      swap1\n      tag_14\n      jump\t// in\n    tag_13:\n      tag_15\n      jump\t// in\n    tag_12:\n      mload(0x40)\n      tag_16\n      swap2\n      swap1\n      tag_17\n      jump\t// in\n    tag_16:\n      mload(0x40)\n      dup1\n      swap2\n      sub\n      swap1\n      return\n        /* \"contracts/t_ref_op_NFTSwap.sol\":3647:4599  function purchase(address _nftAddr, uint256 _tokenId) payable public {... */\n    tag_4:\n      tag_18\n      0x04\n      dup1\n      calldatasize\n      sub\n      dup2\n      add\n      swap1\n      tag_19\n      swap2\n      swap1\n      tag_20\n      jump\t// in\n    tag_19:\n      tag_21\n      jump\t// in\n    tag_18:\n      stop\n        /* \"contracts/t_ref_op_NFTSwap.sol\":840:900  mapping(address => mapping(uint256 => Order)) public nftList */\n    tag_5:\n      callvalue\n      dup1\n      iszero\n      tag_22\n      jumpi\n      0x00\n      dup1\n      revert\n    tag_22:\n      pop\n      tag_23\n      0x04\n      dup1\n      calldatasize\n      sub\n      dup2\n      add\n      swap1\n      tag_24\n      swap2\n      swap1\n      tag_20\n      jump\t// in\n    tag_24:\n      tag_25\n      jump\t// in\n    tag_23:\n      mload(0x40)\n      tag_26\n      swap3\n      swap2\n      swap1\n      tag_27\n      jump\t// in\n    tag_26:\n      mload(0x40)\n      dup1\n      swap2\n      sub\n      swap1\n      return\n        /* \"contracts/t_ref_op_NFTSwap.sol\":2846:3532  function update(address _nftAddr, uint256 _tokenId, uint256 _newPrice) public {... */\n    tag_6:\n      callvalue\n      dup1\n      iszero\n      tag_28\n      jumpi\n      0x00\n      dup1\n      revert\n    tag_28:\n      pop\n      tag_29\n      0x04\n      dup1\n      calldatasize\n      sub\n      dup2\n      add\n      swap1\n      tag_30\n      swap2\n      swap1\n      tag_31\n      jump\t// in\n    tag_30:\n      tag_32\n      jump\t// in\n    tag_29:\n      stop\n        /* \"contracts/t_ref_op_NFTSwap.sol\":1394:2055  function list(address _nftAddr, uint256 _tokenId, uint256 _price) public{... */\n    tag_7:\n      callvalue\n      dup1\n      iszero\n      tag_33\n      jumpi\n      0x00\n      dup1\n      revert\n    tag_33:\n      pop\n      tag_34\n      0x04\n      dup1\n      calldatasize\n      sub\n      dup2\n      add\n      swap1\n      tag_35\n      swap2\n      swap1\n      tag_31\n      jump\t// in\n    tag_35:\n      tag_36\n      jump\t// in\n    tag_34:\n      stop\n        /* \"contracts/t_ref_op_NFTSwap.sol\":2104:2787  function revoke(address _nftAddr, uint256 _tokenId) public {... */\n    tag_8:\n      callvalue\n      dup1\n      iszero\n      tag_37\n      jumpi\n      0x00\n      dup1\n      revert\n    tag_37:\n      pop\n      tag_38\n      0x04\n      dup1\n      calldatasize\n      sub\n      dup2\n      add\n      swap1\n      tag_39\n      swap2\n      swap1\n      tag_20\n      jump\t// in\n    tag_39:\n      tag_40\n      jump\t// in\n    tag_38:\n      stop\n        /* \"contracts/t_ref_op_NFTSwap.sol\":1024:1262  function onERC721Received (... */\n    tag_15:\n        /* \"contracts/t_ref_op_NFTSwap.sol\":1188:1194  bytes4 */\n      0x00\n        /* \"contracts/t_ref_op_NFTSwap.sol\":1213:1254  IERC721Receiver.onERC721Received.selector */\n      shl(0xe0, 0x150b7a02)\n        /* \"contracts/t_ref_op_NFTSwap.sol\":1206:1254  return IERC721Receiver.onERC721Received.selector */\n      swap1\n      pop\n        /* \"contracts/t_ref_op_NFTSwap.sol\":1024:1262  function onERC721Received (... */\n      swap6\n      swap5\n      pop\n      pop\n      pop\n      pop\n      pop\n      jump\t// out\n        /* \"contracts/t_ref_op_NFTSwap.sol\":3647:4599  function purchase(address _nftAddr, uint256 _tokenId) payable public {... */\n    tag_21:\n        /* \"contracts/t_ref_op_NFTSwap.sol\":3727:3747  Order storage _order */\n      0x00\n        /* \"contracts/t_ref_op_NFTSwap.sol\":3750:3757  nftList */\n      dup1\n        /* \"contracts/t_ref_op_NFTSwap.sol\":3750:3767  nftList[_nftAddr] */\n      0x00\n        /* \"contracts/t_ref_op_NFTSwap.sol\":3758:3766  _nftAddr */\n      dup5\n        /* \"contracts/t_ref_op_NFTSwap.sol\":3750:3767  nftList[_nftAddr] */\n      0xffffffffffffffffffffffffffffffffffffffff\n      and\n      0xffffffffffffffffffffffffffffffffffffffff\n      and\n      dup2\n      mstore\n      0x20\n      add\n      swap1\n      dup2\n      mstore\n      0x20\n      add\n      0x00\n      keccak256\n        /* \"contracts/t_ref_op_NFTSwap.sol\":3750:3777  nftList[_nftAddr][_tokenId] */\n      0x00\n        /* \"contracts/t_ref_op_NFTSwap.sol\":3768:3776  _tokenId */\n      dup4\n        /* \"contracts/t_ref_op_NFTSwap.sol\":3750:3777  nftList[_nftAddr][_tokenId] */\n      dup2\n      mstore\n      0x20\n      add\n      swap1\n      dup2\n      mstore\n      0x20\n      add\n      0x00\n      keccak256\n        /* \"contracts/t_ref_op_NFTSwap.sol\":3727:3777  Order storage _order = nftList[_nftAddr][_tokenId] */\n      swap1\n      pop\n        /* \"contracts/t_ref_op_NFTSwap.sol\":3834:3835  0 */\n      0x00\n        /* \"contracts/t_ref_op_NFTSwap.sol\":3819:3825  _order */\n      dup2\n        /* \"contracts/t_ref_op_NFTSwap.sol\":3819:3831  _order.price */\n      0x01\n      add\n      sload\n        /* \"contracts/t_ref_op_NFTSwap.sol\":3819:3835  _order.price > 0 */\n      gt\n        /* \"contracts/t_ref_op_NFTSwap.sol\":3811:3853  require(_order.price > 0, \"Invalid Price\") */\n      tag_43\n      jumpi\n      mload(0x40)\n      0x08c379a000000000000000000000000000000000000000000000000000000000\n      dup2\n      mstore\n      0x04\n      add\n      tag_44\n      swap1\n      tag_45\n      jump\t// in\n    tag_44:\n      mload(0x40)\n      dup1\n      swap2\n      sub\n      swap1\n      revert\n    tag_43:\n        /* \"contracts/t_ref_op_NFTSwap.sol\":3905:3911  _order */\n      dup1\n        /* \"contracts/t_ref_op_NFTSwap.sol\":3905:3917  _order.price */\n      0x01\n      add\n      sload\n        /* \"contracts/t_ref_op_NFTSwap.sol\":3892:3901  msg.value */\n      callvalue\n        /* \"contracts/t_ref_op_NFTSwap.sol\":3892:3917  msg.value >= _order.price */\n      lt\n      iszero\n        /* \"contracts/t_ref_op_NFTSwap.sol\":3884:3936  require(msg.value >= _order.price, \"Increase price\") */\n      tag_46\n      jumpi\n      mload(0x40)\n      0x08c379a000000000000000000000000000000000000000000000000000000000\n      dup2\n      mstore\n      0x04\n      add\n      tag_47\n      swap1\n      tag_48\n      jump\t// in\n    tag_47:\n      mload(0x40)\n      dup1\n      swap2\n      sub\n      swap1\n      revert\n    tag_46:\n        /* \"contracts/t_ref_op_NFTSwap.sol\":4019:4031  IERC721 _nft */\n      0x00\n        /* \"contracts/t_ref_op_NFTSwap.sol\":4042:4050  _nftAddr */\n      dup4\n        /* \"contracts/t_ref_op_NFTSwap.sol\":4019:4051  IERC721 _nft = IERC721(_nftAddr) */\n      swap1\n      pop\n        /* \"contracts/t_ref_op_NFTSwap.sol\":4104:4108  this */\n      address\n        /* \"contracts/t_ref_op_NFTSwap.sol\":4070:4109  _nft.ownerOf(_tokenId) == address(this) */\n      0xffffffffffffffffffffffffffffffffffffffff\n      and\n        /* \"contracts/t_ref_op_NFTSwap.sol\":4070:4074  _nft */\n      dup2\n        /* \"contracts/t_ref_op_NFTSwap.sol\":4070:4082  _nft.ownerOf */\n      0xffffffffffffffffffffffffffffffffffffffff\n      and\n      0x6352211e\n        /* \"contracts/t_ref_op_NFTSwap.sol\":4083:4091  _tokenId */\n      dup6\n        /* \"contracts/t_ref_op_NFTSwap.sol\":4070:4092  _nft.ownerOf(_tokenId) */\n      mload(0x40)\n      dup3\n      0xffffffff\n      and\n      0xe0\n      shl\n      dup2\n      mstore\n      0x04\n      add\n      tag_49\n      swap2\n      swap1\n      tag_50\n      jump\t// in\n    tag_49:\n      0x20\n      mload(0x40)\n      dup1\n      dup4\n      sub\n      dup2\n      dup7\n      gas\n      staticcall\n      iszero\n      dup1\n      iszero\n      tag_52\n      jumpi\n      returndatasize\n      0x00\n      dup1\n      returndatacopy\n      revert(0x00, returndatasize)\n    tag_52:\n      pop\n      pop\n      pop\n      pop\n      mload(0x40)\n      returndatasize\n      not(0x1f)\n      0x1f\n      dup3\n      add\n      and\n      dup3\n      add\n      dup1\n      0x40\n      mstore\n      pop\n      dup2\n      add\n      swap1\n      tag_53\n      swap2\n      swap1\n      tag_54\n      jump\t// in\n    tag_53:\n        /* \"contracts/t_ref_op_NFTSwap.sol\":4070:4109  _nft.ownerOf(_tokenId) == address(this) */\n      0xffffffffffffffffffffffffffffffffffffffff\n      and\n      eq\n        /* \"contracts/t_ref_op_NFTSwap.sol\":4062:4127  require(_nft.ownerOf(_tokenId) == address(this), \"Invalid Order\") */\n      tag_55\n      jumpi\n      mload(0x40)\n      0x08c379a000000000000000000000000000000000000000000000000000000000\n      dup2\n      mstore\n      0x04\n      add\n      tag_56\n      swap1\n      tag_57\n      jump\t// in\n    tag_56:\n      mload(0x40)\n      dup1\n      swap2\n      sub\n      swap1\n      revert\n    tag_55:\n        /* \"contracts/t_ref_op_NFTSwap.sol\":4190:4194  _nft */\n      dup1\n        /* \"contracts/t_ref_op_NFTSwap.sol\":4190:4211  _nft.safeTransferFrom */\n      0xffffffffffffffffffffffffffffffffffffffff\n      and\n      0x42842e0e\n        /* \"contracts/t_ref_op_NFTSwap.sol\":4220:4224  this */\n      address\n        /* \"contracts/t_ref_op_NFTSwap.sol\":4227:4237  msg.sender */\n      caller\n        /* \"contracts/t_ref_op_NFTSwap.sol\":4239:4247  _tokenId */\n      dup7\n        /* \"contracts/t_ref_op_NFTSwap.sol\":4190:4248  _nft.safeTransferFrom(address(this), msg.sender, _tokenId) */\n      mload(0x40)\n      dup5\n      0xffffffff\n      and\n      0xe0\n      shl\n      dup2\n      mstore\n      0x04\n      add\n      tag_58\n      swap4\n      swap3\n      swap2\n      swap1\n      tag_59\n      jump\t// in\n    tag_58:\n      0x00\n      mload(0x40)\n      dup1\n      dup4\n      sub\n      dup2\n      0x00\n      dup8\n      dup1\n      extcodesize\n      iszero\n      dup1\n      iszero\n      tag_60\n      jumpi\n      0x00\n      dup1\n      revert\n    tag_60:\n      pop\n      gas\n      call\n      iszero\n      dup1\n      iszero\n      tag_62\n      jumpi\n      returndatasize\n      0x00\n      dup1\n      returndatacopy\n      revert(0x00, returndatasize)\n    tag_62:\n      pop\n      pop\n      pop\n      pop\n        /* \"contracts/t_ref_op_NFTSwap.sol\":4325:4331  _order */\n      dup2\n        /* \"contracts/t_ref_op_NFTSwap.sol\":4325:4337  _order.owner */\n      0x00\n      add\n      0x00\n      swap1\n      sload\n      swap1\n      0x0100\n      exp\n      swap1\n      div\n      0xffffffffffffffffffffffffffffffffffffffff\n      and\n        /* \"contracts/t_ref_op_NFTSwap.sol\":4317:4347  payable(_order.owner).transfer */\n      0xffffffffffffffffffffffffffffffffffffffff\n      and\n        /* \"contracts/t_ref_op_NFTSwap.sol\":4317:4361  payable(_order.owner).transfer(_order.price) */\n      0x08fc\n        /* \"contracts/t_ref_op_NFTSwap.sol\":4348:4354  _order */\n      dup4\n        /* \"contracts/t_ref_op_NFTSwap.sol\":4348:4360  _order.price */\n      0x01\n      add\n      sload\n        /* \"contracts/t_ref_op_NFTSwap.sol\":4317:4361  payable(_order.owner).transfer(_order.price) */\n      swap1\n      dup2\n      iszero\n      mul\n      swap1\n      mload(0x40)\n      0x00\n      mload(0x40)\n      dup1\n      dup4\n      sub\n      dup2\n      dup6\n      dup9\n      dup9\n      call\n      swap4\n      pop\n      pop\n      pop\n      pop\n      iszero\n      dup1\n      iszero\n      tag_64\n      jumpi\n      returndatasize\n      0x00\n      dup1\n      returndatacopy\n      revert(0x00, returndatasize)\n    tag_64:\n      pop\n        /* \"contracts/t_ref_op_NFTSwap.sol\":4380:4390  msg.sender */\n      caller\n        /* \"contracts/t_ref_op_NFTSwap.sol\":4372:4400  payable(msg.sender).transfer */\n      0xffffffffffffffffffffffffffffffffffffffff\n      and\n        /* \"contracts/t_ref_op_NFTSwap.sol\":4372:4424  payable(msg.sender).transfer(msg.value-_order.price) */\n      0x08fc\n        /* \"contracts/t_ref_op_NFTSwap.sol\":4411:4417  _order */\n      dup4\n        /* \"contracts/t_ref_op_NFTSwap.sol\":4411:4423  _order.price */\n      0x01\n      add\n      sload\n        /* \"contracts/t_ref_op_NFTSwap.sol\":4401:4410  msg.value */\n      callvalue\n        /* \"contracts/t_ref_op_NFTSwap.sol\":4401:4423  msg.value-_order.price */\n      tag_65\n      swap2\n      swap1\n      tag_66\n      jump\t// in\n    tag_65:\n        /* \"contracts/t_ref_op_NFTSwap.sol\":4372:4424  payable(msg.sender).transfer(msg.value-_order.price) */\n      swap1\n      dup2\n      iszero\n      mul\n      swap1\n      mload(0x40)\n      0x00\n      mload(0x40)\n      dup1\n      dup4\n      sub\n      dup2\n      dup6\n      dup9\n      dup9\n      call\n      swap4\n      pop\n      pop\n      pop\n      pop\n      iszero\n      dup1\n      iszero\n      tag_68\n      jumpi\n      returndatasize\n      0x00\n      dup1\n      returndatacopy\n      revert(0x00, returndatasize)\n    tag_68:\n      pop\n        /* \"contracts/t_ref_op_NFTSwap.sol\":4444:4451  nftList */\n      0x00\n        /* \"contracts/t_ref_op_NFTSwap.sol\":4444:4461  nftList[_nftAddr] */\n      dup1\n        /* \"contracts/t_ref_op_NFTSwap.sol\":4452:4460  _nftAddr */\n      dup6\n        /* \"contracts/t_ref_op_NFTSwap.sol\":4444:4461  nftList[_nftAddr] */\n      0xffffffffffffffffffffffffffffffffffffffff\n      and\n      0xffffffffffffffffffffffffffffffffffffffff\n      and\n      dup2\n      mstore\n      0x20\n      add\n      swap1\n      dup2\n      mstore\n      0x20\n      add\n      0x00\n      keccak256\n        /* \"contracts/t_ref_op_NFTSwap.sol\":4444:4471  nftList[_nftAddr][_tokenId] */\n      0x00\n        /* \"contracts/t_ref_op_NFTSwap.sol\":4462:4470  _tokenId */\n      dup5\n        /* \"contracts/t_ref_op_NFTSwap.sol\":4444:4471  nftList[_nftAddr][_tokenId] */\n      dup2\n      mstore\n      0x20\n      add\n      swap1\n      dup2\n      mstore\n      0x20\n      add\n      0x00\n      keccak256\n      0x00\n        /* \"contracts/t_ref_op_NFTSwap.sol\":4437:4471  delete nftList[_nftAddr][_tokenId] */\n      dup1\n      dup3\n      add\n      exp(0x0100, 0x00)\n      dup2\n      sload\n      swap1\n      0xffffffffffffffffffffffffffffffffffffffff\n      mul\n      not\n      and\n      swap1\n      sstore\n      0x01\n      dup3\n      add\n      0x00\n      swap1\n      sstore\n      pop\n      pop\n        /* \"contracts/t_ref_op_NFTSwap.sol\":4568:4576  _tokenId */\n      dup3\n        /* \"contracts/t_ref_op_NFTSwap.sol\":4558:4566  _nftAddr */\n      dup5\n        /* \"contracts/t_ref_op_NFTSwap.sol\":4537:4591  Purchase(msg.sender, _nftAddr, _tokenId, _order.price) */\n      0xffffffffffffffffffffffffffffffffffffffff\n      and\n        /* \"contracts/t_ref_op_NFTSwap.sol\":4546:4556  msg.sender */\n      caller\n        /* \"contracts/t_ref_op_NFTSwap.sol\":4537:4591  Purchase(msg.sender, _nftAddr, _tokenId, _order.price) */\n      0xffffffffffffffffffffffffffffffffffffffff\n      and\n      0x46661dab58311a6838247afecbee792192b4f27fc8b3e7168c66bc55ec2e404e\n        /* \"contracts/t_ref_op_NFTSwap.sol\":4578:4584  _order */\n      dup6\n        /* \"contracts/t_ref_op_NFTSwap.sol\":4578:4590  _order.price */\n      0x01\n      add\n      sload\n        /* \"contracts/t_ref_op_NFTSwap.sol\":4537:4591  Purchase(msg.sender, _nftAddr, _tokenId, _order.price) */\n      mload(0x40)\n      tag_69\n      swap2\n      swap1\n      tag_50\n      jump\t// in\n    tag_69:\n      mload(0x40)\n      dup1\n      swap2\n      sub\n      swap1\n      log4\n        /* \"contracts/t_ref_op_NFTSwap.sol\":3716:4599  {... */\n      pop\n      pop\n        /* \"contracts/t_ref_op_NFTSwap.sol\":3647:4599  function purchase(address _nftAddr, uint256 _tokenId) payable public {... */\n      pop\n      pop\n      jump\t// out\n        /* \"contracts/t_ref_op_NFTSwap.sol\":840:900  mapping(address => mapping(uint256 => Order)) public nftList */\n    tag_25:\n      mstore(0x20, 0x00)\n      dup2\n      0x00\n      mstore\n      mstore(0x20, keccak256(0x00, 0x40))\n      dup1\n      0x00\n      mstore\n      keccak256(0x00, 0x40)\n      0x00\n      swap2\n      pop\n      swap2\n      pop\n      pop\n      dup1\n      0x00\n      add\n      0x00\n      swap1\n      sload\n      swap1\n      0x0100\n      exp\n      swap1\n      div\n      0xffffffffffffffffffffffffffffffffffffffff\n      and\n      swap1\n      dup1\n      0x01\n      add\n      sload\n      swap1\n      pop\n      dup3\n      jump\t// out\n        /* \"contracts/t_ref_op_NFTSwap.sol\":2846:3532  function update(address _nftAddr, uint256 _tokenId, uint256 _newPrice) public {... */\n    tag_32:\n        /* \"contracts/t_ref_op_NFTSwap.sol\":2955:2956  0 */\n      0x00\n        /* \"contracts/t_ref_op_NFTSwap.sol\":2943:2952  _newPrice */\n      dup2\n        /* \"contracts/t_ref_op_NFTSwap.sol\":2943:2956  _newPrice > 0 */\n      gt\n        /* \"contracts/t_ref_op_NFTSwap.sol\":2935:2974  require(_newPrice > 0, \"Invalid Price\") */\n      tag_71\n      jumpi\n      mload(0x40)\n      0x08c379a000000000000000000000000000000000000000000000000000000000\n      dup2\n      mstore\n      0x04\n      add\n      tag_72\n      swap1\n      tag_45\n      jump\t// in\n    tag_72:\n      mload(0x40)\n      dup1\n      swap2\n      sub\n      swap1\n      revert\n    tag_71:\n        /* \"contracts/t_ref_op_NFTSwap.sol\":3005:3025  Order storage _order */\n      0x00\n        /* \"contracts/t_ref_op_NFTSwap.sol\":3028:3035  nftList */\n      dup1\n        /* \"contracts/t_ref_op_NFTSwap.sol\":3028:3045  nftList[_nftAddr] */\n      0x00\n        /* \"contracts/t_ref_op_NFTSwap.sol\":3036:3044  _nftAddr */\n      dup6\n        /* \"contracts/t_ref_op_NFTSwap.sol\":3028:3045  nftList[_nftAddr] */\n      0xffffffffffffffffffffffffffffffffffffffff\n      and\n      0xffffffffffffffffffffffffffffffffffffffff\n      and\n      dup2\n      mstore\n      0x20\n      add\n      swap1\n      dup2\n      mstore\n      0x20\n      add\n      0x00\n      keccak256\n        /* \"contracts/t_ref_op_NFTSwap.sol\":3028:3055  nftList[_nftAddr][_tokenId] */\n      0x00\n        /* \"contracts/t_ref_op_NFTSwap.sol\":3046:3054  _tokenId */\n      dup5\n        /* \"contracts/t_ref_op_NFTSwap.sol\":3028:3055  nftList[_nftAddr][_tokenId] */\n      dup2\n      mstore\n      0x20\n      add\n      swap1\n      dup2\n      mstore\n      0x20\n      add\n      0x00\n      keccak256\n        /* \"contracts/t_ref_op_NFTSwap.sol\":3005:3055  Order storage _order = nftList[_nftAddr][_tokenId] */\n      swap1\n      pop\n        /* \"contracts/t_ref_op_NFTSwap.sol\":3113:3123  msg.sender */\n      caller\n        /* \"contracts/t_ref_op_NFTSwap.sol\":3097:3123  _order.owner == msg.sender */\n      0xffffffffffffffffffffffffffffffffffffffff\n      and\n        /* \"contracts/t_ref_op_NFTSwap.sol\":3097:3103  _order */\n      dup2\n        /* \"contracts/t_ref_op_NFTSwap.sol\":3097:3109  _order.owner */\n      0x00\n      add\n      0x00\n      swap1\n      sload\n      swap1\n      0x0100\n      exp\n      swap1\n      div\n      0xffffffffffffffffffffffffffffffffffffffff\n      and\n        /* \"contracts/t_ref_op_NFTSwap.sol\":3097:3123  _order.owner == msg.sender */\n      0xffffffffffffffffffffffffffffffffffffffff\n      and\n      eq\n        /* \"contracts/t_ref_op_NFTSwap.sol\":3089:3137  require(_order.owner == msg.sender, \"Not Owner\") */\n      tag_73\n      jumpi\n      mload(0x40)\n      0x08c379a000000000000000000000000000000000000000000000000000000000\n      dup2\n      mstore\n      0x04\n      add\n      tag_74\n      swap1\n      tag_75\n      jump\t// in\n    tag_74:\n      mload(0x40)\n      dup1\n      swap2\n      sub\n      swap1\n      revert\n    tag_73:\n        /* \"contracts/t_ref_op_NFTSwap.sol\":3220:3232  IERC721 _nft */\n      0x00\n        /* \"contracts/t_ref_op_NFTSwap.sol\":3243:3251  _nftAddr */\n      dup5\n        /* \"contracts/t_ref_op_NFTSwap.sol\":3220:3252  IERC721 _nft = IERC721(_nftAddr) */\n      swap1\n      pop\n        /* \"contracts/t_ref_op_NFTSwap.sol\":3305:3309  this */\n      address\n        /* \"contracts/t_ref_op_NFTSwap.sol\":3271:3310  _nft.ownerOf(_tokenId) == address(this) */\n      0xffffffffffffffffffffffffffffffffffffffff\n      and\n        /* \"contracts/t_ref_op_NFTSwap.sol\":3271:3275  _nft */\n      dup2\n        /* \"contracts/t_ref_op_NFTSwap.sol\":3271:3283  _nft.ownerOf */\n      0xffffffffffffffffffffffffffffffffffffffff\n      and\n      0x6352211e\n        /* \"contracts/t_ref_op_NFTSwap.sol\":3284:3292  _tokenId */\n      dup7\n        /* \"contracts/t_ref_op_NFTSwap.sol\":3271:3293  _nft.ownerOf(_tokenId) */\n      mload(0x40)\n      dup3\n      0xffffffff\n      and\n      0xe0\n      shl\n      dup2\n      mstore\n      0x04\n      add\n      tag_76\n      swap2\n      swap1\n      tag_50\n      jump\t// in\n    tag_76:\n      0x20\n      mload(0x40)\n      dup1\n      dup4\n      sub\n      dup2\n      dup7\n      gas\n      staticcall\n      iszero\n      dup1\n      iszero\n      tag_78\n      jumpi\n      returndatasize\n      0x00\n      dup1\n      returndatacopy\n      revert(0x00, returndatasize)\n    tag_78:\n      pop\n      pop\n      pop\n      pop\n      mload(0x40)\n      returndatasize\n      not(0x1f)\n      0x1f\n      dup3\n      add\n      and\n      dup3\n      add\n      dup1\n      0x40\n      mstore\n      pop\n      dup2\n      add\n      swap1\n      tag_79\n      swap2\n      swap1\n      tag_54\n      jump\t// in\n    tag_79:\n        /* \"contracts/t_ref_op_NFTSwap.sol\":3271:3310  _nft.ownerOf(_tokenId) == address(this) */\n      0xffffffffffffffffffffffffffffffffffffffff\n      and\n      eq\n        /* \"contracts/t_ref_op_NFTSwap.sol\":3263:3328  require(_nft.ownerOf(_tokenId) == address(this), \"Invalid Order\") */\n      tag_80\n      jumpi\n      mload(0x40)\n      0x08c379a000000000000000000000000000000000000000000000000000000000\n      dup2\n      mstore\n      0x04\n      add\n      tag_81\n      swap1\n      tag_57\n      jump\t// in\n    tag_81:\n      mload(0x40)\n      dup1\n      swap2\n      sub\n      swap1\n      revert\n    tag_80:\n        /* \"contracts/t_ref_op_NFTSwap.sol\":3411:3420  _newPrice */\n      dup3\n        /* \"contracts/t_ref_op_NFTSwap.sol\":3396:3402  _order */\n      dup3\n        /* \"contracts/t_ref_op_NFTSwap.sol\":3396:3408  _order.price */\n      0x01\n      add\n        /* \"contracts/t_ref_op_NFTSwap.sol\":3396:3420  _order.price = _newPrice */\n      dup2\n      swap1\n      sstore\n      pop\n        /* \"contracts/t_ref_op_NFTSwap.sol\":3504:3512  _tokenId */\n      dup4\n        /* \"contracts/t_ref_op_NFTSwap.sol\":3494:3502  _nftAddr */\n      dup6\n        /* \"contracts/t_ref_op_NFTSwap.sol\":3475:3524  Update(msg.sender, _nftAddr, _tokenId, _newPrice) */\n      0xffffffffffffffffffffffffffffffffffffffff\n      and\n        /* \"contracts/t_ref_op_NFTSwap.sol\":3482:3492  msg.sender */\n      caller\n        /* \"contracts/t_ref_op_NFTSwap.sol\":3475:3524  Update(msg.sender, _nftAddr, _tokenId, _newPrice) */\n      0xffffffffffffffffffffffffffffffffffffffff\n      and\n      0xb7f0ca7cd5b24651672216886135b99ff40342bcf549009a4c6fc74f059fb9a0\n        /* \"contracts/t_ref_op_NFTSwap.sol\":3514:3523  _newPrice */\n      dup7\n        /* \"contracts/t_ref_op_NFTSwap.sol\":3475:3524  Update(msg.sender, _nftAddr, _tokenId, _newPrice) */\n      mload(0x40)\n      tag_82\n      swap2\n      swap1\n      tag_50\n      jump\t// in\n    tag_82:\n      mload(0x40)\n      dup1\n      swap2\n      sub\n      swap1\n      log4\n        /* \"contracts/t_ref_op_NFTSwap.sol\":2924:3532  {... */\n      pop\n      pop\n        /* \"contracts/t_ref_op_NFTSwap.sol\":2846:3532  function update(address _nftAddr, uint256 _tokenId, uint256 _newPrice) public {... */\n      pop\n      pop\n      pop\n      jump\t// out\n        /* \"contracts/t_ref_op_NFTSwap.sol\":1394:2055  function list(address _nftAddr, uint256 _tokenId, uint256 _price) public{... */\n    tag_36:\n        /* \"contracts/t_ref_op_NFTSwap.sol\":1477:1489  IERC721 _nft */\n      0x00\n        /* \"contracts/t_ref_op_NFTSwap.sol\":1500:1508  _nftAddr */\n      dup4\n        /* \"contracts/t_ref_op_NFTSwap.sol\":1477:1509  IERC721 _nft = IERC721(_nftAddr) */\n      swap1\n      pop\n        /* \"contracts/t_ref_op_NFTSwap.sol\":1601:1605  this */\n      address\n        /* \"contracts/t_ref_op_NFTSwap.sol\":1563:1606  _nft.getApproved(_tokenId) == address(this) */\n      0xffffffffffffffffffffffffffffffffffffffff\n      and\n        /* \"contracts/t_ref_op_NFTSwap.sol\":1563:1567  _nft */\n      dup2\n        /* \"contracts/t_ref_op_NFTSwap.sol\":1563:1579  _nft.getApproved */\n      0xffffffffffffffffffffffffffffffffffffffff\n      and\n      0x081812fc\n        /* \"contracts/t_ref_op_NFTSwap.sol\":1580:1588  _tokenId */\n      dup6\n        /* \"contracts/t_ref_op_NFTSwap.sol\":1563:1589  _nft.getApproved(_tokenId) */\n      mload(0x40)\n      dup3\n      0xffffffff\n      and\n      0xe0\n      shl\n      dup2\n      mstore\n      0x04\n      add\n      tag_84\n      swap2\n      swap1\n      tag_50\n      jump\t// in\n    tag_84:\n      0x20\n      mload(0x40)\n      dup1\n      dup4\n      sub\n      dup2\n      dup7\n      gas\n      staticcall\n      iszero\n      dup1\n      iszero\n      tag_86\n      jumpi\n      returndatasize\n      0x00\n      dup1\n      returndatacopy\n      revert(0x00, returndatasize)\n    tag_86:\n      pop\n      pop\n      pop\n      pop\n      mload(0x40)\n      returndatasize\n      not(0x1f)\n      0x1f\n      dup3\n      add\n      and\n      dup3\n      add\n      dup1\n      0x40\n      mstore\n      pop\n      dup2\n      add\n      swap1\n      tag_87\n      swap2\n      swap1\n      tag_54\n      jump\t// in\n    tag_87:\n        /* \"contracts/t_ref_op_NFTSwap.sol\":1563:1606  _nft.getApproved(_tokenId) == address(this) */\n      0xffffffffffffffffffffffffffffffffffffffff\n      and\n      eq\n        /* \"contracts/t_ref_op_NFTSwap.sol\":1555:1624  require(_nft.getApproved(_tokenId) == address(this), \"Need Approval\") */\n      tag_88\n      jumpi\n      mload(0x40)\n      0x08c379a000000000000000000000000000000000000000000000000000000000\n      dup2\n      mstore\n      0x04\n      add\n      tag_89\n      swap1\n      tag_90\n      jump\t// in\n    tag_89:\n      mload(0x40)\n      dup1\n      swap2\n      sub\n      swap1\n      revert\n    tag_88:\n        /* \"contracts/t_ref_op_NFTSwap.sol\":1674:1675  0 */\n      0x00\n        /* \"contracts/t_ref_op_NFTSwap.sol\":1665:1671  _price */\n      dup3\n        /* \"contracts/t_ref_op_NFTSwap.sol\":1665:1675  _price > 0 */\n      gt\n        /* \"contracts/t_ref_op_NFTSwap.sol\":1657:1676  require(_price > 0) */\n      tag_91\n      jumpi\n      0x00\n      dup1\n      revert\n    tag_91:\n        /* \"contracts/t_ref_op_NFTSwap.sol\":1706:1726  Order storage _order */\n      0x00\n        /* \"contracts/t_ref_op_NFTSwap.sol\":1729:1736  nftList */\n      dup1\n        /* \"contracts/t_ref_op_NFTSwap.sol\":1729:1746  nftList[_nftAddr] */\n      0x00\n        /* \"contracts/t_ref_op_NFTSwap.sol\":1737:1745  _nftAddr */\n      dup7\n        /* \"contracts/t_ref_op_NFTSwap.sol\":1729:1746  nftList[_nftAddr] */\n      0xffffffffffffffffffffffffffffffffffffffff\n      and\n      0xffffffffffffffffffffffffffffffffffffffff\n      and\n      dup2\n      mstore\n      0x20\n      add\n      swap1\n      dup2\n      mstore\n      0x20\n      add\n      0x00\n      keccak256\n        /* \"contracts/t_ref_op_NFTSwap.sol\":1729:1756  nftList[_nftAddr][_tokenId] */\n      0x00\n        /* \"contracts/t_ref_op_NFTSwap.sol\":1747:1755  _tokenId */\n      dup6\n        /* \"contracts/t_ref_op_NFTSwap.sol\":1729:1756  nftList[_nftAddr][_tokenId] */\n      dup2\n      mstore\n      0x20\n      add\n      swap1\n      dup2\n      mstore\n      0x20\n      add\n      0x00\n      keccak256\n        /* \"contracts/t_ref_op_NFTSwap.sol\":1706:1756  Order storage _order = nftList[_nftAddr][_tokenId] */\n      swap1\n      pop\n        /* \"contracts/t_ref_op_NFTSwap.sol\":1811:1821  msg.sender */\n      caller\n        /* \"contracts/t_ref_op_NFTSwap.sol\":1796:1802  _order */\n      dup2\n        /* \"contracts/t_ref_op_NFTSwap.sol\":1796:1808  _order.owner */\n      0x00\n      add\n      0x00\n        /* \"contracts/t_ref_op_NFTSwap.sol\":1796:1821  _order.owner = msg.sender */\n      0x0100\n      exp\n      dup2\n      sload\n      dup2\n      0xffffffffffffffffffffffffffffffffffffffff\n      mul\n      not\n      and\n      swap1\n      dup4\n      0xffffffffffffffffffffffffffffffffffffffff\n      and\n      mul\n      or\n      swap1\n      sstore\n      pop\n        /* \"contracts/t_ref_op_NFTSwap.sol\":1847:1853  _price */\n      dup3\n        /* \"contracts/t_ref_op_NFTSwap.sol\":1832:1838  _order */\n      dup2\n        /* \"contracts/t_ref_op_NFTSwap.sol\":1832:1844  _order.price */\n      0x01\n      add\n        /* \"contracts/t_ref_op_NFTSwap.sol\":1832:1853  _order.price = _price */\n      dup2\n      swap1\n      sstore\n      pop\n        /* \"contracts/t_ref_op_NFTSwap.sol\":1898:1902  _nft */\n      dup2\n        /* \"contracts/t_ref_op_NFTSwap.sol\":1898:1919  _nft.safeTransferFrom */\n      0xffffffffffffffffffffffffffffffffffffffff\n      and\n      0x42842e0e\n        /* \"contracts/t_ref_op_NFTSwap.sol\":1920:1930  msg.sender */\n      caller\n        /* \"contracts/t_ref_op_NFTSwap.sol\":1940:1944  this */\n      address\n        /* \"contracts/t_ref_op_NFTSwap.sol\":1947:1955  _tokenId */\n      dup8\n        /* \"contracts/t_ref_op_NFTSwap.sol\":1898:1956  _nft.safeTransferFrom(msg.sender, address(this), _tokenId) */\n      mload(0x40)\n      dup5\n      0xffffffff\n      and\n      0xe0\n      shl\n      dup2\n      mstore\n      0x04\n      add\n      tag_92\n      swap4\n      swap3\n      swap2\n      swap1\n      tag_59\n      jump\t// in\n    tag_92:\n      0x00\n      mload(0x40)\n      dup1\n      dup4\n      sub\n      dup2\n      0x00\n      dup8\n      dup1\n      extcodesize\n      iszero\n      dup1\n      iszero\n      tag_93\n      jumpi\n      0x00\n      dup1\n      revert\n    tag_93:\n      pop\n      gas\n      call\n      iszero\n      dup1\n      iszero\n      tag_95\n      jumpi\n      returndatasize\n      0x00\n      dup1\n      returndatacopy\n      revert(0x00, returndatasize)\n    tag_95:\n      pop\n      pop\n      pop\n      pop\n        /* \"contracts/t_ref_op_NFTSwap.sol\":2030:2038  _tokenId */\n      dup4\n        /* \"contracts/t_ref_op_NFTSwap.sol\":2020:2028  _nftAddr */\n      dup6\n        /* \"contracts/t_ref_op_NFTSwap.sol\":2003:2047  List(msg.sender, _nftAddr, _tokenId, _price) */\n      0xffffffffffffffffffffffffffffffffffffffff\n      and\n        /* \"contracts/t_ref_op_NFTSwap.sol\":2008:2018  msg.sender */\n      caller\n        /* \"contracts/t_ref_op_NFTSwap.sol\":2003:2047  List(msg.sender, _nftAddr, _tokenId, _price) */\n      0xffffffffffffffffffffffffffffffffffffffff\n      and\n      0xedbdf022944a3291f4b30148903a84720506f48e10478ec5812e5caf30e1fab0\n        /* \"contracts/t_ref_op_NFTSwap.sol\":2040:2046  _price */\n      dup7\n        /* \"contracts/t_ref_op_NFTSwap.sol\":2003:2047  List(msg.sender, _nftAddr, _tokenId, _price) */\n      mload(0x40)\n      tag_96\n      swap2\n      swap1\n      tag_50\n      jump\t// in\n    tag_96:\n      mload(0x40)\n      dup1\n      swap2\n      sub\n      swap1\n      log4\n        /* \"contracts/t_ref_op_NFTSwap.sol\":1466:2055  {... */\n      pop\n      pop\n        /* \"contracts/t_ref_op_NFTSwap.sol\":1394:2055  function list(address _nftAddr, uint256 _tokenId, uint256 _price) public{... */\n      pop\n      pop\n      pop\n      jump\t// out\n        /* \"contracts/t_ref_op_NFTSwap.sol\":2104:2787  function revoke(address _nftAddr, uint256 _tokenId) public {... */\n    tag_40:\n        /* \"contracts/t_ref_op_NFTSwap.sol\":2174:2194  Order storage _order */\n      0x00\n        /* \"contracts/t_ref_op_NFTSwap.sol\":2197:2204  nftList */\n      dup1\n        /* \"contracts/t_ref_op_NFTSwap.sol\":2197:2214  nftList[_nftAddr] */\n      0x00\n        /* \"contracts/t_ref_op_NFTSwap.sol\":2205:2213  _nftAddr */\n      dup5\n        /* \"contracts/t_ref_op_NFTSwap.sol\":2197:2214  nftList[_nftAddr] */\n      0xffffffffffffffffffffffffffffffffffffffff\n      and\n      0xffffffffffffffffffffffffffffffffffffffff\n      and\n      dup2\n      mstore\n      0x20\n      add\n      swap1\n      dup2\n      mstore\n      0x20\n      add\n      0x00\n      keccak256\n        /* \"contracts/t_ref_op_NFTSwap.sol\":2197:2224  nftList[_nftAddr][_tokenId] */\n      0x00\n        /* \"contracts/t_ref_op_NFTSwap.sol\":2215:2223  _tokenId */\n      dup4\n        /* \"contracts/t_ref_op_NFTSwap.sol\":2197:2224  nftList[_nftAddr][_tokenId] */\n      dup2\n      mstore\n      0x20\n      add\n      swap1\n      dup2\n      mstore\n      0x20\n      add\n      0x00\n      keccak256\n        /* \"contracts/t_ref_op_NFTSwap.sol\":2174:2224  Order storage _order = nftList[_nftAddr][_tokenId] */\n      swap1\n      pop\n        /* \"contracts/t_ref_op_NFTSwap.sol\":2282:2292  msg.sender */\n      caller\n        /* \"contracts/t_ref_op_NFTSwap.sol\":2266:2292  _order.owner == msg.sender */\n      0xffffffffffffffffffffffffffffffffffffffff\n      and\n        /* \"contracts/t_ref_op_NFTSwap.sol\":2266:2272  _order */\n      dup2\n        /* \"contracts/t_ref_op_NFTSwap.sol\":2266:2278  _order.owner */\n      0x00\n      add\n      0x00\n      swap1\n      sload\n      swap1\n      0x0100\n      exp\n      swap1\n      div\n      0xffffffffffffffffffffffffffffffffffffffff\n      and\n        /* \"contracts/t_ref_op_NFTSwap.sol\":2266:2292  _order.owner == msg.sender */\n      0xffffffffffffffffffffffffffffffffffffffff\n      and\n      eq\n        /* \"contracts/t_ref_op_NFTSwap.sol\":2258:2306  require(_order.owner == msg.sender, \"Not Owner\") */\n      tag_98\n      jumpi\n      mload(0x40)\n      0x08c379a000000000000000000000000000000000000000000000000000000000\n      dup2\n      mstore\n      0x04\n      add\n      tag_99\n      swap1\n      tag_75\n      jump\t// in\n    tag_99:\n      mload(0x40)\n      dup1\n      swap2\n      sub\n      swap1\n      revert\n    tag_98:\n        /* \"contracts/t_ref_op_NFTSwap.sol\":2389:2401  IERC721 _nft */\n      0x00\n        /* \"contracts/t_ref_op_NFTSwap.sol\":2412:2420  _nftAddr */\n      dup4\n        /* \"contracts/t_ref_op_NFTSwap.sol\":2389:2421  IERC721 _nft = IERC721(_nftAddr) */\n      swap1\n      pop\n        /* \"contracts/t_ref_op_NFTSwap.sol\":2474:2478  this */\n      address\n        /* \"contracts/t_ref_op_NFTSwap.sol\":2440:2479  _nft.ownerOf(_tokenId) == address(this) */\n      0xffffffffffffffffffffffffffffffffffffffff\n      and\n        /* \"contracts/t_ref_op_NFTSwap.sol\":2440:2444  _nft */\n      dup2\n        /* \"contracts/t_ref_op_NFTSwap.sol\":2440:2452  _nft.ownerOf */\n      0xffffffffffffffffffffffffffffffffffffffff\n      and\n      0x6352211e\n        /* \"contracts/t_ref_op_NFTSwap.sol\":2453:2461  _tokenId */\n      dup6\n        /* \"contracts/t_ref_op_NFTSwap.sol\":2440:2462  _nft.ownerOf(_tokenId) */\n      mload(0x40)\n      dup3\n      0xffffffff\n      and\n      0xe0\n      shl\n      dup2\n      mstore\n      0x04\n      add\n      tag_100\n      swap2\n      swap1\n      tag_50\n      jump\t// in\n    tag_100:\n      0x20\n      mload(0x40)\n      dup1\n      dup4\n      sub\n      dup2\n      dup7\n      gas\n      staticcall\n      iszero\n      dup1\n      iszero\n      tag_102\n      jumpi\n      returndatasize\n      0x00\n      dup1\n      returndatacopy\n      revert(0x00, returndatasize)\n    tag_102:\n      pop\n      pop\n      pop\n      pop\n      mload(0x40)\n      returndatasize\n      not(0x1f)\n      0x1f\n      dup3\n      add\n      and\n      dup3\n      add\n      dup1\n      0x40\n      mstore\n      pop\n      dup2\n      add\n      swap1\n      tag_103\n      swap2\n      swap1\n      tag_54\n      jump\t// in\n    tag_103:\n        /* \"contracts/t_ref_op_NFTSwap.sol\":2440:2479  _nft.ownerOf(_tokenId) == address(this) */\n      0xffffffffffffffffffffffffffffffffffffffff\n      and\n      eq\n        /* \"contracts/t_ref_op_NFTSwap.sol\":2432:2497  require(_nft.ownerOf(_tokenId) == address(this), \"Invalid Order\") */\n      tag_104\n      jumpi\n      mload(0x40)\n      0x08c379a000000000000000000000000000000000000000000000000000000000\n      dup2\n      mstore\n      0x04\n      add\n      tag_105\n      swap1\n      tag_57\n      jump\t// in\n    tag_105:\n      mload(0x40)\n      dup1\n      swap2\n      sub\n      swap1\n      revert\n    tag_104:\n        /* \"contracts/t_ref_op_NFTSwap.sol\":2568:2572  _nft */\n      dup1\n        /* \"contracts/t_ref_op_NFTSwap.sol\":2568:2589  _nft.safeTransferFrom */\n      0xffffffffffffffffffffffffffffffffffffffff\n      and\n      0x42842e0e\n        /* \"contracts/t_ref_op_NFTSwap.sol\":2598:2602  this */\n      address\n        /* \"contracts/t_ref_op_NFTSwap.sol\":2605:2615  msg.sender */\n      caller\n        /* \"contracts/t_ref_op_NFTSwap.sol\":2617:2625  _tokenId */\n      dup7\n        /* \"contracts/t_ref_op_NFTSwap.sol\":2568:2626  _nft.safeTransferFrom(address(this), msg.sender, _tokenId) */\n      mload(0x40)\n      dup5\n      0xffffffff\n      and\n      0xe0\n      shl\n      dup2\n      mstore\n      0x04\n      add\n      tag_106\n      swap4\n      swap3\n      swap2\n      swap1\n      tag_59\n      jump\t// in\n    tag_106:\n      0x00\n      mload(0x40)\n      dup1\n      dup4\n      sub\n      dup2\n      0x00\n      dup8\n      dup1\n      extcodesize\n      iszero\n      dup1\n      iszero\n      tag_107\n      jumpi\n      0x00\n      dup1\n      revert\n    tag_107:\n      pop\n      gas\n      call\n      iszero\n      dup1\n      iszero\n      tag_109\n      jumpi\n      returndatasize\n      0x00\n      dup1\n      returndatacopy\n      revert(0x00, returndatasize)\n    tag_109:\n      pop\n      pop\n      pop\n      pop\n        /* \"contracts/t_ref_op_NFTSwap.sol\":2644:2651  nftList */\n      0x00\n        /* \"contracts/t_ref_op_NFTSwap.sol\":2644:2661  nftList[_nftAddr] */\n      dup1\n        /* \"contracts/t_ref_op_NFTSwap.sol\":2652:2660  _nftAddr */\n      dup6\n        /* \"contracts/t_ref_op_NFTSwap.sol\":2644:2661  nftList[_nftAddr] */\n      0xffffffffffffffffffffffffffffffffffffffff\n      and\n      0xffffffffffffffffffffffffffffffffffffffff\n      and\n      dup2\n      mstore\n      0x20\n      add\n      swap1\n      dup2\n      mstore\n      0x20\n      add\n      0x00\n      keccak256\n        /* \"contracts/t_ref_op_NFTSwap.sol\":2644:2671  nftList[_nftAddr][_tokenId] */\n      0x00\n        /* \"contracts/t_ref_op_NFTSwap.sol\":2662:2670  _tokenId */\n      dup5\n        /* \"contracts/t_ref_op_NFTSwap.sol\":2644:2671  nftList[_nftAddr][_tokenId] */\n      dup2\n      mstore\n      0x20\n      add\n      swap1\n      dup2\n      mstore\n      0x20\n      add\n      0x00\n      keccak256\n      0x00\n        /* \"contracts/t_ref_op_NFTSwap.sol\":2637:2671  delete nftList[_nftAddr][_tokenId] */\n      dup1\n      dup3\n      add\n      exp(0x0100, 0x00)\n      dup2\n      sload\n      swap1\n      0xffffffffffffffffffffffffffffffffffffffff\n      mul\n      not\n      and\n      swap1\n      sstore\n      0x01\n      dup3\n      add\n      0x00\n      swap1\n      sstore\n      pop\n      pop\n        /* \"contracts/t_ref_op_NFTSwap.sol\":2770:2778  _tokenId */\n      dup3\n        /* \"contracts/t_ref_op_NFTSwap.sol\":2760:2768  _nftAddr */\n      dup5\n        /* \"contracts/t_ref_op_NFTSwap.sol\":2741:2779  Revoke(msg.sender, _nftAddr, _tokenId) */\n      0xffffffffffffffffffffffffffffffffffffffff\n      and\n        /* \"contracts/t_ref_op_NFTSwap.sol\":2748:2758  msg.sender */\n      caller\n        /* \"contracts/t_ref_op_NFTSwap.sol\":2741:2779  Revoke(msg.sender, _nftAddr, _tokenId) */\n      0xffffffffffffffffffffffffffffffffffffffff\n      and\n      0xb698e31a2abee5824d0d7bcfd2339aead7f9e9ae413fba50bf554ff3fa470b7b\n      mload(0x40)\n      mload(0x40)\n      dup1\n      swap2\n      sub\n      swap1\n      log4\n        /* \"contracts/t_ref_op_NFTSwap.sol\":2163:2787  {... */\n      pop\n      pop\n        /* \"contracts/t_ref_op_NFTSwap.sol\":2104:2787  function revoke(address _nftAddr, uint256 _tokenId) public {... */\n      pop\n      pop\n      jump\t// out\n        /* \"#utility.yul\":88:205   */\n    tag_111:\n        /* \"#utility.yul\":197:198   */\n      0x00\n        /* \"#utility.yul\":194:195   */\n      dup1\n        /* \"#utility.yul\":187:199   */\n      revert\n        /* \"#utility.yul\":211:328   */\n    tag_112:\n        /* \"#utility.yul\":320:321   */\n      0x00\n        /* \"#utility.yul\":317:318   */\n      dup1\n        /* \"#utility.yul\":310:322   */\n      revert\n        /* \"#utility.yul\":334:460   */\n    tag_113:\n        /* \"#utility.yul\":371:378   */\n      0x00\n        /* \"#utility.yul\":411:453   */\n      0xffffffffffffffffffffffffffffffffffffffff\n        /* \"#utility.yul\":404:409   */\n      dup3\n        /* \"#utility.yul\":400:454   */\n      and\n        /* \"#utility.yul\":389:454   */\n      swap1\n      pop\n        /* \"#utility.yul\":334:460   */\n      swap2\n      swap1\n      pop\n      jump\t// out\n        /* \"#utility.yul\":466:562   */\n    tag_114:\n        /* \"#utility.yul\":503:510   */\n      0x00\n        /* \"#utility.yul\":532:556   */\n      tag_147\n        /* \"#utility.yul\":550:555   */\n      dup3\n        /* \"#utility.yul\":532:556   */\n      tag_113\n      jump\t// in\n    tag_147:\n        /* \"#utility.yul\":521:556   */\n      swap1\n      pop\n        /* \"#utility.yul\":466:562   */\n      swap2\n      swap1\n      pop\n      jump\t// out\n        /* \"#utility.yul\":568:690   */\n    tag_115:\n        /* \"#utility.yul\":641:665   */\n      tag_149\n        /* \"#utility.yul\":659:664   */\n      dup2\n        /* \"#utility.yul\":641:665   */\n      tag_114\n      jump\t// in\n    tag_149:\n        /* \"#utility.yul\":634:639   */\n      dup2\n        /* \"#utility.yul\":631:666   */\n      eq\n        /* \"#utility.yul\":621:684   */\n      tag_150\n      jumpi\n        /* \"#utility.yul\":680:681   */\n      0x00\n        /* \"#utility.yul\":677:678   */\n      dup1\n        /* \"#utility.yul\":670:682   */\n      revert\n        /* \"#utility.yul\":621:684   */\n    tag_150:\n        /* \"#utility.yul\":568:690   */\n      pop\n      jump\t// out\n        /* \"#utility.yul\":696:835   */\n    tag_116:\n        /* \"#utility.yul\":742:747   */\n      0x00\n        /* \"#utility.yul\":780:786   */\n      dup2\n        /* \"#utility.yul\":767:787   */\n      calldataload\n        /* \"#utility.yul\":758:787   */\n      swap1\n      pop\n        /* \"#utility.yul\":796:829   */\n      tag_152\n        /* \"#utility.yul\":823:828   */\n      dup2\n        /* \"#utility.yul\":796:829   */\n      tag_115\n      jump\t// in\n    tag_152:\n        /* \"#utility.yul\":696:835   */\n      swap3\n      swap2\n      pop\n      pop\n      jump\t// out\n        /* \"#utility.yul\":841:918   */\n    tag_117:\n        /* \"#utility.yul\":878:885   */\n      0x00\n        /* \"#utility.yul\":907:912   */\n      dup2\n        /* \"#utility.yul\":896:912   */\n      swap1\n      pop\n        /* \"#utility.yul\":841:918   */\n      swap2\n      swap1\n      pop\n      jump\t// out\n        /* \"#utility.yul\":924:1046   */\n    tag_118:\n        /* \"#utility.yul\":997:1021   */\n      tag_155\n        /* \"#utility.yul\":1015:1020   */\n      dup2\n        /* \"#utility.yul\":997:1021   */\n      tag_117\n      jump\t// in\n    tag_155:\n        /* \"#utility.yul\":990:995   */\n      dup2\n        /* \"#utility.yul\":987:1022   */\n      eq\n        /* \"#utility.yul\":977:1040   */\n      tag_156\n      jumpi\n        /* \"#utility.yul\":1036:1037   */\n      0x00\n        /* \"#utility.yul\":1033:1034   */\n      dup1\n        /* \"#utility.yul\":1026:1038   */\n      revert\n        /* \"#utility.yul\":977:1040   */\n    tag_156:\n        /* \"#utility.yul\":924:1046   */\n      pop\n      jump\t// out\n        /* \"#utility.yul\":1052:1191   */\n    tag_119:\n        /* \"#utility.yul\":1098:1103   */\n      0x00\n        /* \"#utility.yul\":1136:1142   */\n      dup2\n        /* \"#utility.yul\":1123:1143   */\n      calldataload\n        /* \"#utility.yul\":1114:1143   */\n      swap1\n      pop\n        /* \"#utility.yul\":1152:1185   */\n      tag_158\n        /* \"#utility.yul\":1179:1184   */\n      dup2\n        /* \"#utility.yul\":1152:1185   */\n      tag_118\n      jump\t// in\n    tag_158:\n        /* \"#utility.yul\":1052:1191   */\n      swap3\n      swap2\n      pop\n      pop\n      jump\t// out\n        /* \"#utility.yul\":1197:1314   */\n    tag_120:\n        /* \"#utility.yul\":1306:1307   */\n      0x00\n        /* \"#utility.yul\":1303:1304   */\n      dup1\n        /* \"#utility.yul\":1296:1308   */\n      revert\n        /* \"#utility.yul\":1320:1437   */\n    tag_121:\n        /* \"#utility.yul\":1429:1430   */\n      0x00\n        /* \"#utility.yul\":1426:1427   */\n      dup1\n        /* \"#utility.yul\":1419:1431   */\n      revert\n        /* \"#utility.yul\":1443:1560   */\n    tag_122:\n        /* \"#utility.yul\":1552:1553   */\n      0x00\n        /* \"#utility.yul\":1549:1550   */\n      dup1\n        /* \"#utility.yul\":1542:1554   */\n      revert\n        /* \"#utility.yul\":1579:2131   */\n    tag_123:\n        /* \"#utility.yul\":1636:1644   */\n      0x00\n        /* \"#utility.yul\":1646:1652   */\n      dup1\n        /* \"#utility.yul\":1696:1699   */\n      dup4\n        /* \"#utility.yul\":1689:1693   */\n      0x1f\n        /* \"#utility.yul\":1681:1687   */\n      dup5\n        /* \"#utility.yul\":1677:1694   */\n      add\n        /* \"#utility.yul\":1673:1700   */\n      slt\n        /* \"#utility.yul\":1663:1785   */\n      tag_163\n      jumpi\n        /* \"#utility.yul\":1704:1783   */\n      tag_164\n      tag_120\n      jump\t// in\n    tag_164:\n        /* \"#utility.yul\":1663:1785   */\n    tag_163:\n        /* \"#utility.yul\":1817:1823   */\n      dup3\n        /* \"#utility.yul\":1804:1824   */\n      calldataload\n        /* \"#utility.yul\":1794:1824   */\n      swap1\n      pop\n        /* \"#utility.yul\":1847:1865   */\n      0xffffffffffffffff\n        /* \"#utility.yul\":1839:1845   */\n      dup2\n        /* \"#utility.yul\":1836:1866   */\n      gt\n        /* \"#utility.yul\":1833:1950   */\n      iszero\n      tag_165\n      jumpi\n        /* \"#utility.yul\":1869:1948   */\n      tag_166\n      tag_121\n      jump\t// in\n    tag_166:\n        /* \"#utility.yul\":1833:1950   */\n    tag_165:\n        /* \"#utility.yul\":1983:1987   */\n      0x20\n        /* \"#utility.yul\":1975:1981   */\n      dup4\n        /* \"#utility.yul\":1971:1988   */\n      add\n        /* \"#utility.yul\":1959:1988   */\n      swap2\n      pop\n        /* \"#utility.yul\":2037:2040   */\n      dup4\n        /* \"#utility.yul\":2029:2033   */\n      0x01\n        /* \"#utility.yul\":2021:2027   */\n      dup3\n        /* \"#utility.yul\":2017:2034   */\n      mul\n        /* \"#utility.yul\":2007:2015   */\n      dup4\n        /* \"#utility.yul\":2003:2035   */\n      add\n        /* \"#utility.yul\":2000:2041   */\n      gt\n        /* \"#utility.yul\":1997:2125   */\n      iszero\n      tag_167\n      jumpi\n        /* \"#utility.yul\":2044:2123   */\n      tag_168\n      tag_122\n      jump\t// in\n    tag_168:\n        /* \"#utility.yul\":1997:2125   */\n    tag_167:\n        /* \"#utility.yul\":1579:2131   */\n      swap3\n      pop\n      swap3\n      swap1\n      pop\n      jump\t// out\n        /* \"#utility.yul\":2137:3100   */\n    tag_14:\n        /* \"#utility.yul\":2234:2240   */\n      0x00\n        /* \"#utility.yul\":2242:2248   */\n      dup1\n        /* \"#utility.yul\":2250:2256   */\n      0x00\n        /* \"#utility.yul\":2258:2264   */\n      dup1\n        /* \"#utility.yul\":2266:2272   */\n      0x00\n        /* \"#utility.yul\":2315:2318   */\n      0x80\n        /* \"#utility.yul\":2303:2312   */\n      dup7\n        /* \"#utility.yul\":2294:2301   */\n      dup9\n        /* \"#utility.yul\":2290:2313   */\n      sub\n        /* \"#utility.yul\":2286:2319   */\n      slt\n        /* \"#utility.yul\":2283:2403   */\n      iszero\n      tag_170\n      jumpi\n        /* \"#utility.yul\":2322:2401   */\n      tag_171\n      tag_111\n      jump\t// in\n    tag_171:\n        /* \"#utility.yul\":2283:2403   */\n    tag_170:\n        /* \"#utility.yul\":2442:2443   */\n      0x00\n        /* \"#utility.yul\":2467:2520   */\n      tag_172\n        /* \"#utility.yul\":2512:2519   */\n      dup9\n        /* \"#utility.yul\":2503:2509   */\n      dup3\n        /* \"#utility.yul\":2492:2501   */\n      dup10\n        /* \"#utility.yul\":2488:2510   */\n      add\n        /* \"#utility.yul\":2467:2520   */\n      tag_116\n      jump\t// in\n    tag_172:\n        /* \"#utility.yul\":2457:2520   */\n      swap6\n      pop\n        /* \"#utility.yul\":2413:2530   */\n      pop\n        /* \"#utility.yul\":2569:2571   */\n      0x20\n        /* \"#utility.yul\":2595:2648   */\n      tag_173\n        /* \"#utility.yul\":2640:2647   */\n      dup9\n        /* \"#utility.yul\":2631:2637   */\n      dup3\n        /* \"#utility.yul\":2620:2629   */\n      dup10\n        /* \"#utility.yul\":2616:2638   */\n      add\n        /* \"#utility.yul\":2595:2648   */\n      tag_116\n      jump\t// in\n    tag_173:\n        /* \"#utility.yul\":2585:2648   */\n      swap5\n      pop\n        /* \"#utility.yul\":2540:2658   */\n      pop\n        /* \"#utility.yul\":2697:2699   */\n      0x40\n        /* \"#utility.yul\":2723:2776   */\n      tag_174\n        /* \"#utility.yul\":2768:2775   */\n      dup9\n        /* \"#utility.yul\":2759:2765   */\n      dup3\n        /* \"#utility.yul\":2748:2757   */\n      dup10\n        /* \"#utility.yul\":2744:2766   */\n      add\n        /* \"#utility.yul\":2723:2776   */\n      tag_119\n      jump\t// in\n    tag_174:\n        /* \"#utility.yul\":2713:2776   */\n      swap4\n      pop\n        /* \"#utility.yul\":2668:2786   */\n      pop\n        /* \"#utility.yul\":2853:2855   */\n      0x60\n        /* \"#utility.yul\":2842:2851   */\n      dup7\n        /* \"#utility.yul\":2838:2856   */\n      add\n        /* \"#utility.yul\":2825:2857   */\n      calldataload\n        /* \"#utility.yul\":2884:2902   */\n      0xffffffffffffffff\n        /* \"#utility.yul\":2876:2882   */\n      dup2\n        /* \"#utility.yul\":2873:2903   */\n      gt\n        /* \"#utility.yul\":2870:2987   */\n      iszero\n      tag_175\n      jumpi\n        /* \"#utility.yul\":2906:2985   */\n      tag_176\n      tag_112\n      jump\t// in\n    tag_176:\n        /* \"#utility.yul\":2870:2987   */\n    tag_175:\n        /* \"#utility.yul\":3019:3083   */\n      tag_177\n        /* \"#utility.yul\":3075:3082   */\n      dup9\n        /* \"#utility.yul\":3066:3072   */\n      dup3\n        /* \"#utility.yul\":3055:3064   */\n      dup10\n        /* \"#utility.yul\":3051:3073   */\n      add\n        /* \"#utility.yul\":3019:3083   */\n      tag_123\n      jump\t// in\n    tag_177:\n        /* \"#utility.yul\":3001:3083   */\n      swap3\n      pop\n      swap3\n      pop\n        /* \"#utility.yul\":2796:3093   */\n      pop\n        /* \"#utility.yul\":2137:3100   */\n      swap3\n      swap6\n      pop\n      swap3\n      swap6\n      swap1\n      swap4\n      pop\n      jump\t// out\n        /* \"#utility.yul\":3106:3255   */\n    tag_124:\n        /* \"#utility.yul\":3142:3149   */\n      0x00\n        /* \"#utility.yul\":3182:3248   */\n      0xffffffff00000000000000000000000000000000000000000000000000000000\n        /* \"#utility.yul\":3175:3180   */\n      dup3\n        /* \"#utility.yul\":3171:3249   */\n      and\n        /* \"#utility.yul\":3160:3249   */\n      swap1\n      pop\n        /* \"#utility.yul\":3106:3255   */\n      swap2\n      swap1\n      pop\n      jump\t// out\n        /* \"#utility.yul\":3261:3376   */\n    tag_125:\n        /* \"#utility.yul\":3346:3369   */\n      tag_180\n        /* \"#utility.yul\":3363:3368   */\n      dup2\n        /* \"#utility.yul\":3346:3369   */\n      tag_124\n      jump\t// in\n    tag_180:\n        /* \"#utility.yul\":3341:3344   */\n      dup3\n        /* \"#utility.yul\":3334:3370   */\n      mstore\n        /* \"#utility.yul\":3261:3376   */\n      pop\n      pop\n      jump\t// out\n        /* \"#utility.yul\":3382:3600   */\n    tag_17:\n        /* \"#utility.yul\":3473:3477   */\n      0x00\n        /* \"#utility.yul\":3511:3513   */\n      0x20\n        /* \"#utility.yul\":3500:3509   */\n      dup3\n        /* \"#utility.yul\":3496:3514   */\n      add\n        /* \"#utility.yul\":3488:3514   */\n      swap1\n      pop\n        /* \"#utility.yul\":3524:3593   */\n      tag_182\n        /* \"#utility.yul\":3590:3591   */\n      0x00\n        /* \"#utility.yul\":3579:3588   */\n      dup4\n        /* \"#utility.yul\":3575:3592   */\n      add\n        /* \"#utility.yul\":3566:3572   */\n      dup5\n        /* \"#utility.yul\":3524:3593   */\n      tag_125\n      jump\t// in\n    tag_182:\n        /* \"#utility.yul\":3382:3600   */\n      swap3\n      swap2\n      pop\n      pop\n      jump\t// out\n        /* \"#utility.yul\":3606:4080   */\n    tag_20:\n        /* \"#utility.yul\":3674:3680   */\n      0x00\n        /* \"#utility.yul\":3682:3688   */\n      dup1\n        /* \"#utility.yul\":3731:3733   */\n      0x40\n        /* \"#utility.yul\":3719:3728   */\n      dup4\n        /* \"#utility.yul\":3710:3717   */\n      dup6\n        /* \"#utility.yul\":3706:3729   */\n      sub\n        /* \"#utility.yul\":3702:3734   */\n      slt\n        /* \"#utility.yul\":3699:3818   */\n      iszero\n      tag_184\n      jumpi\n        /* \"#utility.yul\":3737:3816   */\n      tag_185\n      tag_111\n      jump\t// in\n    tag_185:\n        /* \"#utility.yul\":3699:3818   */\n    tag_184:\n        /* \"#utility.yul\":3857:3858   */\n      0x00\n        /* \"#utility.yul\":3882:3935   */\n      tag_186\n        /* \"#utility.yul\":3927:3934   */\n      dup6\n        /* \"#utility.yul\":3918:3924   */\n      dup3\n        /* \"#utility.yul\":3907:3916   */\n      dup7\n        /* \"#utility.yul\":3903:3925   */\n      add\n        /* \"#utility.yul\":3882:3935   */\n      tag_116\n      jump\t// in\n    tag_186:\n        /* \"#utility.yul\":3872:3935   */\n      swap3\n      pop\n        /* \"#utility.yul\":3828:3945   */\n      pop\n        /* \"#utility.yul\":3984:3986   */\n      0x20\n        /* \"#utility.yul\":4010:4063   */\n      tag_187\n        /* \"#utility.yul\":4055:4062   */\n      dup6\n        /* \"#utility.yul\":4046:4052   */\n      dup3\n        /* \"#utility.yul\":4035:4044   */\n      dup7\n        /* \"#utility.yul\":4031:4053   */\n      add\n        /* \"#utility.yul\":4010:4063   */\n      tag_119\n      jump\t// in\n    tag_187:\n        /* \"#utility.yul\":4000:4063   */\n      swap2\n      pop\n        /* \"#utility.yul\":3955:4073   */\n      pop\n        /* \"#utility.yul\":3606:4080   */\n      swap3\n      pop\n      swap3\n      swap1\n      pop\n      jump\t// out\n        /* \"#utility.yul\":4086:4204   */\n    tag_126:\n        /* \"#utility.yul\":4173:4197   */\n      tag_189\n        /* \"#utility.yul\":4191:4196   */\n      dup2\n        /* \"#utility.yul\":4173:4197   */\n      tag_114\n      jump\t// in\n    tag_189:\n        /* \"#utility.yul\":4168:4171   */\n      dup3\n        /* \"#utility.yul\":4161:4198   */\n      mstore\n        /* \"#utility.yul\":4086:4204   */\n      pop\n      pop\n      jump\t// out\n        /* \"#utility.yul\":4210:4328   */\n    tag_127:\n        /* \"#utility.yul\":4297:4321   */\n      tag_191\n        /* \"#utility.yul\":4315:4320   */\n      dup2\n        /* \"#utility.yul\":4297:4321   */\n      tag_117\n      jump\t// in\n    tag_191:\n        /* \"#utility.yul\":4292:4295   */\n      dup3\n        /* \"#utility.yul\":4285:4322   */\n      mstore\n        /* \"#utility.yul\":4210:4328   */\n      pop\n      pop\n      jump\t// out\n        /* \"#utility.yul\":4334:4666   */\n    tag_27:\n        /* \"#utility.yul\":4455:4459   */\n      0x00\n        /* \"#utility.yul\":4493:4495   */\n      0x40\n        /* \"#utility.yul\":4482:4491   */\n      dup3\n        /* \"#utility.yul\":4478:4496   */\n      add\n        /* \"#utility.yul\":4470:4496   */\n      swap1\n      pop\n        /* \"#utility.yul\":4506:4577   */\n      tag_193\n        /* \"#utility.yul\":4574:4575   */\n      0x00\n        /* \"#utility.yul\":4563:4572   */\n      dup4\n        /* \"#utility.yul\":4559:4576   */\n      add\n        /* \"#utility.yul\":4550:4556   */\n      dup6\n        /* \"#utility.yul\":4506:4577   */\n      tag_126\n      jump\t// in\n    tag_193:\n        /* \"#utility.yul\":4587:4659   */\n      tag_194\n        /* \"#utility.yul\":4655:4657   */\n      0x20\n        /* \"#utility.yul\":4644:4653   */\n      dup4\n        /* \"#utility.yul\":4640:4658   */\n      add\n        /* \"#utility.yul\":4631:4637   */\n      dup5\n        /* \"#utility.yul\":4587:4659   */\n      tag_127\n      jump\t// in\n    tag_194:\n        /* \"#utility.yul\":4334:4666   */\n      swap4\n      swap3\n      pop\n      pop\n      pop\n      jump\t// out\n        /* \"#utility.yul\":4672:5291   */\n    tag_31:\n        /* \"#utility.yul\":4749:4755   */\n      0x00\n        /* \"#utility.yul\":4757:4763   */\n      dup1\n        /* \"#utility.yul\":4765:4771   */\n      0x00\n        /* \"#utility.yul\":4814:4816   */\n      0x60\n        /* \"#utility.yul\":4802:4811   */\n      dup5\n        /* \"#utility.yul\":4793:4800   */\n      dup7\n        /* \"#utility.yul\":4789:4812   */\n      sub\n        /* \"#utility.yul\":4785:4817   */\n      slt\n        /* \"#utility.yul\":4782:4901   */\n      iszero\n      tag_196\n      jumpi\n        /* \"#utility.yul\":4820:4899   */\n      tag_197\n      tag_111\n      jump\t// in\n    tag_197:\n        /* \"#utility.yul\":4782:4901   */\n    tag_196:\n        /* \"#utility.yul\":4940:4941   */\n      0x00\n        /* \"#utility.yul\":4965:5018   */\n      tag_198\n        /* \"#utility.yul\":5010:5017   */\n      dup7\n        /* \"#utility.yul\":5001:5007   */\n      dup3\n        /* \"#utility.yul\":4990:4999   */\n      dup8\n        /* \"#utility.yul\":4986:5008   */\n      add\n        /* \"#utility.yul\":4965:5018   */\n      tag_116\n      jump\t// in\n    tag_198:\n        /* \"#utility.yul\":4955:5018   */\n      swap4\n      pop\n        /* \"#utility.yul\":4911:5028   */\n      pop\n        /* \"#utility.yul\":5067:5069   */\n      0x20\n        /* \"#utility.yul\":5093:5146   */\n      tag_199\n        /* \"#utility.yul\":5138:5145   */\n      dup7\n        /* \"#utility.yul\":5129:5135   */\n      dup3\n        /* \"#utility.yul\":5118:5127   */\n      dup8\n        /* \"#utility.yul\":5114:5136   */\n      add\n        /* \"#utility.yul\":5093:5146   */\n      tag_119\n      jump\t// in\n    tag_199:\n        /* \"#utility.yul\":5083:5146   */\n      swap3\n      pop\n        /* \"#utility.yul\":5038:5156   */\n      pop\n        /* \"#utility.yul\":5195:5197   */\n      0x40\n        /* \"#utility.yul\":5221:5274   */\n      tag_200\n        /* \"#utility.yul\":5266:5273   */\n      dup7\n        /* \"#utility.yul\":5257:5263   */\n      dup3\n        /* \"#utility.yul\":5246:5255   */\n      dup8\n        /* \"#utility.yul\":5242:5264   */\n      add\n        /* \"#utility.yul\":5221:5274   */\n      tag_119\n      jump\t// in\n    tag_200:\n        /* \"#utility.yul\":5211:5274   */\n      swap2\n      pop\n        /* \"#utility.yul\":5166:5284   */\n      pop\n        /* \"#utility.yul\":4672:5291   */\n      swap3\n      pop\n      swap3\n      pop\n      swap3\n      jump\t// out\n        /* \"#utility.yul\":5297:5466   */\n    tag_128:\n        /* \"#utility.yul\":5381:5392   */\n      0x00\n        /* \"#utility.yul\":5415:5421   */\n      dup3\n        /* \"#utility.yul\":5410:5413   */\n      dup3\n        /* \"#utility.yul\":5403:5422   */\n      mstore\n        /* \"#utility.yul\":5455:5459   */\n      0x20\n        /* \"#utility.yul\":5450:5453   */\n      dup3\n        /* \"#utility.yul\":5446:5460   */\n      add\n        /* \"#utility.yul\":5431:5460   */\n      swap1\n      pop\n        /* \"#utility.yul\":5297:5466   */\n      swap3\n      swap2\n      pop\n      pop\n      jump\t// out\n        /* \"#utility.yul\":5472:5635   */\n    tag_129:\n        /* \"#utility.yul\":5612:5627   */\n      0x496e76616c696420507269636500000000000000000000000000000000000000\n        /* \"#utility.yul\":5608:5609   */\n      0x00\n        /* \"#utility.yul\":5600:5606   */\n      dup3\n        /* \"#utility.yul\":5596:5610   */\n      add\n        /* \"#utility.yul\":5589:5628   */\n      mstore\n        /* \"#utility.yul\":5472:5635   */\n      pop\n      jump\t// out\n        /* \"#utility.yul\":5641:6007   */\n    tag_130:\n        /* \"#utility.yul\":5783:5786   */\n      0x00\n        /* \"#utility.yul\":5804:5871   */\n      tag_204\n        /* \"#utility.yul\":5868:5870   */\n      0x0d\n        /* \"#utility.yul\":5863:5866   */\n      dup4\n        /* \"#utility.yul\":5804:5871   */\n      tag_128\n      jump\t// in\n    tag_204:\n        /* \"#utility.yul\":5797:5871   */\n      swap2\n      pop\n        /* \"#utility.yul\":5880:5973   */\n      tag_205\n        /* \"#utility.yul\":5969:5972   */\n      dup3\n        /* \"#utility.yul\":5880:5973   */\n      tag_129\n      jump\t// in\n    tag_205:\n        /* \"#utility.yul\":5998:6000   */\n      0x20\n        /* \"#utility.yul\":5993:5996   */\n      dup3\n        /* \"#utility.yul\":5989:6001   */\n      add\n        /* \"#utility.yul\":5982:6001   */\n      swap1\n      pop\n        /* \"#utility.yul\":5641:6007   */\n      swap2\n      swap1\n      pop\n      jump\t// out\n        /* \"#utility.yul\":6013:6432   */\n    tag_45:\n        /* \"#utility.yul\":6179:6183   */\n      0x00\n        /* \"#utility.yul\":6217:6219   */\n      0x20\n        /* \"#utility.yul\":6206:6215   */\n      dup3\n        /* \"#utility.yul\":6202:6220   */\n      add\n        /* \"#utility.yul\":6194:6220   */\n      swap1\n      pop\n        /* \"#utility.yul\":6266:6275   */\n      dup2\n        /* \"#utility.yul\":6260:6264   */\n      dup2\n        /* \"#utility.yul\":6256:6276   */\n      sub\n        /* \"#utility.yul\":6252:6253   */\n      0x00\n        /* \"#utility.yul\":6241:6250   */\n      dup4\n        /* \"#utility.yul\":6237:6254   */\n      add\n        /* \"#utility.yul\":6230:6277   */\n      mstore\n        /* \"#utility.yul\":6294:6425   */\n      tag_207\n        /* \"#utility.yul\":6420:6424   */\n      dup2\n        /* \"#utility.yul\":6294:6425   */\n      tag_130\n      jump\t// in\n    tag_207:\n        /* \"#utility.yul\":6286:6425   */\n      swap1\n      pop\n        /* \"#utility.yul\":6013:6432   */\n      swap2\n      swap1\n      pop\n      jump\t// out\n        /* \"#utility.yul\":6438:6602   */\n    tag_131:\n        /* \"#utility.yul\":6578:6594   */\n      0x496e637265617365207072696365000000000000000000000000000000000000\n        /* \"#utility.yul\":6574:6575   */\n      0x00\n        /* \"#utility.yul\":6566:6572   */\n      dup3\n        /* \"#utility.yul\":6562:6576   */\n      add\n        /* \"#utility.yul\":6555:6595   */\n      mstore\n        /* \"#utility.yul\":6438:6602   */\n      pop\n      jump\t// out\n        /* \"#utility.yul\":6608:6974   */\n    tag_132:\n        /* \"#utility.yul\":6750:6753   */\n      0x00\n        /* \"#utility.yul\":6771:6838   */\n      tag_210\n        /* \"#utility.yul\":6835:6837   */\n      0x0e\n        /* \"#utility.yul\":6830:6833   */\n      dup4\n        /* \"#utility.yul\":6771:6838   */\n      tag_128\n      jump\t// in\n    tag_210:\n        /* \"#utility.yul\":6764:6838   */\n      swap2\n      pop\n        /* \"#utility.yul\":6847:6940   */\n      tag_211\n        /* \"#utility.yul\":6936:6939   */\n      dup3\n        /* \"#utility.yul\":6847:6940   */\n      tag_131\n      jump\t// in\n    tag_211:\n        /* \"#utility.yul\":6965:6967   */\n      0x20\n        /* \"#utility.yul\":6960:6963   */\n      dup3\n        /* \"#utility.yul\":6956:6968   */\n      add\n        /* \"#utility.yul\":6949:6968   */\n      swap1\n      pop\n        /* \"#utility.yul\":6608:6974   */\n      swap2\n      swap1\n      pop\n      jump\t// out\n        /* \"#utility.yul\":6980:7399   */\n    tag_48:\n        /* \"#utility.yul\":7146:7150   */\n      0x00\n        /* \"#utility.yul\":7184:7186   */\n      0x20\n        /* \"#utility.yul\":7173:7182   */\n      dup3\n        /* \"#utility.yul\":7169:7187   */\n      add\n        /* \"#utility.yul\":7161:7187   */\n      swap1\n      pop\n        /* \"#utility.yul\":7233:7242   */\n      dup2\n        /* \"#utility.yul\":7227:7231   */\n      dup2\n        /* \"#utility.yul\":7223:7243   */\n      sub\n        /* \"#utility.yul\":7219:7220   */\n      0x00\n        /* \"#utility.yul\":7208:7217   */\n      dup4\n        /* \"#utility.yul\":7204:7221   */\n      add\n        /* \"#utility.yul\":7197:7244   */\n      mstore\n        /* \"#utility.yul\":7261:7392   */\n      tag_213\n        /* \"#utility.yul\":7387:7391   */\n      dup2\n        /* \"#utility.yul\":7261:7392   */\n      tag_132\n      jump\t// in\n    tag_213:\n        /* \"#utility.yul\":7253:7392   */\n      swap1\n      pop\n        /* \"#utility.yul\":6980:7399   */\n      swap2\n      swap1\n      pop\n      jump\t// out\n        /* \"#utility.yul\":7405:7627   */\n    tag_50:\n        /* \"#utility.yul\":7498:7502   */\n      0x00\n        /* \"#utility.yul\":7536:7538   */\n      0x20\n        /* \"#utility.yul\":7525:7534   */\n      dup3\n        /* \"#utility.yul\":7521:7539   */\n      add\n        /* \"#utility.yul\":7513:7539   */\n      swap1\n      pop\n        /* \"#utility.yul\":7549:7620   */\n      tag_215\n        /* \"#utility.yul\":7617:7618   */\n      0x00\n        /* \"#utility.yul\":7606:7615   */\n      dup4\n        /* \"#utility.yul\":7602:7619   */\n      add\n        /* \"#utility.yul\":7593:7599   */\n      dup5\n        /* \"#utility.yul\":7549:7620   */\n      tag_127\n      jump\t// in\n    tag_215:\n        /* \"#utility.yul\":7405:7627   */\n      swap3\n      swap2\n      pop\n      pop\n      jump\t// out\n        /* \"#utility.yul\":7633:7776   */\n    tag_133:\n        /* \"#utility.yul\":7690:7695   */\n      0x00\n        /* \"#utility.yul\":7721:7727   */\n      dup2\n        /* \"#utility.yul\":7715:7728   */\n      mload\n        /* \"#utility.yul\":7706:7728   */\n      swap1\n      pop\n        /* \"#utility.yul\":7737:7770   */\n      tag_217\n        /* \"#utility.yul\":7764:7769   */\n      dup2\n        /* \"#utility.yul\":7737:7770   */\n      tag_115\n      jump\t// in\n    tag_217:\n        /* \"#utility.yul\":7633:7776   */\n      swap3\n      swap2\n      pop\n      pop\n      jump\t// out\n        /* \"#utility.yul\":7782:8133   */\n    tag_54:\n        /* \"#utility.yul\":7852:7858   */\n      0x00\n        /* \"#utility.yul\":7901:7903   */\n      0x20\n        /* \"#utility.yul\":7889:7898   */\n      dup3\n        /* \"#utility.yul\":7880:7887   */\n      dup5\n        /* \"#utility.yul\":7876:7899   */\n      sub\n        /* \"#utility.yul\":7872:7904   */\n      slt\n        /* \"#utility.yul\":7869:7988   */\n      iszero\n      tag_219\n      jumpi\n        /* \"#utility.yul\":7907:7986   */\n      tag_220\n      tag_111\n      jump\t// in\n    tag_220:\n        /* \"#utility.yul\":7869:7988   */\n    tag_219:\n        /* \"#utility.yul\":8027:8028   */\n      0x00\n        /* \"#utility.yul\":8052:8116   */\n      tag_221\n        /* \"#utility.yul\":8108:8115   */\n      dup5\n        /* \"#utility.yul\":8099:8105   */\n      dup3\n        /* \"#utility.yul\":8088:8097   */\n      dup6\n        /* \"#utility.yul\":8084:8106   */\n      add\n        /* \"#utility.yul\":8052:8116   */\n      tag_133\n      jump\t// in\n    tag_221:\n        /* \"#utility.yul\":8042:8116   */\n      swap2\n      pop\n        /* \"#utility.yul\":7998:8126   */\n      pop\n        /* \"#utility.yul\":7782:8133   */\n      swap3\n      swap2\n      pop\n      pop\n      jump\t// out\n        /* \"#utility.yul\":8139:8302   */\n    tag_134:\n        /* \"#utility.yul\":8279:8294   */\n      0x496e76616c6964204f7264657200000000000000000000000000000000000000\n        /* \"#utility.yul\":8275:8276   */\n      0x00\n        /* \"#utility.yul\":8267:8273   */\n      dup3\n        /* \"#utility.yul\":8263:8277   */\n      add\n        /* \"#utility.yul\":8256:8295   */\n      mstore\n        /* \"#utility.yul\":8139:8302   */\n      pop\n      jump\t// out\n        /* \"#utility.yul\":8308:8674   */\n    tag_135:\n        /* \"#utility.yul\":8450:8453   */\n      0x00\n        /* \"#utility.yul\":8471:8538   */\n      tag_224\n        /* \"#utility.yul\":8535:8537   */\n      0x0d\n        /* \"#utility.yul\":8530:8533   */\n      dup4\n        /* \"#utility.yul\":8471:8538   */\n      tag_128\n      jump\t// in\n    tag_224:\n        /* \"#utility.yul\":8464:8538   */\n      swap2\n      pop\n        /* \"#utility.yul\":8547:8640   */\n      tag_225\n        /* \"#utility.yul\":8636:8639   */\n      dup3\n        /* \"#utility.yul\":8547:8640   */\n      tag_134\n      jump\t// in\n    tag_225:\n        /* \"#utility.yul\":8665:8667   */\n      0x20\n        /* \"#utility.yul\":8660:8663   */\n      dup3\n        /* \"#utility.yul\":8656:8668   */\n      add\n        /* \"#utility.yul\":8649:8668   */\n      swap1\n      pop\n        /* \"#utility.yul\":8308:8674   */\n      swap2\n      swap1\n      pop\n      jump\t// out\n        /* \"#utility.yul\":8680:9099   */\n    tag_57:\n        /* \"#utility.yul\":8846:8850   */\n      0x00\n        /* \"#utility.yul\":8884:8886   */\n      0x20\n        /* \"#utility.yul\":8873:8882   */\n      dup3\n        /* \"#utility.yul\":8869:8887   */\n      add\n        /* \"#utility.yul\":8861:8887   */\n      swap1\n      pop\n        /* \"#utility.yul\":8933:8942   */\n      dup2\n        /* \"#utility.yul\":8927:8931   */\n      dup2\n        /* \"#utility.yul\":8923:8943   */\n      sub\n        /* \"#utility.yul\":8919:8920   */\n      0x00\n        /* \"#utility.yul\":8908:8917   */\n      dup4\n        /* \"#utility.yul\":8904:8921   */\n      add\n        /* \"#utility.yul\":8897:8944   */\n      mstore\n        /* \"#utility.yul\":8961:9092   */\n      tag_227\n        /* \"#utility.yul\":9087:9091   */\n      dup2\n        /* \"#utility.yul\":8961:9092   */\n      tag_135\n      jump\t// in\n    tag_227:\n        /* \"#utility.yul\":8953:9092   */\n      swap1\n      pop\n        /* \"#utility.yul\":8680:9099   */\n      swap2\n      swap1\n      pop\n      jump\t// out\n        /* \"#utility.yul\":9105:9547   */\n    tag_59:\n        /* \"#utility.yul\":9254:9258   */\n      0x00\n        /* \"#utility.yul\":9292:9294   */\n      0x60\n        /* \"#utility.yul\":9281:9290   */\n      dup3\n        /* \"#utility.yul\":9277:9295   */\n      add\n        /* \"#utility.yul\":9269:9295   */\n      swap1\n      pop\n        /* \"#utility.yul\":9305:9376   */\n      tag_229\n        /* \"#utility.yul\":9373:9374   */\n      0x00\n        /* \"#utility.yul\":9362:9371   */\n      dup4\n        /* \"#utility.yul\":9358:9375   */\n      add\n        /* \"#utility.yul\":9349:9355   */\n      dup7\n        /* \"#utility.yul\":9305:9376   */\n      tag_126\n      jump\t// in\n    tag_229:\n        /* \"#utility.yul\":9386:9458   */\n      tag_230\n        /* \"#utility.yul\":9454:9456   */\n      0x20\n        /* \"#utility.yul\":9443:9452   */\n      dup4\n        /* \"#utility.yul\":9439:9457   */\n      add\n        /* \"#utility.yul\":9430:9436   */\n      dup6\n        /* \"#utility.yul\":9386:9458   */\n      tag_126\n      jump\t// in\n    tag_230:\n        /* \"#utility.yul\":9468:9540   */\n      tag_231\n        /* \"#utility.yul\":9536:9538   */\n      0x40\n        /* \"#utility.yul\":9525:9534   */\n      dup4\n        /* \"#utility.yul\":9521:9539   */\n      add\n        /* \"#utility.yul\":9512:9518   */\n      dup5\n        /* \"#utility.yul\":9468:9540   */\n      tag_127\n      jump\t// in\n    tag_231:\n        /* \"#utility.yul\":9105:9547   */\n      swap5\n      swap4\n      pop\n      pop\n      pop\n      pop\n      jump\t// out\n        /* \"#utility.yul\":9553:9733   */\n    tag_136:\n        /* \"#utility.yul\":9601:9678   */\n      0x4e487b7100000000000000000000000000000000000000000000000000000000\n        /* \"#utility.yul\":9598:9599   */\n      0x00\n        /* \"#utility.yul\":9591:9679   */\n      mstore\n        /* \"#utility.yul\":9698:9702   */\n      0x11\n        /* \"#utility.yul\":9695:9696   */\n      0x04\n        /* \"#utility.yul\":9688:9703   */\n      mstore\n        /* \"#utility.yul\":9722:9726   */\n      0x24\n        /* \"#utility.yul\":9719:9720   */\n      0x00\n        /* \"#utility.yul\":9712:9727   */\n      revert\n        /* \"#utility.yul\":9739:9933   */\n    tag_66:\n        /* \"#utility.yul\":9779:9783   */\n      0x00\n        /* \"#utility.yul\":9799:9819   */\n      tag_234\n        /* \"#utility.yul\":9817:9818   */\n      dup3\n        /* \"#utility.yul\":9799:9819   */\n      tag_117\n      jump\t// in\n    tag_234:\n        /* \"#utility.yul\":9794:9819   */\n      swap2\n      pop\n        /* \"#utility.yul\":9833:9853   */\n      tag_235\n        /* \"#utility.yul\":9851:9852   */\n      dup4\n        /* \"#utility.yul\":9833:9853   */\n      tag_117\n      jump\t// in\n    tag_235:\n        /* \"#utility.yul\":9828:9853   */\n      swap3\n      pop\n        /* \"#utility.yul\":9877:9878   */\n      dup3\n        /* \"#utility.yul\":9874:9875   */\n      dup3\n        /* \"#utility.yul\":9870:9879   */\n      sub\n        /* \"#utility.yul\":9862:9879   */\n      swap1\n      pop\n        /* \"#utility.yul\":9901:9902   */\n      dup2\n        /* \"#utility.yul\":9895:9899   */\n      dup2\n        /* \"#utility.yul\":9892:9903   */\n      gt\n        /* \"#utility.yul\":9889:9926   */\n      iszero\n      tag_236\n      jumpi\n        /* \"#utility.yul\":9906:9924   */\n      tag_237\n      tag_136\n      jump\t// in\n    tag_237:\n        /* \"#utility.yul\":9889:9926   */\n    tag_236:\n        /* \"#utility.yul\":9739:9933   */\n      swap3\n      swap2\n      pop\n      pop\n      jump\t// out\n        /* \"#utility.yul\":9939:10098   */\n    tag_137:\n        /* \"#utility.yul\":10079:10090   */\n      0x4e6f74204f776e65720000000000000000000000000000000000000000000000\n        /* \"#utility.yul\":10075:10076   */\n      0x00\n        /* \"#utility.yul\":10067:10073   */\n      dup3\n        /* \"#utility.yul\":10063:10077   */\n      add\n        /* \"#utility.yul\":10056:10091   */\n      mstore\n        /* \"#utility.yul\":9939:10098   */\n      pop\n      jump\t// out\n        /* \"#utility.yul\":10104:10469   */\n    tag_138:\n        /* \"#utility.yul\":10246:10249   */\n      0x00\n        /* \"#utility.yul\":10267:10333   */\n      tag_240\n        /* \"#utility.yul\":10331:10332   */\n      0x09\n        /* \"#utility.yul\":10326:10329   */\n      dup4\n        /* \"#utility.yul\":10267:10333   */\n      tag_128\n      jump\t// in\n    tag_240:\n        /* \"#utility.yul\":10260:10333   */\n      swap2\n      pop\n        /* \"#utility.yul\":10342:10435   */\n      tag_241\n        /* \"#utility.yul\":10431:10434   */\n      dup3\n        /* \"#utility.yul\":10342:10435   */\n      tag_137\n      jump\t// in\n    tag_241:\n        /* \"#utility.yul\":10460:10462   */\n      0x20\n        /* \"#utility.yul\":10455:10458   */\n      dup3\n        /* \"#utility.yul\":10451:10463   */\n      add\n        /* \"#utility.yul\":10444:10463   */\n      swap1\n      pop\n        /* \"#utility.yul\":10104:10469   */\n      swap2\n      swap1\n      pop\n      jump\t// out\n        /* \"#utility.yul\":10475:10894   */\n    tag_75:\n        /* \"#utility.yul\":10641:10645   */\n      0x00\n        /* \"#utility.yul\":10679:10681   */\n      0x20\n        /* \"#utility.yul\":10668:10677   */\n      dup3\n        /* \"#utility.yul\":10664:10682   */\n      add\n        /* \"#utility.yul\":10656:10682   */\n      swap1\n      pop\n        /* \"#utility.yul\":10728:10737   */\n      dup2\n        /* \"#utility.yul\":10722:10726   */\n      dup2\n        /* \"#utility.yul\":10718:10738   */\n      sub\n        /* \"#utility.yul\":10714:10715   */\n      0x00\n        /* \"#utility.yul\":10703:10712   */\n      dup4\n        /* \"#utility.yul\":10699:10716   */\n      add\n        /* \"#utility.yul\":10692:10739   */\n      mstore\n        /* \"#utility.yul\":10756:10887   */\n      tag_243\n        /* \"#utility.yul\":10882:10886   */\n      dup2\n        /* \"#utility.yul\":10756:10887   */\n      tag_138\n      jump\t// in\n    tag_243:\n        /* \"#utility.yul\":10748:10887   */\n      swap1\n      pop\n        /* \"#utility.yul\":10475:10894   */\n      swap2\n      swap1\n      pop\n      jump\t// out\n        /* \"#utility.yul\":10900:11063   */\n    tag_139:\n        /* \"#utility.yul\":11040:11055   */\n      0x4e65656420417070726f76616c00000000000000000000000000000000000000\n        /* \"#utility.yul\":11036:11037   */\n      0x00\n        /* \"#utility.yul\":11028:11034   */\n      dup3\n        /* \"#utility.yul\":11024:11038   */\n      add\n        /* \"#utility.yul\":11017:11056   */\n      mstore\n        /* \"#utility.yul\":10900:11063   */\n      pop\n      jump\t// out\n        /* \"#utility.yul\":11069:11435   */\n    tag_140:\n        /* \"#utility.yul\":11211:11214   */\n      0x00\n        /* \"#utility.yul\":11232:11299   */\n      tag_246\n        /* \"#utility.yul\":11296:11298   */\n      0x0d\n        /* \"#utility.yul\":11291:11294   */\n      dup4\n        /* \"#utility.yul\":11232:11299   */\n      tag_128\n      jump\t// in\n    tag_246:\n        /* \"#utility.yul\":11225:11299   */\n      swap2\n      pop\n        /* \"#utility.yul\":11308:11401   */\n      tag_247\n        /* \"#utility.yul\":11397:11400   */\n      dup3\n        /* \"#utility.yul\":11308:11401   */\n      tag_139\n      jump\t// in\n    tag_247:\n        /* \"#utility.yul\":11426:11428   */\n      0x20\n        /* \"#utility.yul\":11421:11424   */\n      dup3\n        /* \"#utility.yul\":11417:11429   */\n      add\n        /* \"#utility.yul\":11410:11429   */\n      swap1\n      pop\n        /* \"#utility.yul\":11069:11435   */\n      swap2\n      swap1\n      pop\n      jump\t// out\n        /* \"#utility.yul\":11441:11860   */\n    tag_90:\n        /* \"#utility.yul\":11607:11611   */\n      0x00\n        /* \"#utility.yul\":11645:11647   */\n      0x20\n        /* \"#utility.yul\":11634:11643   */\n      dup3\n        /* \"#utility.yul\":11630:11648   */\n      add\n        /* \"#utility.yul\":11622:11648   */\n      swap1\n      pop\n        /* \"#utility.yul\":11694:11703   */\n      dup2\n        /* \"#utility.yul\":11688:11692   */\n      dup2\n        /* \"#utility.yul\":11684:11704   */\n      sub\n        /* \"#utility.yul\":11680:11681   */\n      0x00\n        /* \"#utility.yul\":11669:11678   */\n      dup4\n        /* \"#utility.yul\":11665:11682   */\n      add\n        /* \"#utility.yul\":11658:11705   */\n      mstore\n        /* \"#utility.yul\":11722:11853   */\n      tag_249\n        /* \"#utility.yul\":11848:11852   */\n      dup2\n        /* \"#utility.yul\":11722:11853   */\n      tag_140\n      jump\t// in\n    tag_249:\n        /* \"#utility.yul\":11714:11853   */\n      swap1\n      pop\n        /* \"#utility.yul\":11441:11860   */\n      swap2\n      swap1\n      pop\n      jump\t// out\n\n    auxdata: 0xa2646970667358221220553e2668912f656fcf1e0e0cb5de68668655c79cb0873467f14920bd8e1d06f864736f6c634300081a0033\n}\n",
				"bytecode": {
					"linkReferences": {},
					"object": "6080604052348015600e575f80fd5b506113638061001c5f395ff3fe608060405260043610610058575f3560e01c8063150b7a021461005b5780638de9322214610097578063ba5f4fb2146100b3578063d09b6d43146100f0578063dda342bb14610118578063eac449d91461014057610059565b5b005b348015610066575f80fd5b50610081600480360381019061007c9190610e7e565b610168565b60405161008e9190610f3c565b60405180910390f35b6100b160048036038101906100ac9190610f55565b61017c565b005b3480156100be575f80fd5b506100d960048036038101906100d49190610f55565b610551565b6040516100e7929190610fb1565b60405180910390f35b3480156100fb575f80fd5b5061011660048036038101906101119190610fd8565b61059a565b005b348015610123575f80fd5b5061013e60048036038101906101399190610fd8565b610819565b005b34801561014b575f80fd5b5061016660048036038101906101619190610f55565b610a7c565b005b5f63150b7a0260e01b905095945050505050565b5f805f8473ffffffffffffffffffffffffffffffffffffffff1673ffffffffffffffffffffffffffffffffffffffff1681526020019081526020015f205f8381526020019081526020015f2090505f816001015411610210576040517f08c379a000000000000000000000000000000000000000000000000000000000815260040161020790611082565b60405180910390fd5b8060010154341015610257576040517f08c379a000000000000000000000000000000000000000000000000000000000815260040161024e906110ea565b60405180910390fd5b5f8390503073ffffffffffffffffffffffffffffffffffffffff168173ffffffffffffffffffffffffffffffffffffffff16636352211e856040518263ffffffff1660e01b81526004016102ab9190611108565b602060405180830381865afa1580156102c6573d5f803e3d5ffd5b505050506040513d601f19601f820116820180604052508101906102ea9190611135565b73ffffffffffffffffffffffffffffffffffffffff1614610340576040517f08c379a0000000000000000000000000000000000000000000000000000000008152600401610337906111aa565b60405180910390fd5b8073ffffffffffffffffffffffffffffffffffffffff166342842e0e3033866040518463ffffffff1660e01b815260040161037d939291906111c8565b5f604051808303815f87803b158015610394575f80fd5b505af11580156103a6573d5f803e3d5ffd5b50505050815f015f9054906101000a900473ffffffffffffffffffffffffffffffffffffffff1673ffffffffffffffffffffffffffffffffffffffff166108fc836001015490811502906040515f60405180830381858888f19350505050158015610413573d5f803e3d5ffd5b503373ffffffffffffffffffffffffffffffffffffffff166108fc83600101543461043e919061122a565b90811502906040515f60405180830381858888f19350505050158015610466573d5f803e3d5ffd5b505f808573ffffffffffffffffffffffffffffffffffffffff1673ffffffffffffffffffffffffffffffffffffffff1681526020019081526020015f205f8481526020019081526020015f205f8082015f6101000a81549073ffffffffffffffffffffffffffffffffffffffff0219169055600182015f90555050828473ffffffffffffffffffffffffffffffffffffffff163373ffffffffffffffffffffffffffffffffffffffff167f46661dab58311a6838247afecbee792192b4f27fc8b3e7168c66bc55ec2e404e85600101546040516105439190611108565b60405180910390a450505050565b5f602052815f5260405f20602052805f5260405f205f9150915050805f015f9054906101000a900473ffffffffffffffffffffffffffffffffffffffff16908060010154905082565b5f81116105dc576040517f08c379a00000000000000000000000000000000000000000000000000000000081526004016105d390611082565b60405180910390fd5b5f805f8573ffffffffffffffffffffffffffffffffffffffff1673ffffffffffffffffffffffffffffffffffffffff1681526020019081526020015f205f8481526020019081526020015f2090503373ffffffffffffffffffffffffffffffffffffffff16815f015f9054906101000a900473ffffffffffffffffffffffffffffffffffffffff1673ffffffffffffffffffffffffffffffffffffffff16146106ba576040517f08c379a00000000000000000000000000000000000000000000000000000000081526004016106b1906112a7565b60405180910390fd5b5f8490503073ffffffffffffffffffffffffffffffffffffffff168173ffffffffffffffffffffffffffffffffffffffff16636352211e866040518263ffffffff1660e01b815260040161070e9190611108565b602060405180830381865afa158015610729573d5f803e3d5ffd5b505050506040513d601f19601f8201168201806040525081019061074d9190611135565b73ffffffffffffffffffffffffffffffffffffffff16146107a3576040517f08c379a000000000000000000000000000000000000000000000000000000000815260040161079a906111aa565b60405180910390fd5b828260010181905550838573ffffffffffffffffffffffffffffffffffffffff163373ffffffffffffffffffffffffffffffffffffffff167fb7f0ca7cd5b24651672216886135b99ff40342bcf549009a4c6fc74f059fb9a08660405161080a9190611108565b60405180910390a45050505050565b5f8390503073ffffffffffffffffffffffffffffffffffffffff168173ffffffffffffffffffffffffffffffffffffffff1663081812fc856040518263ffffffff1660e01b815260040161086d9190611108565b602060405180830381865afa158015610888573d5f803e3d5ffd5b505050506040513d601f19601f820116820180604052508101906108ac9190611135565b73ffffffffffffffffffffffffffffffffffffffff1614610902576040517f08c379a00000000000000000000000000000000000000000000000000000000081526004016108f99061130f565b60405180910390fd5b5f821161090d575f80fd5b5f805f8673ffffffffffffffffffffffffffffffffffffffff1673ffffffffffffffffffffffffffffffffffffffff1681526020019081526020015f205f8581526020019081526020015f20905033815f015f6101000a81548173ffffffffffffffffffffffffffffffffffffffff021916908373ffffffffffffffffffffffffffffffffffffffff1602179055508281600101819055508173ffffffffffffffffffffffffffffffffffffffff166342842e0e3330876040518463ffffffff1660e01b81526004016109e2939291906111c8565b5f604051808303815f87803b1580156109f9575f80fd5b505af1158015610a0b573d5f803e3d5ffd5b50505050838573ffffffffffffffffffffffffffffffffffffffff163373ffffffffffffffffffffffffffffffffffffffff167fedbdf022944a3291f4b30148903a84720506f48e10478ec5812e5caf30e1fab086604051610a6d9190611108565b60405180910390a45050505050565b5f805f8473ffffffffffffffffffffffffffffffffffffffff1673ffffffffffffffffffffffffffffffffffffffff1681526020019081526020015f205f8381526020019081526020015f2090503373ffffffffffffffffffffffffffffffffffffffff16815f015f9054906101000a900473ffffffffffffffffffffffffffffffffffffffff1673ffffffffffffffffffffffffffffffffffffffff1614610b5a576040517f08c379a0000000000000000000000000000000000000000000000000000000008152600401610b51906112a7565b60405180910390fd5b5f8390503073ffffffffffffffffffffffffffffffffffffffff168173ffffffffffffffffffffffffffffffffffffffff16636352211e856040518263ffffffff1660e01b8152600401610bae9190611108565b602060405180830381865afa158015610bc9573d5f803e3d5ffd5b505050506040513d601f19601f82011682018060405250810190610bed9190611135565b73ffffffffffffffffffffffffffffffffffffffff1614610c43576040517f08c379a0000000000000000000000000000000000000000000000000000000008152600401610c3a906111aa565b60405180910390fd5b8073ffffffffffffffffffffffffffffffffffffffff166342842e0e3033866040518463ffffffff1660e01b8152600401610c80939291906111c8565b5f604051808303815f87803b158015610c97575f80fd5b505af1158015610ca9573d5f803e3d5ffd5b505050505f808573ffffffffffffffffffffffffffffffffffffffff1673ffffffffffffffffffffffffffffffffffffffff1681526020019081526020015f205f8481526020019081526020015f205f8082015f6101000a81549073ffffffffffffffffffffffffffffffffffffffff0219169055600182015f90555050828473ffffffffffffffffffffffffffffffffffffffff163373ffffffffffffffffffffffffffffffffffffffff167fb698e31a2abee5824d0d7bcfd2339aead7f9e9ae413fba50bf554ff3fa470b7b60405160405180910390a450505050565b5f80fd5b5f80fd5b5f73ffffffffffffffffffffffffffffffffffffffff82169050919050565b5f610db982610d90565b9050919050565b610dc981610daf565b8114610dd3575f80fd5b50565b5f81359050610de481610dc0565b92915050565b5f819050919050565b610dfc81610dea565b8114610e06575f80fd5b50565b5f81359050610e1781610df3565b92915050565b5f80fd5b5f80fd5b5f80fd5b5f8083601f840112610e3e57610e3d610e1d565b5b8235905067ffffffffffffffff811115610e5b57610e5a610e21565b5b602083019150836001820283011115610e7757610e76610e25565b5b9250929050565b5f805f805f60808688031215610e9757610e96610d88565b5b5f610ea488828901610dd6565b9550506020610eb588828901610dd6565b9450506040610ec688828901610e09565b935050606086013567ffffffffffffffff811115610ee757610ee6610d8c565b5b610ef388828901610e29565b92509250509295509295909350565b5f7fffffffff0000000000000000000000000000000000000000000000000000000082169050919050565b610f3681610f02565b82525050565b5f602082019050610f4f5f830184610f2d565b92915050565b5f8060408385031215610f6b57610f6a610d88565b5b5f610f7885828601610dd6565b9250506020610f8985828601610e09565b9150509250929050565b610f9c81610daf565b82525050565b610fab81610dea565b82525050565b5f604082019050610fc45f830185610f93565b610fd16020830184610fa2565b9392505050565b5f805f60608486031215610fef57610fee610d88565b5b5f610ffc86828701610dd6565b935050602061100d86828701610e09565b925050604061101e86828701610e09565b9150509250925092565b5f82825260208201905092915050565b7f496e76616c6964205072696365000000000000000000000000000000000000005f82015250565b5f61106c600d83611028565b915061107782611038565b602082019050919050565b5f6020820190508181035f83015261109981611060565b9050919050565b7f496e6372656173652070726963650000000000000000000000000000000000005f82015250565b5f6110d4600e83611028565b91506110df826110a0565b602082019050919050565b5f6020820190508181035f830152611101816110c8565b9050919050565b5f60208201905061111b5f830184610fa2565b92915050565b5f8151905061112f81610dc0565b92915050565b5f6020828403121561114a57611149610d88565b5b5f61115784828501611121565b91505092915050565b7f496e76616c6964204f72646572000000000000000000000000000000000000005f82015250565b5f611194600d83611028565b915061119f82611160565b602082019050919050565b5f6020820190508181035f8301526111c181611188565b9050919050565b5f6060820190506111db5f830186610f93565b6111e86020830185610f93565b6111f56040830184610fa2565b949350505050565b7f4e487b71000000000000000000000000000000000000000000000000000000005f52601160045260245ffd5b5f61123482610dea565b915061123f83610dea565b9250828203905081811115611257576112566111fd565b5b92915050565b7f4e6f74204f776e657200000000000000000000000000000000000000000000005f82015250565b5f611291600983611028565b915061129c8261125d565b602082019050919050565b5f6020820190508181035f8301526112be81611285565b9050919050565b7f4e65656420417070726f76616c000000000000000000000000000000000000005f82015250565b5f6112f9600d83611028565b9150611304826112c5565b602082019050919050565b5f6020820190508181035f830152611326816112ed565b905091905056fea2646970667358221220553e2668912f656fcf1e0e0cb5de68668655c79cb0873467f14920bd8e1d06f864736f6c634300081a0033",
					"opcodes": "PUSH1 0x80 PUSH1 0x40 MSTORE CALLVALUE DUP1 ISZERO PUSH1 0xE JUMPI PUSH0 DUP1 REVERT JUMPDEST POP PUSH2 0x1363 DUP1 PUSH2 0x1C PUSH0 CODECOPY PUSH0 RETURN INVALID PUSH1 0x80 PUSH1 0x40 MSTORE PUSH1 0x4 CALLDATASIZE LT PUSH2 0x58 JUMPI PUSH0 CALLDATALOAD PUSH1 0xE0 SHR DUP1 PUSH4 0x150B7A02 EQ PUSH2 0x5B JUMPI DUP1 PUSH4 0x8DE93222 EQ PUSH2 0x97 JUMPI DUP1 PUSH4 0xBA5F4FB2 EQ PUSH2 0xB3 JUMPI DUP1 PUSH4 0xD09B6D43 EQ PUSH2 0xF0 JUMPI DUP1 PUSH4 0xDDA342BB EQ PUSH2 0x118 JUMPI DUP1 PUSH4 0xEAC449D9 EQ PUSH2 0x140 JUMPI PUSH2 0x59 JUMP JUMPDEST JUMPDEST STOP JUMPDEST CALLVALUE DUP1 ISZERO PUSH2 0x66 JUMPI PUSH0 DUP1 REVERT JUMPDEST POP PUSH2 0x81 PUSH1 0x4 DUP1 CALLDATASIZE SUB DUP2 ADD SWAP1 PUSH2 0x7C SWAP2 SWAP1 PUSH2 0xE7E JUMP JUMPDEST PUSH2 0x168 JUMP JUMPDEST PUSH1 0x40 MLOAD PUSH2 0x8E SWAP2 SWAP1 PUSH2 0xF3C JUMP JUMPDEST PUSH1 0x40 MLOAD DUP1 SWAP2 SUB SWAP1 RETURN JUMPDEST PUSH2 0xB1 PUSH1 0x4 DUP1 CALLDATASIZE SUB DUP2 ADD SWAP1 PUSH2 0xAC SWAP2 SWAP1 PUSH2 0xF55 JUMP JUMPDEST PUSH2 0x17C JUMP JUMPDEST STOP JUMPDEST CALLVALUE DUP1 ISZERO PUSH2 0xBE JUMPI PUSH0 DUP1 REVERT JUMPDEST POP PUSH2 0xD9 PUSH1 0x4 DUP1 CALLDATASIZE SUB DUP2 ADD SWAP1 PUSH2 0xD4 SWAP2 SWAP1 PUSH2 0xF55 JUMP JUMPDEST PUSH2 0x551 JUMP JUMPDEST PUSH1 0x40 MLOAD PUSH2 0xE7 SWAP3 SWAP2 SWAP1 PUSH2 0xFB1 JUMP JUMPDEST PUSH1 0x40 MLOAD DUP1 SWAP2 SUB SWAP1 RETURN JUMPDEST CALLVALUE DUP1 ISZERO PUSH2 0xFB JUMPI PUSH0 DUP1 REVERT JUMPDEST POP PUSH2 0x116 PUSH1 0x4 DUP1 CALLDATASIZE SUB DUP2 ADD SWAP1 PUSH2 0x111 SWAP2 SWAP1 PUSH2 0xFD8 JUMP JUMPDEST PUSH2 0x59A JUMP JUMPDEST STOP JUMPDEST CALLVALUE DUP1 ISZERO PUSH2 0x123 JUMPI PUSH0 DUP1 REVERT JUMPDEST POP PUSH2 0x13E PUSH1 0x4 DUP1 CALLDATASIZE SUB DUP2 ADD SWAP1 PUSH2 0x139 SWAP2 SWAP1 PUSH2 0xFD8 JUMP JUMPDEST PUSH2 0x819 JUMP JUMPDEST STOP JUMPDEST CALLVALUE DUP1 ISZERO PUSH2 0x14B JUMPI PUSH0 DUP1 REVERT JUMPDEST POP PUSH2 0x166 PUSH1 0x4 DUP1 CALLDATASIZE SUB DUP2 ADD SWAP1 PUSH2 0x161 SWAP2 SWAP1 PUSH2 0xF55 JUMP JUMPDEST PUSH2 0xA7C JUMP JUMPDEST STOP JUMPDEST PUSH0 PUSH4 0x150B7A02 PUSH1 0xE0 SHL SWAP1 POP SWAP6 SWAP5 POP POP POP POP POP JUMP JUMPDEST PUSH0 DUP1 PUSH0 DUP5 PUSH20 0xFFFFFFFFFFFFFFFFFFFFFFFFFFFFFFFFFFFFFFFF AND PUSH20 0xFFFFFFFFFFFFFFFFFFFFFFFFFFFFFFFFFFFFFFFF AND DUP2 MSTORE PUSH1 0x20 ADD SWAP1 DUP2 MSTORE PUSH1 0x20 ADD PUSH0 KECCAK256 PUSH0 DUP4 DUP2 MSTORE PUSH1 0x20 ADD SWAP1 DUP2 MSTORE PUSH1 0x20 ADD PUSH0 KECCAK256 SWAP1 POP PUSH0 DUP2 PUSH1 0x1 ADD SLOAD GT PUSH2 0x210 JUMPI PUSH1 0x40 MLOAD PUSH32 0x8C379A000000000000000000000000000000000000000000000000000000000 DUP2 MSTORE PUSH1 0x4 ADD PUSH2 0x207 SWAP1 PUSH2 0x1082 JUMP JUMPDEST PUSH1 0x40 MLOAD DUP1 SWAP2 SUB SWAP1 REVERT JUMPDEST DUP1 PUSH1 0x1 ADD SLOAD CALLVALUE LT ISZERO PUSH2 0x257 JUMPI PUSH1 0x40 MLOAD PUSH32 0x8C379A000000000000000000000000000000000000000000000000000000000 DUP2 MSTORE PUSH1 0x4 ADD PUSH2 0x24E SWAP1 PUSH2 0x10EA JUMP JUMPDEST PUSH1 0x40 MLOAD DUP1 SWAP2 SUB SWAP1 REVERT JUMPDEST PUSH0 DUP4 SWAP1 POP ADDRESS PUSH20 0xFFFFFFFFFFFFFFFFFFFFFFFFFFFFFFFFFFFFFFFF AND DUP2 PUSH20 0xFFFFFFFFFFFFFFFFFFFFFFFFFFFFFFFFFFFFFFFF AND PUSH4 0x6352211E DUP6 PUSH1 0x40 MLOAD DUP3 PUSH4 0xFFFFFFFF AND PUSH1 0xE0 SHL DUP2 MSTORE PUSH1 0x4 ADD PUSH2 0x2AB SWAP2 SWAP1 PUSH2 0x1108 JUMP JUMPDEST PUSH1 0x20 PUSH1 0x40 MLOAD DUP1 DUP4 SUB DUP2 DUP7 GAS STATICCALL ISZERO DUP1 ISZERO PUSH2 0x2C6 JUMPI RETURNDATASIZE PUSH0 DUP1 RETURNDATACOPY RETURNDATASIZE PUSH0 REVERT JUMPDEST POP POP POP POP PUSH1 0x40 MLOAD RETURNDATASIZE PUSH1 0x1F NOT PUSH1 0x1F DUP3 ADD AND DUP3 ADD DUP1 PUSH1 0x40 MSTORE POP DUP2 ADD SWAP1 PUSH2 0x2EA SWAP2 SWAP1 PUSH2 0x1135 JUMP JUMPDEST PUSH20 0xFFFFFFFFFFFFFFFFFFFFFFFFFFFFFFFFFFFFFFFF AND EQ PUSH2 0x340 JUMPI PUSH1 0x40 MLOAD PUSH32 0x8C379A000000000000000000000000000000000000000000000000000000000 DUP2 MSTORE PUSH1 0x4 ADD PUSH2 0x337 SWAP1 PUSH2 0x11AA JUMP JUMPDEST PUSH1 0x40 MLOAD DUP1 SWAP2 SUB SWAP1 REVERT JUMPDEST DUP1 PUSH20 0xFFFFFFFFFFFFFFFFFFFFFFFFFFFFFFFFFFFFFFFF AND PUSH4 0x42842E0E ADDRESS CALLER DUP7 PUSH1 0x40 MLOAD DUP5 PUSH4 0xFFFFFFFF AND PUSH1 0xE0 SHL DUP2 MSTORE PUSH1 0x4 ADD PUSH2 0x37D SWAP4 SWAP3 SWAP2 SWAP1 PUSH2 0x11C8 JUMP JUMPDEST PUSH0 PUSH1 0x40 MLOAD DUP1 DUP4 SUB DUP2 PUSH0 DUP8 DUP1 EXTCODESIZE ISZERO DUP1 ISZERO PUSH2 0x394 JUMPI PUSH0 DUP1 REVERT JUMPDEST POP GAS CALL ISZERO DUP1 ISZERO PUSH2 0x3A6 JUMPI RETURNDATASIZE PUSH0 DUP1 RETURNDATACOPY RETURNDATASIZE PUSH0 REVERT JUMPDEST POP POP POP POP DUP2 PUSH0 ADD PUSH0 SWAP1 SLOAD SWAP1 PUSH2 0x100 EXP SWAP1 DIV PUSH20 0xFFFFFFFFFFFFFFFFFFFFFFFFFFFFFFFFFFFFFFFF AND PUSH20 0xFFFFFFFFFFFFFFFFFFFFFFFFFFFFFFFFFFFFFFFF AND PUSH2 0x8FC DUP4 PUSH1 0x1 ADD SLOAD SWAP1 DUP2 ISZERO MUL SWAP1 PUSH1 0x40 MLOAD PUSH0 PUSH1 0x40 MLOAD DUP1 DUP4 SUB DUP2 DUP6 DUP9 DUP9 CALL SWAP4 POP POP POP POP ISZERO DUP1 ISZERO PUSH2 0x413 JUMPI RETURNDATASIZE PUSH0 DUP1 RETURNDATACOPY RETURNDATASIZE PUSH0 REVERT JUMPDEST POP CALLER PUSH20 0xFFFFFFFFFFFFFFFFFFFFFFFFFFFFFFFFFFFFFFFF AND PUSH2 0x8FC DUP4 PUSH1 0x1 ADD SLOAD CALLVALUE PUSH2 0x43E SWAP2 SWAP1 PUSH2 0x122A JUMP JUMPDEST SWAP1 DUP2 ISZERO MUL SWAP1 PUSH1 0x40 MLOAD PUSH0 PUSH1 0x40 MLOAD DUP1 DUP4 SUB DUP2 DUP6 DUP9 DUP9 CALL SWAP4 POP POP POP POP ISZERO DUP1 ISZERO PUSH2 0x466 JUMPI RETURNDATASIZE PUSH0 DUP1 RETURNDATACOPY RETURNDATASIZE PUSH0 REVERT JUMPDEST POP PUSH0 DUP1 DUP6 PUSH20 0xFFFFFFFFFFFFFFFFFFFFFFFFFFFFFFFFFFFFFFFF AND PUSH20 0xFFFFFFFFFFFFFFFFFFFFFFFFFFFFFFFFFFFFFFFF AND DUP2 MSTORE PUSH1 0x20 ADD SWAP1 DUP2 MSTORE PUSH1 0x20 ADD PUSH0 KECCAK256 PUSH0 DUP5 DUP2 MSTORE PUSH1 0x20 ADD SWAP1 DUP2 MSTORE PUSH1 0x20 ADD PUSH0 KECCAK256 PUSH0 DUP1 DUP3 ADD PUSH0 PUSH2 0x100 EXP DUP2 SLOAD SWAP1 PUSH20 0xFFFFFFFFFFFFFFFFFFFFFFFFFFFFFFFFFFFFFFFF MUL NOT AND SWAP1 SSTORE PUSH1 0x1 DUP3 ADD PUSH0 SWAP1 SSTORE POP POP DUP3 DUP5 PUSH20 0xFFFFFFFFFFFFFFFFFFFFFFFFFFFFFFFFFFFFFFFF AND CALLER PUSH20 0xFFFFFFFFFFFFFFFFFFFFFFFFFFFFFFFFFFFFFFFF AND PUSH32 0x46661DAB58311A6838247AFECBEE792192B4F27FC8B3E7168C66BC55EC2E404E DUP6 PUSH1 0x1 ADD SLOAD PUSH1 0x40 MLOAD PUSH2 0x543 SWAP2 SWAP1 PUSH2 0x1108 JUMP JUMPDEST PUSH1 0x40 MLOAD DUP1 SWAP2 SUB SWAP1 LOG4 POP POP POP POP JUMP JUMPDEST PUSH0 PUSH1 0x20 MSTORE DUP2 PUSH0 MSTORE PUSH1 0x40 PUSH0 KECCAK256 PUSH1 0x20 MSTORE DUP1 PUSH0 MSTORE PUSH1 0x40 PUSH0 KECCAK256 PUSH0 SWAP2 POP SWAP2 POP POP DUP1 PUSH0 ADD PUSH0 SWAP1 SLOAD SWAP1 PUSH2 0x100 EXP SWAP1 DIV PUSH20 0xFFFFFFFFFFFFFFFFFFFFFFFFFFFFFFFFFFFFFFFF AND SWAP1 DUP1 PUSH1 0x1 ADD SLOAD SWAP1 POP DUP3 JUMP JUMPDEST PUSH0 DUP2 GT PUSH2 0x5DC JUMPI PUSH1 0x40 MLOAD PUSH32 0x8C379A000000000000000000000000000000000000000000000000000000000 DUP2 MSTORE PUSH1 0x4 ADD PUSH2 0x5D3 SWAP1 PUSH2 0x1082 JUMP JUMPDEST PUSH1 0x40 MLOAD DUP1 SWAP2 SUB SWAP1 REVERT JUMPDEST PUSH0 DUP1 PUSH0 DUP6 PUSH20 0xFFFFFFFFFFFFFFFFFFFFFFFFFFFFFFFFFFFFFFFF AND PUSH20 0xFFFFFFFFFFFFFFFFFFFFFFFFFFFFFFFFFFFFFFFF AND DUP2 MSTORE PUSH1 0x20 ADD SWAP1 DUP2 MSTORE PUSH1 0x20 ADD PUSH0 KECCAK256 PUSH0 DUP5 DUP2 MSTORE PUSH1 0x20 ADD SWAP1 DUP2 MSTORE PUSH1 0x20 ADD PUSH0 KECCAK256 SWAP1 POP CALLER PUSH20 0xFFFFFFFFFFFFFFFFFFFFFFFFFFFFFFFFFFFFFFFF AND DUP2 PUSH0 ADD PUSH0 SWAP1 SLOAD SWAP1 PUSH2 0x100 EXP SWAP1 DIV PUSH20 0xFFFFFFFFFFFFFFFFFFFFFFFFFFFFFFFFFFFFFFFF AND PUSH20 0xFFFFFFFFFFFFFFFFFFFFFFFFFFFFFFFFFFFFFFFF AND EQ PUSH2 0x6BA JUMPI PUSH1 0x40 MLOAD PUSH32 0x8C379A000000000000000000000000000000000000000000000000000000000 DUP2 MSTORE PUSH1 0x4 ADD PUSH2 0x6B1 SWAP1 PUSH2 0x12A7 JUMP JUMPDEST PUSH1 0x40 MLOAD DUP1 SWAP2 SUB SWAP1 REVERT JUMPDEST PUSH0 DUP5 SWAP1 POP ADDRESS PUSH20 0xFFFFFFFFFFFFFFFFFFFFFFFFFFFFFFFFFFFFFFFF AND DUP2 PUSH20 0xFFFFFFFFFFFFFFFFFFFFFFFFFFFFFFFFFFFFFFFF AND PUSH4 0x6352211E DUP7 PUSH1 0x40 MLOAD DUP3 PUSH4 0xFFFFFFFF AND PUSH1 0xE0 SHL DUP2 MSTORE PUSH1 0x4 ADD PUSH2 0x70E SWAP2 SWAP1 PUSH2 0x1108 JUMP JUMPDEST PUSH1 0x20 PUSH1 0x40 MLOAD DUP1 DUP4 SUB DUP2 DUP7 GAS STATICCALL ISZERO DUP1 ISZERO PUSH2 0x729 JUMPI RETURNDATASIZE PUSH0 DUP1 RETURNDATACOPY RETURNDATASIZE PUSH0 REVERT JUMPDEST POP POP POP POP PUSH1 0x40 MLOAD RETURNDATASIZE PUSH1 0x1F NOT PUSH1 0x1F DUP3 ADD AND DUP3 ADD DUP1 PUSH1 0x40 MSTORE POP DUP2 ADD SWAP1 PUSH2 0x74D SWAP2 SWAP1 PUSH2 0x1135 JUMP JUMPDEST PUSH20 0xFFFFFFFFFFFFFFFFFFFFFFFFFFFFFFFFFFFFFFFF AND EQ PUSH2 0x7A3 JUMPI PUSH1 0x40 MLOAD PUSH32 0x8C379A000000000000000000000000000000000000000000000000000000000 DUP2 MSTORE PUSH1 0x4 ADD PUSH2 0x79A SWAP1 PUSH2 0x11AA JUMP JUMPDEST PUSH1 0x40 MLOAD DUP1 SWAP2 SUB SWAP1 REVERT JUMPDEST DUP3 DUP3 PUSH1 0x1 ADD DUP2 SWAP1 SSTORE POP DUP4 DUP6 PUSH20 0xFFFFFFFFFFFFFFFFFFFFFFFFFFFFFFFFFFFFFFFF AND CALLER PUSH20 0xFFFFFFFFFFFFFFFFFFFFFFFFFFFFFFFFFFFFFFFF AND PUSH32 0xB7F0CA7CD5B24651672216886135B99FF40342BCF549009A4C6FC74F059FB9A0 DUP7 PUSH1 0x40 MLOAD PUSH2 0x80A SWAP2 SWAP1 PUSH2 0x1108 JUMP JUMPDEST PUSH1 0x40 MLOAD DUP1 SWAP2 SUB SWAP1 LOG4 POP POP POP POP POP JUMP JUMPDEST PUSH0 DUP4 SWAP1 POP ADDRESS PUSH20 0xFFFFFFFFFFFFFFFFFFFFFFFFFFFFFFFFFFFFFFFF AND DUP2 PUSH20 0xFFFFFFFFFFFFFFFFFFFFFFFFFFFFFFFFFFFFFFFF AND PUSH4 0x81812FC DUP6 PUSH1 0x40 MLOAD DUP3 PUSH4 0xFFFFFFFF AND PUSH1 0xE0 SHL DUP2 MSTORE PUSH1 0x4 ADD PUSH2 0x86D SWAP2 SWAP1 PUSH2 0x1108 JUMP JUMPDEST PUSH1 0x20 PUSH1 0x40 MLOAD DUP1 DUP4 SUB DUP2 DUP7 GAS STATICCALL ISZERO DUP1 ISZERO PUSH2 0x888 JUMPI RETURNDATASIZE PUSH0 DUP1 RETURNDATACOPY RETURNDATASIZE PUSH0 REVERT JUMPDEST POP POP POP POP PUSH1 0x40 MLOAD RETURNDATASIZE PUSH1 0x1F NOT PUSH1 0x1F DUP3 ADD AND DUP3 ADD DUP1 PUSH1 0x40 MSTORE POP DUP2 ADD SWAP1 PUSH2 0x8AC SWAP2 SWAP1 PUSH2 0x1135 JUMP JUMPDEST PUSH20 0xFFFFFFFFFFFFFFFFFFFFFFFFFFFFFFFFFFFFFFFF AND EQ PUSH2 0x902 JUMPI PUSH1 0x40 MLOAD PUSH32 0x8C379A000000000000000000000000000000000000000000000000000000000 DUP2 MSTORE PUSH1 0x4 ADD PUSH2 0x8F9 SWAP1 PUSH2 0x130F JUMP JUMPDEST PUSH1 0x40 MLOAD DUP1 SWAP2 SUB SWAP1 REVERT JUMPDEST PUSH0 DUP3 GT PUSH2 0x90D JUMPI PUSH0 DUP1 REVERT JUMPDEST PUSH0 DUP1 PUSH0 DUP7 PUSH20 0xFFFFFFFFFFFFFFFFFFFFFFFFFFFFFFFFFFFFFFFF AND PUSH20 0xFFFFFFFFFFFFFFFFFFFFFFFFFFFFFFFFFFFFFFFF AND DUP2 MSTORE PUSH1 0x20 ADD SWAP1 DUP2 MSTORE PUSH1 0x20 ADD PUSH0 KECCAK256 PUSH0 DUP6 DUP2 MSTORE PUSH1 0x20 ADD SWAP1 DUP2 MSTORE PUSH1 0x20 ADD PUSH0 KECCAK256 SWAP1 POP CALLER DUP2 PUSH0 ADD PUSH0 PUSH2 0x100 EXP DUP2 SLOAD DUP2 PUSH20 0xFFFFFFFFFFFFFFFFFFFFFFFFFFFFFFFFFFFFFFFF MUL NOT AND SWAP1 DUP4 PUSH20 0xFFFFFFFFFFFFFFFFFFFFFFFFFFFFFFFFFFFFFFFF AND MUL OR SWAP1 SSTORE POP DUP3 DUP2 PUSH1 0x1 ADD DUP2 SWAP1 SSTORE POP DUP2 PUSH20 0xFFFFFFFFFFFFFFFFFFFFFFFFFFFFFFFFFFFFFFFF AND PUSH4 0x42842E0E CALLER ADDRESS DUP8 PUSH1 0x40 MLOAD DUP5 PUSH4 0xFFFFFFFF AND PUSH1 0xE0 SHL DUP2 MSTORE PUSH1 0x4 ADD PUSH2 0x9E2 SWAP4 SWAP3 SWAP2 SWAP1 PUSH2 0x11C8 JUMP JUMPDEST PUSH0 PUSH1 0x40 MLOAD DUP1 DUP4 SUB DUP2 PUSH0 DUP8 DUP1 EXTCODESIZE ISZERO DUP1 ISZERO PUSH2 0x9F9 JUMPI PUSH0 DUP1 REVERT JUMPDEST POP GAS CALL ISZERO DUP1 ISZERO PUSH2 0xA0B JUMPI RETURNDATASIZE PUSH0 DUP1 RETURNDATACOPY RETURNDATASIZE PUSH0 REVERT JUMPDEST POP POP POP POP DUP4 DUP6 PUSH20 0xFFFFFFFFFFFFFFFFFFFFFFFFFFFFFFFFFFFFFFFF AND CALLER PUSH20 0xFFFFFFFFFFFFFFFFFFFFFFFFFFFFFFFFFFFFFFFF AND PUSH32 0xEDBDF022944A3291F4B30148903A84720506F48E10478EC5812E5CAF30E1FAB0 DUP7 PUSH1 0x40 MLOAD PUSH2 0xA6D SWAP2 SWAP1 PUSH2 0x1108 JUMP JUMPDEST PUSH1 0x40 MLOAD DUP1 SWAP2 SUB SWAP1 LOG4 POP POP POP POP POP JUMP JUMPDEST PUSH0 DUP1 PUSH0 DUP5 PUSH20 0xFFFFFFFFFFFFFFFFFFFFFFFFFFFFFFFFFFFFFFFF AND PUSH20 0xFFFFFFFFFFFFFFFFFFFFFFFFFFFFFFFFFFFFFFFF AND DUP2 MSTORE PUSH1 0x20 ADD SWAP1 DUP2 MSTORE PUSH1 0x20 ADD PUSH0 KECCAK256 PUSH0 DUP4 DUP2 MSTORE PUSH1 0x20 ADD SWAP1 DUP2 MSTORE PUSH1 0x20 ADD PUSH0 KECCAK256 SWAP1 POP CALLER PUSH20 0xFFFFFFFFFFFFFFFFFFFFFFFFFFFFFFFFFFFFFFFF AND DUP2 PUSH0 ADD PUSH0 SWAP1 SLOAD SWAP1 PUSH2 0x100 EXP SWAP1 DIV PUSH20 0xFFFFFFFFFFFFFFFFFFFFFFFFFFFFFFFFFFFFFFFF AND PUSH20 0xFFFFFFFFFFFFFFFFFFFFFFFFFFFFFFFFFFFFFFFF AND EQ PUSH2 0xB5A JUMPI PUSH1 0x40 MLOAD PUSH32 0x8C379A000000000000000000000000000000000000000000000000000000000 DUP2 MSTORE PUSH1 0x4 ADD PUSH2 0xB51 SWAP1 PUSH2 0x12A7 JUMP JUMPDEST PUSH1 0x40 MLOAD DUP1 SWAP2 SUB SWAP1 REVERT JUMPDEST PUSH0 DUP4 SWAP1 POP ADDRESS PUSH20 0xFFFFFFFFFFFFFFFFFFFFFFFFFFFFFFFFFFFFFFFF AND DUP2 PUSH20 0xFFFFFFFFFFFFFFFFFFFFFFFFFFFFFFFFFFFFFFFF AND PUSH4 0x6352211E DUP6 PUSH1 0x40 MLOAD DUP3 PUSH4 0xFFFFFFFF AND PUSH1 0xE0 SHL DUP2 MSTORE PUSH1 0x4 ADD PUSH2 0xBAE SWAP2 SWAP1 PUSH2 0x1108 JUMP JUMPDEST PUSH1 0x20 PUSH1 0x40 MLOAD DUP1 DUP4 SUB DUP2 DUP7 GAS STATICCALL ISZERO DUP1 ISZERO PUSH2 0xBC9 JUMPI RETURNDATASIZE PUSH0 DUP1 RETURNDATACOPY RETURNDATASIZE PUSH0 REVERT JUMPDEST POP POP POP POP PUSH1 0x40 MLOAD RETURNDATASIZE PUSH1 0x1F NOT PUSH1 0x1F DUP3 ADD AND DUP3 ADD DUP1 PUSH1 0x40 MSTORE POP DUP2 ADD SWAP1 PUSH2 0xBED SWAP2 SWAP1 PUSH2 0x1135 JUMP JUMPDEST PUSH20 0xFFFFFFFFFFFFFFFFFFFFFFFFFFFFFFFFFFFFFFFF AND EQ PUSH2 0xC43 JUMPI PUSH1 0x40 MLOAD PUSH32 0x8C379A000000000000000000000000000000000000000000000000000000000 DUP2 MSTORE PUSH1 0x4 ADD PUSH2 0xC3A SWAP1 PUSH2 0x11AA JUMP JUMPDEST PUSH1 0x40 MLOAD DUP1 SWAP2 SUB SWAP1 REVERT JUMPDEST DUP1 PUSH20 0xFFFFFFFFFFFFFFFFFFFFFFFFFFFFFFFFFFFFFFFF AND PUSH4 0x42842E0E ADDRESS CALLER DUP7 PUSH1 0x40 MLOAD DUP5 PUSH4 0xFFFFFFFF AND PUSH1 0xE0 SHL DUP2 MSTORE PUSH1 0x4 ADD PUSH2 0xC80 SWAP4 SWAP3 SWAP2 SWAP1 PUSH2 0x11C8 JUMP JUMPDEST PUSH0 PUSH1 0x40 MLOAD DUP1 DUP4 SUB DUP2 PUSH0 DUP8 DUP1 EXTCODESIZE ISZERO DUP1 ISZERO PUSH2 0xC97 JUMPI PUSH0 DUP1 REVERT JUMPDEST POP GAS CALL ISZERO DUP1 ISZERO PUSH2 0xCA9 JUMPI RETURNDATASIZE PUSH0 DUP1 RETURNDATACOPY RETURNDATASIZE PUSH0 REVERT JUMPDEST POP POP POP POP PUSH0 DUP1 DUP6 PUSH20 0xFFFFFFFFFFFFFFFFFFFFFFFFFFFFFFFFFFFFFFFF AND PUSH20 0xFFFFFFFFFFFFFFFFFFFFFFFFFFFFFFFFFFFFFFFF AND DUP2 MSTORE PUSH1 0x20 ADD SWAP1 DUP2 MSTORE PUSH1 0x20 ADD PUSH0 KECCAK256 PUSH0 DUP5 DUP2 MSTORE PUSH1 0x20 ADD SWAP1 DUP2 MSTORE PUSH1 0x20 ADD PUSH0 KECCAK256 PUSH0 DUP1 DUP3 ADD PUSH0 PUSH2 0x100 EXP DUP2 SLOAD SWAP1 PUSH20 0xFFFFFFFFFFFFFFFFFFFFFFFFFFFFFFFFFFFFFFFF MUL NOT AND SWAP1 SSTORE PUSH1 0x1 DUP3 ADD PUSH0 SWAP1 SSTORE POP POP DUP3 DUP5 PUSH20 0xFFFFFFFFFFFFFFFFFFFFFFFFFFFFFFFFFFFFFFFF AND CALLER PUSH20 0xFFFFFFFFFFFFFFFFFFFFFFFFFFFFFFFFFFFFFFFF AND PUSH32 0xB698E31A2ABEE5824D0D7BCFD2339AEAD7F9E9AE413FBA50BF554FF3FA470B7B PUSH1 0x40 MLOAD PUSH1 0x40 MLOAD DUP1 SWAP2 SUB SWAP1 LOG4 POP POP POP POP JUMP JUMPDEST PUSH0 DUP1 REVERT JUMPDEST PUSH0 DUP1 REVERT JUMPDEST PUSH0 PUSH20 0xFFFFFFFFFFFFFFFFFFFFFFFFFFFFFFFFFFFFFFFF DUP3 AND SWAP1 POP SWAP2 SWAP1 POP JUMP JUMPDEST PUSH0 PUSH2 0xDB9 DUP3 PUSH2 0xD90 JUMP JUMPDEST SWAP1 POP SWAP2 SWAP1 POP JUMP JUMPDEST PUSH2 0xDC9 DUP2 PUSH2 0xDAF JUMP JUMPDEST DUP2 EQ PUSH2 0xDD3 JUMPI PUSH0 DUP1 REVERT JUMPDEST POP JUMP JUMPDEST PUSH0 DUP2 CALLDATALOAD SWAP1 POP PUSH2 0xDE4 DUP2 PUSH2 0xDC0 JUMP JUMPDEST SWAP3 SWAP2 POP POP JUMP JUMPDEST PUSH0 DUP2 SWAP1 POP SWAP2 SWAP1 POP JUMP JUMPDEST PUSH2 0xDFC DUP2 PUSH2 0xDEA JUMP JUMPDEST DUP2 EQ PUSH2 0xE06 JUMPI PUSH0 DUP1 REVERT JUMPDEST POP JUMP JUMPDEST PUSH0 DUP2 CALLDATALOAD SWAP1 POP PUSH2 0xE17 DUP2 PUSH2 0xDF3 JUMP JUMPDEST SWAP3 SWAP2 POP POP JUMP JUMPDEST PUSH0 DUP1 REVERT JUMPDEST PUSH0 DUP1 REVERT JUMPDEST PUSH0 DUP1 REVERT JUMPDEST PUSH0 DUP1 DUP4 PUSH1 0x1F DUP5 ADD SLT PUSH2 0xE3E JUMPI PUSH2 0xE3D PUSH2 0xE1D JUMP JUMPDEST JUMPDEST DUP3 CALLDATALOAD SWAP1 POP PUSH8 0xFFFFFFFFFFFFFFFF DUP2 GT ISZERO PUSH2 0xE5B JUMPI PUSH2 0xE5A PUSH2 0xE21 JUMP JUMPDEST JUMPDEST PUSH1 0x20 DUP4 ADD SWAP2 POP DUP4 PUSH1 0x1 DUP3 MUL DUP4 ADD GT ISZERO PUSH2 0xE77 JUMPI PUSH2 0xE76 PUSH2 0xE25 JUMP JUMPDEST JUMPDEST SWAP3 POP SWAP3 SWAP1 POP JUMP JUMPDEST PUSH0 DUP1 PUSH0 DUP1 PUSH0 PUSH1 0x80 DUP7 DUP9 SUB SLT ISZERO PUSH2 0xE97 JUMPI PUSH2 0xE96 PUSH2 0xD88 JUMP JUMPDEST JUMPDEST PUSH0 PUSH2 0xEA4 DUP9 DUP3 DUP10 ADD PUSH2 0xDD6 JUMP JUMPDEST SWAP6 POP POP PUSH1 0x20 PUSH2 0xEB5 DUP9 DUP3 DUP10 ADD PUSH2 0xDD6 JUMP JUMPDEST SWAP5 POP POP PUSH1 0x40 PUSH2 0xEC6 DUP9 DUP3 DUP10 ADD PUSH2 0xE09 JUMP JUMPDEST SWAP4 POP POP PUSH1 0x60 DUP7 ADD CALLDATALOAD PUSH8 0xFFFFFFFFFFFFFFFF DUP2 GT ISZERO PUSH2 0xEE7 JUMPI PUSH2 0xEE6 PUSH2 0xD8C JUMP JUMPDEST JUMPDEST PUSH2 0xEF3 DUP9 DUP3 DUP10 ADD PUSH2 0xE29 JUMP JUMPDEST SWAP3 POP SWAP3 POP POP SWAP3 SWAP6 POP SWAP3 SWAP6 SWAP1 SWAP4 POP JUMP JUMPDEST PUSH0 PUSH32 0xFFFFFFFF00000000000000000000000000000000000000000000000000000000 DUP3 AND SWAP1 POP SWAP2 SWAP1 POP JUMP JUMPDEST PUSH2 0xF36 DUP2 PUSH2 0xF02 JUMP JUMPDEST DUP3 MSTORE POP POP JUMP JUMPDEST PUSH0 PUSH1 0x20 DUP3 ADD SWAP1 POP PUSH2 0xF4F PUSH0 DUP4 ADD DUP5 PUSH2 0xF2D JUMP JUMPDEST SWAP3 SWAP2 POP POP JUMP JUMPDEST PUSH0 DUP1 PUSH1 0x40 DUP4 DUP6 SUB SLT ISZERO PUSH2 0xF6B JUMPI PUSH2 0xF6A PUSH2 0xD88 JUMP JUMPDEST JUMPDEST PUSH0 PUSH2 0xF78 DUP6 DUP3 DUP7 ADD PUSH2 0xDD6 JUMP JUMPDEST SWAP3 POP POP PUSH1 0x20 PUSH2 0xF89 DUP6 DUP3 DUP7 ADD PUSH2 0xE09 JUMP JUMPDEST SWAP2 POP POP SWAP3 POP SWAP3 SWAP1 POP JUMP JUMPDEST PUSH2 0xF9C DUP2 PUSH2 0xDAF JUMP JUMPDEST DUP3 MSTORE POP POP JUMP JUMPDEST PUSH2 0xFAB DUP2 PUSH2 0xDEA JUMP JUMPDEST DUP3 MSTORE POP POP JUMP JUMPDEST PUSH0 PUSH1 0x40 DUP3 ADD SWAP1 POP PUSH2 0xFC4 PUSH0 DUP4 ADD DUP6 PUSH2 0xF93 JUMP JUMPDEST PUSH2 0xFD1 PUSH1 0x20 DUP4 ADD DUP5 PUSH2 0xFA2 JUMP JUMPDEST SWAP4 SWAP3 POP POP POP JUMP JUMPDEST PUSH0 DUP1 PUSH0 PUSH1 0x60 DUP5 DUP7 SUB SLT ISZERO PUSH2 0xFEF JUMPI PUSH2 0xFEE PUSH2 0xD88 JUMP JUMPDEST JUMPDEST PUSH0 PUSH2 0xFFC DUP7 DUP3 DUP8 ADD PUSH2 0xDD6 JUMP JUMPDEST SWAP4 POP POP PUSH1 0x20 PUSH2 0x100D DUP7 DUP3 DUP8 ADD PUSH2 0xE09 JUMP JUMPDEST SWAP3 POP POP PUSH1 0x40 PUSH2 0x101E DUP7 DUP3 DUP8 ADD PUSH2 0xE09 JUMP JUMPDEST SWAP2 POP POP SWAP3 POP SWAP3 POP SWAP3 JUMP JUMPDEST PUSH0 DUP3 DUP3 MSTORE PUSH1 0x20 DUP3 ADD SWAP1 POP SWAP3 SWAP2 POP POP JUMP JUMPDEST PUSH32 0x496E76616C696420507269636500000000000000000000000000000000000000 PUSH0 DUP3 ADD MSTORE POP JUMP JUMPDEST PUSH0 PUSH2 0x106C PUSH1 0xD DUP4 PUSH2 0x1028 JUMP JUMPDEST SWAP2 POP PUSH2 0x1077 DUP3 PUSH2 0x1038 JUMP JUMPDEST PUSH1 0x20 DUP3 ADD SWAP1 POP SWAP2 SWAP1 POP JUMP JUMPDEST PUSH0 PUSH1 0x20 DUP3 ADD SWAP1 POP DUP2 DUP2 SUB PUSH0 DUP4 ADD MSTORE PUSH2 0x1099 DUP2 PUSH2 0x1060 JUMP JUMPDEST SWAP1 POP SWAP2 SWAP1 POP JUMP JUMPDEST PUSH32 0x496E637265617365207072696365000000000000000000000000000000000000 PUSH0 DUP3 ADD MSTORE POP JUMP JUMPDEST PUSH0 PUSH2 0x10D4 PUSH1 0xE DUP4 PUSH2 0x1028 JUMP JUMPDEST SWAP2 POP PUSH2 0x10DF DUP3 PUSH2 0x10A0 JUMP JUMPDEST PUSH1 0x20 DUP3 ADD SWAP1 POP SWAP2 SWAP1 POP JUMP JUMPDEST PUSH0 PUSH1 0x20 DUP3 ADD SWAP1 POP DUP2 DUP2 SUB PUSH0 DUP4 ADD MSTORE PUSH2 0x1101 DUP2 PUSH2 0x10C8 JUMP JUMPDEST SWAP1 POP SWAP2 SWAP1 POP JUMP JUMPDEST PUSH0 PUSH1 0x20 DUP3 ADD SWAP1 POP PUSH2 0x111B PUSH0 DUP4 ADD DUP5 PUSH2 0xFA2 JUMP JUMPDEST SWAP3 SWAP2 POP POP JUMP JUMPDEST PUSH0 DUP2 MLOAD SWAP1 POP PUSH2 0x112F DUP2 PUSH2 0xDC0 JUMP JUMPDEST SWAP3 SWAP2 POP POP JUMP JUMPDEST PUSH0 PUSH1 0x20 DUP3 DUP5 SUB SLT ISZERO PUSH2 0x114A JUMPI PUSH2 0x1149 PUSH2 0xD88 JUMP JUMPDEST JUMPDEST PUSH0 PUSH2 0x1157 DUP5 DUP3 DUP6 ADD PUSH2 0x1121 JUMP JUMPDEST SWAP2 POP POP SWAP3 SWAP2 POP POP JUMP JUMPDEST PUSH32 0x496E76616C6964204F7264657200000000000000000000000000000000000000 PUSH0 DUP3 ADD MSTORE POP JUMP JUMPDEST PUSH0 PUSH2 0x1194 PUSH1 0xD DUP4 PUSH2 0x1028 JUMP JUMPDEST SWAP2 POP PUSH2 0x119F DUP3 PUSH2 0x1160 JUMP JUMPDEST PUSH1 0x20 DUP3 ADD SWAP1 POP SWAP2 SWAP1 POP JUMP JUMPDEST PUSH0 PUSH1 0x20 DUP3 ADD SWAP1 POP DUP2 DUP2 SUB PUSH0 DUP4 ADD MSTORE PUSH2 0x11C1 DUP2 PUSH2 0x1188 JUMP JUMPDEST SWAP1 POP SWAP2 SWAP1 POP JUMP JUMPDEST PUSH0 PUSH1 0x60 DUP3 ADD SWAP1 POP PUSH2 0x11DB PUSH0 DUP4 ADD DUP7 PUSH2 0xF93 JUMP JUMPDEST PUSH2 0x11E8 PUSH1 0x20 DUP4 ADD DUP6 PUSH2 0xF93 JUMP JUMPDEST PUSH2 0x11F5 PUSH1 0x40 DUP4 ADD DUP5 PUSH2 0xFA2 JUMP JUMPDEST SWAP5 SWAP4 POP POP POP POP JUMP JUMPDEST PUSH32 0x4E487B7100000000000000000000000000000000000000000000000000000000 PUSH0 MSTORE PUSH1 0x11 PUSH1 0x4 MSTORE PUSH1 0x24 PUSH0 REVERT JUMPDEST PUSH0 PUSH2 0x1234 DUP3 PUSH2 0xDEA JUMP JUMPDEST SWAP2 POP PUSH2 0x123F DUP4 PUSH2 0xDEA JUMP JUMPDEST SWAP3 POP DUP3 DUP3 SUB SWAP1 POP DUP2 DUP2 GT ISZERO PUSH2 0x1257 JUMPI PUSH2 0x1256 PUSH2 0x11FD JUMP JUMPDEST JUMPDEST SWAP3 SWAP2 POP POP JUMP JUMPDEST PUSH32 0x4E6F74204F776E65720000000000000000000000000000000000000000000000 PUSH0 DUP3 ADD MSTORE POP JUMP JUMPDEST PUSH0 PUSH2 0x1291 PUSH1 0x9 DUP4 PUSH2 0x1028 JUMP JUMPDEST SWAP2 POP PUSH2 0x129C DUP3 PUSH2 0x125D JUMP JUMPDEST PUSH1 0x20 DUP3 ADD SWAP1 POP SWAP2 SWAP1 POP JUMP JUMPDEST PUSH0 PUSH1 0x20 DUP3 ADD SWAP1 POP DUP2 DUP2 SUB PUSH0 DUP4 ADD MSTORE PUSH2 0x12BE DUP2 PUSH2 0x1285 JUMP JUMPDEST SWAP1 POP SWAP2 SWAP1 POP JUMP JUMPDEST PUSH32 0x4E65656420417070726F76616C00000000000000000000000000000000000000 PUSH0 DUP3 ADD MSTORE POP JUMP JUMPDEST PUSH0 PUSH2 0x12F9 PUSH1 0xD DUP4 PUSH2 0x1028 JUMP JUMPDEST SWAP2 POP PUSH2 0x1304 DUP3 PUSH2 0x12C5 JUMP JUMPDEST PUSH1 0x20 DUP3 ADD SWAP1 POP SWAP2 SWAP1 POP JUMP JUMPDEST PUSH0 PUSH1 0x20 DUP3 ADD SWAP1 POP DUP2 DUP2 SUB PUSH0 DUP4 ADD MSTORE PUSH2 0x1326 DUP2 PUSH2 0x12ED JUMP JUMPDEST SWAP1 POP SWAP2 SWAP1 POP JUMP INVALID LOG2 PUSH5 0x6970667358 0x22 SLT KECCAK256 SSTORE RETURNDATACOPY 0x26 PUSH9 0x912F656FCF1E0E0CB5 0xDE PUSH9 0x668655C79CB0873467 CALL BLOBHASH KECCAK256 0xBD DUP15 SAR MOD 0xF8 PUSH5 0x736F6C6343 STOP ADDMOD BYTE STOP CALLER "
				},
				"gasEstimates": {
					"creation": {
						"codeDepositCost": "992600",
						"executionCost": "1032",
						"totalCost": "993632"
					},
					"external": {
						"": "194",
						"list(address,uint256,uint256)": "infinite",
						"nftList(address,uint256)": "infinite",
						"onERC721Received(address,address,uint256,bytes)": "infinite",
						"purchase(address,uint256)": "infinite",
						"revoke(address,uint256)": "infinite",
						"update(address,uint256,uint256)": "infinite"
					}
				},
				"methodIdentifiers": {
					"list(address,uint256,uint256)": "dda342bb",
					"nftList(address,uint256)": "ba5f4fb2",
					"onERC721Received(address,address,uint256,bytes)": "150b7a02",
					"purchase(address,uint256)": "8de93222",
					"revoke(address,uint256)": "eac449d9",
					"update(address,uint256,uint256)": "d09b6d43"
				}
			},
			"storageLayout": {
				"storage": [
					{
						"astId": 204,
						"contract": "contracts/t_ref_op_NFTSwap.sol:NTFSwap",
						"label": "nftList",
						"offset": 0,
						"slot": "0",
						"type": "t_mapping(t_address,t_mapping(t_uint256,t_struct(Order)197_storage))"
					}
				],
				"types": {
					"t_address": {
						"encoding": "inplace",
						"label": "address",
						"numberOfBytes": "20"
					},
					"t_mapping(t_address,t_mapping(t_uint256,t_struct(Order)197_storage))": {
						"encoding": "mapping",
						"key": "t_address",
						"label": "mapping(address => mapping(uint256 => struct NTFSwap.Order))",
						"numberOfBytes": "32",
						"value": "t_mapping(t_uint256,t_struct(Order)197_storage)"
					},
					"t_mapping(t_uint256,t_struct(Order)197_storage)": {
						"encoding": "mapping",
						"key": "t_uint256",
						"label": "mapping(uint256 => struct NTFSwap.Order)",
						"numberOfBytes": "32",
						"value": "t_struct(Order)197_storage"
					},
					"t_struct(Order)197_storage": {
						"encoding": "inplace",
						"label": "struct NTFSwap.Order",
						"members": [
							{
								"astId": 194,
								"contract": "contracts/t_ref_op_NFTSwap.sol:NTFSwap",
								"label": "owner",
								"offset": 0,
								"slot": "0",
								"type": "t_address"
							},
							{
								"astId": 196,
								"contract": "contracts/t_ref_op_NFTSwap.sol:NTFSwap",
								"label": "price",
								"offset": 0,
								"slot": "1",
								"type": "t_uint256"
							}
						],
						"numberOfBytes": "64"
					},
					"t_uint256": {
						"encoding": "inplace",
						"label": "uint256",
						"numberOfBytes": "32"
					}
				}
			},
			"userdoc": {
				"kind": "user",
				"methods": {},
				"version": 1
			}
		}
	}
}