{
	"contracts/t4_ballot.sol": {
		"Ballot": {
			"abi": [
				{
					"inputs": [
						{
							"internalType": "bytes32[]",
							"name": "proposalNames",
							"type": "bytes32[]"
						},
						{
							"internalType": "uint256",
							"name": "startTime_",
							"type": "uint256"
						},
						{
							"internalType": "uint256",
							"name": "endTime_",
							"type": "uint256"
						}
					],
					"stateMutability": "nonpayable",
					"type": "constructor"
				},
				{
					"inputs": [],
					"name": "chairperson",
					"outputs": [
						{
							"internalType": "address",
							"name": "",
							"type": "address"
						}
					],
					"stateMutability": "view",
					"type": "function"
				},
				{
					"inputs": [
						{
							"internalType": "address",
							"name": "to",
							"type": "address"
						}
					],
					"name": "delegate",
					"outputs": [],
					"stateMutability": "nonpayable",
					"type": "function"
				},
				{
					"inputs": [
						{
							"internalType": "address",
							"name": "voter",
							"type": "address"
						}
					],
					"name": "giveRightToVote",
					"outputs": [],
					"stateMutability": "nonpayable",
					"type": "function"
				},
				{
					"inputs": [
						{
							"internalType": "uint256",
							"name": "",
							"type": "uint256"
						}
					],
					"name": "proposals",
					"outputs": [
						{
							"internalType": "bytes32",
							"name": "name",
							"type": "bytes32"
						},
						{
							"internalType": "uint256",
							"name": "voteCount",
							"type": "uint256"
						}
					],
					"stateMutability": "view",
					"type": "function"
				},
				{
					"inputs": [
						{
							"internalType": "address",
							"name": "voter",
							"type": "address"
						},
						{
							"internalType": "uint256",
							"name": "weight",
							"type": "uint256"
						}
					],
					"name": "setVoterWeight",
					"outputs": [],
					"stateMutability": "nonpayable",
					"type": "function"
				},
				{
					"inputs": [
						{
							"internalType": "uint256",
							"name": "proposal",
							"type": "uint256"
						}
					],
					"name": "vote",
					"outputs": [],
					"stateMutability": "nonpayable",
					"type": "function"
				},
				{
					"inputs": [
						{
							"internalType": "address",
							"name": "",
							"type": "address"
						}
					],
					"name": "voters",
					"outputs": [
						{
							"internalType": "uint256",
							"name": "weight",
							"type": "uint256"
						},
						{
							"internalType": "bool",
							"name": "voted",
							"type": "bool"
						},
						{
							"internalType": "address",
							"name": "delegate",
							"type": "address"
						},
						{
							"internalType": "uint256",
							"name": "vote",
							"type": "uint256"
						}
					],
					"stateMutability": "view",
					"type": "function"
				},
				{
					"inputs": [],
					"name": "winnerName",
					"outputs": [
						{
							"internalType": "bytes32",
							"name": "winnerName_",
							"type": "bytes32"
						}
					],
					"stateMutability": "view",
					"type": "function"
				},
				{
					"inputs": [],
					"name": "winningProposal",
					"outputs": [
						{
							"internalType": "uint256",
							"name": "winningProposal_",
							"type": "uint256"
						}
					],
					"stateMutability": "view",
					"type": "function"
				}
			],
			"devdoc": {
				"kind": "dev",
				"methods": {},
				"version": 1
			},
			"evm": {
				"assembly": "    /* \"contracts/t4_ballot.sol\":74:3773  contract Ballot {... */\n  mstore(0x40, 0x80)\n    /* \"contracts/t4_ballot.sol\":479:990  constructor(bytes32[] memory proposalNames, uint256 startTime_, uint256 endTime_) {... */\n  callvalue\n  dup1\n  iszero\n  tag_1\n  jumpi\n  0x00\n  dup1\n  revert\ntag_1:\n  pop\n  mload(0x40)\n  sub(codesize, bytecodeSize)\n  dup1\n  bytecodeSize\n  dup4\n  codecopy\n  dup2\n  dup2\n  add\n  0x40\n  mstore\n  dup2\n  add\n  swap1\n  tag_2\n  swap2\n  swap1\n  tag_3\n  jump\t// in\ntag_2:\n    /* \"contracts/t4_ballot.sol\":591:601  startTime_ */\n  dup2\n    /* \"contracts/t4_ballot.sol\":580:588  endTime_ */\n  dup2\n    /* \"contracts/t4_ballot.sol\":580:601  endTime_ > startTime_ */\n  gt\n    /* \"contracts/t4_ballot.sol\":572:646  require(endTime_ > startTime_, \"Endtime must greater than the starttime.\") */\n  tag_6\n  jumpi\n  mload(0x40)\n  0x08c379a000000000000000000000000000000000000000000000000000000000\n  dup2\n  mstore\n  0x04\n  add\n  tag_7\n  swap1\n  tag_8\n  jump\t// in\ntag_7:\n  mload(0x40)\n  dup1\n  swap2\n  sub\n  swap1\n  revert\ntag_6:\n    /* \"contracts/t4_ballot.sol\":671:681  msg.sender */\n  caller\n    /* \"contracts/t4_ballot.sol\":657:668  chairperson */\n  0x02\n  0x00\n    /* \"contracts/t4_ballot.sol\":657:681  chairperson = msg.sender */\n  0x0100\n  exp\n  dup2\n  sload\n  dup2\n  0xffffffffffffffffffffffffffffffffffffffff\n  mul\n  not\n  and\n  swap1\n  dup4\n  0xffffffffffffffffffffffffffffffffffffffff\n  and\n  mul\n  or\n  swap1\n  sstore\n  pop\n    /* \"contracts/t4_ballot.sol\":721:722  1 */\n  0x01\n    /* \"contracts/t4_ballot.sol\":692:698  voters */\n  0x03\n    /* \"contracts/t4_ballot.sol\":692:711  voters[chairperson] */\n  0x00\n    /* \"contracts/t4_ballot.sol\":699:710  chairperson */\n  0x02\n  0x00\n  swap1\n  sload\n  swap1\n  0x0100\n  exp\n  swap1\n  div\n  0xffffffffffffffffffffffffffffffffffffffff\n  and\n    /* \"contracts/t4_ballot.sol\":692:711  voters[chairperson] */\n  0xffffffffffffffffffffffffffffffffffffffff\n  and\n  0xffffffffffffffffffffffffffffffffffffffff\n  and\n  dup2\n  mstore\n  0x20\n  add\n  swap1\n  dup2\n  mstore\n  0x20\n  add\n  0x00\n  keccak256\n    /* \"contracts/t4_ballot.sol\":692:718  voters[chairperson].weight */\n  0x00\n  add\n    /* \"contracts/t4_ballot.sol\":692:722  voters[chairperson].weight = 1 */\n  dup2\n  swap1\n  sstore\n  pop\n    /* \"contracts/t4_ballot.sol\":745:755  startTime_ */\n  dup2\n    /* \"contracts/t4_ballot.sol\":733:742  startTime */\n  0x00\n    /* \"contracts/t4_ballot.sol\":733:755  startTime = startTime_ */\n  dup2\n  swap1\n  sstore\n  pop\n    /* \"contracts/t4_ballot.sol\":776:784  endTime_ */\n  dup1\n    /* \"contracts/t4_ballot.sol\":766:773  endTime */\n  0x01\n    /* \"contracts/t4_ballot.sol\":766:784  endTime = endTime_ */\n  dup2\n  swap1\n  sstore\n  pop\n    /* \"contracts/t4_ballot.sol\":800:806  uint i */\n  0x00\n    /* \"contracts/t4_ballot.sol\":795:983  for (uint i = 0; i < proposalNames.length; i++) {... */\ntag_9:\n    /* \"contracts/t4_ballot.sol\":816:829  proposalNames */\n  dup4\n    /* \"contracts/t4_ballot.sol\":816:836  proposalNames.length */\n  mload\n    /* \"contracts/t4_ballot.sol\":812:813  i */\n  dup2\n    /* \"contracts/t4_ballot.sol\":812:836  i < proposalNames.length */\n  lt\n    /* \"contracts/t4_ballot.sol\":795:983  for (uint i = 0; i < proposalNames.length; i++) {... */\n  iszero\n  tag_10\n  jumpi\n    /* \"contracts/t4_ballot.sol\":858:867  proposals */\n  0x04\n    /* \"contracts/t4_ballot.sol\":873:970  Proposal({... */\n  mload(0x40)\n  dup1\n  0x40\n  add\n  0x40\n  mstore\n  dup1\n    /* \"contracts/t4_ballot.sol\":907:920  proposalNames */\n  dup7\n    /* \"contracts/t4_ballot.sol\":921:922  i */\n  dup5\n    /* \"contracts/t4_ballot.sol\":907:923  proposalNames[i] */\n  dup2\n  mload\n  dup2\n  lt\n  tag_12\n  jumpi\n  tag_13\n  tag_14\n  jump\t// in\ntag_13:\ntag_12:\n  0x20\n  mul\n  0x20\n  add\n  add\n  mload\n    /* \"contracts/t4_ballot.sol\":873:970  Proposal({... */\n  dup2\n  mstore\n  0x20\n  add\n    /* \"contracts/t4_ballot.sol\":953:954  0 */\n  0x00\n    /* \"contracts/t4_ballot.sol\":873:970  Proposal({... */\n  dup2\n  mstore\n  pop\n    /* \"contracts/t4_ballot.sol\":858:971  proposals.push(Proposal({... */\n  swap1\n  dup1\n  0x01\n  dup2\n  sload\n  add\n  dup1\n  dup3\n  sstore\n  dup1\n  swap2\n  pop\n  pop\n  0x01\n  swap1\n  sub\n  swap1\n  0x00\n  mstore\n  keccak256(0x00, 0x20)\n  swap1\n  0x02\n  mul\n  add\n  0x00\n  swap1\n  swap2\n  swap1\n  swap2\n  swap1\n  swap2\n  pop\n  0x00\n  dup3\n  add\n  mload\n  dup2\n  0x00\n  add\n  sstore\n  0x20\n  dup3\n  add\n  mload\n  dup2\n  0x01\n  add\n  sstore\n  pop\n  pop\n    /* \"contracts/t4_ballot.sol\":838:841  i++ */\n  dup1\n  dup1\n  0x01\n  add\n  swap2\n  pop\n  pop\n    /* \"contracts/t4_ballot.sol\":795:983  for (uint i = 0; i < proposalNames.length; i++) {... */\n  jump(tag_9)\ntag_10:\n  pop\n    /* \"contracts/t4_ballot.sol\":479:990  constructor(bytes32[] memory proposalNames, uint256 startTime_, uint256 endTime_) {... */\n  pop\n  pop\n  pop\n    /* \"contracts/t4_ballot.sol\":74:3773  contract Ballot {... */\n  jump(tag_16)\n    /* \"#utility.yul\":7:82   */\ntag_17:\n    /* \"#utility.yul\":40:46   */\n  0x00\n    /* \"#utility.yul\":73:75   */\n  0x40\n    /* \"#utility.yul\":67:76   */\n  mload\n    /* \"#utility.yul\":57:76   */\n  swap1\n  pop\n    /* \"#utility.yul\":7:82   */\n  swap1\n  jump\t// out\n    /* \"#utility.yul\":88:205   */\ntag_18:\n    /* \"#utility.yul\":197:198   */\n  0x00\n    /* \"#utility.yul\":194:195   */\n  dup1\n    /* \"#utility.yul\":187:199   */\n  revert\n    /* \"#utility.yul\":211:328   */\ntag_19:\n    /* \"#utility.yul\":320:321   */\n  0x00\n    /* \"#utility.yul\":317:318   */\n  dup1\n    /* \"#utility.yul\":310:322   */\n  revert\n    /* \"#utility.yul\":334:451   */\ntag_20:\n    /* \"#utility.yul\":443:444   */\n  0x00\n    /* \"#utility.yul\":440:441   */\n  dup1\n    /* \"#utility.yul\":433:445   */\n  revert\n    /* \"#utility.yul\":457:559   */\ntag_21:\n    /* \"#utility.yul\":498:504   */\n  0x00\n    /* \"#utility.yul\":549:551   */\n  0x1f\n    /* \"#utility.yul\":545:552   */\n  not\n    /* \"#utility.yul\":540:542   */\n  0x1f\n    /* \"#utility.yul\":533:538   */\n  dup4\n    /* \"#utility.yul\":529:543   */\n  add\n    /* \"#utility.yul\":525:553   */\n  and\n    /* \"#utility.yul\":515:553   */\n  swap1\n  pop\n    /* \"#utility.yul\":457:559   */\n  swap2\n  swap1\n  pop\n  jump\t// out\n    /* \"#utility.yul\":565:745   */\ntag_22:\n    /* \"#utility.yul\":613:690   */\n  0x4e487b7100000000000000000000000000000000000000000000000000000000\n    /* \"#utility.yul\":610:611   */\n  0x00\n    /* \"#utility.yul\":603:691   */\n  mstore\n    /* \"#utility.yul\":710:714   */\n  0x41\n    /* \"#utility.yul\":707:708   */\n  0x04\n    /* \"#utility.yul\":700:715   */\n  mstore\n    /* \"#utility.yul\":734:738   */\n  0x24\n    /* \"#utility.yul\":731:732   */\n  0x00\n    /* \"#utility.yul\":724:739   */\n  revert\n    /* \"#utility.yul\":751:1032   */\ntag_23:\n    /* \"#utility.yul\":834:861   */\n  tag_46\n    /* \"#utility.yul\":856:860   */\n  dup3\n    /* \"#utility.yul\":834:861   */\n  tag_21\n  jump\t// in\ntag_46:\n    /* \"#utility.yul\":826:832   */\n  dup2\n    /* \"#utility.yul\":822:862   */\n  add\n    /* \"#utility.yul\":964:970   */\n  dup2\n    /* \"#utility.yul\":952:962   */\n  dup2\n    /* \"#utility.yul\":949:971   */\n  lt\n    /* \"#utility.yul\":928:946   */\n  0xffffffffffffffff\n    /* \"#utility.yul\":916:926   */\n  dup3\n    /* \"#utility.yul\":913:947   */\n  gt\n    /* \"#utility.yul\":910:972   */\n  or\n    /* \"#utility.yul\":907:995   */\n  iszero\n  tag_47\n  jumpi\n    /* \"#utility.yul\":975:993   */\n  tag_48\n  tag_22\n  jump\t// in\ntag_48:\n    /* \"#utility.yul\":907:995   */\ntag_47:\n    /* \"#utility.yul\":1015:1025   */\n  dup1\n    /* \"#utility.yul\":1011:1013   */\n  0x40\n    /* \"#utility.yul\":1004:1026   */\n  mstore\n    /* \"#utility.yul\":794:1032   */\n  pop\n    /* \"#utility.yul\":751:1032   */\n  pop\n  pop\n  jump\t// out\n    /* \"#utility.yul\":1038:1167   */\ntag_24:\n    /* \"#utility.yul\":1072:1078   */\n  0x00\n    /* \"#utility.yul\":1099:1119   */\n  tag_50\n  tag_17\n  jump\t// in\ntag_50:\n    /* \"#utility.yul\":1089:1119   */\n  swap1\n  pop\n    /* \"#utility.yul\":1128:1161   */\n  tag_51\n    /* \"#utility.yul\":1156:1160   */\n  dup3\n    /* \"#utility.yul\":1148:1154   */\n  dup3\n    /* \"#utility.yul\":1128:1161   */\n  tag_23\n  jump\t// in\ntag_51:\n    /* \"#utility.yul\":1038:1167   */\n  swap2\n  swap1\n  pop\n  jump\t// out\n    /* \"#utility.yul\":1173:1484   */\ntag_25:\n    /* \"#utility.yul\":1250:1254   */\n  0x00\n    /* \"#utility.yul\":1340:1358   */\n  0xffffffffffffffff\n    /* \"#utility.yul\":1332:1338   */\n  dup3\n    /* \"#utility.yul\":1329:1359   */\n  gt\n    /* \"#utility.yul\":1326:1382   */\n  iszero\n  tag_53\n  jumpi\n    /* \"#utility.yul\":1362:1380   */\n  tag_54\n  tag_22\n  jump\t// in\ntag_54:\n    /* \"#utility.yul\":1326:1382   */\ntag_53:\n    /* \"#utility.yul\":1412:1416   */\n  0x20\n    /* \"#utility.yul\":1404:1410   */\n  dup3\n    /* \"#utility.yul\":1400:1417   */\n  mul\n    /* \"#utility.yul\":1392:1417   */\n  swap1\n  pop\n    /* \"#utility.yul\":1472:1476   */\n  0x20\n    /* \"#utility.yul\":1466:1470   */\n  dup2\n    /* \"#utility.yul\":1462:1477   */\n  add\n    /* \"#utility.yul\":1454:1477   */\n  swap1\n  pop\n    /* \"#utility.yul\":1173:1484   */\n  swap2\n  swap1\n  pop\n  jump\t// out\n    /* \"#utility.yul\":1490:1607   */\ntag_26:\n    /* \"#utility.yul\":1599:1600   */\n  0x00\n    /* \"#utility.yul\":1596:1597   */\n  dup1\n    /* \"#utility.yul\":1589:1601   */\n  revert\n    /* \"#utility.yul\":1613:1690   */\ntag_27:\n    /* \"#utility.yul\":1650:1657   */\n  0x00\n    /* \"#utility.yul\":1679:1684   */\n  dup2\n    /* \"#utility.yul\":1668:1684   */\n  swap1\n  pop\n    /* \"#utility.yul\":1613:1690   */\n  swap2\n  swap1\n  pop\n  jump\t// out\n    /* \"#utility.yul\":1696:1818   */\ntag_28:\n    /* \"#utility.yul\":1769:1793   */\n  tag_58\n    /* \"#utility.yul\":1787:1792   */\n  dup2\n    /* \"#utility.yul\":1769:1793   */\n  tag_27\n  jump\t// in\ntag_58:\n    /* \"#utility.yul\":1762:1767   */\n  dup2\n    /* \"#utility.yul\":1759:1794   */\n  eq\n    /* \"#utility.yul\":1749:1812   */\n  tag_59\n  jumpi\n    /* \"#utility.yul\":1808:1809   */\n  0x00\n    /* \"#utility.yul\":1805:1806   */\n  dup1\n    /* \"#utility.yul\":1798:1810   */\n  revert\n    /* \"#utility.yul\":1749:1812   */\ntag_59:\n    /* \"#utility.yul\":1696:1818   */\n  pop\n  jump\t// out\n    /* \"#utility.yul\":1824:1967   */\ntag_29:\n    /* \"#utility.yul\":1881:1886   */\n  0x00\n    /* \"#utility.yul\":1912:1918   */\n  dup2\n    /* \"#utility.yul\":1906:1919   */\n  mload\n    /* \"#utility.yul\":1897:1919   */\n  swap1\n  pop\n    /* \"#utility.yul\":1928:1961   */\n  tag_61\n    /* \"#utility.yul\":1955:1960   */\n  dup2\n    /* \"#utility.yul\":1928:1961   */\n  tag_28\n  jump\t// in\ntag_61:\n    /* \"#utility.yul\":1824:1967   */\n  swap3\n  swap2\n  pop\n  pop\n  jump\t// out\n    /* \"#utility.yul\":1990:2722   */\ntag_30:\n    /* \"#utility.yul\":2097:2102   */\n  0x00\n    /* \"#utility.yul\":2122:2203   */\n  tag_63\n    /* \"#utility.yul\":2138:2202   */\n  tag_64\n    /* \"#utility.yul\":2195:2201   */\n  dup5\n    /* \"#utility.yul\":2138:2202   */\n  tag_25\n  jump\t// in\ntag_64:\n    /* \"#utility.yul\":2122:2203   */\n  tag_24\n  jump\t// in\ntag_63:\n    /* \"#utility.yul\":2113:2203   */\n  swap1\n  pop\n    /* \"#utility.yul\":2223:2228   */\n  dup1\n    /* \"#utility.yul\":2252:2258   */\n  dup4\n    /* \"#utility.yul\":2245:2250   */\n  dup3\n    /* \"#utility.yul\":2238:2259   */\n  mstore\n    /* \"#utility.yul\":2286:2290   */\n  0x20\n    /* \"#utility.yul\":2279:2284   */\n  dup3\n    /* \"#utility.yul\":2275:2291   */\n  add\n    /* \"#utility.yul\":2268:2291   */\n  swap1\n  pop\n    /* \"#utility.yul\":2339:2343   */\n  0x20\n    /* \"#utility.yul\":2331:2337   */\n  dup5\n    /* \"#utility.yul\":2327:2344   */\n  mul\n    /* \"#utility.yul\":2319:2325   */\n  dup4\n    /* \"#utility.yul\":2315:2345   */\n  add\n    /* \"#utility.yul\":2368:2371   */\n  dup6\n    /* \"#utility.yul\":2360:2366   */\n  dup2\n    /* \"#utility.yul\":2357:2372   */\n  gt\n    /* \"#utility.yul\":2354:2476   */\n  iszero\n  tag_65\n  jumpi\n    /* \"#utility.yul\":2387:2466   */\n  tag_66\n  tag_26\n  jump\t// in\ntag_66:\n    /* \"#utility.yul\":2354:2476   */\ntag_65:\n    /* \"#utility.yul\":2502:2508   */\n  dup4\n    /* \"#utility.yul\":2485:2716   */\ntag_67:\n    /* \"#utility.yul\":2519:2525   */\n  dup2\n    /* \"#utility.yul\":2514:2517   */\n  dup2\n    /* \"#utility.yul\":2511:2526   */\n  lt\n    /* \"#utility.yul\":2485:2716   */\n  iszero\n  tag_69\n  jumpi\n    /* \"#utility.yul\":2594:2597   */\n  dup1\n    /* \"#utility.yul\":2623:2671   */\n  tag_70\n    /* \"#utility.yul\":2667:2670   */\n  dup9\n    /* \"#utility.yul\":2655:2665   */\n  dup3\n    /* \"#utility.yul\":2623:2671   */\n  tag_29\n  jump\t// in\ntag_70:\n    /* \"#utility.yul\":2618:2621   */\n  dup5\n    /* \"#utility.yul\":2611:2672   */\n  mstore\n    /* \"#utility.yul\":2701:2705   */\n  0x20\n    /* \"#utility.yul\":2696:2699   */\n  dup5\n    /* \"#utility.yul\":2692:2706   */\n  add\n    /* \"#utility.yul\":2685:2706   */\n  swap4\n  pop\n    /* \"#utility.yul\":2561:2716   */\n  pop\n    /* \"#utility.yul\":2545:2549   */\n  0x20\n    /* \"#utility.yul\":2540:2543   */\n  dup2\n    /* \"#utility.yul\":2536:2550   */\n  add\n    /* \"#utility.yul\":2529:2550   */\n  swap1\n  pop\n    /* \"#utility.yul\":2485:2716   */\n  jump(tag_67)\ntag_69:\n    /* \"#utility.yul\":2489:2510   */\n  pop\n    /* \"#utility.yul\":2103:2722   */\n  pop\n  pop\n    /* \"#utility.yul\":1990:2722   */\n  swap4\n  swap3\n  pop\n  pop\n  pop\n  jump\t// out\n    /* \"#utility.yul\":2745:3130   */\ntag_31:\n    /* \"#utility.yul\":2827:2832   */\n  0x00\n    /* \"#utility.yul\":2876:2879   */\n  dup3\n    /* \"#utility.yul\":2869:2873   */\n  0x1f\n    /* \"#utility.yul\":2861:2867   */\n  dup4\n    /* \"#utility.yul\":2857:2874   */\n  add\n    /* \"#utility.yul\":2853:2880   */\n  slt\n    /* \"#utility.yul\":2843:2965   */\n  tag_72\n  jumpi\n    /* \"#utility.yul\":2884:2963   */\n  tag_73\n  tag_20\n  jump\t// in\ntag_73:\n    /* \"#utility.yul\":2843:2965   */\ntag_72:\n    /* \"#utility.yul\":2994:3000   */\n  dup2\n    /* \"#utility.yul\":2988:3001   */\n  mload\n    /* \"#utility.yul\":3019:3124   */\n  tag_74\n    /* \"#utility.yul\":3120:3123   */\n  dup5\n    /* \"#utility.yul\":3112:3118   */\n  dup3\n    /* \"#utility.yul\":3105:3109   */\n  0x20\n    /* \"#utility.yul\":3097:3103   */\n  dup7\n    /* \"#utility.yul\":3093:3110   */\n  add\n    /* \"#utility.yul\":3019:3124   */\n  tag_30\n  jump\t// in\ntag_74:\n    /* \"#utility.yul\":3010:3124   */\n  swap2\n  pop\n    /* \"#utility.yul\":2833:3130   */\n  pop\n    /* \"#utility.yul\":2745:3130   */\n  swap3\n  swap2\n  pop\n  pop\n  jump\t// out\n    /* \"#utility.yul\":3136:3213   */\ntag_32:\n    /* \"#utility.yul\":3173:3180   */\n  0x00\n    /* \"#utility.yul\":3202:3207   */\n  dup2\n    /* \"#utility.yul\":3191:3207   */\n  swap1\n  pop\n    /* \"#utility.yul\":3136:3213   */\n  swap2\n  swap1\n  pop\n  jump\t// out\n    /* \"#utility.yul\":3219:3341   */\ntag_33:\n    /* \"#utility.yul\":3292:3316   */\n  tag_77\n    /* \"#utility.yul\":3310:3315   */\n  dup2\n    /* \"#utility.yul\":3292:3316   */\n  tag_32\n  jump\t// in\ntag_77:\n    /* \"#utility.yul\":3285:3290   */\n  dup2\n    /* \"#utility.yul\":3282:3317   */\n  eq\n    /* \"#utility.yul\":3272:3335   */\n  tag_78\n  jumpi\n    /* \"#utility.yul\":3331:3332   */\n  0x00\n    /* \"#utility.yul\":3328:3329   */\n  dup1\n    /* \"#utility.yul\":3321:3333   */\n  revert\n    /* \"#utility.yul\":3272:3335   */\ntag_78:\n    /* \"#utility.yul\":3219:3341   */\n  pop\n  jump\t// out\n    /* \"#utility.yul\":3347:3490   */\ntag_34:\n    /* \"#utility.yul\":3404:3409   */\n  0x00\n    /* \"#utility.yul\":3435:3441   */\n  dup2\n    /* \"#utility.yul\":3429:3442   */\n  mload\n    /* \"#utility.yul\":3420:3442   */\n  swap1\n  pop\n    /* \"#utility.yul\":3451:3484   */\n  tag_80\n    /* \"#utility.yul\":3478:3483   */\n  dup2\n    /* \"#utility.yul\":3451:3484   */\n  tag_33\n  jump\t// in\ntag_80:\n    /* \"#utility.yul\":3347:3490   */\n  swap3\n  swap2\n  pop\n  pop\n  jump\t// out\n    /* \"#utility.yul\":3496:4362   */\ntag_3:\n    /* \"#utility.yul\":3609:3615   */\n  0x00\n    /* \"#utility.yul\":3617:3623   */\n  dup1\n    /* \"#utility.yul\":3625:3631   */\n  0x00\n    /* \"#utility.yul\":3674:3676   */\n  0x60\n    /* \"#utility.yul\":3662:3671   */\n  dup5\n    /* \"#utility.yul\":3653:3660   */\n  dup7\n    /* \"#utility.yul\":3649:3672   */\n  sub\n    /* \"#utility.yul\":3645:3677   */\n  slt\n    /* \"#utility.yul\":3642:3761   */\n  iszero\n  tag_82\n  jumpi\n    /* \"#utility.yul\":3680:3759   */\n  tag_83\n  tag_18\n  jump\t// in\ntag_83:\n    /* \"#utility.yul\":3642:3761   */\ntag_82:\n    /* \"#utility.yul\":3821:3822   */\n  0x00\n    /* \"#utility.yul\":3810:3819   */\n  dup5\n    /* \"#utility.yul\":3806:3823   */\n  add\n    /* \"#utility.yul\":3800:3824   */\n  mload\n    /* \"#utility.yul\":3851:3869   */\n  0xffffffffffffffff\n    /* \"#utility.yul\":3843:3849   */\n  dup2\n    /* \"#utility.yul\":3840:3870   */\n  gt\n    /* \"#utility.yul\":3837:3954   */\n  iszero\n  tag_84\n  jumpi\n    /* \"#utility.yul\":3873:3952   */\n  tag_85\n  tag_19\n  jump\t// in\ntag_85:\n    /* \"#utility.yul\":3837:3954   */\ntag_84:\n    /* \"#utility.yul\":3978:4067   */\n  tag_86\n    /* \"#utility.yul\":4059:4066   */\n  dup7\n    /* \"#utility.yul\":4050:4056   */\n  dup3\n    /* \"#utility.yul\":4039:4048   */\n  dup8\n    /* \"#utility.yul\":4035:4057   */\n  add\n    /* \"#utility.yul\":3978:4067   */\n  tag_31\n  jump\t// in\ntag_86:\n    /* \"#utility.yul\":3968:4067   */\n  swap4\n  pop\n    /* \"#utility.yul\":3771:4077   */\n  pop\n    /* \"#utility.yul\":4116:4118   */\n  0x20\n    /* \"#utility.yul\":4142:4206   */\n  tag_87\n    /* \"#utility.yul\":4198:4205   */\n  dup7\n    /* \"#utility.yul\":4189:4195   */\n  dup3\n    /* \"#utility.yul\":4178:4187   */\n  dup8\n    /* \"#utility.yul\":4174:4196   */\n  add\n    /* \"#utility.yul\":4142:4206   */\n  tag_34\n  jump\t// in\ntag_87:\n    /* \"#utility.yul\":4132:4206   */\n  swap3\n  pop\n    /* \"#utility.yul\":4087:4216   */\n  pop\n    /* \"#utility.yul\":4255:4257   */\n  0x40\n    /* \"#utility.yul\":4281:4345   */\n  tag_88\n    /* \"#utility.yul\":4337:4344   */\n  dup7\n    /* \"#utility.yul\":4328:4334   */\n  dup3\n    /* \"#utility.yul\":4317:4326   */\n  dup8\n    /* \"#utility.yul\":4313:4335   */\n  add\n    /* \"#utility.yul\":4281:4345   */\n  tag_34\n  jump\t// in\ntag_88:\n    /* \"#utility.yul\":4271:4345   */\n  swap2\n  pop\n    /* \"#utility.yul\":4226:4355   */\n  pop\n    /* \"#utility.yul\":3496:4362   */\n  swap3\n  pop\n  swap3\n  pop\n  swap3\n  jump\t// out\n    /* \"#utility.yul\":4368:4537   */\ntag_35:\n    /* \"#utility.yul\":4452:4463   */\n  0x00\n    /* \"#utility.yul\":4486:4492   */\n  dup3\n    /* \"#utility.yul\":4481:4484   */\n  dup3\n    /* \"#utility.yul\":4474:4493   */\n  mstore\n    /* \"#utility.yul\":4526:4530   */\n  0x20\n    /* \"#utility.yul\":4521:4524   */\n  dup3\n    /* \"#utility.yul\":4517:4531   */\n  add\n    /* \"#utility.yul\":4502:4531   */\n  swap1\n  pop\n    /* \"#utility.yul\":4368:4537   */\n  swap3\n  swap2\n  pop\n  pop\n  jump\t// out\n    /* \"#utility.yul\":4543:4770   */\ntag_36:\n    /* \"#utility.yul\":4683:4717   */\n  0x456e6474696d65206d7573742067726561746572207468616e20746865207374\n    /* \"#utility.yul\":4679:4680   */\n  0x00\n    /* \"#utility.yul\":4671:4677   */\n  dup3\n    /* \"#utility.yul\":4667:4681   */\n  add\n    /* \"#utility.yul\":4660:4718   */\n  mstore\n    /* \"#utility.yul\":4752:4762   */\n  0x61727474696d652e000000000000000000000000000000000000000000000000\n    /* \"#utility.yul\":4747:4749   */\n  0x20\n    /* \"#utility.yul\":4739:4745   */\n  dup3\n    /* \"#utility.yul\":4735:4750   */\n  add\n    /* \"#utility.yul\":4728:4763   */\n  mstore\n    /* \"#utility.yul\":4543:4770   */\n  pop\n  jump\t// out\n    /* \"#utility.yul\":4776:5142   */\ntag_37:\n    /* \"#utility.yul\":4918:4921   */\n  0x00\n    /* \"#utility.yul\":4939:5006   */\n  tag_92\n    /* \"#utility.yul\":5003:5005   */\n  0x28\n    /* \"#utility.yul\":4998:5001   */\n  dup4\n    /* \"#utility.yul\":4939:5006   */\n  tag_35\n  jump\t// in\ntag_92:\n    /* \"#utility.yul\":4932:5006   */\n  swap2\n  pop\n    /* \"#utility.yul\":5015:5108   */\n  tag_93\n    /* \"#utility.yul\":5104:5107   */\n  dup3\n    /* \"#utility.yul\":5015:5108   */\n  tag_36\n  jump\t// in\ntag_93:\n    /* \"#utility.yul\":5133:5135   */\n  0x40\n    /* \"#utility.yul\":5128:5131   */\n  dup3\n    /* \"#utility.yul\":5124:5136   */\n  add\n    /* \"#utility.yul\":5117:5136   */\n  swap1\n  pop\n    /* \"#utility.yul\":4776:5142   */\n  swap2\n  swap1\n  pop\n  jump\t// out\n    /* \"#utility.yul\":5148:5567   */\ntag_8:\n    /* \"#utility.yul\":5314:5318   */\n  0x00\n    /* \"#utility.yul\":5352:5354   */\n  0x20\n    /* \"#utility.yul\":5341:5350   */\n  dup3\n    /* \"#utility.yul\":5337:5355   */\n  add\n    /* \"#utility.yul\":5329:5355   */\n  swap1\n  pop\n    /* \"#utility.yul\":5401:5410   */\n  dup2\n    /* \"#utility.yul\":5395:5399   */\n  dup2\n    /* \"#utility.yul\":5391:5411   */\n  sub\n    /* \"#utility.yul\":5387:5388   */\n  0x00\n    /* \"#utility.yul\":5376:5385   */\n  dup4\n    /* \"#utility.yul\":5372:5389   */\n  add\n    /* \"#utility.yul\":5365:5412   */\n  mstore\n    /* \"#utility.yul\":5429:5560   */\n  tag_95\n    /* \"#utility.yul\":5555:5559   */\n  dup2\n    /* \"#utility.yul\":5429:5560   */\n  tag_37\n  jump\t// in\ntag_95:\n    /* \"#utility.yul\":5421:5560   */\n  swap1\n  pop\n    /* \"#utility.yul\":5148:5567   */\n  swap2\n  swap1\n  pop\n  jump\t// out\n    /* \"#utility.yul\":5573:5753   */\ntag_14:\n    /* \"#utility.yul\":5621:5698   */\n  0x4e487b7100000000000000000000000000000000000000000000000000000000\n    /* \"#utility.yul\":5618:5619   */\n  0x00\n    /* \"#utility.yul\":5611:5699   */\n  mstore\n    /* \"#utility.yul\":5718:5722   */\n  0x32\n    /* \"#utility.yul\":5715:5716   */\n  0x04\n    /* \"#utility.yul\":5708:5723   */\n  mstore\n    /* \"#utility.yul\":5742:5746   */\n  0x24\n    /* \"#utility.yul\":5739:5740   */\n  0x00\n    /* \"#utility.yul\":5732:5747   */\n  revert\n    /* \"contracts/t4_ballot.sol\":74:3773  contract Ballot {... */\ntag_16:\n  dataSize(sub_0)\n  dup1\n  dataOffset(sub_0)\n  0x00\n  codecopy\n  0x00\n  return\nstop\n\nsub_0: assembly {\n        /* \"contracts/t4_ballot.sol\":74:3773  contract Ballot {... */\n      mstore(0x40, 0x80)\n      callvalue\n      dup1\n      iszero\n      tag_1\n      jumpi\n      0x00\n      dup1\n      revert\n    tag_1:\n      pop\n      jumpi(tag_2, lt(calldatasize, 0x04))\n      shr(0xe0, calldataload(0x00))\n      dup1\n      0x609ff1bd\n      gt\n      tag_12\n      jumpi\n      dup1\n      0x609ff1bd\n      eq\n      tag_7\n      jumpi\n      dup1\n      0x9e7b8d61\n      eq\n      tag_8\n      jumpi\n      dup1\n      0xa3ec138d\n      eq\n      tag_9\n      jumpi\n      dup1\n      0xe2ba53f0\n      eq\n      tag_10\n      jumpi\n      dup1\n      0xe7052895\n      eq\n      tag_11\n      jumpi\n      jump(tag_2)\n    tag_12:\n      dup1\n      0x0121b93f\n      eq\n      tag_3\n      jumpi\n      dup1\n      0x013cf08b\n      eq\n      tag_4\n      jumpi\n      dup1\n      0x2e4176cf\n      eq\n      tag_5\n      jumpi\n      dup1\n      0x5c19a95c\n      eq\n      tag_6\n      jumpi\n    tag_2:\n      0x00\n      dup1\n      revert\n        /* \"contracts/t4_ballot.sol\":2187:2625  function vote(uint proposal) external {... */\n    tag_3:\n      tag_13\n      0x04\n      dup1\n      calldatasize\n      sub\n      dup2\n      add\n      swap1\n      tag_14\n      swap2\n      swap1\n      tag_15\n      jump\t// in\n    tag_14:\n      tag_16\n      jump\t// in\n    tag_13:\n      stop\n        /* \"contracts/t4_ballot.sol\":443:470  Proposal[] public proposals */\n    tag_4:\n      tag_17\n      0x04\n      dup1\n      calldatasize\n      sub\n      dup2\n      add\n      swap1\n      tag_18\n      swap2\n      swap1\n      tag_15\n      jump\t// in\n    tag_18:\n      tag_19\n      jump\t// in\n    tag_17:\n      mload(0x40)\n      tag_20\n      swap3\n      swap2\n      swap1\n      tag_21\n      jump\t// in\n    tag_20:\n      mload(0x40)\n      dup1\n      swap2\n      sub\n      swap1\n      return\n        /* \"contracts/t4_ballot.sol\":362:388  address public chairperson */\n    tag_5:\n      tag_22\n      tag_23\n      jump\t// in\n    tag_22:\n      mload(0x40)\n      tag_24\n      swap2\n      swap1\n      tag_25\n      jump\t// in\n    tag_24:\n      mload(0x40)\n      dup1\n      swap2\n      sub\n      swap1\n      return\n        /* \"contracts/t4_ballot.sol\":1341:2179  function delegate(address to) external {... */\n    tag_6:\n      tag_26\n      0x04\n      dup1\n      calldatasize\n      sub\n      dup2\n      add\n      swap1\n      tag_27\n      swap2\n      swap1\n      tag_28\n      jump\t// in\n    tag_27:\n      tag_29\n      jump\t// in\n    tag_26:\n      stop\n        /* \"contracts/t4_ballot.sol\":2633:2990  function winningProposal() public view returns (uint winningProposal_) {... */\n    tag_7:\n      tag_30\n      tag_31\n      jump\t// in\n    tag_30:\n      mload(0x40)\n      tag_32\n      swap2\n      swap1\n      tag_33\n      jump\t// in\n    tag_32:\n      mload(0x40)\n      dup1\n      swap2\n      sub\n      swap1\n      return\n        /* \"contracts/t4_ballot.sol\":998:1333  function giveRightToVote(address voter) external {... */\n    tag_8:\n      tag_34\n      0x04\n      dup1\n      calldatasize\n      sub\n      dup2\n      add\n      swap1\n      tag_35\n      swap2\n      swap1\n      tag_28\n      jump\t// in\n    tag_35:\n      tag_36\n      jump\t// in\n    tag_34:\n      stop\n        /* \"contracts/t4_ballot.sol\":395:434  mapping(address => Voter) public voters */\n    tag_9:\n      tag_37\n      0x04\n      dup1\n      calldatasize\n      sub\n      dup2\n      add\n      swap1\n      tag_38\n      swap2\n      swap1\n      tag_28\n      jump\t// in\n    tag_38:\n      tag_39\n      jump\t// in\n    tag_37:\n      mload(0x40)\n      tag_40\n      swap5\n      swap4\n      swap3\n      swap2\n      swap1\n      tag_41\n      jump\t// in\n    tag_40:\n      mload(0x40)\n      dup1\n      swap2\n      sub\n      swap1\n      return\n        /* \"contracts/t4_ballot.sol\":2998:3130  function winnerName() external view returns (bytes32 winnerName_) {... */\n    tag_10:\n      tag_42\n      tag_43\n      jump\t// in\n    tag_42:\n      mload(0x40)\n      tag_44\n      swap2\n      swap1\n      tag_45\n      jump\t// in\n    tag_44:\n      mload(0x40)\n      dup1\n      swap2\n      sub\n      swap1\n      return\n        /* \"contracts/t4_ballot.sol\":3138:3767  function setVoterWeight(address voter, uint weight) external {... */\n    tag_11:\n      tag_46\n      0x04\n      dup1\n      calldatasize\n      sub\n      dup2\n      add\n      swap1\n      tag_47\n      swap2\n      swap1\n      tag_48\n      jump\t// in\n    tag_47:\n      tag_49\n      jump\t// in\n    tag_46:\n      stop\n        /* \"contracts/t4_ballot.sol\":2187:2625  function vote(uint proposal) external {... */\n    tag_16:\n        /* \"contracts/t4_ballot.sol\":2236:2256  Voter storage sender */\n      0x00\n        /* \"contracts/t4_ballot.sol\":2259:2265  voters */\n      0x03\n        /* \"contracts/t4_ballot.sol\":2259:2277  voters[msg.sender] */\n      0x00\n        /* \"contracts/t4_ballot.sol\":2266:2276  msg.sender */\n      caller\n        /* \"contracts/t4_ballot.sol\":2259:2277  voters[msg.sender] */\n      0xffffffffffffffffffffffffffffffffffffffff\n      and\n      0xffffffffffffffffffffffffffffffffffffffff\n      and\n      dup2\n      mstore\n      0x20\n      add\n      swap1\n      dup2\n      mstore\n      0x20\n      add\n      0x00\n      keccak256\n        /* \"contracts/t4_ballot.sol\":2236:2277  Voter storage sender = voters[msg.sender] */\n      swap1\n      pop\n        /* \"contracts/t4_ballot.sol\":2313:2314  0 */\n      0x00\n        /* \"contracts/t4_ballot.sol\":2296:2302  sender */\n      dup2\n        /* \"contracts/t4_ballot.sol\":2296:2309  sender.weight */\n      0x00\n      add\n      sload\n        /* \"contracts/t4_ballot.sol\":2296:2314  sender.weight != 0 */\n      sub\n        /* \"contracts/t4_ballot.sol\":2288:2339  require(sender.weight != 0, \"Has no right to vote\") */\n      tag_51\n      jumpi\n      mload(0x40)\n      0x08c379a000000000000000000000000000000000000000000000000000000000\n      dup2\n      mstore\n      0x04\n      add\n      tag_52\n      swap1\n      tag_53\n      jump\t// in\n    tag_52:\n      mload(0x40)\n      dup1\n      swap2\n      sub\n      swap1\n      revert\n    tag_51:\n        /* \"contracts/t4_ballot.sol\":2359:2365  sender */\n      dup1\n        /* \"contracts/t4_ballot.sol\":2359:2371  sender.voted */\n      0x01\n      add\n      0x00\n      swap1\n      sload\n      swap1\n      0x0100\n      exp\n      swap1\n      div\n      0xff\n      and\n        /* \"contracts/t4_ballot.sol\":2358:2371  !sender.voted */\n      iszero\n        /* \"contracts/t4_ballot.sol\":2350:2390  require(!sender.voted, \"Already voted.\") */\n      tag_54\n      jumpi\n      mload(0x40)\n      0x08c379a000000000000000000000000000000000000000000000000000000000\n      dup2\n      mstore\n      0x04\n      add\n      tag_55\n      swap1\n      tag_56\n      jump\t// in\n    tag_55:\n      mload(0x40)\n      dup1\n      swap2\n      sub\n      swap1\n      revert\n    tag_54:\n        /* \"contracts/t4_ballot.sol\":2428:2437  startTime */\n      sload(0x00)\n        /* \"contracts/t4_ballot.sol\":2409:2424  block.timestamp */\n      timestamp\n        /* \"contracts/t4_ballot.sol\":2409:2437  block.timestamp >= startTime */\n      lt\n      iszero\n        /* \"contracts/t4_ballot.sol\":2409:2467  block.timestamp >= startTime && block.timestamp <= endTime */\n      dup1\n      iszero\n      tag_57\n      jumpi\n      pop\n        /* \"contracts/t4_ballot.sol\":2460:2467  endTime */\n      sload(0x01)\n        /* \"contracts/t4_ballot.sol\":2441:2456  block.timestamp */\n      timestamp\n        /* \"contracts/t4_ballot.sol\":2441:2467  block.timestamp <= endTime */\n      gt\n      iszero\n        /* \"contracts/t4_ballot.sol\":2409:2467  block.timestamp >= startTime && block.timestamp <= endTime */\n    tag_57:\n        /* \"contracts/t4_ballot.sol\":2401:2495  require(block.timestamp >= startTime && block.timestamp <= endTime, \"Out of vote time range.\") */\n      tag_58\n      jumpi\n      mload(0x40)\n      0x08c379a000000000000000000000000000000000000000000000000000000000\n      dup2\n      mstore\n      0x04\n      add\n      tag_59\n      swap1\n      tag_60\n      jump\t// in\n    tag_59:\n      mload(0x40)\n      dup1\n      swap2\n      sub\n      swap1\n      revert\n    tag_58:\n        /* \"contracts/t4_ballot.sol\":2521:2525  true */\n      0x01\n        /* \"contracts/t4_ballot.sol\":2506:2512  sender */\n      dup2\n        /* \"contracts/t4_ballot.sol\":2506:2518  sender.voted */\n      0x01\n      add\n      0x00\n        /* \"contracts/t4_ballot.sol\":2506:2525  sender.voted = true */\n      0x0100\n      exp\n      dup2\n      sload\n      dup2\n      0xff\n      mul\n      not\n      and\n      swap1\n      dup4\n      iszero\n      iszero\n      mul\n      or\n      swap1\n      sstore\n      pop\n        /* \"contracts/t4_ballot.sol\":2550:2558  proposal */\n      dup2\n        /* \"contracts/t4_ballot.sol\":2536:2542  sender */\n      dup2\n        /* \"contracts/t4_ballot.sol\":2536:2547  sender.vote */\n      0x02\n      add\n        /* \"contracts/t4_ballot.sol\":2536:2558  sender.vote = proposal */\n      dup2\n      swap1\n      sstore\n      pop\n        /* \"contracts/t4_ballot.sol\":2604:2610  sender */\n      dup1\n        /* \"contracts/t4_ballot.sol\":2604:2617  sender.weight */\n      0x00\n      add\n      sload\n        /* \"contracts/t4_ballot.sol\":2571:2580  proposals */\n      0x04\n        /* \"contracts/t4_ballot.sol\":2581:2589  proposal */\n      dup4\n        /* \"contracts/t4_ballot.sol\":2571:2590  proposals[proposal] */\n      dup2\n      sload\n      dup2\n      lt\n      tag_61\n      jumpi\n      tag_62\n      tag_63\n      jump\t// in\n    tag_62:\n    tag_61:\n      swap1\n      0x00\n      mstore\n      keccak256(0x00, 0x20)\n      swap1\n      0x02\n      mul\n      add\n        /* \"contracts/t4_ballot.sol\":2571:2600  proposals[proposal].voteCount */\n      0x01\n      add\n      0x00\n        /* \"contracts/t4_ballot.sol\":2571:2617  proposals[proposal].voteCount += sender.weight */\n      dup3\n      dup3\n      sload\n      tag_65\n      swap2\n      swap1\n      tag_66\n      jump\t// in\n    tag_65:\n      swap3\n      pop\n      pop\n      dup2\n      swap1\n      sstore\n      pop\n        /* \"contracts/t4_ballot.sol\":2225:2625  {... */\n      pop\n        /* \"contracts/t4_ballot.sol\":2187:2625  function vote(uint proposal) external {... */\n      pop\n      jump\t// out\n        /* \"contracts/t4_ballot.sol\":443:470  Proposal[] public proposals */\n    tag_19:\n      0x04\n      dup2\n      dup2\n      sload\n      dup2\n      lt\n      tag_67\n      jumpi\n      0x00\n      dup1\n      revert\n    tag_67:\n      swap1\n      0x00\n      mstore\n      keccak256(0x00, 0x20)\n      swap1\n      0x02\n      mul\n      add\n      0x00\n      swap2\n      pop\n      swap1\n      pop\n      dup1\n      0x00\n      add\n      sload\n      swap1\n      dup1\n      0x01\n      add\n      sload\n      swap1\n      pop\n      dup3\n      jump\t// out\n        /* \"contracts/t4_ballot.sol\":362:388  address public chairperson */\n    tag_23:\n      0x02\n      0x00\n      swap1\n      sload\n      swap1\n      0x0100\n      exp\n      swap1\n      div\n      0xffffffffffffffffffffffffffffffffffffffff\n      and\n      dup2\n      jump\t// out\n        /* \"contracts/t4_ballot.sol\":1341:2179  function delegate(address to) external {... */\n    tag_29:\n        /* \"contracts/t4_ballot.sol\":1391:1411  Voter storage sender */\n      0x00\n        /* \"contracts/t4_ballot.sol\":1414:1420  voters */\n      0x03\n        /* \"contracts/t4_ballot.sol\":1414:1432  voters[msg.sender] */\n      0x00\n        /* \"contracts/t4_ballot.sol\":1421:1431  msg.sender */\n      caller\n        /* \"contracts/t4_ballot.sol\":1414:1432  voters[msg.sender] */\n      0xffffffffffffffffffffffffffffffffffffffff\n      and\n      0xffffffffffffffffffffffffffffffffffffffff\n      and\n      dup2\n      mstore\n      0x20\n      add\n      swap1\n      dup2\n      mstore\n      0x20\n      add\n      0x00\n      keccak256\n        /* \"contracts/t4_ballot.sol\":1391:1432  Voter storage sender = voters[msg.sender] */\n      swap1\n      pop\n        /* \"contracts/t4_ballot.sol\":1468:1469  0 */\n      0x00\n        /* \"contracts/t4_ballot.sol\":1451:1457  sender */\n      dup2\n        /* \"contracts/t4_ballot.sol\":1451:1464  sender.weight */\n      0x00\n      add\n      sload\n        /* \"contracts/t4_ballot.sol\":1451:1469  sender.weight != 0 */\n      sub\n        /* \"contracts/t4_ballot.sol\":1443:1500  require(sender.weight != 0, \"You have no right to vote.\") */\n      tag_70\n      jumpi\n      mload(0x40)\n      0x08c379a000000000000000000000000000000000000000000000000000000000\n      dup2\n      mstore\n      0x04\n      add\n      tag_71\n      swap1\n      tag_72\n      jump\t// in\n    tag_71:\n      mload(0x40)\n      dup1\n      swap2\n      sub\n      swap1\n      revert\n    tag_70:\n        /* \"contracts/t4_ballot.sol\":1520:1526  sender */\n      dup1\n        /* \"contracts/t4_ballot.sol\":1520:1532  sender.voted */\n      0x01\n      add\n      0x00\n      swap1\n      sload\n      swap1\n      0x0100\n      exp\n      swap1\n      div\n      0xff\n      and\n        /* \"contracts/t4_ballot.sol\":1519:1532  !sender.voted */\n      iszero\n        /* \"contracts/t4_ballot.sol\":1511:1555  require(!sender.voted, \"You already voted.\") */\n      tag_73\n      jumpi\n      mload(0x40)\n      0x08c379a000000000000000000000000000000000000000000000000000000000\n      dup2\n      mstore\n      0x04\n      add\n      tag_74\n      swap1\n      tag_75\n      jump\t// in\n    tag_74:\n      mload(0x40)\n      dup1\n      swap2\n      sub\n      swap1\n      revert\n    tag_73:\n        /* \"contracts/t4_ballot.sol\":1580:1590  msg.sender */\n      caller\n        /* \"contracts/t4_ballot.sol\":1574:1590  to != msg.sender */\n      0xffffffffffffffffffffffffffffffffffffffff\n      and\n        /* \"contracts/t4_ballot.sol\":1574:1576  to */\n      dup3\n        /* \"contracts/t4_ballot.sol\":1574:1590  to != msg.sender */\n      0xffffffffffffffffffffffffffffffffffffffff\n      and\n      sub\n        /* \"contracts/t4_ballot.sol\":1566:1625  require(to != msg.sender, \"Self-delegation is disallowed.\") */\n      tag_76\n      jumpi\n      mload(0x40)\n      0x08c379a000000000000000000000000000000000000000000000000000000000\n      dup2\n      mstore\n      0x04\n      add\n      tag_77\n      swap1\n      tag_78\n      jump\t// in\n    tag_77:\n      mload(0x40)\n      dup1\n      swap2\n      sub\n      swap1\n      revert\n    tag_76:\n        /* \"contracts/t4_ballot.sol\":1638:1799  while(voters[to].delegate != address(0)) {... */\n    tag_79:\n        /* \"contracts/t4_ballot.sol\":1675:1676  0 */\n      0x00\n        /* \"contracts/t4_ballot.sol\":1644:1677  voters[to].delegate != address(0) */\n      0xffffffffffffffffffffffffffffffffffffffff\n      and\n        /* \"contracts/t4_ballot.sol\":1644:1650  voters */\n      0x03\n        /* \"contracts/t4_ballot.sol\":1644:1654  voters[to] */\n      0x00\n        /* \"contracts/t4_ballot.sol\":1651:1653  to */\n      dup5\n        /* \"contracts/t4_ballot.sol\":1644:1654  voters[to] */\n      0xffffffffffffffffffffffffffffffffffffffff\n      and\n      0xffffffffffffffffffffffffffffffffffffffff\n      and\n      dup2\n      mstore\n      0x20\n      add\n      swap1\n      dup2\n      mstore\n      0x20\n      add\n      0x00\n      keccak256\n        /* \"contracts/t4_ballot.sol\":1644:1663  voters[to].delegate */\n      0x01\n      add\n      0x01\n      swap1\n      sload\n      swap1\n      0x0100\n      exp\n      swap1\n      div\n      0xffffffffffffffffffffffffffffffffffffffff\n      and\n        /* \"contracts/t4_ballot.sol\":1644:1677  voters[to].delegate != address(0) */\n      0xffffffffffffffffffffffffffffffffffffffff\n      and\n      eq\n        /* \"contracts/t4_ballot.sol\":1638:1799  while(voters[to].delegate != address(0)) {... */\n      tag_80\n      jumpi\n        /* \"contracts/t4_ballot.sol\":1699:1705  voters */\n      0x03\n        /* \"contracts/t4_ballot.sol\":1699:1709  voters[to] */\n      0x00\n        /* \"contracts/t4_ballot.sol\":1706:1708  to */\n      dup4\n        /* \"contracts/t4_ballot.sol\":1699:1709  voters[to] */\n      0xffffffffffffffffffffffffffffffffffffffff\n      and\n      0xffffffffffffffffffffffffffffffffffffffff\n      and\n      dup2\n      mstore\n      0x20\n      add\n      swap1\n      dup2\n      mstore\n      0x20\n      add\n      0x00\n      keccak256\n        /* \"contracts/t4_ballot.sol\":1699:1718  voters[to].delegate */\n      0x01\n      add\n      0x01\n      swap1\n      sload\n      swap1\n      0x0100\n      exp\n      swap1\n      div\n      0xffffffffffffffffffffffffffffffffffffffff\n      and\n        /* \"contracts/t4_ballot.sol\":1694:1718  to = voters[to].delegate */\n      swap2\n      pop\n        /* \"contracts/t4_ballot.sol\":1747:1757  msg.sender */\n      caller\n        /* \"contracts/t4_ballot.sol\":1741:1757  to != msg.sender */\n      0xffffffffffffffffffffffffffffffffffffffff\n      and\n        /* \"contracts/t4_ballot.sol\":1741:1743  to */\n      dup3\n        /* \"contracts/t4_ballot.sol\":1741:1757  to != msg.sender */\n      0xffffffffffffffffffffffffffffffffffffffff\n      and\n      sub\n        /* \"contracts/t4_ballot.sol\":1733:1787  require(to != msg.sender, \"Found loop in delegation.\") */\n      tag_81\n      jumpi\n      mload(0x40)\n      0x08c379a000000000000000000000000000000000000000000000000000000000\n      dup2\n      mstore\n      0x04\n      add\n      tag_82\n      swap1\n      tag_83\n      jump\t// in\n    tag_82:\n      mload(0x40)\n      dup1\n      swap2\n      sub\n      swap1\n      revert\n    tag_81:\n        /* \"contracts/t4_ballot.sol\":1638:1799  while(voters[to].delegate != address(0)) {... */\n      jump(tag_79)\n    tag_80:\n        /* \"contracts/t4_ballot.sol\":1811:1834  Voter storage delegate_ */\n      0x00\n        /* \"contracts/t4_ballot.sol\":1837:1843  voters */\n      0x03\n        /* \"contracts/t4_ballot.sol\":1837:1847  voters[to] */\n      0x00\n        /* \"contracts/t4_ballot.sol\":1844:1846  to */\n      dup5\n        /* \"contracts/t4_ballot.sol\":1837:1847  voters[to] */\n      0xffffffffffffffffffffffffffffffffffffffff\n      and\n      0xffffffffffffffffffffffffffffffffffffffff\n      and\n      dup2\n      mstore\n      0x20\n      add\n      swap1\n      dup2\n      mstore\n      0x20\n      add\n      0x00\n      keccak256\n        /* \"contracts/t4_ballot.sol\":1811:1847  Voter storage delegate_ = voters[to] */\n      swap1\n      pop\n        /* \"contracts/t4_ballot.sol\":1886:1887  1 */\n      0x01\n        /* \"contracts/t4_ballot.sol\":1866:1875  delegate_ */\n      dup2\n        /* \"contracts/t4_ballot.sol\":1866:1882  delegate_.weight */\n      0x00\n      add\n      sload\n        /* \"contracts/t4_ballot.sol\":1866:1887  delegate_.weight >= 1 */\n      lt\n      iszero\n        /* \"contracts/t4_ballot.sol\":1858:1931  require(delegate_.weight >= 1, \"To voter should have the right to vote.\") */\n      tag_84\n      jumpi\n      mload(0x40)\n      0x08c379a000000000000000000000000000000000000000000000000000000000\n      dup2\n      mstore\n      0x04\n      add\n      tag_85\n      swap1\n      tag_86\n      jump\t// in\n    tag_85:\n      mload(0x40)\n      dup1\n      swap2\n      sub\n      swap1\n      revert\n    tag_84:\n        /* \"contracts/t4_ballot.sol\":1959:1963  true */\n      0x01\n        /* \"contracts/t4_ballot.sol\":1944:1950  sender */\n      dup3\n        /* \"contracts/t4_ballot.sol\":1944:1956  sender.voted */\n      0x01\n      add\n      0x00\n        /* \"contracts/t4_ballot.sol\":1944:1963  sender.voted = true */\n      0x0100\n      exp\n      dup2\n      sload\n      dup2\n      0xff\n      mul\n      not\n      and\n      swap1\n      dup4\n      iszero\n      iszero\n      mul\n      or\n      swap1\n      sstore\n      pop\n        /* \"contracts/t4_ballot.sol\":1992:1994  to */\n      dup3\n        /* \"contracts/t4_ballot.sol\":1974:1980  sender */\n      dup3\n        /* \"contracts/t4_ballot.sol\":1974:1989  sender.delegate */\n      0x01\n      add\n      0x01\n        /* \"contracts/t4_ballot.sol\":1974:1994  sender.delegate = to */\n      0x0100\n      exp\n      dup2\n      sload\n      dup2\n      0xffffffffffffffffffffffffffffffffffffffff\n      mul\n      not\n      and\n      swap1\n      dup4\n      0xffffffffffffffffffffffffffffffffffffffff\n      and\n      mul\n      or\n      swap1\n      sstore\n      pop\n        /* \"contracts/t4_ballot.sol\":2010:2019  delegate_ */\n      dup1\n        /* \"contracts/t4_ballot.sol\":2010:2025  delegate_.voted */\n      0x01\n      add\n      0x00\n      swap1\n      sload\n      swap1\n      0x0100\n      exp\n      swap1\n      div\n      0xff\n      and\n        /* \"contracts/t4_ballot.sol\":2007:2172  if(delegate_.voted) {... */\n      iszero\n      tag_87\n      jumpi\n        /* \"contracts/t4_ballot.sol\":2081:2087  sender */\n      dup2\n        /* \"contracts/t4_ballot.sol\":2081:2094  sender.weight */\n      0x00\n      add\n      sload\n        /* \"contracts/t4_ballot.sol\":2042:2051  proposals */\n      0x04\n        /* \"contracts/t4_ballot.sol\":2052:2061  delegate_ */\n      dup3\n        /* \"contracts/t4_ballot.sol\":2052:2066  delegate_.vote */\n      0x02\n      add\n      sload\n        /* \"contracts/t4_ballot.sol\":2042:2067  proposals[delegate_.vote] */\n      dup2\n      sload\n      dup2\n      lt\n      tag_88\n      jumpi\n      tag_89\n      tag_63\n      jump\t// in\n    tag_89:\n    tag_88:\n      swap1\n      0x00\n      mstore\n      keccak256(0x00, 0x20)\n      swap1\n      0x02\n      mul\n      add\n        /* \"contracts/t4_ballot.sol\":2042:2077  proposals[delegate_.vote].voteCount */\n      0x01\n      add\n      0x00\n        /* \"contracts/t4_ballot.sol\":2042:2094  proposals[delegate_.vote].voteCount += sender.weight */\n      dup3\n      dup3\n      sload\n      tag_91\n      swap2\n      swap1\n      tag_66\n      jump\t// in\n    tag_91:\n      swap3\n      pop\n      pop\n      dup2\n      swap1\n      sstore\n      pop\n        /* \"contracts/t4_ballot.sol\":2007:2172  if(delegate_.voted) {... */\n      jump(tag_92)\n    tag_87:\n        /* \"contracts/t4_ballot.sol\":2147:2153  sender */\n      dup2\n        /* \"contracts/t4_ballot.sol\":2147:2160  sender.weight */\n      0x00\n      add\n      sload\n        /* \"contracts/t4_ballot.sol\":2127:2136  delegate_ */\n      dup2\n        /* \"contracts/t4_ballot.sol\":2127:2143  delegate_.weight */\n      0x00\n      add\n      0x00\n        /* \"contracts/t4_ballot.sol\":2127:2160  delegate_.weight += sender.weight */\n      dup3\n      dup3\n      sload\n      tag_93\n      swap2\n      swap1\n      tag_66\n      jump\t// in\n    tag_93:\n      swap3\n      pop\n      pop\n      dup2\n      swap1\n      sstore\n      pop\n        /* \"contracts/t4_ballot.sol\":2007:2172  if(delegate_.voted) {... */\n    tag_92:\n        /* \"contracts/t4_ballot.sol\":1380:2179  {... */\n      pop\n      pop\n        /* \"contracts/t4_ballot.sol\":1341:2179  function delegate(address to) external {... */\n      pop\n      jump\t// out\n        /* \"contracts/t4_ballot.sol\":2633:2990  function winningProposal() public view returns (uint winningProposal_) {... */\n    tag_31:\n        /* \"contracts/t4_ballot.sol\":2681:2702  uint winningProposal_ */\n      0x00\n        /* \"contracts/t4_ballot.sol\":2715:2736  uint winningVoteCount */\n      dup1\n        /* \"contracts/t4_ballot.sol\":2739:2740  0 */\n      0x00\n        /* \"contracts/t4_ballot.sol\":2715:2740  uint winningVoteCount = 0 */\n      swap1\n      pop\n        /* \"contracts/t4_ballot.sol\":2756:2762  uint p */\n      0x00\n        /* \"contracts/t4_ballot.sol\":2751:2983  for (uint p = 0; p < proposals.length; p++) {... */\n    tag_95:\n        /* \"contracts/t4_ballot.sol\":2772:2781  proposals */\n      0x04\n        /* \"contracts/t4_ballot.sol\":2772:2788  proposals.length */\n      dup1\n      sload\n      swap1\n      pop\n        /* \"contracts/t4_ballot.sol\":2768:2769  p */\n      dup2\n        /* \"contracts/t4_ballot.sol\":2768:2788  p < proposals.length */\n      lt\n        /* \"contracts/t4_ballot.sol\":2751:2983  for (uint p = 0; p < proposals.length; p++) {... */\n      iszero\n      tag_96\n      jumpi\n        /* \"contracts/t4_ballot.sol\":2839:2855  winningVoteCount */\n      dup2\n        /* \"contracts/t4_ballot.sol\":2814:2823  proposals */\n      0x04\n        /* \"contracts/t4_ballot.sol\":2824:2825  p */\n      dup3\n        /* \"contracts/t4_ballot.sol\":2814:2826  proposals[p] */\n      dup2\n      sload\n      dup2\n      lt\n      tag_98\n      jumpi\n      tag_99\n      tag_63\n      jump\t// in\n    tag_99:\n    tag_98:\n      swap1\n      0x00\n      mstore\n      keccak256(0x00, 0x20)\n      swap1\n      0x02\n      mul\n      add\n        /* \"contracts/t4_ballot.sol\":2814:2836  proposals[p].voteCount */\n      0x01\n      add\n      sload\n        /* \"contracts/t4_ballot.sol\":2814:2855  proposals[p].voteCount > winningVoteCount */\n      gt\n        /* \"contracts/t4_ballot.sol\":2810:2972  if (proposals[p].voteCount > winningVoteCount) {... */\n      iszero\n      tag_101\n      jumpi\n        /* \"contracts/t4_ballot.sol\":2895:2904  proposals */\n      0x04\n        /* \"contracts/t4_ballot.sol\":2905:2906  p */\n      dup2\n        /* \"contracts/t4_ballot.sol\":2895:2907  proposals[p] */\n      dup2\n      sload\n      dup2\n      lt\n      tag_102\n      jumpi\n      tag_103\n      tag_63\n      jump\t// in\n    tag_103:\n    tag_102:\n      swap1\n      0x00\n      mstore\n      keccak256(0x00, 0x20)\n      swap1\n      0x02\n      mul\n      add\n        /* \"contracts/t4_ballot.sol\":2895:2917  proposals[p].voteCount */\n      0x01\n      add\n      sload\n        /* \"contracts/t4_ballot.sol\":2876:2917  winningVoteCount = proposals[p].voteCount */\n      swap2\n      pop\n        /* \"contracts/t4_ballot.sol\":2955:2956  p */\n      dup1\n        /* \"contracts/t4_ballot.sol\":2936:2956  winningProposal_ = p */\n      swap3\n      pop\n        /* \"contracts/t4_ballot.sol\":2810:2972  if (proposals[p].voteCount > winningVoteCount) {... */\n    tag_101:\n        /* \"contracts/t4_ballot.sol\":2790:2793  p++ */\n      dup1\n      dup1\n      0x01\n      add\n      swap2\n      pop\n      pop\n        /* \"contracts/t4_ballot.sol\":2751:2983  for (uint p = 0; p < proposals.length; p++) {... */\n      jump(tag_95)\n    tag_96:\n      pop\n        /* \"contracts/t4_ballot.sol\":2704:2990  {... */\n      pop\n        /* \"contracts/t4_ballot.sol\":2633:2990  function winningProposal() public view returns (uint winningProposal_) {... */\n      swap1\n      jump\t// out\n        /* \"contracts/t4_ballot.sol\":998:1333  function giveRightToVote(address voter) external {... */\n    tag_36:\n        /* \"contracts/t4_ballot.sol\":1080:1091  chairperson */\n      0x02\n      0x00\n      swap1\n      sload\n      swap1\n      0x0100\n      exp\n      swap1\n      div\n      0xffffffffffffffffffffffffffffffffffffffff\n      and\n        /* \"contracts/t4_ballot.sol\":1066:1091  msg.sender == chairperson */\n      0xffffffffffffffffffffffffffffffffffffffff\n      and\n        /* \"contracts/t4_ballot.sol\":1066:1076  msg.sender */\n      caller\n        /* \"contracts/t4_ballot.sol\":1066:1091  msg.sender == chairperson */\n      0xffffffffffffffffffffffffffffffffffffffff\n      and\n      eq\n        /* \"contracts/t4_ballot.sol\":1058:1136  require(msg.sender == chairperson, \"Only chairperson can give right to vote.\") */\n      tag_106\n      jumpi\n      mload(0x40)\n      0x08c379a000000000000000000000000000000000000000000000000000000000\n      dup2\n      mstore\n      0x04\n      add\n      tag_107\n      swap1\n      tag_108\n      jump\t// in\n    tag_107:\n      mload(0x40)\n      dup1\n      swap2\n      sub\n      swap1\n      revert\n    tag_106:\n        /* \"contracts/t4_ballot.sol\":1156:1162  voters */\n      0x03\n        /* \"contracts/t4_ballot.sol\":1156:1169  voters[voter] */\n      0x00\n        /* \"contracts/t4_ballot.sol\":1163:1168  voter */\n      dup3\n        /* \"contracts/t4_ballot.sol\":1156:1169  voters[voter] */\n      0xffffffffffffffffffffffffffffffffffffffff\n      and\n      0xffffffffffffffffffffffffffffffffffffffff\n      and\n      dup2\n      mstore\n      0x20\n      add\n      swap1\n      dup2\n      mstore\n      0x20\n      add\n      0x00\n      keccak256\n        /* \"contracts/t4_ballot.sol\":1156:1175  voters[voter].voted */\n      0x01\n      add\n      0x00\n      swap1\n      sload\n      swap1\n      0x0100\n      exp\n      swap1\n      div\n      0xff\n      and\n        /* \"contracts/t4_ballot.sol\":1155:1175  !voters[voter].voted */\n      iszero\n        /* \"contracts/t4_ballot.sol\":1147:1204  require(!voters[voter].voted, \"The voter already voted.\") */\n      tag_109\n      jumpi\n      mload(0x40)\n      0x08c379a000000000000000000000000000000000000000000000000000000000\n      dup2\n      mstore\n      0x04\n      add\n      tag_110\n      swap1\n      tag_111\n      jump\t// in\n    tag_110:\n      mload(0x40)\n      dup1\n      swap2\n      sub\n      swap1\n      revert\n    tag_109:\n        /* \"contracts/t4_ballot.sol\":1247:1248  0 */\n      0x00\n        /* \"contracts/t4_ballot.sol\":1223:1229  voters */\n      0x03\n        /* \"contracts/t4_ballot.sol\":1223:1236  voters[voter] */\n      0x00\n        /* \"contracts/t4_ballot.sol\":1230:1235  voter */\n      dup4\n        /* \"contracts/t4_ballot.sol\":1223:1236  voters[voter] */\n      0xffffffffffffffffffffffffffffffffffffffff\n      and\n      0xffffffffffffffffffffffffffffffffffffffff\n      and\n      dup2\n      mstore\n      0x20\n      add\n      swap1\n      dup2\n      mstore\n      0x20\n      add\n      0x00\n      keccak256\n        /* \"contracts/t4_ballot.sol\":1223:1243  voters[voter].weight */\n      0x00\n      add\n      sload\n        /* \"contracts/t4_ballot.sol\":1223:1248  voters[voter].weight == 0 */\n      eq\n        /* \"contracts/t4_ballot.sol\":1215:1290  require(voters[voter].weight == 0, \"The voter should not have the weight.\") */\n      tag_112\n      jumpi\n      mload(0x40)\n      0x08c379a000000000000000000000000000000000000000000000000000000000\n      dup2\n      mstore\n      0x04\n      add\n      tag_113\n      swap1\n      tag_114\n      jump\t// in\n    tag_113:\n      mload(0x40)\n      dup1\n      swap2\n      sub\n      swap1\n      revert\n    tag_112:\n        /* \"contracts/t4_ballot.sol\":1324:1325  1 */\n      0x01\n        /* \"contracts/t4_ballot.sol\":1301:1307  voters */\n      0x03\n        /* \"contracts/t4_ballot.sol\":1301:1314  voters[voter] */\n      0x00\n        /* \"contracts/t4_ballot.sol\":1308:1313  voter */\n      dup4\n        /* \"contracts/t4_ballot.sol\":1301:1314  voters[voter] */\n      0xffffffffffffffffffffffffffffffffffffffff\n      and\n      0xffffffffffffffffffffffffffffffffffffffff\n      and\n      dup2\n      mstore\n      0x20\n      add\n      swap1\n      dup2\n      mstore\n      0x20\n      add\n      0x00\n      keccak256\n        /* \"contracts/t4_ballot.sol\":1301:1321  voters[voter].weight */\n      0x00\n      add\n        /* \"contracts/t4_ballot.sol\":1301:1325  voters[voter].weight = 1 */\n      dup2\n      swap1\n      sstore\n      pop\n        /* \"contracts/t4_ballot.sol\":998:1333  function giveRightToVote(address voter) external {... */\n      pop\n      jump\t// out\n        /* \"contracts/t4_ballot.sol\":395:434  mapping(address => Voter) public voters */\n    tag_39:\n      mstore(0x20, 0x03)\n      dup1\n      0x00\n      mstore\n      keccak256(0x00, 0x40)\n      0x00\n      swap2\n      pop\n      swap1\n      pop\n      dup1\n      0x00\n      add\n      sload\n      swap1\n      dup1\n      0x01\n      add\n      0x00\n      swap1\n      sload\n      swap1\n      0x0100\n      exp\n      swap1\n      div\n      0xff\n      and\n      swap1\n      dup1\n      0x01\n      add\n      0x01\n      swap1\n      sload\n      swap1\n      0x0100\n      exp\n      swap1\n      div\n      0xffffffffffffffffffffffffffffffffffffffff\n      and\n      swap1\n      dup1\n      0x02\n      add\n      sload\n      swap1\n      pop\n      dup5\n      jump\t// out\n        /* \"contracts/t4_ballot.sol\":2998:3130  function winnerName() external view returns (bytes32 winnerName_) {... */\n    tag_43:\n        /* \"contracts/t4_ballot.sol\":3043:3062  bytes32 winnerName_ */\n      0x00\n        /* \"contracts/t4_ballot.sol\":3089:3098  proposals */\n      0x04\n        /* \"contracts/t4_ballot.sol\":3099:3116  winningProposal() */\n      tag_116\n        /* \"contracts/t4_ballot.sol\":3099:3114  winningProposal */\n      tag_31\n        /* \"contracts/t4_ballot.sol\":3099:3116  winningProposal() */\n      jump\t// in\n    tag_116:\n        /* \"contracts/t4_ballot.sol\":3089:3117  proposals[winningProposal()] */\n      dup2\n      sload\n      dup2\n      lt\n      tag_117\n      jumpi\n      tag_118\n      tag_63\n      jump\t// in\n    tag_118:\n    tag_117:\n      swap1\n      0x00\n      mstore\n      keccak256(0x00, 0x20)\n      swap1\n      0x02\n      mul\n      add\n        /* \"contracts/t4_ballot.sol\":3089:3122  proposals[winningProposal()].name */\n      0x00\n      add\n      sload\n        /* \"contracts/t4_ballot.sol\":3075:3122  winnerName_ = proposals[winningProposal()].name */\n      swap1\n      pop\n        /* \"contracts/t4_ballot.sol\":2998:3130  function winnerName() external view returns (bytes32 winnerName_) {... */\n      swap1\n      jump\t// out\n        /* \"contracts/t4_ballot.sol\":3138:3767  function setVoterWeight(address voter, uint weight) external {... */\n    tag_49:\n        /* \"contracts/t4_ballot.sol\":3232:3243  chairperson */\n      0x02\n      0x00\n      swap1\n      sload\n      swap1\n      0x0100\n      exp\n      swap1\n      div\n      0xffffffffffffffffffffffffffffffffffffffff\n      and\n        /* \"contracts/t4_ballot.sol\":3218:3243  msg.sender == chairperson */\n      0xffffffffffffffffffffffffffffffffffffffff\n      and\n        /* \"contracts/t4_ballot.sol\":3218:3228  msg.sender */\n      caller\n        /* \"contracts/t4_ballot.sol\":3218:3243  msg.sender == chairperson */\n      0xffffffffffffffffffffffffffffffffffffffff\n      and\n      eq\n        /* \"contracts/t4_ballot.sol\":3210:3287  require(msg.sender == chairperson, \"Only constructor can use this function.\") */\n      tag_121\n      jumpi\n      mload(0x40)\n      0x08c379a000000000000000000000000000000000000000000000000000000000\n      dup2\n      mstore\n      0x04\n      add\n      tag_122\n      swap1\n      tag_123\n      jump\t// in\n    tag_122:\n      mload(0x40)\n      dup1\n      swap2\n      sub\n      swap1\n      revert\n    tag_121:\n        /* \"contracts/t4_ballot.sol\":3315:3316  0 */\n      0x00\n        /* \"contracts/t4_ballot.sol\":3306:3312  weight */\n      dup2\n        /* \"contracts/t4_ballot.sol\":3306:3316  weight > 0 */\n      gt\n        /* \"contracts/t4_ballot.sol\":3298:3352  require(weight > 0, \"New weight must greater than 0.\") */\n      tag_124\n      jumpi\n      mload(0x40)\n      0x08c379a000000000000000000000000000000000000000000000000000000000\n      dup2\n      mstore\n      0x04\n      add\n      tag_125\n      swap1\n      tag_126\n      jump\t// in\n    tag_125:\n      mload(0x40)\n      dup1\n      swap2\n      sub\n      swap1\n      revert\n    tag_124:\n        /* \"contracts/t4_ballot.sol\":3363:3383  Voter storage voter_ */\n      0x00\n        /* \"contracts/t4_ballot.sol\":3386:3392  voters */\n      0x03\n        /* \"contracts/t4_ballot.sol\":3386:3399  voters[voter] */\n      0x00\n        /* \"contracts/t4_ballot.sol\":3393:3398  voter */\n      dup5\n        /* \"contracts/t4_ballot.sol\":3386:3399  voters[voter] */\n      0xffffffffffffffffffffffffffffffffffffffff\n      and\n      0xffffffffffffffffffffffffffffffffffffffff\n      and\n      dup2\n      mstore\n      0x20\n      add\n      swap1\n      dup2\n      mstore\n      0x20\n      add\n      0x00\n      keccak256\n        /* \"contracts/t4_ballot.sol\":3363:3399  Voter storage voter_ = voters[voter] */\n      swap1\n      pop\n        /* \"contracts/t4_ballot.sol\":3435:3436  0 */\n      0x00\n        /* \"contracts/t4_ballot.sol\":3418:3424  voter_ */\n      dup2\n        /* \"contracts/t4_ballot.sol\":3418:3431  voter_.weight */\n      0x00\n      add\n      sload\n        /* \"contracts/t4_ballot.sol\":3418:3436  voter_.weight != 0 */\n      sub\n        /* \"contracts/t4_ballot.sol\":3410:3462  require(voter_.weight != 0, \"Has no right to vote.\") */\n      tag_127\n      jumpi\n      mload(0x40)\n      0x08c379a000000000000000000000000000000000000000000000000000000000\n      dup2\n      mstore\n      0x04\n      add\n      tag_128\n      swap1\n      tag_129\n      jump\t// in\n    tag_128:\n      mload(0x40)\n      dup1\n      swap2\n      sub\n      swap1\n      revert\n    tag_127:\n        /* \"contracts/t4_ballot.sol\":3482:3488  voter_ */\n      dup1\n        /* \"contracts/t4_ballot.sol\":3482:3494  voter_.voted */\n      0x01\n      add\n      0x00\n      swap1\n      sload\n      swap1\n      0x0100\n      exp\n      swap1\n      div\n      0xff\n      and\n        /* \"contracts/t4_ballot.sol\":3481:3494  !voter_.voted */\n      iszero\n        /* \"contracts/t4_ballot.sol\":3473:3523  require(!voter_.voted, \"The voter already voted.\") */\n      tag_130\n      jumpi\n      mload(0x40)\n      0x08c379a000000000000000000000000000000000000000000000000000000000\n      dup2\n      mstore\n      0x04\n      add\n      tag_131\n      swap1\n      tag_111\n      jump\t// in\n    tag_131:\n      mload(0x40)\n      dup1\n      swap2\n      sub\n      swap1\n      revert\n    tag_130:\n        /* \"contracts/t4_ballot.sol\":3574:3575  0 */\n      0x00\n        /* \"contracts/t4_ballot.sol\":3547:3576  voter_.delegate != address(0) */\n      0xffffffffffffffffffffffffffffffffffffffff\n      and\n        /* \"contracts/t4_ballot.sol\":3547:3553  voter_ */\n      dup2\n        /* \"contracts/t4_ballot.sol\":3547:3562  voter_.delegate */\n      0x01\n      add\n      0x01\n      swap1\n      sload\n      swap1\n      0x0100\n      exp\n      swap1\n      div\n      0xffffffffffffffffffffffffffffffffffffffff\n      and\n        /* \"contracts/t4_ballot.sol\":3547:3576  voter_.delegate != address(0) */\n      0xffffffffffffffffffffffffffffffffffffffff\n      and\n      eq\n        /* \"contracts/t4_ballot.sol\":3544:3713  if(voter_.delegate != address(0)) {... */\n      tag_132\n      jumpi\n        /* \"contracts/t4_ballot.sol\":3593:3617  Voter storage delegater_ */\n      0x00\n        /* \"contracts/t4_ballot.sol\":3620:3626  voters */\n      0x03\n        /* \"contracts/t4_ballot.sol\":3620:3643  voters[voter_.delegate] */\n      0x00\n        /* \"contracts/t4_ballot.sol\":3627:3633  voter_ */\n      dup4\n        /* \"contracts/t4_ballot.sol\":3627:3642  voter_.delegate */\n      0x01\n      add\n      0x01\n      swap1\n      sload\n      swap1\n      0x0100\n      exp\n      swap1\n      div\n      0xffffffffffffffffffffffffffffffffffffffff\n      and\n        /* \"contracts/t4_ballot.sol\":3620:3643  voters[voter_.delegate] */\n      0xffffffffffffffffffffffffffffffffffffffff\n      and\n      0xffffffffffffffffffffffffffffffffffffffff\n      and\n      dup2\n      mstore\n      0x20\n      add\n      swap1\n      dup2\n      mstore\n      0x20\n      add\n      0x00\n      keccak256\n        /* \"contracts/t4_ballot.sol\":3593:3643  Voter storage delegater_ = voters[voter_.delegate] */\n      swap1\n      pop\n        /* \"contracts/t4_ballot.sol\":3688:3694  voter_ */\n      dup2\n        /* \"contracts/t4_ballot.sol\":3688:3701  voter_.weight */\n      0x00\n      add\n      sload\n        /* \"contracts/t4_ballot.sol\":3679:3685  weight */\n      dup4\n        /* \"contracts/t4_ballot.sol\":3679:3701  weight - voter_.weight */\n      tag_133\n      swap2\n      swap1\n      tag_134\n      jump\t// in\n    tag_133:\n        /* \"contracts/t4_ballot.sol\":3658:3668  delegater_ */\n      dup2\n        /* \"contracts/t4_ballot.sol\":3658:3675  delegater_.weight */\n      0x00\n      add\n      0x00\n        /* \"contracts/t4_ballot.sol\":3658:3701  delegater_.weight += weight - voter_.weight */\n      dup3\n      dup3\n      sload\n      tag_135\n      swap2\n      swap1\n      tag_66\n      jump\t// in\n    tag_135:\n      swap3\n      pop\n      pop\n      dup2\n      swap1\n      sstore\n      pop\n        /* \"contracts/t4_ballot.sol\":3578:3713  {... */\n      pop\n        /* \"contracts/t4_ballot.sol\":3544:3713  if(voter_.delegate != address(0)) {... */\n    tag_132:\n        /* \"contracts/t4_ballot.sol\":3739:3745  weight */\n      dup2\n        /* \"contracts/t4_ballot.sol\":3723:3729  voter_ */\n      dup2\n        /* \"contracts/t4_ballot.sol\":3723:3736  voter_.weight */\n      0x00\n      add\n        /* \"contracts/t4_ballot.sol\":3723:3745  voter_.weight = weight */\n      dup2\n      swap1\n      sstore\n      pop\n        /* \"contracts/t4_ballot.sol\":3199:3767  {... */\n      pop\n        /* \"contracts/t4_ballot.sol\":3138:3767  function setVoterWeight(address voter, uint weight) external {... */\n      pop\n      pop\n      jump\t// out\n        /* \"#utility.yul\":88:205   */\n    tag_137:\n        /* \"#utility.yul\":197:198   */\n      0x00\n        /* \"#utility.yul\":194:195   */\n      dup1\n        /* \"#utility.yul\":187:199   */\n      revert\n        /* \"#utility.yul\":334:411   */\n    tag_139:\n        /* \"#utility.yul\":371:378   */\n      0x00\n        /* \"#utility.yul\":400:405   */\n      dup2\n        /* \"#utility.yul\":389:405   */\n      swap1\n      pop\n        /* \"#utility.yul\":334:411   */\n      swap2\n      swap1\n      pop\n      jump\t// out\n        /* \"#utility.yul\":417:539   */\n    tag_140:\n        /* \"#utility.yul\":490:514   */\n      tag_188\n        /* \"#utility.yul\":508:513   */\n      dup2\n        /* \"#utility.yul\":490:514   */\n      tag_139\n      jump\t// in\n    tag_188:\n        /* \"#utility.yul\":483:488   */\n      dup2\n        /* \"#utility.yul\":480:515   */\n      eq\n        /* \"#utility.yul\":470:533   */\n      tag_189\n      jumpi\n        /* \"#utility.yul\":529:530   */\n      0x00\n        /* \"#utility.yul\":526:527   */\n      dup1\n        /* \"#utility.yul\":519:531   */\n      revert\n        /* \"#utility.yul\":470:533   */\n    tag_189:\n        /* \"#utility.yul\":417:539   */\n      pop\n      jump\t// out\n        /* \"#utility.yul\":545:684   */\n    tag_141:\n        /* \"#utility.yul\":591:596   */\n      0x00\n        /* \"#utility.yul\":629:635   */\n      dup2\n        /* \"#utility.yul\":616:636   */\n      calldataload\n        /* \"#utility.yul\":607:636   */\n      swap1\n      pop\n        /* \"#utility.yul\":645:678   */\n      tag_191\n        /* \"#utility.yul\":672:677   */\n      dup2\n        /* \"#utility.yul\":645:678   */\n      tag_140\n      jump\t// in\n    tag_191:\n        /* \"#utility.yul\":545:684   */\n      swap3\n      swap2\n      pop\n      pop\n      jump\t// out\n        /* \"#utility.yul\":690:1019   */\n    tag_15:\n        /* \"#utility.yul\":749:755   */\n      0x00\n        /* \"#utility.yul\":798:800   */\n      0x20\n        /* \"#utility.yul\":786:795   */\n      dup3\n        /* \"#utility.yul\":777:784   */\n      dup5\n        /* \"#utility.yul\":773:796   */\n      sub\n        /* \"#utility.yul\":769:801   */\n      slt\n        /* \"#utility.yul\":766:885   */\n      iszero\n      tag_193\n      jumpi\n        /* \"#utility.yul\":804:883   */\n      tag_194\n      tag_137\n      jump\t// in\n    tag_194:\n        /* \"#utility.yul\":766:885   */\n    tag_193:\n        /* \"#utility.yul\":924:925   */\n      0x00\n        /* \"#utility.yul\":949:1002   */\n      tag_195\n        /* \"#utility.yul\":994:1001   */\n      dup5\n        /* \"#utility.yul\":985:991   */\n      dup3\n        /* \"#utility.yul\":974:983   */\n      dup6\n        /* \"#utility.yul\":970:992   */\n      add\n        /* \"#utility.yul\":949:1002   */\n      tag_141\n      jump\t// in\n    tag_195:\n        /* \"#utility.yul\":939:1002   */\n      swap2\n      pop\n        /* \"#utility.yul\":895:1012   */\n      pop\n        /* \"#utility.yul\":690:1019   */\n      swap3\n      swap2\n      pop\n      pop\n      jump\t// out\n        /* \"#utility.yul\":1025:1102   */\n    tag_142:\n        /* \"#utility.yul\":1062:1069   */\n      0x00\n        /* \"#utility.yul\":1091:1096   */\n      dup2\n        /* \"#utility.yul\":1080:1096   */\n      swap1\n      pop\n        /* \"#utility.yul\":1025:1102   */\n      swap2\n      swap1\n      pop\n      jump\t// out\n        /* \"#utility.yul\":1108:1226   */\n    tag_143:\n        /* \"#utility.yul\":1195:1219   */\n      tag_198\n        /* \"#utility.yul\":1213:1218   */\n      dup2\n        /* \"#utility.yul\":1195:1219   */\n      tag_142\n      jump\t// in\n    tag_198:\n        /* \"#utility.yul\":1190:1193   */\n      dup3\n        /* \"#utility.yul\":1183:1220   */\n      mstore\n        /* \"#utility.yul\":1108:1226   */\n      pop\n      pop\n      jump\t// out\n        /* \"#utility.yul\":1232:1350   */\n    tag_144:\n        /* \"#utility.yul\":1319:1343   */\n      tag_200\n        /* \"#utility.yul\":1337:1342   */\n      dup2\n        /* \"#utility.yul\":1319:1343   */\n      tag_139\n      jump\t// in\n    tag_200:\n        /* \"#utility.yul\":1314:1317   */\n      dup3\n        /* \"#utility.yul\":1307:1344   */\n      mstore\n        /* \"#utility.yul\":1232:1350   */\n      pop\n      pop\n      jump\t// out\n        /* \"#utility.yul\":1356:1688   */\n    tag_21:\n        /* \"#utility.yul\":1477:1481   */\n      0x00\n        /* \"#utility.yul\":1515:1517   */\n      0x40\n        /* \"#utility.yul\":1504:1513   */\n      dup3\n        /* \"#utility.yul\":1500:1518   */\n      add\n        /* \"#utility.yul\":1492:1518   */\n      swap1\n      pop\n        /* \"#utility.yul\":1528:1599   */\n      tag_202\n        /* \"#utility.yul\":1596:1597   */\n      0x00\n        /* \"#utility.yul\":1585:1594   */\n      dup4\n        /* \"#utility.yul\":1581:1598   */\n      add\n        /* \"#utility.yul\":1572:1578   */\n      dup6\n        /* \"#utility.yul\":1528:1599   */\n      tag_143\n      jump\t// in\n    tag_202:\n        /* \"#utility.yul\":1609:1681   */\n      tag_203\n        /* \"#utility.yul\":1677:1679   */\n      0x20\n        /* \"#utility.yul\":1666:1675   */\n      dup4\n        /* \"#utility.yul\":1662:1680   */\n      add\n        /* \"#utility.yul\":1653:1659   */\n      dup5\n        /* \"#utility.yul\":1609:1681   */\n      tag_144\n      jump\t// in\n    tag_203:\n        /* \"#utility.yul\":1356:1688   */\n      swap4\n      swap3\n      pop\n      pop\n      pop\n      jump\t// out\n        /* \"#utility.yul\":1694:1820   */\n    tag_145:\n        /* \"#utility.yul\":1731:1738   */\n      0x00\n        /* \"#utility.yul\":1771:1813   */\n      0xffffffffffffffffffffffffffffffffffffffff\n        /* \"#utility.yul\":1764:1769   */\n      dup3\n        /* \"#utility.yul\":1760:1814   */\n      and\n        /* \"#utility.yul\":1749:1814   */\n      swap1\n      pop\n        /* \"#utility.yul\":1694:1820   */\n      swap2\n      swap1\n      pop\n      jump\t// out\n        /* \"#utility.yul\":1826:1922   */\n    tag_146:\n        /* \"#utility.yul\":1863:1870   */\n      0x00\n        /* \"#utility.yul\":1892:1916   */\n      tag_206\n        /* \"#utility.yul\":1910:1915   */\n      dup3\n        /* \"#utility.yul\":1892:1916   */\n      tag_145\n      jump\t// in\n    tag_206:\n        /* \"#utility.yul\":1881:1916   */\n      swap1\n      pop\n        /* \"#utility.yul\":1826:1922   */\n      swap2\n      swap1\n      pop\n      jump\t// out\n        /* \"#utility.yul\":1928:2046   */\n    tag_147:\n        /* \"#utility.yul\":2015:2039   */\n      tag_208\n        /* \"#utility.yul\":2033:2038   */\n      dup2\n        /* \"#utility.yul\":2015:2039   */\n      tag_146\n      jump\t// in\n    tag_208:\n        /* \"#utility.yul\":2010:2013   */\n      dup3\n        /* \"#utility.yul\":2003:2040   */\n      mstore\n        /* \"#utility.yul\":1928:2046   */\n      pop\n      pop\n      jump\t// out\n        /* \"#utility.yul\":2052:2274   */\n    tag_25:\n        /* \"#utility.yul\":2145:2149   */\n      0x00\n        /* \"#utility.yul\":2183:2185   */\n      0x20\n        /* \"#utility.yul\":2172:2181   */\n      dup3\n        /* \"#utility.yul\":2168:2186   */\n      add\n        /* \"#utility.yul\":2160:2186   */\n      swap1\n      pop\n        /* \"#utility.yul\":2196:2267   */\n      tag_210\n        /* \"#utility.yul\":2264:2265   */\n      0x00\n        /* \"#utility.yul\":2253:2262   */\n      dup4\n        /* \"#utility.yul\":2249:2266   */\n      add\n        /* \"#utility.yul\":2240:2246   */\n      dup5\n        /* \"#utility.yul\":2196:2267   */\n      tag_147\n      jump\t// in\n    tag_210:\n        /* \"#utility.yul\":2052:2274   */\n      swap3\n      swap2\n      pop\n      pop\n      jump\t// out\n        /* \"#utility.yul\":2280:2402   */\n    tag_148:\n        /* \"#utility.yul\":2353:2377   */\n      tag_212\n        /* \"#utility.yul\":2371:2376   */\n      dup2\n        /* \"#utility.yul\":2353:2377   */\n      tag_146\n      jump\t// in\n    tag_212:\n        /* \"#utility.yul\":2346:2351   */\n      dup2\n        /* \"#utility.yul\":2343:2378   */\n      eq\n        /* \"#utility.yul\":2333:2396   */\n      tag_213\n      jumpi\n        /* \"#utility.yul\":2392:2393   */\n      0x00\n        /* \"#utility.yul\":2389:2390   */\n      dup1\n        /* \"#utility.yul\":2382:2394   */\n      revert\n        /* \"#utility.yul\":2333:2396   */\n    tag_213:\n        /* \"#utility.yul\":2280:2402   */\n      pop\n      jump\t// out\n        /* \"#utility.yul\":2408:2547   */\n    tag_149:\n        /* \"#utility.yul\":2454:2459   */\n      0x00\n        /* \"#utility.yul\":2492:2498   */\n      dup2\n        /* \"#utility.yul\":2479:2499   */\n      calldataload\n        /* \"#utility.yul\":2470:2499   */\n      swap1\n      pop\n        /* \"#utility.yul\":2508:2541   */\n      tag_215\n        /* \"#utility.yul\":2535:2540   */\n      dup2\n        /* \"#utility.yul\":2508:2541   */\n      tag_148\n      jump\t// in\n    tag_215:\n        /* \"#utility.yul\":2408:2547   */\n      swap3\n      swap2\n      pop\n      pop\n      jump\t// out\n        /* \"#utility.yul\":2553:2882   */\n    tag_28:\n        /* \"#utility.yul\":2612:2618   */\n      0x00\n        /* \"#utility.yul\":2661:2663   */\n      0x20\n        /* \"#utility.yul\":2649:2658   */\n      dup3\n        /* \"#utility.yul\":2640:2647   */\n      dup5\n        /* \"#utility.yul\":2636:2659   */\n      sub\n        /* \"#utility.yul\":2632:2664   */\n      slt\n        /* \"#utility.yul\":2629:2748   */\n      iszero\n      tag_217\n      jumpi\n        /* \"#utility.yul\":2667:2746   */\n      tag_218\n      tag_137\n      jump\t// in\n    tag_218:\n        /* \"#utility.yul\":2629:2748   */\n    tag_217:\n        /* \"#utility.yul\":2787:2788   */\n      0x00\n        /* \"#utility.yul\":2812:2865   */\n      tag_219\n        /* \"#utility.yul\":2857:2864   */\n      dup5\n        /* \"#utility.yul\":2848:2854   */\n      dup3\n        /* \"#utility.yul\":2837:2846   */\n      dup6\n        /* \"#utility.yul\":2833:2855   */\n      add\n        /* \"#utility.yul\":2812:2865   */\n      tag_149\n      jump\t// in\n    tag_219:\n        /* \"#utility.yul\":2802:2865   */\n      swap2\n      pop\n        /* \"#utility.yul\":2758:2875   */\n      pop\n        /* \"#utility.yul\":2553:2882   */\n      swap3\n      swap2\n      pop\n      pop\n      jump\t// out\n        /* \"#utility.yul\":2888:3110   */\n    tag_33:\n        /* \"#utility.yul\":2981:2985   */\n      0x00\n        /* \"#utility.yul\":3019:3021   */\n      0x20\n        /* \"#utility.yul\":3008:3017   */\n      dup3\n        /* \"#utility.yul\":3004:3022   */\n      add\n        /* \"#utility.yul\":2996:3022   */\n      swap1\n      pop\n        /* \"#utility.yul\":3032:3103   */\n      tag_221\n        /* \"#utility.yul\":3100:3101   */\n      0x00\n        /* \"#utility.yul\":3089:3098   */\n      dup4\n        /* \"#utility.yul\":3085:3102   */\n      add\n        /* \"#utility.yul\":3076:3082   */\n      dup5\n        /* \"#utility.yul\":3032:3103   */\n      tag_144\n      jump\t// in\n    tag_221:\n        /* \"#utility.yul\":2888:3110   */\n      swap3\n      swap2\n      pop\n      pop\n      jump\t// out\n        /* \"#utility.yul\":3116:3206   */\n    tag_150:\n        /* \"#utility.yul\":3150:3157   */\n      0x00\n        /* \"#utility.yul\":3193:3198   */\n      dup2\n        /* \"#utility.yul\":3186:3199   */\n      iszero\n        /* \"#utility.yul\":3179:3200   */\n      iszero\n        /* \"#utility.yul\":3168:3200   */\n      swap1\n      pop\n        /* \"#utility.yul\":3116:3206   */\n      swap2\n      swap1\n      pop\n      jump\t// out\n        /* \"#utility.yul\":3212:3321   */\n    tag_151:\n        /* \"#utility.yul\":3293:3314   */\n      tag_224\n        /* \"#utility.yul\":3308:3313   */\n      dup2\n        /* \"#utility.yul\":3293:3314   */\n      tag_150\n      jump\t// in\n    tag_224:\n        /* \"#utility.yul\":3288:3291   */\n      dup3\n        /* \"#utility.yul\":3281:3315   */\n      mstore\n        /* \"#utility.yul\":3212:3321   */\n      pop\n      pop\n      jump\t// out\n        /* \"#utility.yul\":3327:3868   */\n    tag_41:\n        /* \"#utility.yul\":3498:3502   */\n      0x00\n        /* \"#utility.yul\":3536:3539   */\n      0x80\n        /* \"#utility.yul\":3525:3534   */\n      dup3\n        /* \"#utility.yul\":3521:3540   */\n      add\n        /* \"#utility.yul\":3513:3540   */\n      swap1\n      pop\n        /* \"#utility.yul\":3550:3621   */\n      tag_226\n        /* \"#utility.yul\":3618:3619   */\n      0x00\n        /* \"#utility.yul\":3607:3616   */\n      dup4\n        /* \"#utility.yul\":3603:3620   */\n      add\n        /* \"#utility.yul\":3594:3600   */\n      dup8\n        /* \"#utility.yul\":3550:3621   */\n      tag_144\n      jump\t// in\n    tag_226:\n        /* \"#utility.yul\":3631:3697   */\n      tag_227\n        /* \"#utility.yul\":3693:3695   */\n      0x20\n        /* \"#utility.yul\":3682:3691   */\n      dup4\n        /* \"#utility.yul\":3678:3696   */\n      add\n        /* \"#utility.yul\":3669:3675   */\n      dup7\n        /* \"#utility.yul\":3631:3697   */\n      tag_151\n      jump\t// in\n    tag_227:\n        /* \"#utility.yul\":3707:3779   */\n      tag_228\n        /* \"#utility.yul\":3775:3777   */\n      0x40\n        /* \"#utility.yul\":3764:3773   */\n      dup4\n        /* \"#utility.yul\":3760:3778   */\n      add\n        /* \"#utility.yul\":3751:3757   */\n      dup6\n        /* \"#utility.yul\":3707:3779   */\n      tag_147\n      jump\t// in\n    tag_228:\n        /* \"#utility.yul\":3789:3861   */\n      tag_229\n        /* \"#utility.yul\":3857:3859   */\n      0x60\n        /* \"#utility.yul\":3846:3855   */\n      dup4\n        /* \"#utility.yul\":3842:3860   */\n      add\n        /* \"#utility.yul\":3833:3839   */\n      dup5\n        /* \"#utility.yul\":3789:3861   */\n      tag_144\n      jump\t// in\n    tag_229:\n        /* \"#utility.yul\":3327:3868   */\n      swap6\n      swap5\n      pop\n      pop\n      pop\n      pop\n      pop\n      jump\t// out\n        /* \"#utility.yul\":3874:4096   */\n    tag_45:\n        /* \"#utility.yul\":3967:3971   */\n      0x00\n        /* \"#utility.yul\":4005:4007   */\n      0x20\n        /* \"#utility.yul\":3994:4003   */\n      dup3\n        /* \"#utility.yul\":3990:4008   */\n      add\n        /* \"#utility.yul\":3982:4008   */\n      swap1\n      pop\n        /* \"#utility.yul\":4018:4089   */\n      tag_231\n        /* \"#utility.yul\":4086:4087   */\n      0x00\n        /* \"#utility.yul\":4075:4084   */\n      dup4\n        /* \"#utility.yul\":4071:4088   */\n      add\n        /* \"#utility.yul\":4062:4068   */\n      dup5\n        /* \"#utility.yul\":4018:4089   */\n      tag_143\n      jump\t// in\n    tag_231:\n        /* \"#utility.yul\":3874:4096   */\n      swap3\n      swap2\n      pop\n      pop\n      jump\t// out\n        /* \"#utility.yul\":4102:4576   */\n    tag_48:\n        /* \"#utility.yul\":4170:4176   */\n      0x00\n        /* \"#utility.yul\":4178:4184   */\n      dup1\n        /* \"#utility.yul\":4227:4229   */\n      0x40\n        /* \"#utility.yul\":4215:4224   */\n      dup4\n        /* \"#utility.yul\":4206:4213   */\n      dup6\n        /* \"#utility.yul\":4202:4225   */\n      sub\n        /* \"#utility.yul\":4198:4230   */\n      slt\n        /* \"#utility.yul\":4195:4314   */\n      iszero\n      tag_233\n      jumpi\n        /* \"#utility.yul\":4233:4312   */\n      tag_234\n      tag_137\n      jump\t// in\n    tag_234:\n        /* \"#utility.yul\":4195:4314   */\n    tag_233:\n        /* \"#utility.yul\":4353:4354   */\n      0x00\n        /* \"#utility.yul\":4378:4431   */\n      tag_235\n        /* \"#utility.yul\":4423:4430   */\n      dup6\n        /* \"#utility.yul\":4414:4420   */\n      dup3\n        /* \"#utility.yul\":4403:4412   */\n      dup7\n        /* \"#utility.yul\":4399:4421   */\n      add\n        /* \"#utility.yul\":4378:4431   */\n      tag_149\n      jump\t// in\n    tag_235:\n        /* \"#utility.yul\":4368:4431   */\n      swap3\n      pop\n        /* \"#utility.yul\":4324:4441   */\n      pop\n        /* \"#utility.yul\":4480:4482   */\n      0x20\n        /* \"#utility.yul\":4506:4559   */\n      tag_236\n        /* \"#utility.yul\":4551:4558   */\n      dup6\n        /* \"#utility.yul\":4542:4548   */\n      dup3\n        /* \"#utility.yul\":4531:4540   */\n      dup7\n        /* \"#utility.yul\":4527:4549   */\n      add\n        /* \"#utility.yul\":4506:4559   */\n      tag_141\n      jump\t// in\n    tag_236:\n        /* \"#utility.yul\":4496:4559   */\n      swap2\n      pop\n        /* \"#utility.yul\":4451:4569   */\n      pop\n        /* \"#utility.yul\":4102:4576   */\n      swap3\n      pop\n      swap3\n      swap1\n      pop\n      jump\t// out\n        /* \"#utility.yul\":4582:4751   */\n    tag_152:\n        /* \"#utility.yul\":4666:4677   */\n      0x00\n        /* \"#utility.yul\":4700:4706   */\n      dup3\n        /* \"#utility.yul\":4695:4698   */\n      dup3\n        /* \"#utility.yul\":4688:4707   */\n      mstore\n        /* \"#utility.yul\":4740:4744   */\n      0x20\n        /* \"#utility.yul\":4735:4738   */\n      dup3\n        /* \"#utility.yul\":4731:4745   */\n      add\n        /* \"#utility.yul\":4716:4745   */\n      swap1\n      pop\n        /* \"#utility.yul\":4582:4751   */\n      swap3\n      swap2\n      pop\n      pop\n      jump\t// out\n        /* \"#utility.yul\":4757:4927   */\n    tag_153:\n        /* \"#utility.yul\":4897:4919   */\n      0x486173206e6f20726967687420746f20766f7465000000000000000000000000\n        /* \"#utility.yul\":4893:4894   */\n      0x00\n        /* \"#utility.yul\":4885:4891   */\n      dup3\n        /* \"#utility.yul\":4881:4895   */\n      add\n        /* \"#utility.yul\":4874:4920   */\n      mstore\n        /* \"#utility.yul\":4757:4927   */\n      pop\n      jump\t// out\n        /* \"#utility.yul\":4933:5299   */\n    tag_154:\n        /* \"#utility.yul\":5075:5078   */\n      0x00\n        /* \"#utility.yul\":5096:5163   */\n      tag_240\n        /* \"#utility.yul\":5160:5162   */\n      0x14\n        /* \"#utility.yul\":5155:5158   */\n      dup4\n        /* \"#utility.yul\":5096:5163   */\n      tag_152\n      jump\t// in\n    tag_240:\n        /* \"#utility.yul\":5089:5163   */\n      swap2\n      pop\n        /* \"#utility.yul\":5172:5265   */\n      tag_241\n        /* \"#utility.yul\":5261:5264   */\n      dup3\n        /* \"#utility.yul\":5172:5265   */\n      tag_153\n      jump\t// in\n    tag_241:\n        /* \"#utility.yul\":5290:5292   */\n      0x20\n        /* \"#utility.yul\":5285:5288   */\n      dup3\n        /* \"#utility.yul\":5281:5293   */\n      add\n        /* \"#utility.yul\":5274:5293   */\n      swap1\n      pop\n        /* \"#utility.yul\":4933:5299   */\n      swap2\n      swap1\n      pop\n      jump\t// out\n        /* \"#utility.yul\":5305:5724   */\n    tag_53:\n        /* \"#utility.yul\":5471:5475   */\n      0x00\n        /* \"#utility.yul\":5509:5511   */\n      0x20\n        /* \"#utility.yul\":5498:5507   */\n      dup3\n        /* \"#utility.yul\":5494:5512   */\n      add\n        /* \"#utility.yul\":5486:5512   */\n      swap1\n      pop\n        /* \"#utility.yul\":5558:5567   */\n      dup2\n        /* \"#utility.yul\":5552:5556   */\n      dup2\n        /* \"#utility.yul\":5548:5568   */\n      sub\n        /* \"#utility.yul\":5544:5545   */\n      0x00\n        /* \"#utility.yul\":5533:5542   */\n      dup4\n        /* \"#utility.yul\":5529:5546   */\n      add\n        /* \"#utility.yul\":5522:5569   */\n      mstore\n        /* \"#utility.yul\":5586:5717   */\n      tag_243\n        /* \"#utility.yul\":5712:5716   */\n      dup2\n        /* \"#utility.yul\":5586:5717   */\n      tag_154\n      jump\t// in\n    tag_243:\n        /* \"#utility.yul\":5578:5717   */\n      swap1\n      pop\n        /* \"#utility.yul\":5305:5724   */\n      swap2\n      swap1\n      pop\n      jump\t// out\n        /* \"#utility.yul\":5730:5894   */\n    tag_155:\n        /* \"#utility.yul\":5870:5886   */\n      0x416c726561647920766f7465642e000000000000000000000000000000000000\n        /* \"#utility.yul\":5866:5867   */\n      0x00\n        /* \"#utility.yul\":5858:5864   */\n      dup3\n        /* \"#utility.yul\":5854:5868   */\n      add\n        /* \"#utility.yul\":5847:5887   */\n      mstore\n        /* \"#utility.yul\":5730:5894   */\n      pop\n      jump\t// out\n        /* \"#utility.yul\":5900:6266   */\n    tag_156:\n        /* \"#utility.yul\":6042:6045   */\n      0x00\n        /* \"#utility.yul\":6063:6130   */\n      tag_246\n        /* \"#utility.yul\":6127:6129   */\n      0x0e\n        /* \"#utility.yul\":6122:6125   */\n      dup4\n        /* \"#utility.yul\":6063:6130   */\n      tag_152\n      jump\t// in\n    tag_246:\n        /* \"#utility.yul\":6056:6130   */\n      swap2\n      pop\n        /* \"#utility.yul\":6139:6232   */\n      tag_247\n        /* \"#utility.yul\":6228:6231   */\n      dup3\n        /* \"#utility.yul\":6139:6232   */\n      tag_155\n      jump\t// in\n    tag_247:\n        /* \"#utility.yul\":6257:6259   */\n      0x20\n        /* \"#utility.yul\":6252:6255   */\n      dup3\n        /* \"#utility.yul\":6248:6260   */\n      add\n        /* \"#utility.yul\":6241:6260   */\n      swap1\n      pop\n        /* \"#utility.yul\":5900:6266   */\n      swap2\n      swap1\n      pop\n      jump\t// out\n        /* \"#utility.yul\":6272:6691   */\n    tag_56:\n        /* \"#utility.yul\":6438:6442   */\n      0x00\n        /* \"#utility.yul\":6476:6478   */\n      0x20\n        /* \"#utility.yul\":6465:6474   */\n      dup3\n        /* \"#utility.yul\":6461:6479   */\n      add\n        /* \"#utility.yul\":6453:6479   */\n      swap1\n      pop\n        /* \"#utility.yul\":6525:6534   */\n      dup2\n        /* \"#utility.yul\":6519:6523   */\n      dup2\n        /* \"#utility.yul\":6515:6535   */\n      sub\n        /* \"#utility.yul\":6511:6512   */\n      0x00\n        /* \"#utility.yul\":6500:6509   */\n      dup4\n        /* \"#utility.yul\":6496:6513   */\n      add\n        /* \"#utility.yul\":6489:6536   */\n      mstore\n        /* \"#utility.yul\":6553:6684   */\n      tag_249\n        /* \"#utility.yul\":6679:6683   */\n      dup2\n        /* \"#utility.yul\":6553:6684   */\n      tag_156\n      jump\t// in\n    tag_249:\n        /* \"#utility.yul\":6545:6684   */\n      swap1\n      pop\n        /* \"#utility.yul\":6272:6691   */\n      swap2\n      swap1\n      pop\n      jump\t// out\n        /* \"#utility.yul\":6697:6870   */\n    tag_157:\n        /* \"#utility.yul\":6837:6862   */\n      0x4f7574206f6620766f74652074696d652072616e67652e000000000000000000\n        /* \"#utility.yul\":6833:6834   */\n      0x00\n        /* \"#utility.yul\":6825:6831   */\n      dup3\n        /* \"#utility.yul\":6821:6835   */\n      add\n        /* \"#utility.yul\":6814:6863   */\n      mstore\n        /* \"#utility.yul\":6697:6870   */\n      pop\n      jump\t// out\n        /* \"#utility.yul\":6876:7242   */\n    tag_158:\n        /* \"#utility.yul\":7018:7021   */\n      0x00\n        /* \"#utility.yul\":7039:7106   */\n      tag_252\n        /* \"#utility.yul\":7103:7105   */\n      0x17\n        /* \"#utility.yul\":7098:7101   */\n      dup4\n        /* \"#utility.yul\":7039:7106   */\n      tag_152\n      jump\t// in\n    tag_252:\n        /* \"#utility.yul\":7032:7106   */\n      swap2\n      pop\n        /* \"#utility.yul\":7115:7208   */\n      tag_253\n        /* \"#utility.yul\":7204:7207   */\n      dup3\n        /* \"#utility.yul\":7115:7208   */\n      tag_157\n      jump\t// in\n    tag_253:\n        /* \"#utility.yul\":7233:7235   */\n      0x20\n        /* \"#utility.yul\":7228:7231   */\n      dup3\n        /* \"#utility.yul\":7224:7236   */\n      add\n        /* \"#utility.yul\":7217:7236   */\n      swap1\n      pop\n        /* \"#utility.yul\":6876:7242   */\n      swap2\n      swap1\n      pop\n      jump\t// out\n        /* \"#utility.yul\":7248:7667   */\n    tag_60:\n        /* \"#utility.yul\":7414:7418   */\n      0x00\n        /* \"#utility.yul\":7452:7454   */\n      0x20\n        /* \"#utility.yul\":7441:7450   */\n      dup3\n        /* \"#utility.yul\":7437:7455   */\n      add\n        /* \"#utility.yul\":7429:7455   */\n      swap1\n      pop\n        /* \"#utility.yul\":7501:7510   */\n      dup2\n        /* \"#utility.yul\":7495:7499   */\n      dup2\n        /* \"#utility.yul\":7491:7511   */\n      sub\n        /* \"#utility.yul\":7487:7488   */\n      0x00\n        /* \"#utility.yul\":7476:7485   */\n      dup4\n        /* \"#utility.yul\":7472:7489   */\n      add\n        /* \"#utility.yul\":7465:7512   */\n      mstore\n        /* \"#utility.yul\":7529:7660   */\n      tag_255\n        /* \"#utility.yul\":7655:7659   */\n      dup2\n        /* \"#utility.yul\":7529:7660   */\n      tag_158\n      jump\t// in\n    tag_255:\n        /* \"#utility.yul\":7521:7660   */\n      swap1\n      pop\n        /* \"#utility.yul\":7248:7667   */\n      swap2\n      swap1\n      pop\n      jump\t// out\n        /* \"#utility.yul\":7673:7853   */\n    tag_63:\n        /* \"#utility.yul\":7721:7798   */\n      0x4e487b7100000000000000000000000000000000000000000000000000000000\n        /* \"#utility.yul\":7718:7719   */\n      0x00\n        /* \"#utility.yul\":7711:7799   */\n      mstore\n        /* \"#utility.yul\":7818:7822   */\n      0x32\n        /* \"#utility.yul\":7815:7816   */\n      0x04\n        /* \"#utility.yul\":7808:7823   */\n      mstore\n        /* \"#utility.yul\":7842:7846   */\n      0x24\n        /* \"#utility.yul\":7839:7840   */\n      0x00\n        /* \"#utility.yul\":7832:7847   */\n      revert\n        /* \"#utility.yul\":7859:8039   */\n    tag_159:\n        /* \"#utility.yul\":7907:7984   */\n      0x4e487b7100000000000000000000000000000000000000000000000000000000\n        /* \"#utility.yul\":7904:7905   */\n      0x00\n        /* \"#utility.yul\":7897:7985   */\n      mstore\n        /* \"#utility.yul\":8004:8008   */\n      0x11\n        /* \"#utility.yul\":8001:8002   */\n      0x04\n        /* \"#utility.yul\":7994:8009   */\n      mstore\n        /* \"#utility.yul\":8028:8032   */\n      0x24\n        /* \"#utility.yul\":8025:8026   */\n      0x00\n        /* \"#utility.yul\":8018:8033   */\n      revert\n        /* \"#utility.yul\":8045:8236   */\n    tag_66:\n        /* \"#utility.yul\":8085:8088   */\n      0x00\n        /* \"#utility.yul\":8104:8124   */\n      tag_259\n        /* \"#utility.yul\":8122:8123   */\n      dup3\n        /* \"#utility.yul\":8104:8124   */\n      tag_139\n      jump\t// in\n    tag_259:\n        /* \"#utility.yul\":8099:8124   */\n      swap2\n      pop\n        /* \"#utility.yul\":8138:8158   */\n      tag_260\n        /* \"#utility.yul\":8156:8157   */\n      dup4\n        /* \"#utility.yul\":8138:8158   */\n      tag_139\n      jump\t// in\n    tag_260:\n        /* \"#utility.yul\":8133:8158   */\n      swap3\n      pop\n        /* \"#utility.yul\":8181:8182   */\n      dup3\n        /* \"#utility.yul\":8178:8179   */\n      dup3\n        /* \"#utility.yul\":8174:8183   */\n      add\n        /* \"#utility.yul\":8167:8183   */\n      swap1\n      pop\n        /* \"#utility.yul\":8202:8205   */\n      dup1\n        /* \"#utility.yul\":8199:8200   */\n      dup3\n        /* \"#utility.yul\":8196:8206   */\n      gt\n        /* \"#utility.yul\":8193:8229   */\n      iszero\n      tag_261\n      jumpi\n        /* \"#utility.yul\":8209:8227   */\n      tag_262\n      tag_159\n      jump\t// in\n    tag_262:\n        /* \"#utility.yul\":8193:8229   */\n    tag_261:\n        /* \"#utility.yul\":8045:8236   */\n      swap3\n      swap2\n      pop\n      pop\n      jump\t// out\n        /* \"#utility.yul\":8242:8418   */\n    tag_160:\n        /* \"#utility.yul\":8382:8410   */\n      0x596f752068617665206e6f20726967687420746f20766f74652e000000000000\n        /* \"#utility.yul\":8378:8379   */\n      0x00\n        /* \"#utility.yul\":8370:8376   */\n      dup3\n        /* \"#utility.yul\":8366:8380   */\n      add\n        /* \"#utility.yul\":8359:8411   */\n      mstore\n        /* \"#utility.yul\":8242:8418   */\n      pop\n      jump\t// out\n        /* \"#utility.yul\":8424:8790   */\n    tag_161:\n        /* \"#utility.yul\":8566:8569   */\n      0x00\n        /* \"#utility.yul\":8587:8654   */\n      tag_265\n        /* \"#utility.yul\":8651:8653   */\n      0x1a\n        /* \"#utility.yul\":8646:8649   */\n      dup4\n        /* \"#utility.yul\":8587:8654   */\n      tag_152\n      jump\t// in\n    tag_265:\n        /* \"#utility.yul\":8580:8654   */\n      swap2\n      pop\n        /* \"#utility.yul\":8663:8756   */\n      tag_266\n        /* \"#utility.yul\":8752:8755   */\n      dup3\n        /* \"#utility.yul\":8663:8756   */\n      tag_160\n      jump\t// in\n    tag_266:\n        /* \"#utility.yul\":8781:8783   */\n      0x20\n        /* \"#utility.yul\":8776:8779   */\n      dup3\n        /* \"#utility.yul\":8772:8784   */\n      add\n        /* \"#utility.yul\":8765:8784   */\n      swap1\n      pop\n        /* \"#utility.yul\":8424:8790   */\n      swap2\n      swap1\n      pop\n      jump\t// out\n        /* \"#utility.yul\":8796:9215   */\n    tag_72:\n        /* \"#utility.yul\":8962:8966   */\n      0x00\n        /* \"#utility.yul\":9000:9002   */\n      0x20\n        /* \"#utility.yul\":8989:8998   */\n      dup3\n        /* \"#utility.yul\":8985:9003   */\n      add\n        /* \"#utility.yul\":8977:9003   */\n      swap1\n      pop\n        /* \"#utility.yul\":9049:9058   */\n      dup2\n        /* \"#utility.yul\":9043:9047   */\n      dup2\n        /* \"#utility.yul\":9039:9059   */\n      sub\n        /* \"#utility.yul\":9035:9036   */\n      0x00\n        /* \"#utility.yul\":9024:9033   */\n      dup4\n        /* \"#utility.yul\":9020:9037   */\n      add\n        /* \"#utility.yul\":9013:9060   */\n      mstore\n        /* \"#utility.yul\":9077:9208   */\n      tag_268\n        /* \"#utility.yul\":9203:9207   */\n      dup2\n        /* \"#utility.yul\":9077:9208   */\n      tag_161\n      jump\t// in\n    tag_268:\n        /* \"#utility.yul\":9069:9208   */\n      swap1\n      pop\n        /* \"#utility.yul\":8796:9215   */\n      swap2\n      swap1\n      pop\n      jump\t// out\n        /* \"#utility.yul\":9221:9389   */\n    tag_162:\n        /* \"#utility.yul\":9361:9381   */\n      0x596f7520616c726561647920766f7465642e0000000000000000000000000000\n        /* \"#utility.yul\":9357:9358   */\n      0x00\n        /* \"#utility.yul\":9349:9355   */\n      dup3\n        /* \"#utility.yul\":9345:9359   */\n      add\n        /* \"#utility.yul\":9338:9382   */\n      mstore\n        /* \"#utility.yul\":9221:9389   */\n      pop\n      jump\t// out\n        /* \"#utility.yul\":9395:9761   */\n    tag_163:\n        /* \"#utility.yul\":9537:9540   */\n      0x00\n        /* \"#utility.yul\":9558:9625   */\n      tag_271\n        /* \"#utility.yul\":9622:9624   */\n      0x12\n        /* \"#utility.yul\":9617:9620   */\n      dup4\n        /* \"#utility.yul\":9558:9625   */\n      tag_152\n      jump\t// in\n    tag_271:\n        /* \"#utility.yul\":9551:9625   */\n      swap2\n      pop\n        /* \"#utility.yul\":9634:9727   */\n      tag_272\n        /* \"#utility.yul\":9723:9726   */\n      dup3\n        /* \"#utility.yul\":9634:9727   */\n      tag_162\n      jump\t// in\n    tag_272:\n        /* \"#utility.yul\":9752:9754   */\n      0x20\n        /* \"#utility.yul\":9747:9750   */\n      dup3\n        /* \"#utility.yul\":9743:9755   */\n      add\n        /* \"#utility.yul\":9736:9755   */\n      swap1\n      pop\n        /* \"#utility.yul\":9395:9761   */\n      swap2\n      swap1\n      pop\n      jump\t// out\n        /* \"#utility.yul\":9767:10186   */\n    tag_75:\n        /* \"#utility.yul\":9933:9937   */\n      0x00\n        /* \"#utility.yul\":9971:9973   */\n      0x20\n        /* \"#utility.yul\":9960:9969   */\n      dup3\n        /* \"#utility.yul\":9956:9974   */\n      add\n        /* \"#utility.yul\":9948:9974   */\n      swap1\n      pop\n        /* \"#utility.yul\":10020:10029   */\n      dup2\n        /* \"#utility.yul\":10014:10018   */\n      dup2\n        /* \"#utility.yul\":10010:10030   */\n      sub\n        /* \"#utility.yul\":10006:10007   */\n      0x00\n        /* \"#utility.yul\":9995:10004   */\n      dup4\n        /* \"#utility.yul\":9991:10008   */\n      add\n        /* \"#utility.yul\":9984:10031   */\n      mstore\n        /* \"#utility.yul\":10048:10179   */\n      tag_274\n        /* \"#utility.yul\":10174:10178   */\n      dup2\n        /* \"#utility.yul\":10048:10179   */\n      tag_163\n      jump\t// in\n    tag_274:\n        /* \"#utility.yul\":10040:10179   */\n      swap1\n      pop\n        /* \"#utility.yul\":9767:10186   */\n      swap2\n      swap1\n      pop\n      jump\t// out\n        /* \"#utility.yul\":10192:10372   */\n    tag_164:\n        /* \"#utility.yul\":10332:10364   */\n      0x53656c662d64656c65676174696f6e20697320646973616c6c6f7765642e0000\n        /* \"#utility.yul\":10328:10329   */\n      0x00\n        /* \"#utility.yul\":10320:10326   */\n      dup3\n        /* \"#utility.yul\":10316:10330   */\n      add\n        /* \"#utility.yul\":10309:10365   */\n      mstore\n        /* \"#utility.yul\":10192:10372   */\n      pop\n      jump\t// out\n        /* \"#utility.yul\":10378:10744   */\n    tag_165:\n        /* \"#utility.yul\":10520:10523   */\n      0x00\n        /* \"#utility.yul\":10541:10608   */\n      tag_277\n        /* \"#utility.yul\":10605:10607   */\n      0x1e\n        /* \"#utility.yul\":10600:10603   */\n      dup4\n        /* \"#utility.yul\":10541:10608   */\n      tag_152\n      jump\t// in\n    tag_277:\n        /* \"#utility.yul\":10534:10608   */\n      swap2\n      pop\n        /* \"#utility.yul\":10617:10710   */\n      tag_278\n        /* \"#utility.yul\":10706:10709   */\n      dup3\n        /* \"#utility.yul\":10617:10710   */\n      tag_164\n      jump\t// in\n    tag_278:\n        /* \"#utility.yul\":10735:10737   */\n      0x20\n        /* \"#utility.yul\":10730:10733   */\n      dup3\n        /* \"#utility.yul\":10726:10738   */\n      add\n        /* \"#utility.yul\":10719:10738   */\n      swap1\n      pop\n        /* \"#utility.yul\":10378:10744   */\n      swap2\n      swap1\n      pop\n      jump\t// out\n        /* \"#utility.yul\":10750:11169   */\n    tag_78:\n        /* \"#utility.yul\":10916:10920   */\n      0x00\n        /* \"#utility.yul\":10954:10956   */\n      0x20\n        /* \"#utility.yul\":10943:10952   */\n      dup3\n        /* \"#utility.yul\":10939:10957   */\n      add\n        /* \"#utility.yul\":10931:10957   */\n      swap1\n      pop\n        /* \"#utility.yul\":11003:11012   */\n      dup2\n        /* \"#utility.yul\":10997:11001   */\n      dup2\n        /* \"#utility.yul\":10993:11013   */\n      sub\n        /* \"#utility.yul\":10989:10990   */\n      0x00\n        /* \"#utility.yul\":10978:10987   */\n      dup4\n        /* \"#utility.yul\":10974:10991   */\n      add\n        /* \"#utility.yul\":10967:11014   */\n      mstore\n        /* \"#utility.yul\":11031:11162   */\n      tag_280\n        /* \"#utility.yul\":11157:11161   */\n      dup2\n        /* \"#utility.yul\":11031:11162   */\n      tag_165\n      jump\t// in\n    tag_280:\n        /* \"#utility.yul\":11023:11162   */\n      swap1\n      pop\n        /* \"#utility.yul\":10750:11169   */\n      swap2\n      swap1\n      pop\n      jump\t// out\n        /* \"#utility.yul\":11175:11350   */\n    tag_166:\n        /* \"#utility.yul\":11315:11342   */\n      0x466f756e64206c6f6f7020696e2064656c65676174696f6e2e00000000000000\n        /* \"#utility.yul\":11311:11312   */\n      0x00\n        /* \"#utility.yul\":11303:11309   */\n      dup3\n        /* \"#utility.yul\":11299:11313   */\n      add\n        /* \"#utility.yul\":11292:11343   */\n      mstore\n        /* \"#utility.yul\":11175:11350   */\n      pop\n      jump\t// out\n        /* \"#utility.yul\":11356:11722   */\n    tag_167:\n        /* \"#utility.yul\":11498:11501   */\n      0x00\n        /* \"#utility.yul\":11519:11586   */\n      tag_283\n        /* \"#utility.yul\":11583:11585   */\n      0x19\n        /* \"#utility.yul\":11578:11581   */\n      dup4\n        /* \"#utility.yul\":11519:11586   */\n      tag_152\n      jump\t// in\n    tag_283:\n        /* \"#utility.yul\":11512:11586   */\n      swap2\n      pop\n        /* \"#utility.yul\":11595:11688   */\n      tag_284\n        /* \"#utility.yul\":11684:11687   */\n      dup3\n        /* \"#utility.yul\":11595:11688   */\n      tag_166\n      jump\t// in\n    tag_284:\n        /* \"#utility.yul\":11713:11715   */\n      0x20\n        /* \"#utility.yul\":11708:11711   */\n      dup3\n        /* \"#utility.yul\":11704:11716   */\n      add\n        /* \"#utility.yul\":11697:11716   */\n      swap1\n      pop\n        /* \"#utility.yul\":11356:11722   */\n      swap2\n      swap1\n      pop\n      jump\t// out\n        /* \"#utility.yul\":11728:12147   */\n    tag_83:\n        /* \"#utility.yul\":11894:11898   */\n      0x00\n        /* \"#utility.yul\":11932:11934   */\n      0x20\n        /* \"#utility.yul\":11921:11930   */\n      dup3\n        /* \"#utility.yul\":11917:11935   */\n      add\n        /* \"#utility.yul\":11909:11935   */\n      swap1\n      pop\n        /* \"#utility.yul\":11981:11990   */\n      dup2\n        /* \"#utility.yul\":11975:11979   */\n      dup2\n        /* \"#utility.yul\":11971:11991   */\n      sub\n        /* \"#utility.yul\":11967:11968   */\n      0x00\n        /* \"#utility.yul\":11956:11965   */\n      dup4\n        /* \"#utility.yul\":11952:11969   */\n      add\n        /* \"#utility.yul\":11945:11992   */\n      mstore\n        /* \"#utility.yul\":12009:12140   */\n      tag_286\n        /* \"#utility.yul\":12135:12139   */\n      dup2\n        /* \"#utility.yul\":12009:12140   */\n      tag_167\n      jump\t// in\n    tag_286:\n        /* \"#utility.yul\":12001:12140   */\n      swap1\n      pop\n        /* \"#utility.yul\":11728:12147   */\n      swap2\n      swap1\n      pop\n      jump\t// out\n        /* \"#utility.yul\":12153:12379   */\n    tag_168:\n        /* \"#utility.yul\":12293:12327   */\n      0x546f20766f7465722073686f756c642068617665207468652072696768742074\n        /* \"#utility.yul\":12289:12290   */\n      0x00\n        /* \"#utility.yul\":12281:12287   */\n      dup3\n        /* \"#utility.yul\":12277:12291   */\n      add\n        /* \"#utility.yul\":12270:12328   */\n      mstore\n        /* \"#utility.yul\":12362:12371   */\n      0x6f20766f74652e00000000000000000000000000000000000000000000000000\n        /* \"#utility.yul\":12357:12359   */\n      0x20\n        /* \"#utility.yul\":12349:12355   */\n      dup3\n        /* \"#utility.yul\":12345:12360   */\n      add\n        /* \"#utility.yul\":12338:12372   */\n      mstore\n        /* \"#utility.yul\":12153:12379   */\n      pop\n      jump\t// out\n        /* \"#utility.yul\":12385:12751   */\n    tag_169:\n        /* \"#utility.yul\":12527:12530   */\n      0x00\n        /* \"#utility.yul\":12548:12615   */\n      tag_289\n        /* \"#utility.yul\":12612:12614   */\n      0x27\n        /* \"#utility.yul\":12607:12610   */\n      dup4\n        /* \"#utility.yul\":12548:12615   */\n      tag_152\n      jump\t// in\n    tag_289:\n        /* \"#utility.yul\":12541:12615   */\n      swap2\n      pop\n        /* \"#utility.yul\":12624:12717   */\n      tag_290\n        /* \"#utility.yul\":12713:12716   */\n      dup3\n        /* \"#utility.yul\":12624:12717   */\n      tag_168\n      jump\t// in\n    tag_290:\n        /* \"#utility.yul\":12742:12744   */\n      0x40\n        /* \"#utility.yul\":12737:12740   */\n      dup3\n        /* \"#utility.yul\":12733:12745   */\n      add\n        /* \"#utility.yul\":12726:12745   */\n      swap1\n      pop\n        /* \"#utility.yul\":12385:12751   */\n      swap2\n      swap1\n      pop\n      jump\t// out\n        /* \"#utility.yul\":12757:13176   */\n    tag_86:\n        /* \"#utility.yul\":12923:12927   */\n      0x00\n        /* \"#utility.yul\":12961:12963   */\n      0x20\n        /* \"#utility.yul\":12950:12959   */\n      dup3\n        /* \"#utility.yul\":12946:12964   */\n      add\n        /* \"#utility.yul\":12938:12964   */\n      swap1\n      pop\n        /* \"#utility.yul\":13010:13019   */\n      dup2\n        /* \"#utility.yul\":13004:13008   */\n      dup2\n        /* \"#utility.yul\":13000:13020   */\n      sub\n        /* \"#utility.yul\":12996:12997   */\n      0x00\n        /* \"#utility.yul\":12985:12994   */\n      dup4\n        /* \"#utility.yul\":12981:12998   */\n      add\n        /* \"#utility.yul\":12974:13021   */\n      mstore\n        /* \"#utility.yul\":13038:13169   */\n      tag_292\n        /* \"#utility.yul\":13164:13168   */\n      dup2\n        /* \"#utility.yul\":13038:13169   */\n      tag_169\n      jump\t// in\n    tag_292:\n        /* \"#utility.yul\":13030:13169   */\n      swap1\n      pop\n        /* \"#utility.yul\":12757:13176   */\n      swap2\n      swap1\n      pop\n      jump\t// out\n        /* \"#utility.yul\":13182:13409   */\n    tag_170:\n        /* \"#utility.yul\":13322:13356   */\n      0x4f6e6c79206368616972706572736f6e2063616e206769766520726967687420\n        /* \"#utility.yul\":13318:13319   */\n      0x00\n        /* \"#utility.yul\":13310:13316   */\n      dup3\n        /* \"#utility.yul\":13306:13320   */\n      add\n        /* \"#utility.yul\":13299:13357   */\n      mstore\n        /* \"#utility.yul\":13391:13401   */\n      0x746f20766f74652e000000000000000000000000000000000000000000000000\n        /* \"#utility.yul\":13386:13388   */\n      0x20\n        /* \"#utility.yul\":13378:13384   */\n      dup3\n        /* \"#utility.yul\":13374:13389   */\n      add\n        /* \"#utility.yul\":13367:13402   */\n      mstore\n        /* \"#utility.yul\":13182:13409   */\n      pop\n      jump\t// out\n        /* \"#utility.yul\":13415:13781   */\n    tag_171:\n        /* \"#utility.yul\":13557:13560   */\n      0x00\n        /* \"#utility.yul\":13578:13645   */\n      tag_295\n        /* \"#utility.yul\":13642:13644   */\n      0x28\n        /* \"#utility.yul\":13637:13640   */\n      dup4\n        /* \"#utility.yul\":13578:13645   */\n      tag_152\n      jump\t// in\n    tag_295:\n        /* \"#utility.yul\":13571:13645   */\n      swap2\n      pop\n        /* \"#utility.yul\":13654:13747   */\n      tag_296\n        /* \"#utility.yul\":13743:13746   */\n      dup3\n        /* \"#utility.yul\":13654:13747   */\n      tag_170\n      jump\t// in\n    tag_296:\n        /* \"#utility.yul\":13772:13774   */\n      0x40\n        /* \"#utility.yul\":13767:13770   */\n      dup3\n        /* \"#utility.yul\":13763:13775   */\n      add\n        /* \"#utility.yul\":13756:13775   */\n      swap1\n      pop\n        /* \"#utility.yul\":13415:13781   */\n      swap2\n      swap1\n      pop\n      jump\t// out\n        /* \"#utility.yul\":13787:14206   */\n    tag_108:\n        /* \"#utility.yul\":13953:13957   */\n      0x00\n        /* \"#utility.yul\":13991:13993   */\n      0x20\n        /* \"#utility.yul\":13980:13989   */\n      dup3\n        /* \"#utility.yul\":13976:13994   */\n      add\n        /* \"#utility.yul\":13968:13994   */\n      swap1\n      pop\n        /* \"#utility.yul\":14040:14049   */\n      dup2\n        /* \"#utility.yul\":14034:14038   */\n      dup2\n        /* \"#utility.yul\":14030:14050   */\n      sub\n        /* \"#utility.yul\":14026:14027   */\n      0x00\n        /* \"#utility.yul\":14015:14024   */\n      dup4\n        /* \"#utility.yul\":14011:14028   */\n      add\n        /* \"#utility.yul\":14004:14051   */\n      mstore\n        /* \"#utility.yul\":14068:14199   */\n      tag_298\n        /* \"#utility.yul\":14194:14198   */\n      dup2\n        /* \"#utility.yul\":14068:14199   */\n      tag_171\n      jump\t// in\n    tag_298:\n        /* \"#utility.yul\":14060:14199   */\n      swap1\n      pop\n        /* \"#utility.yul\":13787:14206   */\n      swap2\n      swap1\n      pop\n      jump\t// out\n        /* \"#utility.yul\":14212:14386   */\n    tag_172:\n        /* \"#utility.yul\":14352:14378   */\n      0x54686520766f74657220616c726561647920766f7465642e0000000000000000\n        /* \"#utility.yul\":14348:14349   */\n      0x00\n        /* \"#utility.yul\":14340:14346   */\n      dup3\n        /* \"#utility.yul\":14336:14350   */\n      add\n        /* \"#utility.yul\":14329:14379   */\n      mstore\n        /* \"#utility.yul\":14212:14386   */\n      pop\n      jump\t// out\n        /* \"#utility.yul\":14392:14758   */\n    tag_173:\n        /* \"#utility.yul\":14534:14537   */\n      0x00\n        /* \"#utility.yul\":14555:14622   */\n      tag_301\n        /* \"#utility.yul\":14619:14621   */\n      0x18\n        /* \"#utility.yul\":14614:14617   */\n      dup4\n        /* \"#utility.yul\":14555:14622   */\n      tag_152\n      jump\t// in\n    tag_301:\n        /* \"#utility.yul\":14548:14622   */\n      swap2\n      pop\n        /* \"#utility.yul\":14631:14724   */\n      tag_302\n        /* \"#utility.yul\":14720:14723   */\n      dup3\n        /* \"#utility.yul\":14631:14724   */\n      tag_172\n      jump\t// in\n    tag_302:\n        /* \"#utility.yul\":14749:14751   */\n      0x20\n        /* \"#utility.yul\":14744:14747   */\n      dup3\n        /* \"#utility.yul\":14740:14752   */\n      add\n        /* \"#utility.yul\":14733:14752   */\n      swap1\n      pop\n        /* \"#utility.yul\":14392:14758   */\n      swap2\n      swap1\n      pop\n      jump\t// out\n        /* \"#utility.yul\":14764:15183   */\n    tag_111:\n        /* \"#utility.yul\":14930:14934   */\n      0x00\n        /* \"#utility.yul\":14968:14970   */\n      0x20\n        /* \"#utility.yul\":14957:14966   */\n      dup3\n        /* \"#utility.yul\":14953:14971   */\n      add\n        /* \"#utility.yul\":14945:14971   */\n      swap1\n      pop\n        /* \"#utility.yul\":15017:15026   */\n      dup2\n        /* \"#utility.yul\":15011:15015   */\n      dup2\n        /* \"#utility.yul\":15007:15027   */\n      sub\n        /* \"#utility.yul\":15003:15004   */\n      0x00\n        /* \"#utility.yul\":14992:15001   */\n      dup4\n        /* \"#utility.yul\":14988:15005   */\n      add\n        /* \"#utility.yul\":14981:15028   */\n      mstore\n        /* \"#utility.yul\":15045:15176   */\n      tag_304\n        /* \"#utility.yul\":15171:15175   */\n      dup2\n        /* \"#utility.yul\":15045:15176   */\n      tag_173\n      jump\t// in\n    tag_304:\n        /* \"#utility.yul\":15037:15176   */\n      swap1\n      pop\n        /* \"#utility.yul\":14764:15183   */\n      swap2\n      swap1\n      pop\n      jump\t// out\n        /* \"#utility.yul\":15189:15413   */\n    tag_174:\n        /* \"#utility.yul\":15329:15363   */\n      0x54686520766f7465722073686f756c64206e6f74206861766520746865207765\n        /* \"#utility.yul\":15325:15326   */\n      0x00\n        /* \"#utility.yul\":15317:15323   */\n      dup3\n        /* \"#utility.yul\":15313:15327   */\n      add\n        /* \"#utility.yul\":15306:15364   */\n      mstore\n        /* \"#utility.yul\":15398:15405   */\n      0x696768742e000000000000000000000000000000000000000000000000000000\n        /* \"#utility.yul\":15393:15395   */\n      0x20\n        /* \"#utility.yul\":15385:15391   */\n      dup3\n        /* \"#utility.yul\":15381:15396   */\n      add\n        /* \"#utility.yul\":15374:15406   */\n      mstore\n        /* \"#utility.yul\":15189:15413   */\n      pop\n      jump\t// out\n        /* \"#utility.yul\":15419:15785   */\n    tag_175:\n        /* \"#utility.yul\":15561:15564   */\n      0x00\n        /* \"#utility.yul\":15582:15649   */\n      tag_307\n        /* \"#utility.yul\":15646:15648   */\n      0x25\n        /* \"#utility.yul\":15641:15644   */\n      dup4\n        /* \"#utility.yul\":15582:15649   */\n      tag_152\n      jump\t// in\n    tag_307:\n        /* \"#utility.yul\":15575:15649   */\n      swap2\n      pop\n        /* \"#utility.yul\":15658:15751   */\n      tag_308\n        /* \"#utility.yul\":15747:15750   */\n      dup3\n        /* \"#utility.yul\":15658:15751   */\n      tag_174\n      jump\t// in\n    tag_308:\n        /* \"#utility.yul\":15776:15778   */\n      0x40\n        /* \"#utility.yul\":15771:15774   */\n      dup3\n        /* \"#utility.yul\":15767:15779   */\n      add\n        /* \"#utility.yul\":15760:15779   */\n      swap1\n      pop\n        /* \"#utility.yul\":15419:15785   */\n      swap2\n      swap1\n      pop\n      jump\t// out\n        /* \"#utility.yul\":15791:16210   */\n    tag_114:\n        /* \"#utility.yul\":15957:15961   */\n      0x00\n        /* \"#utility.yul\":15995:15997   */\n      0x20\n        /* \"#utility.yul\":15984:15993   */\n      dup3\n        /* \"#utility.yul\":15980:15998   */\n      add\n        /* \"#utility.yul\":15972:15998   */\n      swap1\n      pop\n        /* \"#utility.yul\":16044:16053   */\n      dup2\n        /* \"#utility.yul\":16038:16042   */\n      dup2\n        /* \"#utility.yul\":16034:16054   */\n      sub\n        /* \"#utility.yul\":16030:16031   */\n      0x00\n        /* \"#utility.yul\":16019:16028   */\n      dup4\n        /* \"#utility.yul\":16015:16032   */\n      add\n        /* \"#utility.yul\":16008:16055   */\n      mstore\n        /* \"#utility.yul\":16072:16203   */\n      tag_310\n        /* \"#utility.yul\":16198:16202   */\n      dup2\n        /* \"#utility.yul\":16072:16203   */\n      tag_175\n      jump\t// in\n    tag_310:\n        /* \"#utility.yul\":16064:16203   */\n      swap1\n      pop\n        /* \"#utility.yul\":15791:16210   */\n      swap2\n      swap1\n      pop\n      jump\t// out\n        /* \"#utility.yul\":16216:16442   */\n    tag_176:\n        /* \"#utility.yul\":16356:16390   */\n      0x4f6e6c7920636f6e7374727563746f722063616e207573652074686973206675\n        /* \"#utility.yul\":16352:16353   */\n      0x00\n        /* \"#utility.yul\":16344:16350   */\n      dup3\n        /* \"#utility.yul\":16340:16354   */\n      add\n        /* \"#utility.yul\":16333:16391   */\n      mstore\n        /* \"#utility.yul\":16425:16434   */\n      0x6e6374696f6e2e00000000000000000000000000000000000000000000000000\n        /* \"#utility.yul\":16420:16422   */\n      0x20\n        /* \"#utility.yul\":16412:16418   */\n      dup3\n        /* \"#utility.yul\":16408:16423   */\n      add\n        /* \"#utility.yul\":16401:16435   */\n      mstore\n        /* \"#utility.yul\":16216:16442   */\n      pop\n      jump\t// out\n        /* \"#utility.yul\":16448:16814   */\n    tag_177:\n        /* \"#utility.yul\":16590:16593   */\n      0x00\n        /* \"#utility.yul\":16611:16678   */\n      tag_313\n        /* \"#utility.yul\":16675:16677   */\n      0x27\n        /* \"#utility.yul\":16670:16673   */\n      dup4\n        /* \"#utility.yul\":16611:16678   */\n      tag_152\n      jump\t// in\n    tag_313:\n        /* \"#utility.yul\":16604:16678   */\n      swap2\n      pop\n        /* \"#utility.yul\":16687:16780   */\n      tag_314\n        /* \"#utility.yul\":16776:16779   */\n      dup3\n        /* \"#utility.yul\":16687:16780   */\n      tag_176\n      jump\t// in\n    tag_314:\n        /* \"#utility.yul\":16805:16807   */\n      0x40\n        /* \"#utility.yul\":16800:16803   */\n      dup3\n        /* \"#utility.yul\":16796:16808   */\n      add\n        /* \"#utility.yul\":16789:16808   */\n      swap1\n      pop\n        /* \"#utility.yul\":16448:16814   */\n      swap2\n      swap1\n      pop\n      jump\t// out\n        /* \"#utility.yul\":16820:17239   */\n    tag_123:\n        /* \"#utility.yul\":16986:16990   */\n      0x00\n        /* \"#utility.yul\":17024:17026   */\n      0x20\n        /* \"#utility.yul\":17013:17022   */\n      dup3\n        /* \"#utility.yul\":17009:17027   */\n      add\n        /* \"#utility.yul\":17001:17027   */\n      swap1\n      pop\n        /* \"#utility.yul\":17073:17082   */\n      dup2\n        /* \"#utility.yul\":17067:17071   */\n      dup2\n        /* \"#utility.yul\":17063:17083   */\n      sub\n        /* \"#utility.yul\":17059:17060   */\n      0x00\n        /* \"#utility.yul\":17048:17057   */\n      dup4\n        /* \"#utility.yul\":17044:17061   */\n      add\n        /* \"#utility.yul\":17037:17084   */\n      mstore\n        /* \"#utility.yul\":17101:17232   */\n      tag_316\n        /* \"#utility.yul\":17227:17231   */\n      dup2\n        /* \"#utility.yul\":17101:17232   */\n      tag_177\n      jump\t// in\n    tag_316:\n        /* \"#utility.yul\":17093:17232   */\n      swap1\n      pop\n        /* \"#utility.yul\":16820:17239   */\n      swap2\n      swap1\n      pop\n      jump\t// out\n        /* \"#utility.yul\":17245:17426   */\n    tag_178:\n        /* \"#utility.yul\":17385:17418   */\n      0x4e657720776569676874206d7573742067726561746572207468616e20302e00\n        /* \"#utility.yul\":17381:17382   */\n      0x00\n        /* \"#utility.yul\":17373:17379   */\n      dup3\n        /* \"#utility.yul\":17369:17383   */\n      add\n        /* \"#utility.yul\":17362:17419   */\n      mstore\n        /* \"#utility.yul\":17245:17426   */\n      pop\n      jump\t// out\n        /* \"#utility.yul\":17432:17798   */\n    tag_179:\n        /* \"#utility.yul\":17574:17577   */\n      0x00\n        /* \"#utility.yul\":17595:17662   */\n      tag_319\n        /* \"#utility.yul\":17659:17661   */\n      0x1f\n        /* \"#utility.yul\":17654:17657   */\n      dup4\n        /* \"#utility.yul\":17595:17662   */\n      tag_152\n      jump\t// in\n    tag_319:\n        /* \"#utility.yul\":17588:17662   */\n      swap2\n      pop\n        /* \"#utility.yul\":17671:17764   */\n      tag_320\n        /* \"#utility.yul\":17760:17763   */\n      dup3\n        /* \"#utility.yul\":17671:17764   */\n      tag_178\n      jump\t// in\n    tag_320:\n        /* \"#utility.yul\":17789:17791   */\n      0x20\n        /* \"#utility.yul\":17784:17787   */\n      dup3\n        /* \"#utility.yul\":17780:17792   */\n      add\n        /* \"#utility.yul\":17773:17792   */\n      swap1\n      pop\n        /* \"#utility.yul\":17432:17798   */\n      swap2\n      swap1\n      pop\n      jump\t// out\n        /* \"#utility.yul\":17804:18223   */\n    tag_126:\n        /* \"#utility.yul\":17970:17974   */\n      0x00\n        /* \"#utility.yul\":18008:18010   */\n      0x20\n        /* \"#utility.yul\":17997:18006   */\n      dup3\n        /* \"#utility.yul\":17993:18011   */\n      add\n        /* \"#utility.yul\":17985:18011   */\n      swap1\n      pop\n        /* \"#utility.yul\":18057:18066   */\n      dup2\n        /* \"#utility.yul\":18051:18055   */\n      dup2\n        /* \"#utility.yul\":18047:18067   */\n      sub\n        /* \"#utility.yul\":18043:18044   */\n      0x00\n        /* \"#utility.yul\":18032:18041   */\n      dup4\n        /* \"#utility.yul\":18028:18045   */\n      add\n        /* \"#utility.yul\":18021:18068   */\n      mstore\n        /* \"#utility.yul\":18085:18216   */\n      tag_322\n        /* \"#utility.yul\":18211:18215   */\n      dup2\n        /* \"#utility.yul\":18085:18216   */\n      tag_179\n      jump\t// in\n    tag_322:\n        /* \"#utility.yul\":18077:18216   */\n      swap1\n      pop\n        /* \"#utility.yul\":17804:18223   */\n      swap2\n      swap1\n      pop\n      jump\t// out\n        /* \"#utility.yul\":18229:18400   */\n    tag_180:\n        /* \"#utility.yul\":18369:18392   */\n      0x486173206e6f20726967687420746f20766f74652e0000000000000000000000\n        /* \"#utility.yul\":18365:18366   */\n      0x00\n        /* \"#utility.yul\":18357:18363   */\n      dup3\n        /* \"#utility.yul\":18353:18367   */\n      add\n        /* \"#utility.yul\":18346:18393   */\n      mstore\n        /* \"#utility.yul\":18229:18400   */\n      pop\n      jump\t// out\n        /* \"#utility.yul\":18406:18772   */\n    tag_181:\n        /* \"#utility.yul\":18548:18551   */\n      0x00\n        /* \"#utility.yul\":18569:18636   */\n      tag_325\n        /* \"#utility.yul\":18633:18635   */\n      0x15\n        /* \"#utility.yul\":18628:18631   */\n      dup4\n        /* \"#utility.yul\":18569:18636   */\n      tag_152\n      jump\t// in\n    tag_325:\n        /* \"#utility.yul\":18562:18636   */\n      swap2\n      pop\n        /* \"#utility.yul\":18645:18738   */\n      tag_326\n        /* \"#utility.yul\":18734:18737   */\n      dup3\n        /* \"#utility.yul\":18645:18738   */\n      tag_180\n      jump\t// in\n    tag_326:\n        /* \"#utility.yul\":18763:18765   */\n      0x20\n        /* \"#utility.yul\":18758:18761   */\n      dup3\n        /* \"#utility.yul\":18754:18766   */\n      add\n        /* \"#utility.yul\":18747:18766   */\n      swap1\n      pop\n        /* \"#utility.yul\":18406:18772   */\n      swap2\n      swap1\n      pop\n      jump\t// out\n        /* \"#utility.yul\":18778:19197   */\n    tag_129:\n        /* \"#utility.yul\":18944:18948   */\n      0x00\n        /* \"#utility.yul\":18982:18984   */\n      0x20\n        /* \"#utility.yul\":18971:18980   */\n      dup3\n        /* \"#utility.yul\":18967:18985   */\n      add\n        /* \"#utility.yul\":18959:18985   */\n      swap1\n      pop\n        /* \"#utility.yul\":19031:19040   */\n      dup2\n        /* \"#utility.yul\":19025:19029   */\n      dup2\n        /* \"#utility.yul\":19021:19041   */\n      sub\n        /* \"#utility.yul\":19017:19018   */\n      0x00\n        /* \"#utility.yul\":19006:19015   */\n      dup4\n        /* \"#utility.yul\":19002:19019   */\n      add\n        /* \"#utility.yul\":18995:19042   */\n      mstore\n        /* \"#utility.yul\":19059:19190   */\n      tag_328\n        /* \"#utility.yul\":19185:19189   */\n      dup2\n        /* \"#utility.yul\":19059:19190   */\n      tag_181\n      jump\t// in\n    tag_328:\n        /* \"#utility.yul\":19051:19190   */\n      swap1\n      pop\n        /* \"#utility.yul\":18778:19197   */\n      swap2\n      swap1\n      pop\n      jump\t// out\n        /* \"#utility.yul\":19203:19397   */\n    tag_134:\n        /* \"#utility.yul\":19243:19247   */\n      0x00\n        /* \"#utility.yul\":19263:19283   */\n      tag_330\n        /* \"#utility.yul\":19281:19282   */\n      dup3\n        /* \"#utility.yul\":19263:19283   */\n      tag_139\n      jump\t// in\n    tag_330:\n        /* \"#utility.yul\":19258:19283   */\n      swap2\n      pop\n        /* \"#utility.yul\":19297:19317   */\n      tag_331\n        /* \"#utility.yul\":19315:19316   */\n      dup4\n        /* \"#utility.yul\":19297:19317   */\n      tag_139\n      jump\t// in\n    tag_331:\n        /* \"#utility.yul\":19292:19317   */\n      swap3\n      pop\n        /* \"#utility.yul\":19341:19342   */\n      dup3\n        /* \"#utility.yul\":19338:19339   */\n      dup3\n        /* \"#utility.yul\":19334:19343   */\n      sub\n        /* \"#utility.yul\":19326:19343   */\n      swap1\n      pop\n        /* \"#utility.yul\":19365:19366   */\n      dup2\n        /* \"#utility.yul\":19359:19363   */\n      dup2\n        /* \"#utility.yul\":19356:19367   */\n      gt\n        /* \"#utility.yul\":19353:19390   */\n      iszero\n      tag_332\n      jumpi\n        /* \"#utility.yul\":19370:19388   */\n      tag_333\n      tag_159\n      jump\t// in\n    tag_333:\n        /* \"#utility.yul\":19353:19390   */\n    tag_332:\n        /* \"#utility.yul\":19203:19397   */\n      swap3\n      swap2\n      pop\n      pop\n      jump\t// out\n\n    auxdata: 0xa26469706673582212203248d9b12673012e47b496e701c66e040149f455c9eff60dbdbb3f0009942ed564736f6c634300081a0033\n}\n",
				"bytecode": {
					"linkReferences": {},
					"object": "608060405234801561000f575f80fd5b50604051611b6a380380611b6a83398181016040528101906100319190610379565b818111610073576040517f08c379a000000000000000000000000000000000000000000000000000000000815260040161006a90610465565b60405180910390fd5b3360025f6101000a81548173ffffffffffffffffffffffffffffffffffffffff021916908373ffffffffffffffffffffffffffffffffffffffff160217905550600160035f60025f9054906101000a900473ffffffffffffffffffffffffffffffffffffffff1673ffffffffffffffffffffffffffffffffffffffff1673ffffffffffffffffffffffffffffffffffffffff1681526020019081526020015f205f0181905550815f81905550806001819055505f5b83518110156101a9576004604051806040016040528086848151811061015157610150610483565b5b602002602001015181526020015f815250908060018154018082558091505060019003905f5260205f2090600202015f909190919091505f820151815f01556020820151816001015550508080600101915050610128565b505050506104b0565b5f604051905090565b5f80fd5b5f80fd5b5f80fd5b5f601f19601f8301169050919050565b7f4e487b71000000000000000000000000000000000000000000000000000000005f52604160045260245ffd5b61020d826101c7565b810181811067ffffffffffffffff8211171561022c5761022b6101d7565b5b80604052505050565b5f61023e6101b2565b905061024a8282610204565b919050565b5f67ffffffffffffffff821115610269576102686101d7565b5b602082029050602081019050919050565b5f80fd5b5f819050919050565b6102908161027e565b811461029a575f80fd5b50565b5f815190506102ab81610287565b92915050565b5f6102c36102be8461024f565b610235565b905080838252602082019050602084028301858111156102e6576102e561027a565b5b835b8181101561030f57806102fb888261029d565b8452602084019350506020810190506102e8565b5050509392505050565b5f82601f83011261032d5761032c6101c3565b5b815161033d8482602086016102b1565b91505092915050565b5f819050919050565b61035881610346565b8114610362575f80fd5b50565b5f815190506103738161034f565b92915050565b5f805f606084860312156103905761038f6101bb565b5b5f84015167ffffffffffffffff8111156103ad576103ac6101bf565b5b6103b986828701610319565b93505060206103ca86828701610365565b92505060406103db86828701610365565b9150509250925092565b5f82825260208201905092915050565b7f456e6474696d65206d7573742067726561746572207468616e207468652073745f8201527f61727474696d652e000000000000000000000000000000000000000000000000602082015250565b5f61044f6028836103e5565b915061045a826103f5565b604082019050919050565b5f6020820190508181035f83015261047c81610443565b9050919050565b7f4e487b71000000000000000000000000000000000000000000000000000000005f52603260045260245ffd5b6116ad806104bd5f395ff3fe608060405234801561000f575f80fd5b5060043610610091575f3560e01c8063609ff1bd11610064578063609ff1bd1461011c5780639e7b8d611461013a578063a3ec138d14610156578063e2ba53f014610189578063e7052895146101a757610091565b80630121b93f14610095578063013cf08b146100b15780632e4176cf146100e25780635c19a95c14610100575b5f80fd5b6100af60048036038101906100aa9190610d6c565b6101c3565b005b6100cb60048036038101906100c69190610d6c565b610350565b6040516100d9929190610dbe565b60405180910390f35b6100ea61037f565b6040516100f79190610e24565b60405180910390f35b61011a60048036038101906101159190610e67565b6103a4565b005b6101246107b5565b6040516101319190610e92565b60405180910390f35b610154600480360381019061014f9190610e67565b610830565b005b610170600480360381019061016b9190610e67565b610a15565b6040516101809493929190610ec5565b60405180910390f35b610191610a6d565b60405161019e9190610f08565b60405180910390f35b6101c160048036038101906101bc9190610f21565b610a9d565b005b5f60035f3373ffffffffffffffffffffffffffffffffffffffff1673ffffffffffffffffffffffffffffffffffffffff1681526020019081526020015f2090505f815f015403610248576040517f08c379a000000000000000000000000000000000000000000000000000000000815260040161023f90610fb9565b60405180910390fd5b806001015f9054906101000a900460ff1615610299576040517f08c379a000000000000000000000000000000000000000000000000000000000815260040161029090611021565b60405180910390fd5b5f5442101580156102ac57506001544211155b6102eb576040517f08c379a00000000000000000000000000000000000000000000000000000000081526004016102e290611089565b60405180910390fd5b6001816001015f6101000a81548160ff021916908315150217905550818160020181905550805f015460048381548110610328576103276110a7565b5b905f5260205f2090600202016001015f8282546103459190611101565b925050819055505050565b6004818154811061035f575f80fd5b905f5260205f2090600202015f91509050805f0154908060010154905082565b60025f9054906101000a900473ffffffffffffffffffffffffffffffffffffffff1681565b5f60035f3373ffffffffffffffffffffffffffffffffffffffff1673ffffffffffffffffffffffffffffffffffffffff1681526020019081526020015f2090505f815f015403610429576040517f08c379a00000000000000000000000000000000000000000000000000000000081526004016104209061117e565b60405180910390fd5b806001015f9054906101000a900460ff161561047a576040517f08c379a0000000000000000000000000000000000000000000000000000000008152600401610471906111e6565b60405180910390fd5b3373ffffffffffffffffffffffffffffffffffffffff168273ffffffffffffffffffffffffffffffffffffffff16036104e8576040517f08c379a00000000000000000000000000000000000000000000000000000000081526004016104df9061124e565b60405180910390fd5b5b5f73ffffffffffffffffffffffffffffffffffffffff1660035f8473ffffffffffffffffffffffffffffffffffffffff1673ffffffffffffffffffffffffffffffffffffffff1681526020019081526020015f2060010160019054906101000a900473ffffffffffffffffffffffffffffffffffffffff1673ffffffffffffffffffffffffffffffffffffffff16146106525760035f8373ffffffffffffffffffffffffffffffffffffffff1673ffffffffffffffffffffffffffffffffffffffff1681526020019081526020015f2060010160019054906101000a900473ffffffffffffffffffffffffffffffffffffffff1691503373ffffffffffffffffffffffffffffffffffffffff168273ffffffffffffffffffffffffffffffffffffffff160361064d576040517f08c379a0000000000000000000000000000000000000000000000000000000008152600401610644906112b6565b60405180910390fd5b6104e9565b5f60035f8473ffffffffffffffffffffffffffffffffffffffff1673ffffffffffffffffffffffffffffffffffffffff1681526020019081526020015f2090506001815f015410156106d9576040517f08c379a00000000000000000000000000000000000000000000000000000000081526004016106d090611344565b60405180910390fd5b6001826001015f6101000a81548160ff021916908315150217905550828260010160016101000a81548173ffffffffffffffffffffffffffffffffffffffff021916908373ffffffffffffffffffffffffffffffffffffffff160217905550806001015f9054906101000a900460ff161561079357815f0154600482600201548154811061076a576107696110a7565b5b905f5260205f2090600202016001015f8282546107879190611101565b925050819055506107b0565b815f0154815f015f8282546107a89190611101565b925050819055505b505050565b5f805f90505f5b60048054905081101561082b5781600482815481106107de576107dd6110a7565b5b905f5260205f20906002020160010154111561081e5760048181548110610808576108076110a7565b5b905f5260205f2090600202016001015491508092505b80806001019150506107bc565b505090565b60025f9054906101000a900473ffffffffffffffffffffffffffffffffffffffff1673ffffffffffffffffffffffffffffffffffffffff163373ffffffffffffffffffffffffffffffffffffffff16146108bf576040517f08c379a00000000000000000000000000000000000000000000000000000000081526004016108b6906113d2565b60405180910390fd5b60035f8273ffffffffffffffffffffffffffffffffffffffff1673ffffffffffffffffffffffffffffffffffffffff1681526020019081526020015f206001015f9054906101000a900460ff161561094c576040517f08c379a00000000000000000000000000000000000000000000000000000000081526004016109439061143a565b60405180910390fd5b5f60035f8373ffffffffffffffffffffffffffffffffffffffff1673ffffffffffffffffffffffffffffffffffffffff1681526020019081526020015f205f0154146109cd576040517f08c379a00000000000000000000000000000000000000000000000000000000081526004016109c4906114c8565b60405180910390fd5b600160035f8373ffffffffffffffffffffffffffffffffffffffff1673ffffffffffffffffffffffffffffffffffffffff1681526020019081526020015f205f018190555050565b6003602052805f5260405f205f91509050805f015490806001015f9054906101000a900460ff16908060010160019054906101000a900473ffffffffffffffffffffffffffffffffffffffff16908060020154905084565b5f6004610a786107b5565b81548110610a8957610a886110a7565b5b905f5260205f2090600202015f0154905090565b60025f9054906101000a900473ffffffffffffffffffffffffffffffffffffffff1673ffffffffffffffffffffffffffffffffffffffff163373ffffffffffffffffffffffffffffffffffffffff1614610b2c576040517f08c379a0000000000000000000000000000000000000000000000000000000008152600401610b2390611556565b60405180910390fd5b5f8111610b6e576040517f08c379a0000000000000000000000000000000000000000000000000000000008152600401610b65906115be565b60405180910390fd5b5f60035f8473ffffffffffffffffffffffffffffffffffffffff1673ffffffffffffffffffffffffffffffffffffffff1681526020019081526020015f2090505f815f015403610bf3576040517f08c379a0000000000000000000000000000000000000000000000000000000008152600401610bea90611626565b60405180910390fd5b806001015f9054906101000a900460ff1615610c44576040517f08c379a0000000000000000000000000000000000000000000000000000000008152600401610c3b9061143a565b60405180910390fd5b5f73ffffffffffffffffffffffffffffffffffffffff168160010160019054906101000a900473ffffffffffffffffffffffffffffffffffffffff1673ffffffffffffffffffffffffffffffffffffffff1614610d28575f60035f8360010160019054906101000a900473ffffffffffffffffffffffffffffffffffffffff1673ffffffffffffffffffffffffffffffffffffffff1673ffffffffffffffffffffffffffffffffffffffff1681526020019081526020015f209050815f015483610d0e9190611644565b815f015f828254610d1f9190611101565b92505081905550505b81815f0181905550505050565b5f80fd5b5f819050919050565b610d4b81610d39565b8114610d55575f80fd5b50565b5f81359050610d6681610d42565b92915050565b5f60208284031215610d8157610d80610d35565b5b5f610d8e84828501610d58565b91505092915050565b5f819050919050565b610da981610d97565b82525050565b610db881610d39565b82525050565b5f604082019050610dd15f830185610da0565b610dde6020830184610daf565b9392505050565b5f73ffffffffffffffffffffffffffffffffffffffff82169050919050565b5f610e0e82610de5565b9050919050565b610e1e81610e04565b82525050565b5f602082019050610e375f830184610e15565b92915050565b610e4681610e04565b8114610e50575f80fd5b50565b5f81359050610e6181610e3d565b92915050565b5f60208284031215610e7c57610e7b610d35565b5b5f610e8984828501610e53565b91505092915050565b5f602082019050610ea55f830184610daf565b92915050565b5f8115159050919050565b610ebf81610eab565b82525050565b5f608082019050610ed85f830187610daf565b610ee56020830186610eb6565b610ef26040830185610e15565b610eff6060830184610daf565b95945050505050565b5f602082019050610f1b5f830184610da0565b92915050565b5f8060408385031215610f3757610f36610d35565b5b5f610f4485828601610e53565b9250506020610f5585828601610d58565b9150509250929050565b5f82825260208201905092915050565b7f486173206e6f20726967687420746f20766f74650000000000000000000000005f82015250565b5f610fa3601483610f5f565b9150610fae82610f6f565b602082019050919050565b5f6020820190508181035f830152610fd081610f97565b9050919050565b7f416c726561647920766f7465642e0000000000000000000000000000000000005f82015250565b5f61100b600e83610f5f565b915061101682610fd7565b602082019050919050565b5f6020820190508181035f83015261103881610fff565b9050919050565b7f4f7574206f6620766f74652074696d652072616e67652e0000000000000000005f82015250565b5f611073601783610f5f565b915061107e8261103f565b602082019050919050565b5f6020820190508181035f8301526110a081611067565b9050919050565b7f4e487b71000000000000000000000000000000000000000000000000000000005f52603260045260245ffd5b7f4e487b71000000000000000000000000000000000000000000000000000000005f52601160045260245ffd5b5f61110b82610d39565b915061111683610d39565b925082820190508082111561112e5761112d6110d4565b5b92915050565b7f596f752068617665206e6f20726967687420746f20766f74652e0000000000005f82015250565b5f611168601a83610f5f565b915061117382611134565b602082019050919050565b5f6020820190508181035f8301526111958161115c565b9050919050565b7f596f7520616c726561647920766f7465642e00000000000000000000000000005f82015250565b5f6111d0601283610f5f565b91506111db8261119c565b602082019050919050565b5f6020820190508181035f8301526111fd816111c4565b9050919050565b7f53656c662d64656c65676174696f6e20697320646973616c6c6f7765642e00005f82015250565b5f611238601e83610f5f565b915061124382611204565b602082019050919050565b5f6020820190508181035f8301526112658161122c565b9050919050565b7f466f756e64206c6f6f7020696e2064656c65676174696f6e2e000000000000005f82015250565b5f6112a0601983610f5f565b91506112ab8261126c565b602082019050919050565b5f6020820190508181035f8301526112cd81611294565b9050919050565b7f546f20766f7465722073686f756c6420686176652074686520726967687420745f8201527f6f20766f74652e00000000000000000000000000000000000000000000000000602082015250565b5f61132e602783610f5f565b9150611339826112d4565b604082019050919050565b5f6020820190508181035f83015261135b81611322565b9050919050565b7f4f6e6c79206368616972706572736f6e2063616e2067697665207269676874205f8201527f746f20766f74652e000000000000000000000000000000000000000000000000602082015250565b5f6113bc602883610f5f565b91506113c782611362565b604082019050919050565b5f6020820190508181035f8301526113e9816113b0565b9050919050565b7f54686520766f74657220616c726561647920766f7465642e00000000000000005f82015250565b5f611424601883610f5f565b915061142f826113f0565b602082019050919050565b5f6020820190508181035f83015261145181611418565b9050919050565b7f54686520766f7465722073686f756c64206e6f742068617665207468652077655f8201527f696768742e000000000000000000000000000000000000000000000000000000602082015250565b5f6114b2602583610f5f565b91506114bd82611458565b604082019050919050565b5f6020820190508181035f8301526114df816114a6565b9050919050565b7f4f6e6c7920636f6e7374727563746f722063616e2075736520746869732066755f8201527f6e6374696f6e2e00000000000000000000000000000000000000000000000000602082015250565b5f611540602783610f5f565b915061154b826114e6565b604082019050919050565b5f6020820190508181035f83015261156d81611534565b9050919050565b7f4e657720776569676874206d7573742067726561746572207468616e20302e005f82015250565b5f6115a8601f83610f5f565b91506115b382611574565b602082019050919050565b5f6020820190508181035f8301526115d58161159c565b9050919050565b7f486173206e6f20726967687420746f20766f74652e00000000000000000000005f82015250565b5f611610601583610f5f565b915061161b826115dc565b602082019050919050565b5f6020820190508181035f83015261163d81611604565b9050919050565b5f61164e82610d39565b915061165983610d39565b9250828203905081811115611671576116706110d4565b5b9291505056fea26469706673582212203248d9b12673012e47b496e701c66e040149f455c9eff60dbdbb3f0009942ed564736f6c634300081a0033",
					"opcodes": "PUSH1 0x80 PUSH1 0x40 MSTORE CALLVALUE DUP1 ISZERO PUSH2 0xF JUMPI PUSH0 DUP1 REVERT JUMPDEST POP PUSH1 0x40 MLOAD PUSH2 0x1B6A CODESIZE SUB DUP1 PUSH2 0x1B6A DUP4 CODECOPY DUP2 DUP2 ADD PUSH1 0x40 MSTORE DUP2 ADD SWAP1 PUSH2 0x31 SWAP2 SWAP1 PUSH2 0x379 JUMP JUMPDEST DUP2 DUP2 GT PUSH2 0x73 JUMPI PUSH1 0x40 MLOAD PUSH32 0x8C379A000000000000000000000000000000000000000000000000000000000 DUP2 MSTORE PUSH1 0x4 ADD PUSH2 0x6A SWAP1 PUSH2 0x465 JUMP JUMPDEST PUSH1 0x40 MLOAD DUP1 SWAP2 SUB SWAP1 REVERT JUMPDEST CALLER PUSH1 0x2 PUSH0 PUSH2 0x100 EXP DUP2 SLOAD DUP2 PUSH20 0xFFFFFFFFFFFFFFFFFFFFFFFFFFFFFFFFFFFFFFFF MUL NOT AND SWAP1 DUP4 PUSH20 0xFFFFFFFFFFFFFFFFFFFFFFFFFFFFFFFFFFFFFFFF AND MUL OR SWAP1 SSTORE POP PUSH1 0x1 PUSH1 0x3 PUSH0 PUSH1 0x2 PUSH0 SWAP1 SLOAD SWAP1 PUSH2 0x100 EXP SWAP1 DIV PUSH20 0xFFFFFFFFFFFFFFFFFFFFFFFFFFFFFFFFFFFFFFFF AND PUSH20 0xFFFFFFFFFFFFFFFFFFFFFFFFFFFFFFFFFFFFFFFF AND PUSH20 0xFFFFFFFFFFFFFFFFFFFFFFFFFFFFFFFFFFFFFFFF AND DUP2 MSTORE PUSH1 0x20 ADD SWAP1 DUP2 MSTORE PUSH1 0x20 ADD PUSH0 KECCAK256 PUSH0 ADD DUP2 SWAP1 SSTORE POP DUP2 PUSH0 DUP2 SWAP1 SSTORE POP DUP1 PUSH1 0x1 DUP2 SWAP1 SSTORE POP PUSH0 JUMPDEST DUP4 MLOAD DUP2 LT ISZERO PUSH2 0x1A9 JUMPI PUSH1 0x4 PUSH1 0x40 MLOAD DUP1 PUSH1 0x40 ADD PUSH1 0x40 MSTORE DUP1 DUP7 DUP5 DUP2 MLOAD DUP2 LT PUSH2 0x151 JUMPI PUSH2 0x150 PUSH2 0x483 JUMP JUMPDEST JUMPDEST PUSH1 0x20 MUL PUSH1 0x20 ADD ADD MLOAD DUP2 MSTORE PUSH1 0x20 ADD PUSH0 DUP2 MSTORE POP SWAP1 DUP1 PUSH1 0x1 DUP2 SLOAD ADD DUP1 DUP3 SSTORE DUP1 SWAP2 POP POP PUSH1 0x1 SWAP1 SUB SWAP1 PUSH0 MSTORE PUSH1 0x20 PUSH0 KECCAK256 SWAP1 PUSH1 0x2 MUL ADD PUSH0 SWAP1 SWAP2 SWAP1 SWAP2 SWAP1 SWAP2 POP PUSH0 DUP3 ADD MLOAD DUP2 PUSH0 ADD SSTORE PUSH1 0x20 DUP3 ADD MLOAD DUP2 PUSH1 0x1 ADD SSTORE POP POP DUP1 DUP1 PUSH1 0x1 ADD SWAP2 POP POP PUSH2 0x128 JUMP JUMPDEST POP POP POP POP PUSH2 0x4B0 JUMP JUMPDEST PUSH0 PUSH1 0x40 MLOAD SWAP1 POP SWAP1 JUMP JUMPDEST PUSH0 DUP1 REVERT JUMPDEST PUSH0 DUP1 REVERT JUMPDEST PUSH0 DUP1 REVERT JUMPDEST PUSH0 PUSH1 0x1F NOT PUSH1 0x1F DUP4 ADD AND SWAP1 POP SWAP2 SWAP1 POP JUMP JUMPDEST PUSH32 0x4E487B7100000000000000000000000000000000000000000000000000000000 PUSH0 MSTORE PUSH1 0x41 PUSH1 0x4 MSTORE PUSH1 0x24 PUSH0 REVERT JUMPDEST PUSH2 0x20D DUP3 PUSH2 0x1C7 JUMP JUMPDEST DUP2 ADD DUP2 DUP2 LT PUSH8 0xFFFFFFFFFFFFFFFF DUP3 GT OR ISZERO PUSH2 0x22C JUMPI PUSH2 0x22B PUSH2 0x1D7 JUMP JUMPDEST JUMPDEST DUP1 PUSH1 0x40 MSTORE POP POP POP JUMP JUMPDEST PUSH0 PUSH2 0x23E PUSH2 0x1B2 JUMP JUMPDEST SWAP1 POP PUSH2 0x24A DUP3 DUP3 PUSH2 0x204 JUMP JUMPDEST SWAP2 SWAP1 POP JUMP JUMPDEST PUSH0 PUSH8 0xFFFFFFFFFFFFFFFF DUP3 GT ISZERO PUSH2 0x269 JUMPI PUSH2 0x268 PUSH2 0x1D7 JUMP JUMPDEST JUMPDEST PUSH1 0x20 DUP3 MUL SWAP1 POP PUSH1 0x20 DUP2 ADD SWAP1 POP SWAP2 SWAP1 POP JUMP JUMPDEST PUSH0 DUP1 REVERT JUMPDEST PUSH0 DUP2 SWAP1 POP SWAP2 SWAP1 POP JUMP JUMPDEST PUSH2 0x290 DUP2 PUSH2 0x27E JUMP JUMPDEST DUP2 EQ PUSH2 0x29A JUMPI PUSH0 DUP1 REVERT JUMPDEST POP JUMP JUMPDEST PUSH0 DUP2 MLOAD SWAP1 POP PUSH2 0x2AB DUP2 PUSH2 0x287 JUMP JUMPDEST SWAP3 SWAP2 POP POP JUMP JUMPDEST PUSH0 PUSH2 0x2C3 PUSH2 0x2BE DUP5 PUSH2 0x24F JUMP JUMPDEST PUSH2 0x235 JUMP JUMPDEST SWAP1 POP DUP1 DUP4 DUP3 MSTORE PUSH1 0x20 DUP3 ADD SWAP1 POP PUSH1 0x20 DUP5 MUL DUP4 ADD DUP6 DUP2 GT ISZERO PUSH2 0x2E6 JUMPI PUSH2 0x2E5 PUSH2 0x27A JUMP JUMPDEST JUMPDEST DUP4 JUMPDEST DUP2 DUP2 LT ISZERO PUSH2 0x30F JUMPI DUP1 PUSH2 0x2FB DUP9 DUP3 PUSH2 0x29D JUMP JUMPDEST DUP5 MSTORE PUSH1 0x20 DUP5 ADD SWAP4 POP POP PUSH1 0x20 DUP2 ADD SWAP1 POP PUSH2 0x2E8 JUMP JUMPDEST POP POP POP SWAP4 SWAP3 POP POP POP JUMP JUMPDEST PUSH0 DUP3 PUSH1 0x1F DUP4 ADD SLT PUSH2 0x32D JUMPI PUSH2 0x32C PUSH2 0x1C3 JUMP JUMPDEST JUMPDEST DUP2 MLOAD PUSH2 0x33D DUP5 DUP3 PUSH1 0x20 DUP7 ADD PUSH2 0x2B1 JUMP JUMPDEST SWAP2 POP POP SWAP3 SWAP2 POP POP JUMP JUMPDEST PUSH0 DUP2 SWAP1 POP SWAP2 SWAP1 POP JUMP JUMPDEST PUSH2 0x358 DUP2 PUSH2 0x346 JUMP JUMPDEST DUP2 EQ PUSH2 0x362 JUMPI PUSH0 DUP1 REVERT JUMPDEST POP JUMP JUMPDEST PUSH0 DUP2 MLOAD SWAP1 POP PUSH2 0x373 DUP2 PUSH2 0x34F JUMP JUMPDEST SWAP3 SWAP2 POP POP JUMP JUMPDEST PUSH0 DUP1 PUSH0 PUSH1 0x60 DUP5 DUP7 SUB SLT ISZERO PUSH2 0x390 JUMPI PUSH2 0x38F PUSH2 0x1BB JUMP JUMPDEST JUMPDEST PUSH0 DUP5 ADD MLOAD PUSH8 0xFFFFFFFFFFFFFFFF DUP2 GT ISZERO PUSH2 0x3AD JUMPI PUSH2 0x3AC PUSH2 0x1BF JUMP JUMPDEST JUMPDEST PUSH2 0x3B9 DUP7 DUP3 DUP8 ADD PUSH2 0x319 JUMP JUMPDEST SWAP4 POP POP PUSH1 0x20 PUSH2 0x3CA DUP7 DUP3 DUP8 ADD PUSH2 0x365 JUMP JUMPDEST SWAP3 POP POP PUSH1 0x40 PUSH2 0x3DB DUP7 DUP3 DUP8 ADD PUSH2 0x365 JUMP JUMPDEST SWAP2 POP POP SWAP3 POP SWAP3 POP SWAP3 JUMP JUMPDEST PUSH0 DUP3 DUP3 MSTORE PUSH1 0x20 DUP3 ADD SWAP1 POP SWAP3 SWAP2 POP POP JUMP JUMPDEST PUSH32 0x456E6474696D65206D7573742067726561746572207468616E20746865207374 PUSH0 DUP3 ADD MSTORE PUSH32 0x61727474696D652E000000000000000000000000000000000000000000000000 PUSH1 0x20 DUP3 ADD MSTORE POP JUMP JUMPDEST PUSH0 PUSH2 0x44F PUSH1 0x28 DUP4 PUSH2 0x3E5 JUMP JUMPDEST SWAP2 POP PUSH2 0x45A DUP3 PUSH2 0x3F5 JUMP JUMPDEST PUSH1 0x40 DUP3 ADD SWAP1 POP SWAP2 SWAP1 POP JUMP JUMPDEST PUSH0 PUSH1 0x20 DUP3 ADD SWAP1 POP DUP2 DUP2 SUB PUSH0 DUP4 ADD MSTORE PUSH2 0x47C DUP2 PUSH2 0x443 JUMP JUMPDEST SWAP1 POP SWAP2 SWAP1 POP JUMP JUMPDEST PUSH32 0x4E487B7100000000000000000000000000000000000000000000000000000000 PUSH0 MSTORE PUSH1 0x32 PUSH1 0x4 MSTORE PUSH1 0x24 PUSH0 REVERT JUMPDEST PUSH2 0x16AD DUP1 PUSH2 0x4BD PUSH0 CODECOPY PUSH0 RETURN INVALID PUSH1 0x80 PUSH1 0x40 MSTORE CALLVALUE DUP1 ISZERO PUSH2 0xF JUMPI PUSH0 DUP1 REVERT JUMPDEST POP PUSH1 0x4 CALLDATASIZE LT PUSH2 0x91 JUMPI PUSH0 CALLDATALOAD PUSH1 0xE0 SHR DUP1 PUSH4 0x609FF1BD GT PUSH2 0x64 JUMPI DUP1 PUSH4 0x609FF1BD EQ PUSH2 0x11C JUMPI DUP1 PUSH4 0x9E7B8D61 EQ PUSH2 0x13A JUMPI DUP1 PUSH4 0xA3EC138D EQ PUSH2 0x156 JUMPI DUP1 PUSH4 0xE2BA53F0 EQ PUSH2 0x189 JUMPI DUP1 PUSH4 0xE7052895 EQ PUSH2 0x1A7 JUMPI PUSH2 0x91 JUMP JUMPDEST DUP1 PUSH4 0x121B93F EQ PUSH2 0x95 JUMPI DUP1 PUSH4 0x13CF08B EQ PUSH2 0xB1 JUMPI DUP1 PUSH4 0x2E4176CF EQ PUSH2 0xE2 JUMPI DUP1 PUSH4 0x5C19A95C EQ PUSH2 0x100 JUMPI JUMPDEST PUSH0 DUP1 REVERT JUMPDEST PUSH2 0xAF PUSH1 0x4 DUP1 CALLDATASIZE SUB DUP2 ADD SWAP1 PUSH2 0xAA SWAP2 SWAP1 PUSH2 0xD6C JUMP JUMPDEST PUSH2 0x1C3 JUMP JUMPDEST STOP JUMPDEST PUSH2 0xCB PUSH1 0x4 DUP1 CALLDATASIZE SUB DUP2 ADD SWAP1 PUSH2 0xC6 SWAP2 SWAP1 PUSH2 0xD6C JUMP JUMPDEST PUSH2 0x350 JUMP JUMPDEST PUSH1 0x40 MLOAD PUSH2 0xD9 SWAP3 SWAP2 SWAP1 PUSH2 0xDBE JUMP JUMPDEST PUSH1 0x40 MLOAD DUP1 SWAP2 SUB SWAP1 RETURN JUMPDEST PUSH2 0xEA PUSH2 0x37F JUMP JUMPDEST PUSH1 0x40 MLOAD PUSH2 0xF7 SWAP2 SWAP1 PUSH2 0xE24 JUMP JUMPDEST PUSH1 0x40 MLOAD DUP1 SWAP2 SUB SWAP1 RETURN JUMPDEST PUSH2 0x11A PUSH1 0x4 DUP1 CALLDATASIZE SUB DUP2 ADD SWAP1 PUSH2 0x115 SWAP2 SWAP1 PUSH2 0xE67 JUMP JUMPDEST PUSH2 0x3A4 JUMP JUMPDEST STOP JUMPDEST PUSH2 0x124 PUSH2 0x7B5 JUMP JUMPDEST PUSH1 0x40 MLOAD PUSH2 0x131 SWAP2 SWAP1 PUSH2 0xE92 JUMP JUMPDEST PUSH1 0x40 MLOAD DUP1 SWAP2 SUB SWAP1 RETURN JUMPDEST PUSH2 0x154 PUSH1 0x4 DUP1 CALLDATASIZE SUB DUP2 ADD SWAP1 PUSH2 0x14F SWAP2 SWAP1 PUSH2 0xE67 JUMP JUMPDEST PUSH2 0x830 JUMP JUMPDEST STOP JUMPDEST PUSH2 0x170 PUSH1 0x4 DUP1 CALLDATASIZE SUB DUP2 ADD SWAP1 PUSH2 0x16B SWAP2 SWAP1 PUSH2 0xE67 JUMP JUMPDEST PUSH2 0xA15 JUMP JUMPDEST PUSH1 0x40 MLOAD PUSH2 0x180 SWAP5 SWAP4 SWAP3 SWAP2 SWAP1 PUSH2 0xEC5 JUMP JUMPDEST PUSH1 0x40 MLOAD DUP1 SWAP2 SUB SWAP1 RETURN JUMPDEST PUSH2 0x191 PUSH2 0xA6D JUMP JUMPDEST PUSH1 0x40 MLOAD PUSH2 0x19E SWAP2 SWAP1 PUSH2 0xF08 JUMP JUMPDEST PUSH1 0x40 MLOAD DUP1 SWAP2 SUB SWAP1 RETURN JUMPDEST PUSH2 0x1C1 PUSH1 0x4 DUP1 CALLDATASIZE SUB DUP2 ADD SWAP1 PUSH2 0x1BC SWAP2 SWAP1 PUSH2 0xF21 JUMP JUMPDEST PUSH2 0xA9D JUMP JUMPDEST STOP JUMPDEST PUSH0 PUSH1 0x3 PUSH0 CALLER PUSH20 0xFFFFFFFFFFFFFFFFFFFFFFFFFFFFFFFFFFFFFFFF AND PUSH20 0xFFFFFFFFFFFFFFFFFFFFFFFFFFFFFFFFFFFFFFFF AND DUP2 MSTORE PUSH1 0x20 ADD SWAP1 DUP2 MSTORE PUSH1 0x20 ADD PUSH0 KECCAK256 SWAP1 POP PUSH0 DUP2 PUSH0 ADD SLOAD SUB PUSH2 0x248 JUMPI PUSH1 0x40 MLOAD PUSH32 0x8C379A000000000000000000000000000000000000000000000000000000000 DUP2 MSTORE PUSH1 0x4 ADD PUSH2 0x23F SWAP1 PUSH2 0xFB9 JUMP JUMPDEST PUSH1 0x40 MLOAD DUP1 SWAP2 SUB SWAP1 REVERT JUMPDEST DUP1 PUSH1 0x1 ADD PUSH0 SWAP1 SLOAD SWAP1 PUSH2 0x100 EXP SWAP1 DIV PUSH1 0xFF AND ISZERO PUSH2 0x299 JUMPI PUSH1 0x40 MLOAD PUSH32 0x8C379A000000000000000000000000000000000000000000000000000000000 DUP2 MSTORE PUSH1 0x4 ADD PUSH2 0x290 SWAP1 PUSH2 0x1021 JUMP JUMPDEST PUSH1 0x40 MLOAD DUP1 SWAP2 SUB SWAP1 REVERT JUMPDEST PUSH0 SLOAD TIMESTAMP LT ISZERO DUP1 ISZERO PUSH2 0x2AC JUMPI POP PUSH1 0x1 SLOAD TIMESTAMP GT ISZERO JUMPDEST PUSH2 0x2EB JUMPI PUSH1 0x40 MLOAD PUSH32 0x8C379A000000000000000000000000000000000000000000000000000000000 DUP2 MSTORE PUSH1 0x4 ADD PUSH2 0x2E2 SWAP1 PUSH2 0x1089 JUMP JUMPDEST PUSH1 0x40 MLOAD DUP1 SWAP2 SUB SWAP1 REVERT JUMPDEST PUSH1 0x1 DUP2 PUSH1 0x1 ADD PUSH0 PUSH2 0x100 EXP DUP2 SLOAD DUP2 PUSH1 0xFF MUL NOT AND SWAP1 DUP4 ISZERO ISZERO MUL OR SWAP1 SSTORE POP DUP2 DUP2 PUSH1 0x2 ADD DUP2 SWAP1 SSTORE POP DUP1 PUSH0 ADD SLOAD PUSH1 0x4 DUP4 DUP2 SLOAD DUP2 LT PUSH2 0x328 JUMPI PUSH2 0x327 PUSH2 0x10A7 JUMP JUMPDEST JUMPDEST SWAP1 PUSH0 MSTORE PUSH1 0x20 PUSH0 KECCAK256 SWAP1 PUSH1 0x2 MUL ADD PUSH1 0x1 ADD PUSH0 DUP3 DUP3 SLOAD PUSH2 0x345 SWAP2 SWAP1 PUSH2 0x1101 JUMP JUMPDEST SWAP3 POP POP DUP2 SWAP1 SSTORE POP POP POP JUMP JUMPDEST PUSH1 0x4 DUP2 DUP2 SLOAD DUP2 LT PUSH2 0x35F JUMPI PUSH0 DUP1 REVERT JUMPDEST SWAP1 PUSH0 MSTORE PUSH1 0x20 PUSH0 KECCAK256 SWAP1 PUSH1 0x2 MUL ADD PUSH0 SWAP2 POP SWAP1 POP DUP1 PUSH0 ADD SLOAD SWAP1 DUP1 PUSH1 0x1 ADD SLOAD SWAP1 POP DUP3 JUMP JUMPDEST PUSH1 0x2 PUSH0 SWAP1 SLOAD SWAP1 PUSH2 0x100 EXP SWAP1 DIV PUSH20 0xFFFFFFFFFFFFFFFFFFFFFFFFFFFFFFFFFFFFFFFF AND DUP2 JUMP JUMPDEST PUSH0 PUSH1 0x3 PUSH0 CALLER PUSH20 0xFFFFFFFFFFFFFFFFFFFFFFFFFFFFFFFFFFFFFFFF AND PUSH20 0xFFFFFFFFFFFFFFFFFFFFFFFFFFFFFFFFFFFFFFFF AND DUP2 MSTORE PUSH1 0x20 ADD SWAP1 DUP2 MSTORE PUSH1 0x20 ADD PUSH0 KECCAK256 SWAP1 POP PUSH0 DUP2 PUSH0 ADD SLOAD SUB PUSH2 0x429 JUMPI PUSH1 0x40 MLOAD PUSH32 0x8C379A000000000000000000000000000000000000000000000000000000000 DUP2 MSTORE PUSH1 0x4 ADD PUSH2 0x420 SWAP1 PUSH2 0x117E JUMP JUMPDEST PUSH1 0x40 MLOAD DUP1 SWAP2 SUB SWAP1 REVERT JUMPDEST DUP1 PUSH1 0x1 ADD PUSH0 SWAP1 SLOAD SWAP1 PUSH2 0x100 EXP SWAP1 DIV PUSH1 0xFF AND ISZERO PUSH2 0x47A JUMPI PUSH1 0x40 MLOAD PUSH32 0x8C379A000000000000000000000000000000000000000000000000000000000 DUP2 MSTORE PUSH1 0x4 ADD PUSH2 0x471 SWAP1 PUSH2 0x11E6 JUMP JUMPDEST PUSH1 0x40 MLOAD DUP1 SWAP2 SUB SWAP1 REVERT JUMPDEST CALLER PUSH20 0xFFFFFFFFFFFFFFFFFFFFFFFFFFFFFFFFFFFFFFFF AND DUP3 PUSH20 0xFFFFFFFFFFFFFFFFFFFFFFFFFFFFFFFFFFFFFFFF AND SUB PUSH2 0x4E8 JUMPI PUSH1 0x40 MLOAD PUSH32 0x8C379A000000000000000000000000000000000000000000000000000000000 DUP2 MSTORE PUSH1 0x4 ADD PUSH2 0x4DF SWAP1 PUSH2 0x124E JUMP JUMPDEST PUSH1 0x40 MLOAD DUP1 SWAP2 SUB SWAP1 REVERT JUMPDEST JUMPDEST PUSH0 PUSH20 0xFFFFFFFFFFFFFFFFFFFFFFFFFFFFFFFFFFFFFFFF AND PUSH1 0x3 PUSH0 DUP5 PUSH20 0xFFFFFFFFFFFFFFFFFFFFFFFFFFFFFFFFFFFFFFFF AND PUSH20 0xFFFFFFFFFFFFFFFFFFFFFFFFFFFFFFFFFFFFFFFF AND DUP2 MSTORE PUSH1 0x20 ADD SWAP1 DUP2 MSTORE PUSH1 0x20 ADD PUSH0 KECCAK256 PUSH1 0x1 ADD PUSH1 0x1 SWAP1 SLOAD SWAP1 PUSH2 0x100 EXP SWAP1 DIV PUSH20 0xFFFFFFFFFFFFFFFFFFFFFFFFFFFFFFFFFFFFFFFF AND PUSH20 0xFFFFFFFFFFFFFFFFFFFFFFFFFFFFFFFFFFFFFFFF AND EQ PUSH2 0x652 JUMPI PUSH1 0x3 PUSH0 DUP4 PUSH20 0xFFFFFFFFFFFFFFFFFFFFFFFFFFFFFFFFFFFFFFFF AND PUSH20 0xFFFFFFFFFFFFFFFFFFFFFFFFFFFFFFFFFFFFFFFF AND DUP2 MSTORE PUSH1 0x20 ADD SWAP1 DUP2 MSTORE PUSH1 0x20 ADD PUSH0 KECCAK256 PUSH1 0x1 ADD PUSH1 0x1 SWAP1 SLOAD SWAP1 PUSH2 0x100 EXP SWAP1 DIV PUSH20 0xFFFFFFFFFFFFFFFFFFFFFFFFFFFFFFFFFFFFFFFF AND SWAP2 POP CALLER PUSH20 0xFFFFFFFFFFFFFFFFFFFFFFFFFFFFFFFFFFFFFFFF AND DUP3 PUSH20 0xFFFFFFFFFFFFFFFFFFFFFFFFFFFFFFFFFFFFFFFF AND SUB PUSH2 0x64D JUMPI PUSH1 0x40 MLOAD PUSH32 0x8C379A000000000000000000000000000000000000000000000000000000000 DUP2 MSTORE PUSH1 0x4 ADD PUSH2 0x644 SWAP1 PUSH2 0x12B6 JUMP JUMPDEST PUSH1 0x40 MLOAD DUP1 SWAP2 SUB SWAP1 REVERT JUMPDEST PUSH2 0x4E9 JUMP JUMPDEST PUSH0 PUSH1 0x3 PUSH0 DUP5 PUSH20 0xFFFFFFFFFFFFFFFFFFFFFFFFFFFFFFFFFFFFFFFF AND PUSH20 0xFFFFFFFFFFFFFFFFFFFFFFFFFFFFFFFFFFFFFFFF AND DUP2 MSTORE PUSH1 0x20 ADD SWAP1 DUP2 MSTORE PUSH1 0x20 ADD PUSH0 KECCAK256 SWAP1 POP PUSH1 0x1 DUP2 PUSH0 ADD SLOAD LT ISZERO PUSH2 0x6D9 JUMPI PUSH1 0x40 MLOAD PUSH32 0x8C379A000000000000000000000000000000000000000000000000000000000 DUP2 MSTORE PUSH1 0x4 ADD PUSH2 0x6D0 SWAP1 PUSH2 0x1344 JUMP JUMPDEST PUSH1 0x40 MLOAD DUP1 SWAP2 SUB SWAP1 REVERT JUMPDEST PUSH1 0x1 DUP3 PUSH1 0x1 ADD PUSH0 PUSH2 0x100 EXP DUP2 SLOAD DUP2 PUSH1 0xFF MUL NOT AND SWAP1 DUP4 ISZERO ISZERO MUL OR SWAP1 SSTORE POP DUP3 DUP3 PUSH1 0x1 ADD PUSH1 0x1 PUSH2 0x100 EXP DUP2 SLOAD DUP2 PUSH20 0xFFFFFFFFFFFFFFFFFFFFFFFFFFFFFFFFFFFFFFFF MUL NOT AND SWAP1 DUP4 PUSH20 0xFFFFFFFFFFFFFFFFFFFFFFFFFFFFFFFFFFFFFFFF AND MUL OR SWAP1 SSTORE POP DUP1 PUSH1 0x1 ADD PUSH0 SWAP1 SLOAD SWAP1 PUSH2 0x100 EXP SWAP1 DIV PUSH1 0xFF AND ISZERO PUSH2 0x793 JUMPI DUP2 PUSH0 ADD SLOAD PUSH1 0x4 DUP3 PUSH1 0x2 ADD SLOAD DUP2 SLOAD DUP2 LT PUSH2 0x76A JUMPI PUSH2 0x769 PUSH2 0x10A7 JUMP JUMPDEST JUMPDEST SWAP1 PUSH0 MSTORE PUSH1 0x20 PUSH0 KECCAK256 SWAP1 PUSH1 0x2 MUL ADD PUSH1 0x1 ADD PUSH0 DUP3 DUP3 SLOAD PUSH2 0x787 SWAP2 SWAP1 PUSH2 0x1101 JUMP JUMPDEST SWAP3 POP POP DUP2 SWAP1 SSTORE POP PUSH2 0x7B0 JUMP JUMPDEST DUP2 PUSH0 ADD SLOAD DUP2 PUSH0 ADD PUSH0 DUP3 DUP3 SLOAD PUSH2 0x7A8 SWAP2 SWAP1 PUSH2 0x1101 JUMP JUMPDEST SWAP3 POP POP DUP2 SWAP1 SSTORE POP JUMPDEST POP POP POP JUMP JUMPDEST PUSH0 DUP1 PUSH0 SWAP1 POP PUSH0 JUMPDEST PUSH1 0x4 DUP1 SLOAD SWAP1 POP DUP2 LT ISZERO PUSH2 0x82B JUMPI DUP2 PUSH1 0x4 DUP3 DUP2 SLOAD DUP2 LT PUSH2 0x7DE JUMPI PUSH2 0x7DD PUSH2 0x10A7 JUMP JUMPDEST JUMPDEST SWAP1 PUSH0 MSTORE PUSH1 0x20 PUSH0 KECCAK256 SWAP1 PUSH1 0x2 MUL ADD PUSH1 0x1 ADD SLOAD GT ISZERO PUSH2 0x81E JUMPI PUSH1 0x4 DUP2 DUP2 SLOAD DUP2 LT PUSH2 0x808 JUMPI PUSH2 0x807 PUSH2 0x10A7 JUMP JUMPDEST JUMPDEST SWAP1 PUSH0 MSTORE PUSH1 0x20 PUSH0 KECCAK256 SWAP1 PUSH1 0x2 MUL ADD PUSH1 0x1 ADD SLOAD SWAP2 POP DUP1 SWAP3 POP JUMPDEST DUP1 DUP1 PUSH1 0x1 ADD SWAP2 POP POP PUSH2 0x7BC JUMP JUMPDEST POP POP SWAP1 JUMP JUMPDEST PUSH1 0x2 PUSH0 SWAP1 SLOAD SWAP1 PUSH2 0x100 EXP SWAP1 DIV PUSH20 0xFFFFFFFFFFFFFFFFFFFFFFFFFFFFFFFFFFFFFFFF AND PUSH20 0xFFFFFFFFFFFFFFFFFFFFFFFFFFFFFFFFFFFFFFFF AND CALLER PUSH20 0xFFFFFFFFFFFFFFFFFFFFFFFFFFFFFFFFFFFFFFFF AND EQ PUSH2 0x8BF JUMPI PUSH1 0x40 MLOAD PUSH32 0x8C379A000000000000000000000000000000000000000000000000000000000 DUP2 MSTORE PUSH1 0x4 ADD PUSH2 0x8B6 SWAP1 PUSH2 0x13D2 JUMP JUMPDEST PUSH1 0x40 MLOAD DUP1 SWAP2 SUB SWAP1 REVERT JUMPDEST PUSH1 0x3 PUSH0 DUP3 PUSH20 0xFFFFFFFFFFFFFFFFFFFFFFFFFFFFFFFFFFFFFFFF AND PUSH20 0xFFFFFFFFFFFFFFFFFFFFFFFFFFFFFFFFFFFFFFFF AND DUP2 MSTORE PUSH1 0x20 ADD SWAP1 DUP2 MSTORE PUSH1 0x20 ADD PUSH0 KECCAK256 PUSH1 0x1 ADD PUSH0 SWAP1 SLOAD SWAP1 PUSH2 0x100 EXP SWAP1 DIV PUSH1 0xFF AND ISZERO PUSH2 0x94C JUMPI PUSH1 0x40 MLOAD PUSH32 0x8C379A000000000000000000000000000000000000000000000000000000000 DUP2 MSTORE PUSH1 0x4 ADD PUSH2 0x943 SWAP1 PUSH2 0x143A JUMP JUMPDEST PUSH1 0x40 MLOAD DUP1 SWAP2 SUB SWAP1 REVERT JUMPDEST PUSH0 PUSH1 0x3 PUSH0 DUP4 PUSH20 0xFFFFFFFFFFFFFFFFFFFFFFFFFFFFFFFFFFFFFFFF AND PUSH20 0xFFFFFFFFFFFFFFFFFFFFFFFFFFFFFFFFFFFFFFFF AND DUP2 MSTORE PUSH1 0x20 ADD SWAP1 DUP2 MSTORE PUSH1 0x20 ADD PUSH0 KECCAK256 PUSH0 ADD SLOAD EQ PUSH2 0x9CD JUMPI PUSH1 0x40 MLOAD PUSH32 0x8C379A000000000000000000000000000000000000000000000000000000000 DUP2 MSTORE PUSH1 0x4 ADD PUSH2 0x9C4 SWAP1 PUSH2 0x14C8 JUMP JUMPDEST PUSH1 0x40 MLOAD DUP1 SWAP2 SUB SWAP1 REVERT JUMPDEST PUSH1 0x1 PUSH1 0x3 PUSH0 DUP4 PUSH20 0xFFFFFFFFFFFFFFFFFFFFFFFFFFFFFFFFFFFFFFFF AND PUSH20 0xFFFFFFFFFFFFFFFFFFFFFFFFFFFFFFFFFFFFFFFF AND DUP2 MSTORE PUSH1 0x20 ADD SWAP1 DUP2 MSTORE PUSH1 0x20 ADD PUSH0 KECCAK256 PUSH0 ADD DUP2 SWAP1 SSTORE POP POP JUMP JUMPDEST PUSH1 0x3 PUSH1 0x20 MSTORE DUP1 PUSH0 MSTORE PUSH1 0x40 PUSH0 KECCAK256 PUSH0 SWAP2 POP SWAP1 POP DUP1 PUSH0 ADD SLOAD SWAP1 DUP1 PUSH1 0x1 ADD PUSH0 SWAP1 SLOAD SWAP1 PUSH2 0x100 EXP SWAP1 DIV PUSH1 0xFF AND SWAP1 DUP1 PUSH1 0x1 ADD PUSH1 0x1 SWAP1 SLOAD SWAP1 PUSH2 0x100 EXP SWAP1 DIV PUSH20 0xFFFFFFFFFFFFFFFFFFFFFFFFFFFFFFFFFFFFFFFF AND SWAP1 DUP1 PUSH1 0x2 ADD SLOAD SWAP1 POP DUP5 JUMP JUMPDEST PUSH0 PUSH1 0x4 PUSH2 0xA78 PUSH2 0x7B5 JUMP JUMPDEST DUP2 SLOAD DUP2 LT PUSH2 0xA89 JUMPI PUSH2 0xA88 PUSH2 0x10A7 JUMP JUMPDEST JUMPDEST SWAP1 PUSH0 MSTORE PUSH1 0x20 PUSH0 KECCAK256 SWAP1 PUSH1 0x2 MUL ADD PUSH0 ADD SLOAD SWAP1 POP SWAP1 JUMP JUMPDEST PUSH1 0x2 PUSH0 SWAP1 SLOAD SWAP1 PUSH2 0x100 EXP SWAP1 DIV PUSH20 0xFFFFFFFFFFFFFFFFFFFFFFFFFFFFFFFFFFFFFFFF AND PUSH20 0xFFFFFFFFFFFFFFFFFFFFFFFFFFFFFFFFFFFFFFFF AND CALLER PUSH20 0xFFFFFFFFFFFFFFFFFFFFFFFFFFFFFFFFFFFFFFFF AND EQ PUSH2 0xB2C JUMPI PUSH1 0x40 MLOAD PUSH32 0x8C379A000000000000000000000000000000000000000000000000000000000 DUP2 MSTORE PUSH1 0x4 ADD PUSH2 0xB23 SWAP1 PUSH2 0x1556 JUMP JUMPDEST PUSH1 0x40 MLOAD DUP1 SWAP2 SUB SWAP1 REVERT JUMPDEST PUSH0 DUP2 GT PUSH2 0xB6E JUMPI PUSH1 0x40 MLOAD PUSH32 0x8C379A000000000000000000000000000000000000000000000000000000000 DUP2 MSTORE PUSH1 0x4 ADD PUSH2 0xB65 SWAP1 PUSH2 0x15BE JUMP JUMPDEST PUSH1 0x40 MLOAD DUP1 SWAP2 SUB SWAP1 REVERT JUMPDEST PUSH0 PUSH1 0x3 PUSH0 DUP5 PUSH20 0xFFFFFFFFFFFFFFFFFFFFFFFFFFFFFFFFFFFFFFFF AND PUSH20 0xFFFFFFFFFFFFFFFFFFFFFFFFFFFFFFFFFFFFFFFF AND DUP2 MSTORE PUSH1 0x20 ADD SWAP1 DUP2 MSTORE PUSH1 0x20 ADD PUSH0 KECCAK256 SWAP1 POP PUSH0 DUP2 PUSH0 ADD SLOAD SUB PUSH2 0xBF3 JUMPI PUSH1 0x40 MLOAD PUSH32 0x8C379A000000000000000000000000000000000000000000000000000000000 DUP2 MSTORE PUSH1 0x4 ADD PUSH2 0xBEA SWAP1 PUSH2 0x1626 JUMP JUMPDEST PUSH1 0x40 MLOAD DUP1 SWAP2 SUB SWAP1 REVERT JUMPDEST DUP1 PUSH1 0x1 ADD PUSH0 SWAP1 SLOAD SWAP1 PUSH2 0x100 EXP SWAP1 DIV PUSH1 0xFF AND ISZERO PUSH2 0xC44 JUMPI PUSH1 0x40 MLOAD PUSH32 0x8C379A000000000000000000000000000000000000000000000000000000000 DUP2 MSTORE PUSH1 0x4 ADD PUSH2 0xC3B SWAP1 PUSH2 0x143A JUMP JUMPDEST PUSH1 0x40 MLOAD DUP1 SWAP2 SUB SWAP1 REVERT JUMPDEST PUSH0 PUSH20 0xFFFFFFFFFFFFFFFFFFFFFFFFFFFFFFFFFFFFFFFF AND DUP2 PUSH1 0x1 ADD PUSH1 0x1 SWAP1 SLOAD SWAP1 PUSH2 0x100 EXP SWAP1 DIV PUSH20 0xFFFFFFFFFFFFFFFFFFFFFFFFFFFFFFFFFFFFFFFF AND PUSH20 0xFFFFFFFFFFFFFFFFFFFFFFFFFFFFFFFFFFFFFFFF AND EQ PUSH2 0xD28 JUMPI PUSH0 PUSH1 0x3 PUSH0 DUP4 PUSH1 0x1 ADD PUSH1 0x1 SWAP1 SLOAD SWAP1 PUSH2 0x100 EXP SWAP1 DIV PUSH20 0xFFFFFFFFFFFFFFFFFFFFFFFFFFFFFFFFFFFFFFFF AND PUSH20 0xFFFFFFFFFFFFFFFFFFFFFFFFFFFFFFFFFFFFFFFF AND PUSH20 0xFFFFFFFFFFFFFFFFFFFFFFFFFFFFFFFFFFFFFFFF AND DUP2 MSTORE PUSH1 0x20 ADD SWAP1 DUP2 MSTORE PUSH1 0x20 ADD PUSH0 KECCAK256 SWAP1 POP DUP2 PUSH0 ADD SLOAD DUP4 PUSH2 0xD0E SWAP2 SWAP1 PUSH2 0x1644 JUMP JUMPDEST DUP2 PUSH0 ADD PUSH0 DUP3 DUP3 SLOAD PUSH2 0xD1F SWAP2 SWAP1 PUSH2 0x1101 JUMP JUMPDEST SWAP3 POP POP DUP2 SWAP1 SSTORE POP POP JUMPDEST DUP2 DUP2 PUSH0 ADD DUP2 SWAP1 SSTORE POP POP POP POP JUMP JUMPDEST PUSH0 DUP1 REVERT JUMPDEST PUSH0 DUP2 SWAP1 POP SWAP2 SWAP1 POP JUMP JUMPDEST PUSH2 0xD4B DUP2 PUSH2 0xD39 JUMP JUMPDEST DUP2 EQ PUSH2 0xD55 JUMPI PUSH0 DUP1 REVERT JUMPDEST POP JUMP JUMPDEST PUSH0 DUP2 CALLDATALOAD SWAP1 POP PUSH2 0xD66 DUP2 PUSH2 0xD42 JUMP JUMPDEST SWAP3 SWAP2 POP POP JUMP JUMPDEST PUSH0 PUSH1 0x20 DUP3 DUP5 SUB SLT ISZERO PUSH2 0xD81 JUMPI PUSH2 0xD80 PUSH2 0xD35 JUMP JUMPDEST JUMPDEST PUSH0 PUSH2 0xD8E DUP5 DUP3 DUP6 ADD PUSH2 0xD58 JUMP JUMPDEST SWAP2 POP POP SWAP3 SWAP2 POP POP JUMP JUMPDEST PUSH0 DUP2 SWAP1 POP SWAP2 SWAP1 POP JUMP JUMPDEST PUSH2 0xDA9 DUP2 PUSH2 0xD97 JUMP JUMPDEST DUP3 MSTORE POP POP JUMP JUMPDEST PUSH2 0xDB8 DUP2 PUSH2 0xD39 JUMP JUMPDEST DUP3 MSTORE POP POP JUMP JUMPDEST PUSH0 PUSH1 0x40 DUP3 ADD SWAP1 POP PUSH2 0xDD1 PUSH0 DUP4 ADD DUP6 PUSH2 0xDA0 JUMP JUMPDEST PUSH2 0xDDE PUSH1 0x20 DUP4 ADD DUP5 PUSH2 0xDAF JUMP JUMPDEST SWAP4 SWAP3 POP POP POP JUMP JUMPDEST PUSH0 PUSH20 0xFFFFFFFFFFFFFFFFFFFFFFFFFFFFFFFFFFFFFFFF DUP3 AND SWAP1 POP SWAP2 SWAP1 POP JUMP JUMPDEST PUSH0 PUSH2 0xE0E DUP3 PUSH2 0xDE5 JUMP JUMPDEST SWAP1 POP SWAP2 SWAP1 POP JUMP JUMPDEST PUSH2 0xE1E DUP2 PUSH2 0xE04 JUMP JUMPDEST DUP3 MSTORE POP POP JUMP JUMPDEST PUSH0 PUSH1 0x20 DUP3 ADD SWAP1 POP PUSH2 0xE37 PUSH0 DUP4 ADD DUP5 PUSH2 0xE15 JUMP JUMPDEST SWAP3 SWAP2 POP POP JUMP JUMPDEST PUSH2 0xE46 DUP2 PUSH2 0xE04 JUMP JUMPDEST DUP2 EQ PUSH2 0xE50 JUMPI PUSH0 DUP1 REVERT JUMPDEST POP JUMP JUMPDEST PUSH0 DUP2 CALLDATALOAD SWAP1 POP PUSH2 0xE61 DUP2 PUSH2 0xE3D JUMP JUMPDEST SWAP3 SWAP2 POP POP JUMP JUMPDEST PUSH0 PUSH1 0x20 DUP3 DUP5 SUB SLT ISZERO PUSH2 0xE7C JUMPI PUSH2 0xE7B PUSH2 0xD35 JUMP JUMPDEST JUMPDEST PUSH0 PUSH2 0xE89 DUP5 DUP3 DUP6 ADD PUSH2 0xE53 JUMP JUMPDEST SWAP2 POP POP SWAP3 SWAP2 POP POP JUMP JUMPDEST PUSH0 PUSH1 0x20 DUP3 ADD SWAP1 POP PUSH2 0xEA5 PUSH0 DUP4 ADD DUP5 PUSH2 0xDAF JUMP JUMPDEST SWAP3 SWAP2 POP POP JUMP JUMPDEST PUSH0 DUP2 ISZERO ISZERO SWAP1 POP SWAP2 SWAP1 POP JUMP JUMPDEST PUSH2 0xEBF DUP2 PUSH2 0xEAB JUMP JUMPDEST DUP3 MSTORE POP POP JUMP JUMPDEST PUSH0 PUSH1 0x80 DUP3 ADD SWAP1 POP PUSH2 0xED8 PUSH0 DUP4 ADD DUP8 PUSH2 0xDAF JUMP JUMPDEST PUSH2 0xEE5 PUSH1 0x20 DUP4 ADD DUP7 PUSH2 0xEB6 JUMP JUMPDEST PUSH2 0xEF2 PUSH1 0x40 DUP4 ADD DUP6 PUSH2 0xE15 JUMP JUMPDEST PUSH2 0xEFF PUSH1 0x60 DUP4 ADD DUP5 PUSH2 0xDAF JUMP JUMPDEST SWAP6 SWAP5 POP POP POP POP POP JUMP JUMPDEST PUSH0 PUSH1 0x20 DUP3 ADD SWAP1 POP PUSH2 0xF1B PUSH0 DUP4 ADD DUP5 PUSH2 0xDA0 JUMP JUMPDEST SWAP3 SWAP2 POP POP JUMP JUMPDEST PUSH0 DUP1 PUSH1 0x40 DUP4 DUP6 SUB SLT ISZERO PUSH2 0xF37 JUMPI PUSH2 0xF36 PUSH2 0xD35 JUMP JUMPDEST JUMPDEST PUSH0 PUSH2 0xF44 DUP6 DUP3 DUP7 ADD PUSH2 0xE53 JUMP JUMPDEST SWAP3 POP POP PUSH1 0x20 PUSH2 0xF55 DUP6 DUP3 DUP7 ADD PUSH2 0xD58 JUMP JUMPDEST SWAP2 POP POP SWAP3 POP SWAP3 SWAP1 POP JUMP JUMPDEST PUSH0 DUP3 DUP3 MSTORE PUSH1 0x20 DUP3 ADD SWAP1 POP SWAP3 SWAP2 POP POP JUMP JUMPDEST PUSH32 0x486173206E6F20726967687420746F20766F7465000000000000000000000000 PUSH0 DUP3 ADD MSTORE POP JUMP JUMPDEST PUSH0 PUSH2 0xFA3 PUSH1 0x14 DUP4 PUSH2 0xF5F JUMP JUMPDEST SWAP2 POP PUSH2 0xFAE DUP3 PUSH2 0xF6F JUMP JUMPDEST PUSH1 0x20 DUP3 ADD SWAP1 POP SWAP2 SWAP1 POP JUMP JUMPDEST PUSH0 PUSH1 0x20 DUP3 ADD SWAP1 POP DUP2 DUP2 SUB PUSH0 DUP4 ADD MSTORE PUSH2 0xFD0 DUP2 PUSH2 0xF97 JUMP JUMPDEST SWAP1 POP SWAP2 SWAP1 POP JUMP JUMPDEST PUSH32 0x416C726561647920766F7465642E000000000000000000000000000000000000 PUSH0 DUP3 ADD MSTORE POP JUMP JUMPDEST PUSH0 PUSH2 0x100B PUSH1 0xE DUP4 PUSH2 0xF5F JUMP JUMPDEST SWAP2 POP PUSH2 0x1016 DUP3 PUSH2 0xFD7 JUMP JUMPDEST PUSH1 0x20 DUP3 ADD SWAP1 POP SWAP2 SWAP1 POP JUMP JUMPDEST PUSH0 PUSH1 0x20 DUP3 ADD SWAP1 POP DUP2 DUP2 SUB PUSH0 DUP4 ADD MSTORE PUSH2 0x1038 DUP2 PUSH2 0xFFF JUMP JUMPDEST SWAP1 POP SWAP2 SWAP1 POP JUMP JUMPDEST PUSH32 0x4F7574206F6620766F74652074696D652072616E67652E000000000000000000 PUSH0 DUP3 ADD MSTORE POP JUMP JUMPDEST PUSH0 PUSH2 0x1073 PUSH1 0x17 DUP4 PUSH2 0xF5F JUMP JUMPDEST SWAP2 POP PUSH2 0x107E DUP3 PUSH2 0x103F JUMP JUMPDEST PUSH1 0x20 DUP3 ADD SWAP1 POP SWAP2 SWAP1 POP JUMP JUMPDEST PUSH0 PUSH1 0x20 DUP3 ADD SWAP1 POP DUP2 DUP2 SUB PUSH0 DUP4 ADD MSTORE PUSH2 0x10A0 DUP2 PUSH2 0x1067 JUMP JUMPDEST SWAP1 POP SWAP2 SWAP1 POP JUMP JUMPDEST PUSH32 0x4E487B7100000000000000000000000000000000000000000000000000000000 PUSH0 MSTORE PUSH1 0x32 PUSH1 0x4 MSTORE PUSH1 0x24 PUSH0 REVERT JUMPDEST PUSH32 0x4E487B7100000000000000000000000000000000000000000000000000000000 PUSH0 MSTORE PUSH1 0x11 PUSH1 0x4 MSTORE PUSH1 0x24 PUSH0 REVERT JUMPDEST PUSH0 PUSH2 0x110B DUP3 PUSH2 0xD39 JUMP JUMPDEST SWAP2 POP PUSH2 0x1116 DUP4 PUSH2 0xD39 JUMP JUMPDEST SWAP3 POP DUP3 DUP3 ADD SWAP1 POP DUP1 DUP3 GT ISZERO PUSH2 0x112E JUMPI PUSH2 0x112D PUSH2 0x10D4 JUMP JUMPDEST JUMPDEST SWAP3 SWAP2 POP POP JUMP JUMPDEST PUSH32 0x596F752068617665206E6F20726967687420746F20766F74652E000000000000 PUSH0 DUP3 ADD MSTORE POP JUMP JUMPDEST PUSH0 PUSH2 0x1168 PUSH1 0x1A DUP4 PUSH2 0xF5F JUMP JUMPDEST SWAP2 POP PUSH2 0x1173 DUP3 PUSH2 0x1134 JUMP JUMPDEST PUSH1 0x20 DUP3 ADD SWAP1 POP SWAP2 SWAP1 POP JUMP JUMPDEST PUSH0 PUSH1 0x20 DUP3 ADD SWAP1 POP DUP2 DUP2 SUB PUSH0 DUP4 ADD MSTORE PUSH2 0x1195 DUP2 PUSH2 0x115C JUMP JUMPDEST SWAP1 POP SWAP2 SWAP1 POP JUMP JUMPDEST PUSH32 0x596F7520616C726561647920766F7465642E0000000000000000000000000000 PUSH0 DUP3 ADD MSTORE POP JUMP JUMPDEST PUSH0 PUSH2 0x11D0 PUSH1 0x12 DUP4 PUSH2 0xF5F JUMP JUMPDEST SWAP2 POP PUSH2 0x11DB DUP3 PUSH2 0x119C JUMP JUMPDEST PUSH1 0x20 DUP3 ADD SWAP1 POP SWAP2 SWAP1 POP JUMP JUMPDEST PUSH0 PUSH1 0x20 DUP3 ADD SWAP1 POP DUP2 DUP2 SUB PUSH0 DUP4 ADD MSTORE PUSH2 0x11FD DUP2 PUSH2 0x11C4 JUMP JUMPDEST SWAP1 POP SWAP2 SWAP1 POP JUMP JUMPDEST PUSH32 0x53656C662D64656C65676174696F6E20697320646973616C6C6F7765642E0000 PUSH0 DUP3 ADD MSTORE POP JUMP JUMPDEST PUSH0 PUSH2 0x1238 PUSH1 0x1E DUP4 PUSH2 0xF5F JUMP JUMPDEST SWAP2 POP PUSH2 0x1243 DUP3 PUSH2 0x1204 JUMP JUMPDEST PUSH1 0x20 DUP3 ADD SWAP1 POP SWAP2 SWAP1 POP JUMP JUMPDEST PUSH0 PUSH1 0x20 DUP3 ADD SWAP1 POP DUP2 DUP2 SUB PUSH0 DUP4 ADD MSTORE PUSH2 0x1265 DUP2 PUSH2 0x122C JUMP JUMPDEST SWAP1 POP SWAP2 SWAP1 POP JUMP JUMPDEST PUSH32 0x466F756E64206C6F6F7020696E2064656C65676174696F6E2E00000000000000 PUSH0 DUP3 ADD MSTORE POP JUMP JUMPDEST PUSH0 PUSH2 0x12A0 PUSH1 0x19 DUP4 PUSH2 0xF5F JUMP JUMPDEST SWAP2 POP PUSH2 0x12AB DUP3 PUSH2 0x126C JUMP JUMPDEST PUSH1 0x20 DUP3 ADD SWAP1 POP SWAP2 SWAP1 POP JUMP JUMPDEST PUSH0 PUSH1 0x20 DUP3 ADD SWAP1 POP DUP2 DUP2 SUB PUSH0 DUP4 ADD MSTORE PUSH2 0x12CD DUP2 PUSH2 0x1294 JUMP JUMPDEST SWAP1 POP SWAP2 SWAP1 POP JUMP JUMPDEST PUSH32 0x546F20766F7465722073686F756C642068617665207468652072696768742074 PUSH0 DUP3 ADD MSTORE PUSH32 0x6F20766F74652E00000000000000000000000000000000000000000000000000 PUSH1 0x20 DUP3 ADD MSTORE POP JUMP JUMPDEST PUSH0 PUSH2 0x132E PUSH1 0x27 DUP4 PUSH2 0xF5F JUMP JUMPDEST SWAP2 POP PUSH2 0x1339 DUP3 PUSH2 0x12D4 JUMP JUMPDEST PUSH1 0x40 DUP3 ADD SWAP1 POP SWAP2 SWAP1 POP JUMP JUMPDEST PUSH0 PUSH1 0x20 DUP3 ADD SWAP1 POP DUP2 DUP2 SUB PUSH0 DUP4 ADD MSTORE PUSH2 0x135B DUP2 PUSH2 0x1322 JUMP JUMPDEST SWAP1 POP SWAP2 SWAP1 POP JUMP JUMPDEST PUSH32 0x4F6E6C79206368616972706572736F6E2063616E206769766520726967687420 PUSH0 DUP3 ADD MSTORE PUSH32 0x746F20766F74652E000000000000000000000000000000000000000000000000 PUSH1 0x20 DUP3 ADD MSTORE POP JUMP JUMPDEST PUSH0 PUSH2 0x13BC PUSH1 0x28 DUP4 PUSH2 0xF5F JUMP JUMPDEST SWAP2 POP PUSH2 0x13C7 DUP3 PUSH2 0x1362 JUMP JUMPDEST PUSH1 0x40 DUP3 ADD SWAP1 POP SWAP2 SWAP1 POP JUMP JUMPDEST PUSH0 PUSH1 0x20 DUP3 ADD SWAP1 POP DUP2 DUP2 SUB PUSH0 DUP4 ADD MSTORE PUSH2 0x13E9 DUP2 PUSH2 0x13B0 JUMP JUMPDEST SWAP1 POP SWAP2 SWAP1 POP JUMP JUMPDEST PUSH32 0x54686520766F74657220616C726561647920766F7465642E0000000000000000 PUSH0 DUP3 ADD MSTORE POP JUMP JUMPDEST PUSH0 PUSH2 0x1424 PUSH1 0x18 DUP4 PUSH2 0xF5F JUMP JUMPDEST SWAP2 POP PUSH2 0x142F DUP3 PUSH2 0x13F0 JUMP JUMPDEST PUSH1 0x20 DUP3 ADD SWAP1 POP SWAP2 SWAP1 POP JUMP JUMPDEST PUSH0 PUSH1 0x20 DUP3 ADD SWAP1 POP DUP2 DUP2 SUB PUSH0 DUP4 ADD MSTORE PUSH2 0x1451 DUP2 PUSH2 0x1418 JUMP JUMPDEST SWAP1 POP SWAP2 SWAP1 POP JUMP JUMPDEST PUSH32 0x54686520766F7465722073686F756C64206E6F74206861766520746865207765 PUSH0 DUP3 ADD MSTORE PUSH32 0x696768742E000000000000000000000000000000000000000000000000000000 PUSH1 0x20 DUP3 ADD MSTORE POP JUMP JUMPDEST PUSH0 PUSH2 0x14B2 PUSH1 0x25 DUP4 PUSH2 0xF5F JUMP JUMPDEST SWAP2 POP PUSH2 0x14BD DUP3 PUSH2 0x1458 JUMP JUMPDEST PUSH1 0x40 DUP3 ADD SWAP1 POP SWAP2 SWAP1 POP JUMP JUMPDEST PUSH0 PUSH1 0x20 DUP3 ADD SWAP1 POP DUP2 DUP2 SUB PUSH0 DUP4 ADD MSTORE PUSH2 0x14DF DUP2 PUSH2 0x14A6 JUMP JUMPDEST SWAP1 POP SWAP2 SWAP1 POP JUMP JUMPDEST PUSH32 0x4F6E6C7920636F6E7374727563746F722063616E207573652074686973206675 PUSH0 DUP3 ADD MSTORE PUSH32 0x6E6374696F6E2E00000000000000000000000000000000000000000000000000 PUSH1 0x20 DUP3 ADD MSTORE POP JUMP JUMPDEST PUSH0 PUSH2 0x1540 PUSH1 0x27 DUP4 PUSH2 0xF5F JUMP JUMPDEST SWAP2 POP PUSH2 0x154B DUP3 PUSH2 0x14E6 JUMP JUMPDEST PUSH1 0x40 DUP3 ADD SWAP1 POP SWAP2 SWAP1 POP JUMP JUMPDEST PUSH0 PUSH1 0x20 DUP3 ADD SWAP1 POP DUP2 DUP2 SUB PUSH0 DUP4 ADD MSTORE PUSH2 0x156D DUP2 PUSH2 0x1534 JUMP JUMPDEST SWAP1 POP SWAP2 SWAP1 POP JUMP JUMPDEST PUSH32 0x4E657720776569676874206D7573742067726561746572207468616E20302E00 PUSH0 DUP3 ADD MSTORE POP JUMP JUMPDEST PUSH0 PUSH2 0x15A8 PUSH1 0x1F DUP4 PUSH2 0xF5F JUMP JUMPDEST SWAP2 POP PUSH2 0x15B3 DUP3 PUSH2 0x1574 JUMP JUMPDEST PUSH1 0x20 DUP3 ADD SWAP1 POP SWAP2 SWAP1 POP JUMP JUMPDEST PUSH0 PUSH1 0x20 DUP3 ADD SWAP1 POP DUP2 DUP2 SUB PUSH0 DUP4 ADD MSTORE PUSH2 0x15D5 DUP2 PUSH2 0x159C JUMP JUMPDEST SWAP1 POP SWAP2 SWAP1 POP JUMP JUMPDEST PUSH32 0x486173206E6F20726967687420746F20766F74652E0000000000000000000000 PUSH0 DUP3 ADD MSTORE POP JUMP JUMPDEST PUSH0 PUSH2 0x1610 PUSH1 0x15 DUP4 PUSH2 0xF5F JUMP JUMPDEST SWAP2 POP PUSH2 0x161B DUP3 PUSH2 0x15DC JUMP JUMPDEST PUSH1 0x20 DUP3 ADD SWAP1 POP SWAP2 SWAP1 POP JUMP JUMPDEST PUSH0 PUSH1 0x20 DUP3 ADD SWAP1 POP DUP2 DUP2 SUB PUSH0 DUP4 ADD MSTORE PUSH2 0x163D DUP2 PUSH2 0x1604 JUMP JUMPDEST SWAP1 POP SWAP2 SWAP1 POP JUMP JUMPDEST PUSH0 PUSH2 0x164E DUP3 PUSH2 0xD39 JUMP JUMPDEST SWAP2 POP PUSH2 0x1659 DUP4 PUSH2 0xD39 JUMP JUMPDEST SWAP3 POP DUP3 DUP3 SUB SWAP1 POP DUP2 DUP2 GT ISZERO PUSH2 0x1671 JUMPI PUSH2 0x1670 PUSH2 0x10D4 JUMP JUMPDEST JUMPDEST SWAP3 SWAP2 POP POP JUMP INVALID LOG2 PUSH5 0x6970667358 0x22 SLT KECCAK256 ORIGIN BASEFEE 0xD9 0xB1 0x26 PUSH20 0x12E47B496E701C66E040149F455C9EFF60DBDBB EXTCODEHASH STOP MULMOD SWAP5 0x2E 0xD5 PUSH5 0x736F6C6343 STOP ADDMOD BYTE STOP CALLER "
				},
				"gasEstimates": {
					"creation": {
						"codeDepositCost": "1161000",
						"executionCost": "infinite",
						"totalCost": "infinite"
					},
					"external": {
						"chairperson()": "2553",
						"delegate(address)": "infinite",
						"giveRightToVote(address)": "29311",
						"proposals(uint256)": "infinite",
						"setVoterWeight(address,uint256)": "infinite",
						"vote(uint256)": "infinite",
						"voters(address)": "infinite",
						"winnerName()": "infinite",
						"winningProposal()": "infinite"
					}
				},
				"methodIdentifiers": {
					"chairperson()": "2e4176cf",
					"delegate(address)": "5c19a95c",
					"giveRightToVote(address)": "9e7b8d61",
					"proposals(uint256)": "013cf08b",
					"setVoterWeight(address,uint256)": "e7052895",
					"vote(uint256)": "0121b93f",
					"voters(address)": "a3ec138d",
					"winnerName()": "e2ba53f0",
					"winningProposal()": "609ff1bd"
				}
			},
			"storageLayout": {
				"storage": [
					{
						"astId": 3,
						"contract": "contracts/t4_ballot.sol:Ballot",
						"label": "startTime",
						"offset": 0,
						"slot": "0",
						"type": "t_uint256"
					},
					{
						"astId": 5,
						"contract": "contracts/t4_ballot.sol:Ballot",
						"label": "endTime",
						"offset": 0,
						"slot": "1",
						"type": "t_uint256"
					},
					{
						"astId": 21,
						"contract": "contracts/t4_ballot.sol:Ballot",
						"label": "chairperson",
						"offset": 0,
						"slot": "2",
						"type": "t_address"
					},
					{
						"astId": 26,
						"contract": "contracts/t4_ballot.sol:Ballot",
						"label": "voters",
						"offset": 0,
						"slot": "3",
						"type": "t_mapping(t_address,t_struct(Voter)14_storage)"
					},
					{
						"astId": 30,
						"contract": "contracts/t4_ballot.sol:Ballot",
						"label": "proposals",
						"offset": 0,
						"slot": "4",
						"type": "t_array(t_struct(Proposal)19_storage)dyn_storage"
					}
				],
				"types": {
					"t_address": {
						"encoding": "inplace",
						"label": "address",
						"numberOfBytes": "20"
					},
					"t_array(t_struct(Proposal)19_storage)dyn_storage": {
						"base": "t_struct(Proposal)19_storage",
						"encoding": "dynamic_array",
						"label": "struct Ballot.Proposal[]",
						"numberOfBytes": "32"
					},
					"t_bool": {
						"encoding": "inplace",
						"label": "bool",
						"numberOfBytes": "1"
					},
					"t_bytes32": {
						"encoding": "inplace",
						"label": "bytes32",
						"numberOfBytes": "32"
					},
					"t_mapping(t_address,t_struct(Voter)14_storage)": {
						"encoding": "mapping",
						"key": "t_address",
						"label": "mapping(address => struct Ballot.Voter)",
						"numberOfBytes": "32",
						"value": "t_struct(Voter)14_storage"
					},
					"t_struct(Proposal)19_storage": {
						"encoding": "inplace",
						"label": "struct Ballot.Proposal",
						"members": [
							{
								"astId": 16,
								"contract": "contracts/t4_ballot.sol:Ballot",
								"label": "name",
								"offset": 0,
								"slot": "0",
								"type": "t_bytes32"
							},
							{
								"astId": 18,
								"contract": "contracts/t4_ballot.sol:Ballot",
								"label": "voteCount",
								"offset": 0,
								"slot": "1",
								"type": "t_uint256"
							}
						],
						"numberOfBytes": "64"
					},
					"t_struct(Voter)14_storage": {
						"encoding": "inplace",
						"label": "struct Ballot.Voter",
						"members": [
							{
								"astId": 7,
								"contract": "contracts/t4_ballot.sol:Ballot",
								"label": "weight",
								"offset": 0,
								"slot": "0",
								"type": "t_uint256"
							},
							{
								"astId": 9,
								"contract": "contracts/t4_ballot.sol:Ballot",
								"label": "voted",
								"offset": 0,
								"slot": "1",
								"type": "t_bool"
							},
							{
								"astId": 11,
								"contract": "contracts/t4_ballot.sol:Ballot",
								"label": "delegate",
								"offset": 1,
								"slot": "1",
								"type": "t_address"
							},
							{
								"astId": 13,
								"contract": "contracts/t4_ballot.sol:Ballot",
								"label": "vote",
								"offset": 0,
								"slot": "2",
								"type": "t_uint256"
							}
						],
						"numberOfBytes": "96"
					},
					"t_uint256": {
						"encoding": "inplace",
						"label": "uint256",
						"numberOfBytes": "32"
					}
				}
			},
			"userdoc": {
				"kind": "user",
				"methods": {},
				"version": 1
			}
		}
	}
}