{
	"contracts/t3_waa.sol": {
		"SimpleSwap": {
			"abi": [
				{
					"inputs": [
						{
							"internalType": "contract IERC20",
							"name": "_token0",
							"type": "address"
						},
						{
							"internalType": "contract IERC20",
							"name": "_token1",
							"type": "address"
						}
					],
					"stateMutability": "nonpayable",
					"type": "constructor"
				},
				{
					"inputs": [
						{
							"internalType": "address",
							"name": "spender",
							"type": "address"
						},
						{
							"internalType": "uint256",
							"name": "allowance",
							"type": "uint256"
						},
						{
							"internalType": "uint256",
							"name": "needed",
							"type": "uint256"
						}
					],
					"name": "ERC20InsufficientAllowance",
					"type": "error"
				},
				{
					"inputs": [
						{
							"internalType": "address",
							"name": "sender",
							"type": "address"
						},
						{
							"internalType": "uint256",
							"name": "balance",
							"type": "uint256"
						},
						{
							"internalType": "uint256",
							"name": "needed",
							"type": "uint256"
						}
					],
					"name": "ERC20InsufficientBalance",
					"type": "error"
				},
				{
					"inputs": [
						{
							"internalType": "address",
							"name": "approver",
							"type": "address"
						}
					],
					"name": "ERC20InvalidApprover",
					"type": "error"
				},
				{
					"inputs": [
						{
							"internalType": "address",
							"name": "receiver",
							"type": "address"
						}
					],
					"name": "ERC20InvalidReceiver",
					"type": "error"
				},
				{
					"inputs": [
						{
							"internalType": "address",
							"name": "sender",
							"type": "address"
						}
					],
					"name": "ERC20InvalidSender",
					"type": "error"
				},
				{
					"inputs": [
						{
							"internalType": "address",
							"name": "spender",
							"type": "address"
						}
					],
					"name": "ERC20InvalidSpender",
					"type": "error"
				},
				{
					"anonymous": false,
					"inputs": [
						{
							"indexed": true,
							"internalType": "address",
							"name": "owner",
							"type": "address"
						},
						{
							"indexed": true,
							"internalType": "address",
							"name": "spender",
							"type": "address"
						},
						{
							"indexed": false,
							"internalType": "uint256",
							"name": "value",
							"type": "uint256"
						}
					],
					"name": "Approval",
					"type": "event"
				},
				{
					"anonymous": false,
					"inputs": [
						{
							"indexed": true,
							"internalType": "address",
							"name": "sender",
							"type": "address"
						},
						{
							"indexed": false,
							"internalType": "uint256",
							"name": "amount0",
							"type": "uint256"
						},
						{
							"indexed": false,
							"internalType": "uint256",
							"name": "amount1",
							"type": "uint256"
						}
					],
					"name": "Burn",
					"type": "event"
				},
				{
					"anonymous": false,
					"inputs": [
						{
							"indexed": true,
							"internalType": "address",
							"name": "sender",
							"type": "address"
						},
						{
							"indexed": false,
							"internalType": "uint256",
							"name": "amount0",
							"type": "uint256"
						},
						{
							"indexed": false,
							"internalType": "uint256",
							"name": "amount1",
							"type": "uint256"
						}
					],
					"name": "Mint",
					"type": "event"
				},
				{
					"anonymous": false,
					"inputs": [
						{
							"indexed": true,
							"internalType": "address",
							"name": "sender",
							"type": "address"
						},
						{
							"indexed": false,
							"internalType": "uint256",
							"name": "amountIn",
							"type": "uint256"
						},
						{
							"indexed": false,
							"internalType": "address",
							"name": "tokenIn",
							"type": "address"
						},
						{
							"indexed": false,
							"internalType": "uint256",
							"name": "amountOut",
							"type": "uint256"
						},
						{
							"indexed": false,
							"internalType": "address",
							"name": "tokenOut",
							"type": "address"
						}
					],
					"name": "Swap",
					"type": "event"
				},
				{
					"anonymous": false,
					"inputs": [
						{
							"indexed": true,
							"internalType": "address",
							"name": "from",
							"type": "address"
						},
						{
							"indexed": true,
							"internalType": "address",
							"name": "to",
							"type": "address"
						},
						{
							"indexed": false,
							"internalType": "uint256",
							"name": "value",
							"type": "uint256"
						}
					],
					"name": "Transfer",
					"type": "event"
				},
				{
					"inputs": [
						{
							"internalType": "uint256",
							"name": "amount0Input",
							"type": "uint256"
						},
						{
							"internalType": "uint256",
							"name": "amount1Input",
							"type": "uint256"
						}
					],
					"name": "addLiquidity",
					"outputs": [
						{
							"internalType": "uint256",
							"name": "liquidity",
							"type": "uint256"
						}
					],
					"stateMutability": "nonpayable",
					"type": "function"
				},
				{
					"inputs": [
						{
							"internalType": "address",
							"name": "owner",
							"type": "address"
						},
						{
							"internalType": "address",
							"name": "spender",
							"type": "address"
						}
					],
					"name": "allowance",
					"outputs": [
						{
							"internalType": "uint256",
							"name": "",
							"type": "uint256"
						}
					],
					"stateMutability": "view",
					"type": "function"
				},
				{
					"inputs": [
						{
							"internalType": "address",
							"name": "spender",
							"type": "address"
						},
						{
							"internalType": "uint256",
							"name": "value",
							"type": "uint256"
						}
					],
					"name": "approve",
					"outputs": [
						{
							"internalType": "bool",
							"name": "",
							"type": "bool"
						}
					],
					"stateMutability": "nonpayable",
					"type": "function"
				},
				{
					"inputs": [
						{
							"internalType": "address",
							"name": "account",
							"type": "address"
						}
					],
					"name": "balanceOf",
					"outputs": [
						{
							"internalType": "uint256",
							"name": "",
							"type": "uint256"
						}
					],
					"stateMutability": "view",
					"type": "function"
				},
				{
					"inputs": [],
					"name": "decimals",
					"outputs": [
						{
							"internalType": "uint8",
							"name": "",
							"type": "uint8"
						}
					],
					"stateMutability": "view",
					"type": "function"
				},
				{
					"inputs": [
						{
							"internalType": "uint256",
							"name": "amountIn",
							"type": "uint256"
						},
						{
							"internalType": "uint256",
							"name": "reserveIn",
							"type": "uint256"
						},
						{
							"internalType": "uint256",
							"name": "reserveOut",
							"type": "uint256"
						}
					],
					"name": "getAmountOut",
					"outputs": [
						{
							"internalType": "uint256",
							"name": "amountOut",
							"type": "uint256"
						}
					],
					"stateMutability": "pure",
					"type": "function"
				},
				{
					"inputs": [],
					"name": "name",
					"outputs": [
						{
							"internalType": "string",
							"name": "",
							"type": "string"
						}
					],
					"stateMutability": "view",
					"type": "function"
				},
				{
					"inputs": [
						{
							"internalType": "uint256",
							"name": "liquidity",
							"type": "uint256"
						}
					],
					"name": "removeLiquidity",
					"outputs": [
						{
							"internalType": "uint256",
							"name": "amount0",
							"type": "uint256"
						},
						{
							"internalType": "uint256",
							"name": "amount1",
							"type": "uint256"
						}
					],
					"stateMutability": "nonpayable",
					"type": "function"
				},
				{
					"inputs": [],
					"name": "reserve0",
					"outputs": [
						{
							"internalType": "uint256",
							"name": "",
							"type": "uint256"
						}
					],
					"stateMutability": "view",
					"type": "function"
				},
				{
					"inputs": [],
					"name": "reserve1",
					"outputs": [
						{
							"internalType": "uint256",
							"name": "",
							"type": "uint256"
						}
					],
					"stateMutability": "view",
					"type": "function"
				},
				{
					"inputs": [
						{
							"internalType": "uint256",
							"name": "amountIn",
							"type": "uint256"
						},
						{
							"internalType": "contract IERC20",
							"name": "tokenIn",
							"type": "address"
						},
						{
							"internalType": "uint256",
							"name": "tokenOutMin",
							"type": "uint256"
						}
					],
					"name": "swap",
					"outputs": [
						{
							"internalType": "uint256",
							"name": "amountOut",
							"type": "uint256"
						},
						{
							"internalType": "contract IERC20",
							"name": "tokenOut",
							"type": "address"
						}
					],
					"stateMutability": "nonpayable",
					"type": "function"
				},
				{
					"inputs": [],
					"name": "symbol",
					"outputs": [
						{
							"internalType": "string",
							"name": "",
							"type": "string"
						}
					],
					"stateMutability": "view",
					"type": "function"
				},
				{
					"inputs": [],
					"name": "token0",
					"outputs": [
						{
							"internalType": "contract IERC20",
							"name": "",
							"type": "address"
						}
					],
					"stateMutability": "view",
					"type": "function"
				},
				{
					"inputs": [],
					"name": "token1",
					"outputs": [
						{
							"internalType": "contract IERC20",
							"name": "",
							"type": "address"
						}
					],
					"stateMutability": "view",
					"type": "function"
				},
				{
					"inputs": [],
					"name": "totalSupply",
					"outputs": [
						{
							"internalType": "uint256",
							"name": "",
							"type": "uint256"
						}
					],
					"stateMutability": "view",
					"type": "function"
				},
				{
					"inputs": [
						{
							"internalType": "address",
							"name": "to",
							"type": "address"
						},
						{
							"internalType": "uint256",
							"name": "value",
							"type": "uint256"
						}
					],
					"name": "transfer",
					"outputs": [
						{
							"internalType": "bool",
							"name": "",
							"type": "bool"
						}
					],
					"stateMutability": "nonpayable",
					"type": "function"
				},
				{
					"inputs": [
						{
							"internalType": "address",
							"name": "from",
							"type": "address"
						},
						{
							"internalType": "address",
							"name": "to",
							"type": "address"
						},
						{
							"internalType": "uint256",
							"name": "value",
							"type": "uint256"
						}
					],
					"name": "transferFrom",
					"outputs": [
						{
							"internalType": "bool",
							"name": "",
							"type": "bool"
						}
					],
					"stateMutability": "nonpayable",
					"type": "function"
				}
			],
			"devdoc": {
				"errors": {
					"ERC20InsufficientAllowance(address,uint256,uint256)": [
						{
							"details": "Indicates a failure with the `spender`’s `allowance`. Used in transfers.",
							"params": {
								"allowance": "Amount of tokens a `spender` is allowed to operate with.",
								"needed": "Minimum amount required to perform a transfer.",
								"spender": "Address that may be allowed to operate on tokens without being their owner."
							}
						}
					],
					"ERC20InsufficientBalance(address,uint256,uint256)": [
						{
							"details": "Indicates an error related to the current `balance` of a `sender`. Used in transfers.",
							"params": {
								"balance": "Current balance for the interacting account.",
								"needed": "Minimum amount required to perform a transfer.",
								"sender": "Address whose tokens are being transferred."
							}
						}
					],
					"ERC20InvalidApprover(address)": [
						{
							"details": "Indicates a failure with the `approver` of a token to be approved. Used in approvals.",
							"params": {
								"approver": "Address initiating an approval operation."
							}
						}
					],
					"ERC20InvalidReceiver(address)": [
						{
							"details": "Indicates a failure with the token `receiver`. Used in transfers.",
							"params": {
								"receiver": "Address to which tokens are being transferred."
							}
						}
					],
					"ERC20InvalidSender(address)": [
						{
							"details": "Indicates a failure with the token `sender`. Used in transfers.",
							"params": {
								"sender": "Address whose tokens are being transferred."
							}
						}
					],
					"ERC20InvalidSpender(address)": [
						{
							"details": "Indicates a failure with the `spender` to be approved. Used in approvals.",
							"params": {
								"spender": "Address that may be allowed to operate on tokens without being their owner."
							}
						}
					]
				},
				"events": {
					"Approval(address,address,uint256)": {
						"details": "Emitted when the allowance of a `spender` for an `owner` is set by a call to {approve}. `value` is the new allowance."
					},
					"Transfer(address,address,uint256)": {
						"details": "Emitted when `value` tokens are moved from one account (`from`) to another (`to`). Note that `value` may be zero."
					}
				},
				"kind": "dev",
				"methods": {
					"allowance(address,address)": {
						"details": "See {IERC20-allowance}."
					},
					"approve(address,uint256)": {
						"details": "See {IERC20-approve}. NOTE: If `value` is the maximum `uint256`, the allowance is not updated on `transferFrom`. This is semantically equivalent to an infinite approval. Requirements: - `spender` cannot be the zero address."
					},
					"balanceOf(address)": {
						"details": "See {IERC20-balanceOf}."
					},
					"decimals()": {
						"details": "Returns the number of decimals used to get its user representation. For example, if `decimals` equals `2`, a balance of `505` tokens should be displayed to a user as `5.05` (`505 / 10 ** 2`). Tokens usually opt for a value of 18, imitating the relationship between Ether and Wei. This is the default value returned by this function, unless it's overridden. NOTE: This information is only used for _display_ purposes: it in no way affects any of the arithmetic of the contract, including {IERC20-balanceOf} and {IERC20-transfer}."
					},
					"name()": {
						"details": "Returns the name of the token."
					},
					"symbol()": {
						"details": "Returns the symbol of the token, usually a shorter version of the name."
					},
					"totalSupply()": {
						"details": "See {IERC20-totalSupply}."
					},
					"transfer(address,uint256)": {
						"details": "See {IERC20-transfer}. Requirements: - `to` cannot be the zero address. - the caller must have a balance of at least `value`."
					},
					"transferFrom(address,address,uint256)": {
						"details": "See {IERC20-transferFrom}. Emits an {Approval} event indicating the updated allowance. This is not required by the EIP. See the note at the beginning of {ERC20}. NOTE: Does not update the allowance if the current allowance is the maximum `uint256`. Requirements: - `from` and `to` cannot be the zero address. - `from` must have a balance of at least `value`. - the caller must have allowance for ``from``'s tokens of at least `value`."
					}
				},
				"version": 1
			},
			"evm": {
				"assembly": "    /* \"contracts/t3_waa.sol\":432:5254  contract SimpleSwap is ERC20 {... */\n  mstore(0x40, 0x80)\n    /* \"contracts/t3_waa.sol\":667:798  constructor(IERC20 _token0, IERC20 _token1) ERC20(\"SimpleSwap\", \"SS\"){... */\n  callvalue\n  dup1\n  iszero\n  tag_1\n  jumpi\n  0x00\n  dup1\n  revert\ntag_1:\n  pop\n  mload(0x40)\n  sub(codesize, bytecodeSize)\n  dup1\n  bytecodeSize\n  dup4\n  codecopy\n  dup2\n  dup2\n  add\n  0x40\n  mstore\n  dup2\n  add\n  swap1\n  tag_2\n  swap2\n  swap1\n  tag_3\n  jump\t// in\ntag_2:\n    /* \"@openzeppelin/contracts/token/ERC20/ERC20.sol\":1896:2009  constructor(string memory name_, string memory symbol_) {... */\n  mload(0x40)\n  dup1\n  0x40\n  add\n  0x40\n  mstore\n  dup1\n  0x0a\n  dup2\n  mstore\n  0x20\n  add\n  0x53696d706c655377617000000000000000000000000000000000000000000000\n  dup2\n  mstore\n  pop\n  mload(0x40)\n  dup1\n  0x40\n  add\n  0x40\n  mstore\n  dup1\n  0x02\n  dup2\n  mstore\n  0x20\n  add\n  0x5353000000000000000000000000000000000000000000000000000000000000\n  dup2\n  mstore\n  pop\n    /* \"@openzeppelin/contracts/token/ERC20/ERC20.sol\":1970:1975  name_ */\n  dup2\n    /* \"@openzeppelin/contracts/token/ERC20/ERC20.sol\":1962:1967  _name */\n  0x03\n    /* \"@openzeppelin/contracts/token/ERC20/ERC20.sol\":1962:1975  _name = name_ */\n  swap1\n  dup2\n  tag_7\n  swap2\n  swap1\n  tag_8\n  jump\t// in\ntag_7:\n  pop\n    /* \"@openzeppelin/contracts/token/ERC20/ERC20.sol\":1995:2002  symbol_ */\n  dup1\n    /* \"@openzeppelin/contracts/token/ERC20/ERC20.sol\":1985:1992  _symbol */\n  0x04\n    /* \"@openzeppelin/contracts/token/ERC20/ERC20.sol\":1985:2002  _symbol = symbol_ */\n  swap1\n  dup2\n  tag_9\n  swap2\n  swap1\n  tag_8\n  jump\t// in\ntag_9:\n  pop\n    /* \"@openzeppelin/contracts/token/ERC20/ERC20.sol\":1896:2009  constructor(string memory name_, string memory symbol_) {... */\n  pop\n  pop\n    /* \"contracts/t3_waa.sol\":756:763  _token0 */\n  dup2\n    /* \"contracts/t3_waa.sol\":747:753  token0 */\n  0x05\n  0x00\n    /* \"contracts/t3_waa.sol\":747:763  token0 = _token0 */\n  0x0100\n  exp\n  dup2\n  sload\n  dup2\n  0xffffffffffffffffffffffffffffffffffffffff\n  mul\n  not\n  and\n  swap1\n  dup4\n  0xffffffffffffffffffffffffffffffffffffffff\n  and\n  mul\n  or\n  swap1\n  sstore\n  pop\n    /* \"contracts/t3_waa.sol\":783:790  _token1 */\n  dup1\n    /* \"contracts/t3_waa.sol\":774:780  token1 */\n  0x06\n  0x00\n    /* \"contracts/t3_waa.sol\":774:790  token1 = _token1 */\n  0x0100\n  exp\n  dup2\n  sload\n  dup2\n  0xffffffffffffffffffffffffffffffffffffffff\n  mul\n  not\n  and\n  swap1\n  dup4\n  0xffffffffffffffffffffffffffffffffffffffff\n  and\n  mul\n  or\n  swap1\n  sstore\n  pop\n    /* \"contracts/t3_waa.sol\":667:798  constructor(IERC20 _token0, IERC20 _token1) ERC20(\"SimpleSwap\", \"SS\"){... */\n  pop\n  pop\n    /* \"contracts/t3_waa.sol\":432:5254  contract SimpleSwap is ERC20 {... */\n  jump(tag_11)\n    /* \"#utility.yul\":88:205   */\ntag_13:\n    /* \"#utility.yul\":197:198   */\n  0x00\n    /* \"#utility.yul\":194:195   */\n  dup1\n    /* \"#utility.yul\":187:199   */\n  revert\n    /* \"#utility.yul\":334:460   */\ntag_15:\n    /* \"#utility.yul\":371:378   */\n  0x00\n    /* \"#utility.yul\":411:453   */\n  0xffffffffffffffffffffffffffffffffffffffff\n    /* \"#utility.yul\":404:409   */\n  dup3\n    /* \"#utility.yul\":400:454   */\n  and\n    /* \"#utility.yul\":389:454   */\n  swap1\n  pop\n    /* \"#utility.yul\":334:460   */\n  swap2\n  swap1\n  pop\n  jump\t// out\n    /* \"#utility.yul\":466:562   */\ntag_16:\n    /* \"#utility.yul\":503:510   */\n  0x00\n    /* \"#utility.yul\":532:556   */\n  tag_46\n    /* \"#utility.yul\":550:555   */\n  dup3\n    /* \"#utility.yul\":532:556   */\n  tag_15\n  jump\t// in\ntag_46:\n    /* \"#utility.yul\":521:556   */\n  swap1\n  pop\n    /* \"#utility.yul\":466:562   */\n  swap2\n  swap1\n  pop\n  jump\t// out\n    /* \"#utility.yul\":568:678   */\ntag_17:\n    /* \"#utility.yul\":619:626   */\n  0x00\n    /* \"#utility.yul\":648:672   */\n  tag_48\n    /* \"#utility.yul\":666:671   */\n  dup3\n    /* \"#utility.yul\":648:672   */\n  tag_16\n  jump\t// in\ntag_48:\n    /* \"#utility.yul\":637:672   */\n  swap1\n  pop\n    /* \"#utility.yul\":568:678   */\n  swap2\n  swap1\n  pop\n  jump\t// out\n    /* \"#utility.yul\":684:834   */\ntag_18:\n    /* \"#utility.yul\":771:809   */\n  tag_50\n    /* \"#utility.yul\":803:808   */\n  dup2\n    /* \"#utility.yul\":771:809   */\n  tag_17\n  jump\t// in\ntag_50:\n    /* \"#utility.yul\":764:769   */\n  dup2\n    /* \"#utility.yul\":761:810   */\n  eq\n    /* \"#utility.yul\":751:828   */\n  tag_51\n  jumpi\n    /* \"#utility.yul\":824:825   */\n  0x00\n    /* \"#utility.yul\":821:822   */\n  dup1\n    /* \"#utility.yul\":814:826   */\n  revert\n    /* \"#utility.yul\":751:828   */\ntag_51:\n    /* \"#utility.yul\":684:834   */\n  pop\n  jump\t// out\n    /* \"#utility.yul\":840:1011   */\ntag_19:\n    /* \"#utility.yul\":911:916   */\n  0x00\n    /* \"#utility.yul\":942:948   */\n  dup2\n    /* \"#utility.yul\":936:949   */\n  mload\n    /* \"#utility.yul\":927:949   */\n  swap1\n  pop\n    /* \"#utility.yul\":958:1005   */\n  tag_53\n    /* \"#utility.yul\":999:1004   */\n  dup2\n    /* \"#utility.yul\":958:1005   */\n  tag_18\n  jump\t// in\ntag_53:\n    /* \"#utility.yul\":840:1011   */\n  swap3\n  swap2\n  pop\n  pop\n  jump\t// out\n    /* \"#utility.yul\":1017:1580   */\ntag_3:\n    /* \"#utility.yul\":1124:1130   */\n  0x00\n    /* \"#utility.yul\":1132:1138   */\n  dup1\n    /* \"#utility.yul\":1181:1183   */\n  0x40\n    /* \"#utility.yul\":1169:1178   */\n  dup4\n    /* \"#utility.yul\":1160:1167   */\n  dup6\n    /* \"#utility.yul\":1156:1179   */\n  sub\n    /* \"#utility.yul\":1152:1184   */\n  slt\n    /* \"#utility.yul\":1149:1268   */\n  iszero\n  tag_55\n  jumpi\n    /* \"#utility.yul\":1187:1266   */\n  tag_56\n  tag_13\n  jump\t// in\ntag_56:\n    /* \"#utility.yul\":1149:1268   */\ntag_55:\n    /* \"#utility.yul\":1307:1308   */\n  0x00\n    /* \"#utility.yul\":1332:1410   */\n  tag_57\n    /* \"#utility.yul\":1402:1409   */\n  dup6\n    /* \"#utility.yul\":1393:1399   */\n  dup3\n    /* \"#utility.yul\":1382:1391   */\n  dup7\n    /* \"#utility.yul\":1378:1400   */\n  add\n    /* \"#utility.yul\":1332:1410   */\n  tag_19\n  jump\t// in\ntag_57:\n    /* \"#utility.yul\":1322:1410   */\n  swap3\n  pop\n    /* \"#utility.yul\":1278:1420   */\n  pop\n    /* \"#utility.yul\":1459:1461   */\n  0x20\n    /* \"#utility.yul\":1485:1563   */\n  tag_58\n    /* \"#utility.yul\":1555:1562   */\n  dup6\n    /* \"#utility.yul\":1546:1552   */\n  dup3\n    /* \"#utility.yul\":1535:1544   */\n  dup7\n    /* \"#utility.yul\":1531:1553   */\n  add\n    /* \"#utility.yul\":1485:1563   */\n  tag_19\n  jump\t// in\ntag_58:\n    /* \"#utility.yul\":1475:1563   */\n  swap2\n  pop\n    /* \"#utility.yul\":1430:1573   */\n  pop\n    /* \"#utility.yul\":1017:1580   */\n  swap3\n  pop\n  swap3\n  swap1\n  pop\n  jump\t// out\n    /* \"#utility.yul\":1586:1685   */\ntag_20:\n    /* \"#utility.yul\":1638:1644   */\n  0x00\n    /* \"#utility.yul\":1672:1677   */\n  dup2\n    /* \"#utility.yul\":1666:1678   */\n  mload\n    /* \"#utility.yul\":1656:1678   */\n  swap1\n  pop\n    /* \"#utility.yul\":1586:1685   */\n  swap2\n  swap1\n  pop\n  jump\t// out\n    /* \"#utility.yul\":1691:1871   */\ntag_21:\n    /* \"#utility.yul\":1739:1816   */\n  0x4e487b7100000000000000000000000000000000000000000000000000000000\n    /* \"#utility.yul\":1736:1737   */\n  0x00\n    /* \"#utility.yul\":1729:1817   */\n  mstore\n    /* \"#utility.yul\":1836:1840   */\n  0x41\n    /* \"#utility.yul\":1833:1834   */\n  0x04\n    /* \"#utility.yul\":1826:1841   */\n  mstore\n    /* \"#utility.yul\":1860:1864   */\n  0x24\n    /* \"#utility.yul\":1857:1858   */\n  0x00\n    /* \"#utility.yul\":1850:1865   */\n  revert\n    /* \"#utility.yul\":1877:2057   */\ntag_22:\n    /* \"#utility.yul\":1925:2002   */\n  0x4e487b7100000000000000000000000000000000000000000000000000000000\n    /* \"#utility.yul\":1922:1923   */\n  0x00\n    /* \"#utility.yul\":1915:2003   */\n  mstore\n    /* \"#utility.yul\":2022:2026   */\n  0x22\n    /* \"#utility.yul\":2019:2020   */\n  0x04\n    /* \"#utility.yul\":2012:2027   */\n  mstore\n    /* \"#utility.yul\":2046:2050   */\n  0x24\n    /* \"#utility.yul\":2043:2044   */\n  0x00\n    /* \"#utility.yul\":2036:2051   */\n  revert\n    /* \"#utility.yul\":2063:2383   */\ntag_23:\n    /* \"#utility.yul\":2107:2113   */\n  0x00\n    /* \"#utility.yul\":2144:2145   */\n  0x02\n    /* \"#utility.yul\":2138:2142   */\n  dup3\n    /* \"#utility.yul\":2134:2146   */\n  div\n    /* \"#utility.yul\":2124:2146   */\n  swap1\n  pop\n    /* \"#utility.yul\":2191:2192   */\n  0x01\n    /* \"#utility.yul\":2185:2189   */\n  dup3\n    /* \"#utility.yul\":2181:2193   */\n  and\n    /* \"#utility.yul\":2212:2230   */\n  dup1\n    /* \"#utility.yul\":2202:2283   */\n  tag_63\n  jumpi\n    /* \"#utility.yul\":2268:2272   */\n  0x7f\n    /* \"#utility.yul\":2260:2266   */\n  dup3\n    /* \"#utility.yul\":2256:2273   */\n  and\n    /* \"#utility.yul\":2246:2273   */\n  swap2\n  pop\n    /* \"#utility.yul\":2202:2283   */\ntag_63:\n    /* \"#utility.yul\":2330:2332   */\n  0x20\n    /* \"#utility.yul\":2322:2328   */\n  dup3\n    /* \"#utility.yul\":2319:2333   */\n  lt\n    /* \"#utility.yul\":2299:2317   */\n  dup2\n    /* \"#utility.yul\":2296:2334   */\n  sub\n    /* \"#utility.yul\":2293:2377   */\n  tag_64\n  jumpi\n    /* \"#utility.yul\":2349:2367   */\n  tag_65\n  tag_22\n  jump\t// in\ntag_65:\n    /* \"#utility.yul\":2293:2377   */\ntag_64:\n    /* \"#utility.yul\":2114:2383   */\n  pop\n    /* \"#utility.yul\":2063:2383   */\n  swap2\n  swap1\n  pop\n  jump\t// out\n    /* \"#utility.yul\":2389:2530   */\ntag_24:\n    /* \"#utility.yul\":2438:2442   */\n  0x00\n    /* \"#utility.yul\":2461:2464   */\n  dup2\n    /* \"#utility.yul\":2453:2464   */\n  swap1\n  pop\n    /* \"#utility.yul\":2484:2487   */\n  dup2\n    /* \"#utility.yul\":2481:2482   */\n  0x00\n    /* \"#utility.yul\":2474:2488   */\n  mstore\n    /* \"#utility.yul\":2518:2522   */\n  0x20\n    /* \"#utility.yul\":2515:2516   */\n  0x00\n    /* \"#utility.yul\":2505:2523   */\n  keccak256\n    /* \"#utility.yul\":2497:2523   */\n  swap1\n  pop\n    /* \"#utility.yul\":2389:2530   */\n  swap2\n  swap1\n  pop\n  jump\t// out\n    /* \"#utility.yul\":2536:2629   */\ntag_25:\n    /* \"#utility.yul\":2573:2579   */\n  0x00\n    /* \"#utility.yul\":2620:2622   */\n  0x20\n    /* \"#utility.yul\":2615:2617   */\n  0x1f\n    /* \"#utility.yul\":2608:2613   */\n  dup4\n    /* \"#utility.yul\":2604:2618   */\n  add\n    /* \"#utility.yul\":2600:2623   */\n  div\n    /* \"#utility.yul\":2590:2623   */\n  swap1\n  pop\n    /* \"#utility.yul\":2536:2629   */\n  swap2\n  swap1\n  pop\n  jump\t// out\n    /* \"#utility.yul\":2635:2742   */\ntag_26:\n    /* \"#utility.yul\":2679:2687   */\n  0x00\n    /* \"#utility.yul\":2729:2734   */\n  dup3\n    /* \"#utility.yul\":2723:2727   */\n  dup3\n    /* \"#utility.yul\":2719:2735   */\n  shl\n    /* \"#utility.yul\":2698:2735   */\n  swap1\n  pop\n    /* \"#utility.yul\":2635:2742   */\n  swap3\n  swap2\n  pop\n  pop\n  jump\t// out\n    /* \"#utility.yul\":2748:3141   */\ntag_27:\n    /* \"#utility.yul\":2817:2823   */\n  0x00\n    /* \"#utility.yul\":2867:2868   */\n  0x08\n    /* \"#utility.yul\":2855:2865   */\n  dup4\n    /* \"#utility.yul\":2851:2869   */\n  mul\n    /* \"#utility.yul\":2890:2987   */\n  tag_70\n    /* \"#utility.yul\":2920:2986   */\n  0xffffffffffffffffffffffffffffffffffffffffffffffffffffffffffffffff\n    /* \"#utility.yul\":2909:2918   */\n  dup3\n    /* \"#utility.yul\":2890:2987   */\n  tag_26\n  jump\t// in\ntag_70:\n    /* \"#utility.yul\":3008:3047   */\n  tag_71\n    /* \"#utility.yul\":3038:3046   */\n  dup7\n    /* \"#utility.yul\":3027:3036   */\n  dup4\n    /* \"#utility.yul\":3008:3047   */\n  tag_26\n  jump\t// in\ntag_71:\n    /* \"#utility.yul\":2996:3047   */\n  swap6\n  pop\n    /* \"#utility.yul\":3080:3084   */\n  dup1\n    /* \"#utility.yul\":3076:3085   */\n  not\n    /* \"#utility.yul\":3069:3074   */\n  dup5\n    /* \"#utility.yul\":3065:3086   */\n  and\n    /* \"#utility.yul\":3056:3086   */\n  swap4\n  pop\n    /* \"#utility.yul\":3129:3133   */\n  dup1\n    /* \"#utility.yul\":3119:3127   */\n  dup7\n    /* \"#utility.yul\":3115:3134   */\n  and\n    /* \"#utility.yul\":3108:3113   */\n  dup5\n    /* \"#utility.yul\":3105:3135   */\n  or\n    /* \"#utility.yul\":3095:3135   */\n  swap3\n  pop\n    /* \"#utility.yul\":2824:3141   */\n  pop\n  pop\n    /* \"#utility.yul\":2748:3141   */\n  swap4\n  swap3\n  pop\n  pop\n  pop\n  jump\t// out\n    /* \"#utility.yul\":3147:3224   */\ntag_28:\n    /* \"#utility.yul\":3184:3191   */\n  0x00\n    /* \"#utility.yul\":3213:3218   */\n  dup2\n    /* \"#utility.yul\":3202:3218   */\n  swap1\n  pop\n    /* \"#utility.yul\":3147:3224   */\n  swap2\n  swap1\n  pop\n  jump\t// out\n    /* \"#utility.yul\":3230:3290   */\ntag_29:\n    /* \"#utility.yul\":3258:3261   */\n  0x00\n    /* \"#utility.yul\":3279:3284   */\n  dup2\n    /* \"#utility.yul\":3272:3284   */\n  swap1\n  pop\n    /* \"#utility.yul\":3230:3290   */\n  swap2\n  swap1\n  pop\n  jump\t// out\n    /* \"#utility.yul\":3296:3438   */\ntag_30:\n    /* \"#utility.yul\":3346:3355   */\n  0x00\n    /* \"#utility.yul\":3379:3432   */\n  tag_75\n    /* \"#utility.yul\":3397:3431   */\n  tag_76\n    /* \"#utility.yul\":3406:3430   */\n  tag_77\n    /* \"#utility.yul\":3424:3429   */\n  dup5\n    /* \"#utility.yul\":3406:3430   */\n  tag_28\n  jump\t// in\ntag_77:\n    /* \"#utility.yul\":3397:3431   */\n  tag_29\n  jump\t// in\ntag_76:\n    /* \"#utility.yul\":3379:3432   */\n  tag_28\n  jump\t// in\ntag_75:\n    /* \"#utility.yul\":3366:3432   */\n  swap1\n  pop\n    /* \"#utility.yul\":3296:3438   */\n  swap2\n  swap1\n  pop\n  jump\t// out\n    /* \"#utility.yul\":3444:3519   */\ntag_31:\n    /* \"#utility.yul\":3487:3490   */\n  0x00\n    /* \"#utility.yul\":3508:3513   */\n  dup2\n    /* \"#utility.yul\":3501:3513   */\n  swap1\n  pop\n    /* \"#utility.yul\":3444:3519   */\n  swap2\n  swap1\n  pop\n  jump\t// out\n    /* \"#utility.yul\":3525:3794   */\ntag_32:\n    /* \"#utility.yul\":3635:3674   */\n  tag_80\n    /* \"#utility.yul\":3666:3673   */\n  dup4\n    /* \"#utility.yul\":3635:3674   */\n  tag_30\n  jump\t// in\ntag_80:\n    /* \"#utility.yul\":3696:3787   */\n  tag_81\n    /* \"#utility.yul\":3745:3786   */\n  tag_82\n    /* \"#utility.yul\":3769:3785   */\n  dup3\n    /* \"#utility.yul\":3745:3786   */\n  tag_31\n  jump\t// in\ntag_82:\n    /* \"#utility.yul\":3737:3743   */\n  dup5\n    /* \"#utility.yul\":3730:3734   */\n  dup5\n    /* \"#utility.yul\":3724:3735   */\n  sload\n    /* \"#utility.yul\":3696:3787   */\n  tag_27\n  jump\t// in\ntag_81:\n    /* \"#utility.yul\":3690:3694   */\n  dup3\n    /* \"#utility.yul\":3683:3788   */\n  sstore\n    /* \"#utility.yul\":3601:3794   */\n  pop\n    /* \"#utility.yul\":3525:3794   */\n  pop\n  pop\n  pop\n  jump\t// out\n    /* \"#utility.yul\":3800:3873   */\ntag_33:\n    /* \"#utility.yul\":3845:3848   */\n  0x00\n    /* \"#utility.yul\":3800:3873   */\n  swap1\n  jump\t// out\n    /* \"#utility.yul\":3879:4068   */\ntag_34:\n    /* \"#utility.yul\":3956:3988   */\n  tag_85\n  tag_33\n  jump\t// in\ntag_85:\n    /* \"#utility.yul\":3997:4062   */\n  tag_86\n    /* \"#utility.yul\":4055:4061   */\n  dup2\n    /* \"#utility.yul\":4047:4053   */\n  dup5\n    /* \"#utility.yul\":4041:4045   */\n  dup5\n    /* \"#utility.yul\":3997:4062   */\n  tag_32\n  jump\t// in\ntag_86:\n    /* \"#utility.yul\":3932:4068   */\n  pop\n    /* \"#utility.yul\":3879:4068   */\n  pop\n  pop\n  jump\t// out\n    /* \"#utility.yul\":4074:4260   */\ntag_35:\n    /* \"#utility.yul\":4134:4254   */\ntag_88:\n    /* \"#utility.yul\":4151:4154   */\n  dup2\n    /* \"#utility.yul\":4144:4149   */\n  dup2\n    /* \"#utility.yul\":4141:4155   */\n  lt\n    /* \"#utility.yul\":4134:4254   */\n  iszero\n  tag_90\n  jumpi\n    /* \"#utility.yul\":4205:4244   */\n  tag_91\n    /* \"#utility.yul\":4242:4243   */\n  0x00\n    /* \"#utility.yul\":4235:4240   */\n  dup3\n    /* \"#utility.yul\":4205:4244   */\n  tag_34\n  jump\t// in\ntag_91:\n    /* \"#utility.yul\":4178:4179   */\n  0x01\n    /* \"#utility.yul\":4171:4176   */\n  dup2\n    /* \"#utility.yul\":4167:4180   */\n  add\n    /* \"#utility.yul\":4158:4180   */\n  swap1\n  pop\n    /* \"#utility.yul\":4134:4254   */\n  jump(tag_88)\ntag_90:\n    /* \"#utility.yul\":4074:4260   */\n  pop\n  pop\n  jump\t// out\n    /* \"#utility.yul\":4266:4809   */\ntag_36:\n    /* \"#utility.yul\":4367:4369   */\n  0x1f\n    /* \"#utility.yul\":4362:4365   */\n  dup3\n    /* \"#utility.yul\":4359:4370   */\n  gt\n    /* \"#utility.yul\":4356:4802   */\n  iszero\n  tag_93\n  jumpi\n    /* \"#utility.yul\":4401:4439   */\n  tag_94\n    /* \"#utility.yul\":4433:4438   */\n  dup2\n    /* \"#utility.yul\":4401:4439   */\n  tag_24\n  jump\t// in\ntag_94:\n    /* \"#utility.yul\":4485:4514   */\n  tag_95\n    /* \"#utility.yul\":4503:4513   */\n  dup5\n    /* \"#utility.yul\":4485:4514   */\n  tag_25\n  jump\t// in\ntag_95:\n    /* \"#utility.yul\":4475:4483   */\n  dup2\n    /* \"#utility.yul\":4471:4515   */\n  add\n    /* \"#utility.yul\":4668:4670   */\n  0x20\n    /* \"#utility.yul\":4656:4666   */\n  dup6\n    /* \"#utility.yul\":4653:4671   */\n  lt\n    /* \"#utility.yul\":4650:4699   */\n  iszero\n  tag_96\n  jumpi\n    /* \"#utility.yul\":4689:4697   */\n  dup2\n    /* \"#utility.yul\":4674:4697   */\n  swap1\n  pop\n    /* \"#utility.yul\":4650:4699   */\ntag_96:\n    /* \"#utility.yul\":4712:4792   */\n  tag_97\n    /* \"#utility.yul\":4768:4790   */\n  tag_98\n    /* \"#utility.yul\":4786:4789   */\n  dup6\n    /* \"#utility.yul\":4768:4790   */\n  tag_25\n  jump\t// in\ntag_98:\n    /* \"#utility.yul\":4758:4766   */\n  dup4\n    /* \"#utility.yul\":4754:4791   */\n  add\n    /* \"#utility.yul\":4741:4752   */\n  dup3\n    /* \"#utility.yul\":4712:4792   */\n  tag_35\n  jump\t// in\ntag_97:\n    /* \"#utility.yul\":4371:4802   */\n  pop\n  pop\n    /* \"#utility.yul\":4356:4802   */\ntag_93:\n    /* \"#utility.yul\":4266:4809   */\n  pop\n  pop\n  pop\n  jump\t// out\n    /* \"#utility.yul\":4815:4932   */\ntag_37:\n    /* \"#utility.yul\":4869:4877   */\n  0x00\n    /* \"#utility.yul\":4919:4924   */\n  dup3\n    /* \"#utility.yul\":4913:4917   */\n  dup3\n    /* \"#utility.yul\":4909:4925   */\n  shr\n    /* \"#utility.yul\":4888:4925   */\n  swap1\n  pop\n    /* \"#utility.yul\":4815:4932   */\n  swap3\n  swap2\n  pop\n  pop\n  jump\t// out\n    /* \"#utility.yul\":4938:5107   */\ntag_38:\n    /* \"#utility.yul\":4982:4988   */\n  0x00\n    /* \"#utility.yul\":5015:5066   */\n  tag_101\n    /* \"#utility.yul\":5063:5064   */\n  0x00\n    /* \"#utility.yul\":5059:5065   */\n  not\n    /* \"#utility.yul\":5051:5056   */\n  dup5\n    /* \"#utility.yul\":5048:5049   */\n  0x08\n    /* \"#utility.yul\":5044:5057   */\n  mul\n    /* \"#utility.yul\":5015:5066   */\n  tag_37\n  jump\t// in\ntag_101:\n    /* \"#utility.yul\":5011:5067   */\n  not\n    /* \"#utility.yul\":5096:5100   */\n  dup1\n    /* \"#utility.yul\":5090:5094   */\n  dup4\n    /* \"#utility.yul\":5086:5101   */\n  and\n    /* \"#utility.yul\":5076:5101   */\n  swap2\n  pop\n    /* \"#utility.yul\":4989:5107   */\n  pop\n    /* \"#utility.yul\":4938:5107   */\n  swap3\n  swap2\n  pop\n  pop\n  jump\t// out\n    /* \"#utility.yul\":5112:5407   */\ntag_39:\n    /* \"#utility.yul\":5188:5192   */\n  0x00\n    /* \"#utility.yul\":5334:5363   */\n  tag_103\n    /* \"#utility.yul\":5359:5362   */\n  dup4\n    /* \"#utility.yul\":5353:5357   */\n  dup4\n    /* \"#utility.yul\":5334:5363   */\n  tag_38\n  jump\t// in\ntag_103:\n    /* \"#utility.yul\":5326:5363   */\n  swap2\n  pop\n    /* \"#utility.yul\":5396:5399   */\n  dup3\n    /* \"#utility.yul\":5393:5394   */\n  0x02\n    /* \"#utility.yul\":5389:5400   */\n  mul\n    /* \"#utility.yul\":5383:5387   */\n  dup3\n    /* \"#utility.yul\":5380:5401   */\n  or\n    /* \"#utility.yul\":5372:5401   */\n  swap1\n  pop\n    /* \"#utility.yul\":5112:5407   */\n  swap3\n  swap2\n  pop\n  pop\n  jump\t// out\n    /* \"#utility.yul\":5412:6807   */\ntag_8:\n    /* \"#utility.yul\":5529:5566   */\n  tag_105\n    /* \"#utility.yul\":5562:5565   */\n  dup3\n    /* \"#utility.yul\":5529:5566   */\n  tag_20\n  jump\t// in\ntag_105:\n    /* \"#utility.yul\":5631:5649   */\n  0xffffffffffffffff\n    /* \"#utility.yul\":5623:5629   */\n  dup2\n    /* \"#utility.yul\":5620:5650   */\n  gt\n    /* \"#utility.yul\":5617:5673   */\n  iszero\n  tag_106\n  jumpi\n    /* \"#utility.yul\":5653:5671   */\n  tag_107\n  tag_21\n  jump\t// in\ntag_107:\n    /* \"#utility.yul\":5617:5673   */\ntag_106:\n    /* \"#utility.yul\":5697:5735   */\n  tag_108\n    /* \"#utility.yul\":5729:5733   */\n  dup3\n    /* \"#utility.yul\":5723:5734   */\n  sload\n    /* \"#utility.yul\":5697:5735   */\n  tag_23\n  jump\t// in\ntag_108:\n    /* \"#utility.yul\":5782:5849   */\n  tag_109\n    /* \"#utility.yul\":5842:5848   */\n  dup3\n    /* \"#utility.yul\":5834:5840   */\n  dup3\n    /* \"#utility.yul\":5828:5832   */\n  dup6\n    /* \"#utility.yul\":5782:5849   */\n  tag_36\n  jump\t// in\ntag_109:\n    /* \"#utility.yul\":5876:5877   */\n  0x00\n    /* \"#utility.yul\":5900:5904   */\n  0x20\n    /* \"#utility.yul\":5887:5904   */\n  swap1\n  pop\n    /* \"#utility.yul\":5932:5934   */\n  0x1f\n    /* \"#utility.yul\":5924:5930   */\n  dup4\n    /* \"#utility.yul\":5921:5935   */\n  gt\n    /* \"#utility.yul\":5949:5950   */\n  0x01\n    /* \"#utility.yul\":5944:6562   */\n  dup2\n  eq\n  tag_111\n  jumpi\n    /* \"#utility.yul\":6606:6607   */\n  0x00\n    /* \"#utility.yul\":6623:6629   */\n  dup5\n    /* \"#utility.yul\":6620:6697   */\n  iszero\n  tag_112\n  jumpi\n    /* \"#utility.yul\":6672:6681   */\n  dup3\n    /* \"#utility.yul\":6667:6670   */\n  dup8\n    /* \"#utility.yul\":6663:6682   */\n  add\n    /* \"#utility.yul\":6657:6683   */\n  mload\n    /* \"#utility.yul\":6648:6683   */\n  swap1\n  pop\n    /* \"#utility.yul\":6620:6697   */\ntag_112:\n    /* \"#utility.yul\":6723:6790   */\n  tag_113\n    /* \"#utility.yul\":6783:6789   */\n  dup6\n    /* \"#utility.yul\":6776:6781   */\n  dup3\n    /* \"#utility.yul\":6723:6790   */\n  tag_39\n  jump\t// in\ntag_113:\n    /* \"#utility.yul\":6717:6721   */\n  dup7\n    /* \"#utility.yul\":6710:6791   */\n  sstore\n    /* \"#utility.yul\":6579:6801   */\n  pop\n    /* \"#utility.yul\":5914:6801   */\n  jump(tag_110)\n    /* \"#utility.yul\":5944:6562   */\ntag_111:\n    /* \"#utility.yul\":5996:6000   */\n  0x1f\n    /* \"#utility.yul\":5992:6001   */\n  not\n    /* \"#utility.yul\":5984:5990   */\n  dup5\n    /* \"#utility.yul\":5980:6002   */\n  and\n    /* \"#utility.yul\":6030:6067   */\n  tag_114\n    /* \"#utility.yul\":6062:6066   */\n  dup7\n    /* \"#utility.yul\":6030:6067   */\n  tag_24\n  jump\t// in\ntag_114:\n    /* \"#utility.yul\":6089:6090   */\n  0x00\n    /* \"#utility.yul\":6103:6311   */\ntag_115:\n    /* \"#utility.yul\":6117:6124   */\n  dup3\n    /* \"#utility.yul\":6114:6115   */\n  dup2\n    /* \"#utility.yul\":6111:6125   */\n  lt\n    /* \"#utility.yul\":6103:6311   */\n  iszero\n  tag_117\n  jumpi\n    /* \"#utility.yul\":6196:6205   */\n  dup5\n    /* \"#utility.yul\":6191:6194   */\n  dup10\n    /* \"#utility.yul\":6187:6206   */\n  add\n    /* \"#utility.yul\":6181:6207   */\n  mload\n    /* \"#utility.yul\":6173:6179   */\n  dup3\n    /* \"#utility.yul\":6166:6208   */\n  sstore\n    /* \"#utility.yul\":6247:6248   */\n  0x01\n    /* \"#utility.yul\":6239:6245   */\n  dup3\n    /* \"#utility.yul\":6235:6249   */\n  add\n    /* \"#utility.yul\":6225:6249   */\n  swap2\n  pop\n    /* \"#utility.yul\":6294:6296   */\n  0x20\n    /* \"#utility.yul\":6283:6292   */\n  dup6\n    /* \"#utility.yul\":6279:6297   */\n  add\n    /* \"#utility.yul\":6266:6297   */\n  swap5\n  pop\n    /* \"#utility.yul\":6140:6144   */\n  0x20\n    /* \"#utility.yul\":6137:6138   */\n  dup2\n    /* \"#utility.yul\":6133:6145   */\n  add\n    /* \"#utility.yul\":6128:6145   */\n  swap1\n  pop\n    /* \"#utility.yul\":6103:6311   */\n  jump(tag_115)\ntag_117:\n    /* \"#utility.yul\":6339:6345   */\n  dup7\n    /* \"#utility.yul\":6330:6337   */\n  dup4\n    /* \"#utility.yul\":6327:6346   */\n  lt\n    /* \"#utility.yul\":6324:6503   */\n  iszero\n  tag_118\n  jumpi\n    /* \"#utility.yul\":6397:6406   */\n  dup5\n    /* \"#utility.yul\":6392:6395   */\n  dup10\n    /* \"#utility.yul\":6388:6407   */\n  add\n    /* \"#utility.yul\":6382:6408   */\n  mload\n    /* \"#utility.yul\":6440:6488   */\n  tag_119\n    /* \"#utility.yul\":6482:6486   */\n  0x1f\n    /* \"#utility.yul\":6474:6480   */\n  dup10\n    /* \"#utility.yul\":6470:6487   */\n  and\n    /* \"#utility.yul\":6459:6468   */\n  dup3\n    /* \"#utility.yul\":6440:6488   */\n  tag_38\n  jump\t// in\ntag_119:\n    /* \"#utility.yul\":6432:6438   */\n  dup4\n    /* \"#utility.yul\":6425:6489   */\n  sstore\n    /* \"#utility.yul\":6347:6503   */\n  pop\n    /* \"#utility.yul\":6324:6503   */\ntag_118:\n    /* \"#utility.yul\":6549:6550   */\n  0x01\n    /* \"#utility.yul\":6545:6546   */\n  0x02\n    /* \"#utility.yul\":6537:6543   */\n  dup9\n    /* \"#utility.yul\":6533:6547   */\n  mul\n    /* \"#utility.yul\":6529:6551   */\n  add\n    /* \"#utility.yul\":6523:6527   */\n  dup9\n    /* \"#utility.yul\":6516:6552   */\n  sstore\n    /* \"#utility.yul\":5951:6562   */\n  pop\n  pop\n  pop\n    /* \"#utility.yul\":5914:6801   */\ntag_110:\n  pop\n    /* \"#utility.yul\":5504:6807   */\n  pop\n  pop\n  pop\n    /* \"#utility.yul\":5412:6807   */\n  pop\n  pop\n  jump\t// out\n    /* \"contracts/t3_waa.sol\":432:5254  contract SimpleSwap is ERC20 {... */\ntag_11:\n  dataSize(sub_0)\n  dup1\n  dataOffset(sub_0)\n  0x00\n  codecopy\n  0x00\n  return\nstop\n\nsub_0: assembly {\n        /* \"contracts/t3_waa.sol\":432:5254  contract SimpleSwap is ERC20 {... */\n      mstore(0x40, 0x80)\n      callvalue\n      dup1\n      iszero\n      tag_1\n      jumpi\n      0x00\n      dup1\n      revert\n    tag_1:\n      pop\n      jumpi(tag_2, lt(calldatasize, 0x04))\n      shr(0xe0, calldataload(0x00))\n      dup1\n      0x443cb4bc\n      gt\n      tag_20\n      jumpi\n      dup1\n      0x9c8f9f23\n      gt\n      tag_21\n      jumpi\n      dup1\n      0x9c8f9f23\n      eq\n      tag_15\n      jumpi\n      dup1\n      0x9cd441da\n      eq\n      tag_16\n      jumpi\n      dup1\n      0xa9059cbb\n      eq\n      tag_17\n      jumpi\n      dup1\n      0xd21220a7\n      eq\n      tag_18\n      jumpi\n      dup1\n      0xdd62ed3e\n      eq\n      tag_19\n      jumpi\n      jump(tag_2)\n    tag_21:\n      dup1\n      0x443cb4bc\n      eq\n      tag_11\n      jumpi\n      dup1\n      0x5a76f25e\n      eq\n      tag_12\n      jumpi\n      dup1\n      0x70a08231\n      eq\n      tag_13\n      jumpi\n      dup1\n      0x95d89b41\n      eq\n      tag_14\n      jumpi\n      jump(tag_2)\n    tag_20:\n      dup1\n      0x18160ddd\n      gt\n      tag_22\n      jumpi\n      dup1\n      0x18160ddd\n      eq\n      tag_7\n      jumpi\n      dup1\n      0x23b872dd\n      eq\n      tag_8\n      jumpi\n      dup1\n      0x313ce567\n      eq\n      tag_9\n      jumpi\n      dup1\n      0x43264349\n      eq\n      tag_10\n      jumpi\n      jump(tag_2)\n    tag_22:\n      dup1\n      0x054d50d4\n      eq\n      tag_3\n      jumpi\n      dup1\n      0x06fdde03\n      eq\n      tag_4\n      jumpi\n      dup1\n      0x095ea7b3\n      eq\n      tag_5\n      jumpi\n      dup1\n      0x0dfe1681\n      eq\n      tag_6\n      jumpi\n    tag_2:\n      0x00\n      dup1\n      revert\n        /* \"contracts/t3_waa.sol\":3107:3426  function getAmountOut(uint amountIn, uint reserveIn, uint reserveOut) public pure returns (uint amountOut) {... */\n    tag_3:\n      tag_23\n      0x04\n      dup1\n      calldatasize\n      sub\n      dup2\n      add\n      swap1\n      tag_24\n      swap2\n      swap1\n      tag_25\n      jump\t// in\n    tag_24:\n      tag_26\n      jump\t// in\n    tag_23:\n      mload(0x40)\n      tag_27\n      swap2\n      swap1\n      tag_28\n      jump\t// in\n    tag_27:\n      mload(0x40)\n      dup1\n      swap2\n      sub\n      swap1\n      return\n        /* \"@openzeppelin/contracts/token/ERC20/ERC20.sol\":2074:2163  function name() public view virtual returns (string memory) {... */\n    tag_4:\n      tag_29\n      tag_30\n      jump\t// in\n    tag_29:\n      mload(0x40)\n      tag_31\n      swap2\n      swap1\n      tag_32\n      jump\t// in\n    tag_31:\n      mload(0x40)\n      dup1\n      swap2\n      sub\n      swap1\n      return\n        /* \"@openzeppelin/contracts/token/ERC20/ERC20.sol\":4293:4479  function approve(address spender, uint256 value) public virtual returns (bool) {... */\n    tag_5:\n      tag_33\n      0x04\n      dup1\n      calldatasize\n      sub\n      dup2\n      add\n      swap1\n      tag_34\n      swap2\n      swap1\n      tag_35\n      jump\t// in\n    tag_34:\n      tag_36\n      jump\t// in\n    tag_33:\n      mload(0x40)\n      tag_37\n      swap2\n      swap1\n      tag_38\n      jump\t// in\n    tag_37:\n      mload(0x40)\n      dup1\n      swap2\n      sub\n      swap1\n      return\n        /* \"contracts/t3_waa.sol\":525:545  IERC20 public token0 */\n    tag_6:\n      tag_39\n      tag_40\n      jump\t// in\n    tag_39:\n      mload(0x40)\n      tag_41\n      swap2\n      swap1\n      tag_42\n      jump\t// in\n    tag_41:\n      mload(0x40)\n      dup1\n      swap2\n      sub\n      swap1\n      return\n        /* \"@openzeppelin/contracts/token/ERC20/ERC20.sol\":3144:3241  function totalSupply() public view virtual returns (uint256) {... */\n    tag_7:\n      tag_43\n      tag_44\n      jump\t// in\n    tag_43:\n      mload(0x40)\n      tag_45\n      swap2\n      swap1\n      tag_28\n      jump\t// in\n    tag_45:\n      mload(0x40)\n      dup1\n      swap2\n      sub\n      swap1\n      return\n        /* \"@openzeppelin/contracts/token/ERC20/ERC20.sol\":5039:5283  function transferFrom(address from, address to, uint256 value) public virtual returns (bool) {... */\n    tag_8:\n      tag_46\n      0x04\n      dup1\n      calldatasize\n      sub\n      dup2\n      add\n      swap1\n      tag_47\n      swap2\n      swap1\n      tag_48\n      jump\t// in\n    tag_47:\n      tag_49\n      jump\t// in\n    tag_46:\n      mload(0x40)\n      tag_50\n      swap2\n      swap1\n      tag_38\n      jump\t// in\n    tag_50:\n      mload(0x40)\n      dup1\n      swap2\n      sub\n      swap1\n      return\n        /* \"@openzeppelin/contracts/token/ERC20/ERC20.sol\":3002:3084  function decimals() public view virtual returns (uint8) {... */\n    tag_9:\n      tag_51\n      tag_52\n      jump\t// in\n    tag_51:\n      mload(0x40)\n      tag_53\n      swap2\n      swap1\n      tag_54\n      jump\t// in\n    tag_53:\n      mload(0x40)\n      dup1\n      swap2\n      sub\n      swap1\n      return\n        /* \"contracts/t3_waa.sol\":3550:4712  function swap(uint amountIn, IERC20 tokenIn, uint tokenOutMin) external returns (uint amountOut, IERC20 tokenOut) {... */\n    tag_10:\n      tag_55\n      0x04\n      dup1\n      calldatasize\n      sub\n      dup2\n      add\n      swap1\n      tag_56\n      swap2\n      swap1\n      tag_57\n      jump\t// in\n    tag_56:\n      tag_58\n      jump\t// in\n    tag_55:\n      mload(0x40)\n      tag_59\n      swap3\n      swap2\n      swap1\n      tag_60\n      jump\t// in\n    tag_59:\n      mload(0x40)\n      dup1\n      swap2\n      sub\n      swap1\n      return\n        /* \"contracts/t3_waa.sol\":611:631  uint public reserve0 */\n    tag_11:\n      tag_61\n      tag_62\n      jump\t// in\n    tag_61:\n      mload(0x40)\n      tag_63\n      swap2\n      swap1\n      tag_28\n      jump\t// in\n    tag_63:\n      mload(0x40)\n      dup1\n      swap2\n      sub\n      swap1\n      return\n        /* \"contracts/t3_waa.sol\":638:658  uint public reserve1 */\n    tag_12:\n      tag_64\n      tag_65\n      jump\t// in\n    tag_64:\n      mload(0x40)\n      tag_66\n      swap2\n      swap1\n      tag_28\n      jump\t// in\n    tag_66:\n      mload(0x40)\n      dup1\n      swap2\n      sub\n      swap1\n      return\n        /* \"@openzeppelin/contracts/token/ERC20/ERC20.sol\":3299:3415  function balanceOf(address account) public view virtual returns (uint256) {... */\n    tag_13:\n      tag_67\n      0x04\n      dup1\n      calldatasize\n      sub\n      dup2\n      add\n      swap1\n      tag_68\n      swap2\n      swap1\n      tag_69\n      jump\t// in\n    tag_68:\n      tag_70\n      jump\t// in\n    tag_67:\n      mload(0x40)\n      tag_71\n      swap2\n      swap1\n      tag_28\n      jump\t// in\n    tag_71:\n      mload(0x40)\n      dup1\n      swap2\n      sub\n      swap1\n      return\n        /* \"@openzeppelin/contracts/token/ERC20/ERC20.sol\":2276:2369  function symbol() public view virtual returns (string memory) {... */\n    tag_14:\n      tag_72\n      tag_73\n      jump\t// in\n    tag_72:\n      mload(0x40)\n      tag_74\n      swap2\n      swap1\n      tag_32\n      jump\t// in\n    tag_74:\n      mload(0x40)\n      dup1\n      swap2\n      sub\n      swap1\n      return\n        /* \"contracts/t3_waa.sol\":2160:3070  function removeLiquidity(uint liquidity) external  returns (uint amount0, uint amount1) {... */\n    tag_15:\n      tag_75\n      0x04\n      dup1\n      calldatasize\n      sub\n      dup2\n      add\n      swap1\n      tag_76\n      swap2\n      swap1\n      tag_77\n      jump\t// in\n    tag_76:\n      tag_78\n      jump\t// in\n    tag_75:\n      mload(0x40)\n      tag_79\n      swap3\n      swap2\n      swap1\n      tag_80\n      jump\t// in\n    tag_79:\n      mload(0x40)\n      dup1\n      swap2\n      sub\n      swap1\n      return\n        /* \"contracts/t3_waa.sol\":1022:1983  function addLiquidity(uint amount0Input, uint amount1Input) public returns(uint liquidity) {... */\n    tag_16:\n      tag_81\n      0x04\n      dup1\n      calldatasize\n      sub\n      dup2\n      add\n      swap1\n      tag_82\n      swap2\n      swap1\n      tag_83\n      jump\t// in\n    tag_82:\n      tag_84\n      jump\t// in\n    tag_81:\n      mload(0x40)\n      tag_85\n      swap2\n      swap1\n      tag_28\n      jump\t// in\n    tag_85:\n      mload(0x40)\n      dup1\n      swap2\n      sub\n      swap1\n      return\n        /* \"@openzeppelin/contracts/token/ERC20/ERC20.sol\":3610:3788  function transfer(address to, uint256 value) public virtual returns (bool) {... */\n    tag_17:\n      tag_86\n      0x04\n      dup1\n      calldatasize\n      sub\n      dup2\n      add\n      swap1\n      tag_87\n      swap2\n      swap1\n      tag_35\n      jump\t// in\n    tag_87:\n      tag_88\n      jump\t// in\n    tag_86:\n      mload(0x40)\n      tag_89\n      swap2\n      swap1\n      tag_38\n      jump\t// in\n    tag_89:\n      mload(0x40)\n      dup1\n      swap2\n      sub\n      swap1\n      return\n        /* \"contracts/t3_waa.sol\":552:572  IERC20 public token1 */\n    tag_18:\n      tag_90\n      tag_91\n      jump\t// in\n    tag_90:\n      mload(0x40)\n      tag_92\n      swap2\n      swap1\n      tag_42\n      jump\t// in\n    tag_92:\n      mload(0x40)\n      dup1\n      swap2\n      sub\n      swap1\n      return\n        /* \"@openzeppelin/contracts/token/ERC20/ERC20.sol\":3846:3986  function allowance(address owner, address spender) public view virtual returns (uint256) {... */\n    tag_19:\n      tag_93\n      0x04\n      dup1\n      calldatasize\n      sub\n      dup2\n      add\n      swap1\n      tag_94\n      swap2\n      swap1\n      tag_95\n      jump\t// in\n    tag_94:\n      tag_96\n      jump\t// in\n    tag_93:\n      mload(0x40)\n      tag_97\n      swap2\n      swap1\n      tag_28\n      jump\t// in\n    tag_97:\n      mload(0x40)\n      dup1\n      swap2\n      sub\n      swap1\n      return\n        /* \"contracts/t3_waa.sol\":3107:3426  function getAmountOut(uint amountIn, uint reserveIn, uint reserveOut) public pure returns (uint amountOut) {... */\n    tag_26:\n        /* \"contracts/t3_waa.sol\":3198:3212  uint amountOut */\n      0x00\n        /* \"contracts/t3_waa.sol\":3244:3245  0 */\n      dup1\n        /* \"contracts/t3_waa.sol\":3233:3241  amountIn */\n      dup5\n        /* \"contracts/t3_waa.sol\":3233:3245  amountIn > 0 */\n      gt\n        /* \"contracts/t3_waa.sol\":3225:3269  require(amountIn > 0, \"INSUFFICIENT_AMOUNT\") */\n      tag_99\n      jumpi\n      mload(0x40)\n      0x08c379a000000000000000000000000000000000000000000000000000000000\n      dup2\n      mstore\n      0x04\n      add\n      tag_100\n      swap1\n      tag_101\n      jump\t// in\n    tag_100:\n      mload(0x40)\n      dup1\n      swap2\n      sub\n      swap1\n      revert\n    tag_99:\n        /* \"contracts/t3_waa.sol\":3300:3301  0 */\n      0x00\n        /* \"contracts/t3_waa.sol\":3288:3297  reserveIn */\n      dup4\n        /* \"contracts/t3_waa.sol\":3288:3301  reserveIn > 0 */\n      gt\n        /* \"contracts/t3_waa.sol\":3288:3319  reserveIn > 0 && reserveOut > 0 */\n      dup1\n      iszero\n      tag_102\n      jumpi\n      pop\n        /* \"contracts/t3_waa.sol\":3318:3319  0 */\n      0x00\n        /* \"contracts/t3_waa.sol\":3305:3315  reserveOut */\n      dup3\n        /* \"contracts/t3_waa.sol\":3305:3319  reserveOut > 0 */\n      gt\n        /* \"contracts/t3_waa.sol\":3288:3319  reserveIn > 0 && reserveOut > 0 */\n    tag_102:\n        /* \"contracts/t3_waa.sol\":3280:3347  require(reserveIn > 0 && reserveOut > 0 , \"INSUFFICIENT_LIQUIDITY\") */\n      tag_103\n      jumpi\n      mload(0x40)\n      0x08c379a000000000000000000000000000000000000000000000000000000000\n      dup2\n      mstore\n      0x04\n      add\n      tag_104\n      swap1\n      tag_105\n      jump\t// in\n    tag_104:\n      mload(0x40)\n      dup1\n      swap2\n      sub\n      swap1\n      revert\n    tag_103:\n        /* \"contracts/t3_waa.sol\":3409:3417  amountIn */\n      dup4\n        /* \"contracts/t3_waa.sol\":3397:3406  reserveIn */\n      dup4\n        /* \"contracts/t3_waa.sol\":3397:3417  reserveIn + amountIn */\n      tag_106\n      swap2\n      swap1\n      tag_107\n      jump\t// in\n    tag_106:\n        /* \"contracts/t3_waa.sol\":3383:3393  reserveOut */\n      dup3\n        /* \"contracts/t3_waa.sol\":3372:3380  amountIn */\n      dup6\n        /* \"contracts/t3_waa.sol\":3372:3393  amountIn * reserveOut */\n      tag_108\n      swap2\n      swap1\n      tag_109\n      jump\t// in\n    tag_108:\n        /* \"contracts/t3_waa.sol\":3372:3418  amountIn * reserveOut / (reserveIn + amountIn) */\n      tag_110\n      swap2\n      swap1\n      tag_111\n      jump\t// in\n    tag_110:\n        /* \"contracts/t3_waa.sol\":3360:3418  amountOut = amountIn * reserveOut / (reserveIn + amountIn) */\n      swap1\n      pop\n        /* \"contracts/t3_waa.sol\":3107:3426  function getAmountOut(uint amountIn, uint reserveIn, uint reserveOut) public pure returns (uint amountOut) {... */\n      swap4\n      swap3\n      pop\n      pop\n      pop\n      jump\t// out\n        /* \"@openzeppelin/contracts/token/ERC20/ERC20.sol\":2074:2163  function name() public view virtual returns (string memory) {... */\n    tag_30:\n        /* \"@openzeppelin/contracts/token/ERC20/ERC20.sol\":2119:2132  string memory */\n      0x60\n        /* \"@openzeppelin/contracts/token/ERC20/ERC20.sol\":2151:2156  _name */\n      0x03\n        /* \"@openzeppelin/contracts/token/ERC20/ERC20.sol\":2144:2156  return _name */\n      dup1\n      sload\n      tag_113\n      swap1\n      tag_114\n      jump\t// in\n    tag_113:\n      dup1\n      0x1f\n      add\n      0x20\n      dup1\n      swap2\n      div\n      mul\n      0x20\n      add\n      mload(0x40)\n      swap1\n      dup2\n      add\n      0x40\n      mstore\n      dup1\n      swap3\n      swap2\n      swap1\n      dup2\n      dup2\n      mstore\n      0x20\n      add\n      dup3\n      dup1\n      sload\n      tag_115\n      swap1\n      tag_114\n      jump\t// in\n    tag_115:\n      dup1\n      iszero\n      tag_116\n      jumpi\n      dup1\n      0x1f\n      lt\n      tag_117\n      jumpi\n      0x0100\n      dup1\n      dup4\n      sload\n      div\n      mul\n      dup4\n      mstore\n      swap2\n      0x20\n      add\n      swap2\n      jump(tag_116)\n    tag_117:\n      dup3\n      add\n      swap2\n      swap1\n      0x00\n      mstore\n      keccak256(0x00, 0x20)\n      swap1\n    tag_118:\n      dup2\n      sload\n      dup2\n      mstore\n      swap1\n      0x01\n      add\n      swap1\n      0x20\n      add\n      dup1\n      dup4\n      gt\n      tag_118\n      jumpi\n      dup3\n      swap1\n      sub\n      0x1f\n      and\n      dup3\n      add\n      swap2\n    tag_116:\n      pop\n      pop\n      pop\n      pop\n      pop\n      swap1\n      pop\n        /* \"@openzeppelin/contracts/token/ERC20/ERC20.sol\":2074:2163  function name() public view virtual returns (string memory) {... */\n      swap1\n      jump\t// out\n        /* \"@openzeppelin/contracts/token/ERC20/ERC20.sol\":4293:4479  function approve(address spender, uint256 value) public virtual returns (bool) {... */\n    tag_36:\n        /* \"@openzeppelin/contracts/token/ERC20/ERC20.sol\":4366:4370  bool */\n      0x00\n        /* \"@openzeppelin/contracts/token/ERC20/ERC20.sol\":4382:4395  address owner */\n      dup1\n        /* \"@openzeppelin/contracts/token/ERC20/ERC20.sol\":4398:4410  _msgSender() */\n      tag_120\n        /* \"@openzeppelin/contracts/token/ERC20/ERC20.sol\":4398:4408  _msgSender */\n      tag_121\n        /* \"@openzeppelin/contracts/token/ERC20/ERC20.sol\":4398:4410  _msgSender() */\n      jump\t// in\n    tag_120:\n        /* \"@openzeppelin/contracts/token/ERC20/ERC20.sol\":4382:4410  address owner = _msgSender() */\n      swap1\n      pop\n        /* \"@openzeppelin/contracts/token/ERC20/ERC20.sol\":4420:4451  _approve(owner, spender, value) */\n      tag_122\n        /* \"@openzeppelin/contracts/token/ERC20/ERC20.sol\":4429:4434  owner */\n      dup2\n        /* \"@openzeppelin/contracts/token/ERC20/ERC20.sol\":4436:4443  spender */\n      dup6\n        /* \"@openzeppelin/contracts/token/ERC20/ERC20.sol\":4445:4450  value */\n      dup6\n        /* \"@openzeppelin/contracts/token/ERC20/ERC20.sol\":4420:4428  _approve */\n      tag_123\n        /* \"@openzeppelin/contracts/token/ERC20/ERC20.sol\":4420:4451  _approve(owner, spender, value) */\n      jump\t// in\n    tag_122:\n        /* \"@openzeppelin/contracts/token/ERC20/ERC20.sol\":4468:4472  true */\n      0x01\n        /* \"@openzeppelin/contracts/token/ERC20/ERC20.sol\":4461:4472  return true */\n      swap2\n      pop\n      pop\n        /* \"@openzeppelin/contracts/token/ERC20/ERC20.sol\":4293:4479  function approve(address spender, uint256 value) public virtual returns (bool) {... */\n      swap3\n      swap2\n      pop\n      pop\n      jump\t// out\n        /* \"contracts/t3_waa.sol\":525:545  IERC20 public token0 */\n    tag_40:\n      0x05\n      0x00\n      swap1\n      sload\n      swap1\n      0x0100\n      exp\n      swap1\n      div\n      0xffffffffffffffffffffffffffffffffffffffff\n      and\n      dup2\n      jump\t// out\n        /* \"@openzeppelin/contracts/token/ERC20/ERC20.sol\":3144:3241  function totalSupply() public view virtual returns (uint256) {... */\n    tag_44:\n        /* \"@openzeppelin/contracts/token/ERC20/ERC20.sol\":3196:3203  uint256 */\n      0x00\n        /* \"@openzeppelin/contracts/token/ERC20/ERC20.sol\":3222:3234  _totalSupply */\n      sload(0x02)\n        /* \"@openzeppelin/contracts/token/ERC20/ERC20.sol\":3215:3234  return _totalSupply */\n      swap1\n      pop\n        /* \"@openzeppelin/contracts/token/ERC20/ERC20.sol\":3144:3241  function totalSupply() public view virtual returns (uint256) {... */\n      swap1\n      jump\t// out\n        /* \"@openzeppelin/contracts/token/ERC20/ERC20.sol\":5039:5283  function transferFrom(address from, address to, uint256 value) public virtual returns (bool) {... */\n    tag_49:\n        /* \"@openzeppelin/contracts/token/ERC20/ERC20.sol\":5126:5130  bool */\n      0x00\n        /* \"@openzeppelin/contracts/token/ERC20/ERC20.sol\":5142:5157  address spender */\n      dup1\n        /* \"@openzeppelin/contracts/token/ERC20/ERC20.sol\":5160:5172  _msgSender() */\n      tag_126\n        /* \"@openzeppelin/contracts/token/ERC20/ERC20.sol\":5160:5170  _msgSender */\n      tag_121\n        /* \"@openzeppelin/contracts/token/ERC20/ERC20.sol\":5160:5172  _msgSender() */\n      jump\t// in\n    tag_126:\n        /* \"@openzeppelin/contracts/token/ERC20/ERC20.sol\":5142:5172  address spender = _msgSender() */\n      swap1\n      pop\n        /* \"@openzeppelin/contracts/token/ERC20/ERC20.sol\":5182:5219  _spendAllowance(from, spender, value) */\n      tag_127\n        /* \"@openzeppelin/contracts/token/ERC20/ERC20.sol\":5198:5202  from */\n      dup6\n        /* \"@openzeppelin/contracts/token/ERC20/ERC20.sol\":5204:5211  spender */\n      dup3\n        /* \"@openzeppelin/contracts/token/ERC20/ERC20.sol\":5213:5218  value */\n      dup6\n        /* \"@openzeppelin/contracts/token/ERC20/ERC20.sol\":5182:5197  _spendAllowance */\n      tag_128\n        /* \"@openzeppelin/contracts/token/ERC20/ERC20.sol\":5182:5219  _spendAllowance(from, spender, value) */\n      jump\t// in\n    tag_127:\n        /* \"@openzeppelin/contracts/token/ERC20/ERC20.sol\":5229:5255  _transfer(from, to, value) */\n      tag_129\n        /* \"@openzeppelin/contracts/token/ERC20/ERC20.sol\":5239:5243  from */\n      dup6\n        /* \"@openzeppelin/contracts/token/ERC20/ERC20.sol\":5245:5247  to */\n      dup6\n        /* \"@openzeppelin/contracts/token/ERC20/ERC20.sol\":5249:5254  value */\n      dup6\n        /* \"@openzeppelin/contracts/token/ERC20/ERC20.sol\":5229:5238  _transfer */\n      tag_130\n        /* \"@openzeppelin/contracts/token/ERC20/ERC20.sol\":5229:5255  _transfer(from, to, value) */\n      jump\t// in\n    tag_129:\n        /* \"@openzeppelin/contracts/token/ERC20/ERC20.sol\":5272:5276  true */\n      0x01\n        /* \"@openzeppelin/contracts/token/ERC20/ERC20.sol\":5265:5276  return true */\n      swap2\n      pop\n      pop\n        /* \"@openzeppelin/contracts/token/ERC20/ERC20.sol\":5039:5283  function transferFrom(address from, address to, uint256 value) public virtual returns (bool) {... */\n      swap4\n      swap3\n      pop\n      pop\n      pop\n      jump\t// out\n        /* \"@openzeppelin/contracts/token/ERC20/ERC20.sol\":3002:3084  function decimals() public view virtual returns (uint8) {... */\n    tag_52:\n        /* \"@openzeppelin/contracts/token/ERC20/ERC20.sol\":3051:3056  uint8 */\n      0x00\n        /* \"@openzeppelin/contracts/token/ERC20/ERC20.sol\":3075:3077  18 */\n      0x12\n        /* \"@openzeppelin/contracts/token/ERC20/ERC20.sol\":3068:3077  return 18 */\n      swap1\n      pop\n        /* \"@openzeppelin/contracts/token/ERC20/ERC20.sol\":3002:3084  function decimals() public view virtual returns (uint8) {... */\n      swap1\n      jump\t// out\n        /* \"contracts/t3_waa.sol\":3550:4712  function swap(uint amountIn, IERC20 tokenIn, uint tokenOutMin) external returns (uint amountOut, IERC20 tokenOut) {... */\n    tag_58:\n        /* \"contracts/t3_waa.sol\":3631:3645  uint amountOut */\n      0x00\n        /* \"contracts/t3_waa.sol\":3647:3662  IERC20 tokenOut */\n      dup1\n        /* \"contracts/t3_waa.sol\":3694:3695  0 */\n      0x00\n        /* \"contracts/t3_waa.sol\":3683:3691  amountIn */\n      dup6\n        /* \"contracts/t3_waa.sol\":3683:3695  amountIn > 0 */\n      gt\n        /* \"contracts/t3_waa.sol\":3675:3726  require(amountIn > 0, \"INSUFFICIENT_OUTPUT_AMOUNT\") */\n      tag_133\n      jumpi\n      mload(0x40)\n      0x08c379a000000000000000000000000000000000000000000000000000000000\n      dup2\n      mstore\n      0x04\n      add\n      tag_134\n      swap1\n      tag_135\n      jump\t// in\n    tag_134:\n      mload(0x40)\n      dup1\n      swap2\n      sub\n      swap1\n      revert\n    tag_133:\n        /* \"contracts/t3_waa.sol\":3756:3762  token0 */\n      0x05\n      0x00\n      swap1\n      sload\n      swap1\n      0x0100\n      exp\n      swap1\n      div\n      0xffffffffffffffffffffffffffffffffffffffff\n      and\n        /* \"contracts/t3_waa.sol\":3745:3762  tokenIn == token0 */\n      0xffffffffffffffffffffffffffffffffffffffff\n      and\n        /* \"contracts/t3_waa.sol\":3745:3752  tokenIn */\n      dup5\n        /* \"contracts/t3_waa.sol\":3745:3762  tokenIn == token0 */\n      0xffffffffffffffffffffffffffffffffffffffff\n      and\n      eq\n        /* \"contracts/t3_waa.sol\":3745:3783  tokenIn == token0 || tokenIn == token1 */\n      dup1\n      tag_136\n      jumpi\n      pop\n        /* \"contracts/t3_waa.sol\":3777:3783  token1 */\n      0x06\n      0x00\n      swap1\n      sload\n      swap1\n      0x0100\n      exp\n      swap1\n      div\n      0xffffffffffffffffffffffffffffffffffffffff\n      and\n        /* \"contracts/t3_waa.sol\":3766:3783  tokenIn == token1 */\n      0xffffffffffffffffffffffffffffffffffffffff\n      and\n        /* \"contracts/t3_waa.sol\":3766:3773  tokenIn */\n      dup5\n        /* \"contracts/t3_waa.sol\":3766:3783  tokenIn == token1 */\n      0xffffffffffffffffffffffffffffffffffffffff\n      and\n      eq\n        /* \"contracts/t3_waa.sol\":3745:3783  tokenIn == token0 || tokenIn == token1 */\n    tag_136:\n        /* \"contracts/t3_waa.sol\":3737:3801  require(tokenIn == token0 || tokenIn == token1, \"INVALID_TOKEN\") */\n      tag_137\n      jumpi\n      mload(0x40)\n      0x08c379a000000000000000000000000000000000000000000000000000000000\n      dup2\n      mstore\n      0x04\n      add\n      tag_138\n      swap1\n      tag_139\n      jump\t// in\n    tag_138:\n      mload(0x40)\n      dup1\n      swap2\n      sub\n      swap1\n      revert\n    tag_137:\n        /* \"contracts/t3_waa.sol\":3829:3835  token0 */\n      0x05\n      0x00\n      swap1\n      sload\n      swap1\n      0x0100\n      exp\n      swap1\n      div\n      0xffffffffffffffffffffffffffffffffffffffff\n      and\n        /* \"contracts/t3_waa.sol\":3818:3835  tokenIn == token0 */\n      0xffffffffffffffffffffffffffffffffffffffff\n      and\n        /* \"contracts/t3_waa.sol\":3818:3825  tokenIn */\n      dup5\n        /* \"contracts/t3_waa.sol\":3818:3835  tokenIn == token0 */\n      0xffffffffffffffffffffffffffffffffffffffff\n      and\n      sub\n        /* \"contracts/t3_waa.sol\":3814:4477  if (tokenIn == token0) {... */\n      tag_140\n      jumpi\n        /* \"contracts/t3_waa.sol\":3863:3869  token1 */\n      0x06\n      0x00\n      swap1\n      sload\n      swap1\n      0x0100\n      exp\n      swap1\n      div\n      0xffffffffffffffffffffffffffffffffffffffff\n      and\n        /* \"contracts/t3_waa.sol\":3852:3869  tokenOut = token1 */\n      swap1\n      pop\n        /* \"contracts/t3_waa.sol\":3896:3938  getAmountOut(amountIn, reserve0, reserve1) */\n      tag_141\n        /* \"contracts/t3_waa.sol\":3909:3917  amountIn */\n      dup6\n        /* \"contracts/t3_waa.sol\":3919:3927  reserve0 */\n      sload(0x07)\n        /* \"contracts/t3_waa.sol\":3929:3937  reserve1 */\n      sload(0x08)\n        /* \"contracts/t3_waa.sol\":3896:3908  getAmountOut */\n      tag_26\n        /* \"contracts/t3_waa.sol\":3896:3938  getAmountOut(amountIn, reserve0, reserve1) */\n      jump\t// in\n    tag_141:\n        /* \"contracts/t3_waa.sol\":3884:3938  amountOut = getAmountOut(amountIn, reserve0, reserve1) */\n      swap2\n      pop\n        /* \"contracts/t3_waa.sol\":3973:3984  tokenOutMin */\n      dup3\n        /* \"contracts/t3_waa.sol\":3961:3970  amountOut */\n      dup3\n        /* \"contracts/t3_waa.sol\":3961:3984  amountOut > tokenOutMin */\n      gt\n        /* \"contracts/t3_waa.sol\":3953:4015  require(amountOut > tokenOutMin, \"INSUFFICIENT_OUTPUT_AMOUNT\") */\n      tag_142\n      jumpi\n      mload(0x40)\n      0x08c379a000000000000000000000000000000000000000000000000000000000\n      dup2\n      mstore\n      0x04\n      add\n      tag_143\n      swap1\n      tag_135\n      jump\t// in\n    tag_143:\n      mload(0x40)\n      dup1\n      swap2\n      sub\n      swap1\n      revert\n    tag_142:\n        /* \"contracts/t3_waa.sol\":4030:4037  tokenIn */\n      dup4\n        /* \"contracts/t3_waa.sol\":4030:4050  tokenIn.transferFrom */\n      0xffffffffffffffffffffffffffffffffffffffff\n      and\n      0x23b872dd\n        /* \"contracts/t3_waa.sol\":4051:4061  msg.sender */\n      caller\n        /* \"contracts/t3_waa.sol\":4071:4075  this */\n      address\n        /* \"contracts/t3_waa.sol\":4078:4086  amountIn */\n      dup9\n        /* \"contracts/t3_waa.sol\":4030:4087  tokenIn.transferFrom(msg.sender, address(this), amountIn) */\n      mload(0x40)\n      dup5\n      0xffffffff\n      and\n      0xe0\n      shl\n      dup2\n      mstore\n      0x04\n      add\n      tag_144\n      swap4\n      swap3\n      swap2\n      swap1\n      tag_145\n      jump\t// in\n    tag_144:\n      0x20\n      mload(0x40)\n      dup1\n      dup4\n      sub\n      dup2\n      0x00\n      dup8\n      gas\n      call\n      iszero\n      dup1\n      iszero\n      tag_147\n      jumpi\n      returndatasize\n      0x00\n      dup1\n      returndatacopy\n      revert(0x00, returndatasize)\n    tag_147:\n      pop\n      pop\n      pop\n      pop\n      mload(0x40)\n      returndatasize\n      not(0x1f)\n      0x1f\n      dup3\n      add\n      and\n      dup3\n      add\n      dup1\n      0x40\n      mstore\n      pop\n      dup2\n      add\n      swap1\n      tag_148\n      swap2\n      swap1\n      tag_149\n      jump\t// in\n    tag_148:\n      pop\n        /* \"contracts/t3_waa.sol\":4102:4110  tokenOut */\n      dup1\n        /* \"contracts/t3_waa.sol\":4102:4119  tokenOut.transfer */\n      0xffffffffffffffffffffffffffffffffffffffff\n      and\n      0xa9059cbb\n        /* \"contracts/t3_waa.sol\":4120:4130  msg.sender */\n      caller\n        /* \"contracts/t3_waa.sol\":4132:4141  amountOut */\n      dup5\n        /* \"contracts/t3_waa.sol\":4102:4142  tokenOut.transfer(msg.sender, amountOut) */\n      mload(0x40)\n      dup4\n      0xffffffff\n      and\n      0xe0\n      shl\n      dup2\n      mstore\n      0x04\n      add\n      tag_150\n      swap3\n      swap2\n      swap1\n      tag_151\n      jump\t// in\n    tag_150:\n      0x20\n      mload(0x40)\n      dup1\n      dup4\n      sub\n      dup2\n      0x00\n      dup8\n      gas\n      call\n      iszero\n      dup1\n      iszero\n      tag_153\n      jumpi\n      returndatasize\n      0x00\n      dup1\n      returndatacopy\n      revert(0x00, returndatasize)\n    tag_153:\n      pop\n      pop\n      pop\n      pop\n      mload(0x40)\n      returndatasize\n      not(0x1f)\n      0x1f\n      dup3\n      add\n      and\n      dup3\n      add\n      dup1\n      0x40\n      mstore\n      pop\n      dup2\n      add\n      swap1\n      tag_154\n      swap2\n      swap1\n      tag_149\n      jump\t// in\n    tag_154:\n      pop\n        /* \"contracts/t3_waa.sol\":3814:4477  if (tokenIn == token0) {... */\n      jump(tag_155)\n    tag_140:\n        /* \"contracts/t3_waa.sol\":4186:4192  token0 */\n      0x05\n      0x00\n      swap1\n      sload\n      swap1\n      0x0100\n      exp\n      swap1\n      div\n      0xffffffffffffffffffffffffffffffffffffffff\n      and\n        /* \"contracts/t3_waa.sol\":4175:4192  tokenOut = token0 */\n      swap1\n      pop\n        /* \"contracts/t3_waa.sol\":4219:4261  getAmountOut(amountIn, reserve1, reserve0) */\n      tag_156\n        /* \"contracts/t3_waa.sol\":4232:4240  amountIn */\n      dup6\n        /* \"contracts/t3_waa.sol\":4242:4250  reserve1 */\n      sload(0x08)\n        /* \"contracts/t3_waa.sol\":4252:4260  reserve0 */\n      sload(0x07)\n        /* \"contracts/t3_waa.sol\":4219:4231  getAmountOut */\n      tag_26\n        /* \"contracts/t3_waa.sol\":4219:4261  getAmountOut(amountIn, reserve1, reserve0) */\n      jump\t// in\n    tag_156:\n        /* \"contracts/t3_waa.sol\":4207:4261  amountOut = getAmountOut(amountIn, reserve1, reserve0) */\n      swap2\n      pop\n        /* \"contracts/t3_waa.sol\":4296:4307  tokenOutMin */\n      dup3\n        /* \"contracts/t3_waa.sol\":4284:4293  amountOut */\n      dup3\n        /* \"contracts/t3_waa.sol\":4284:4307  amountOut > tokenOutMin */\n      gt\n        /* \"contracts/t3_waa.sol\":4276:4338  require(amountOut > tokenOutMin, \"INSUFFICIENT_OUTPUT_AMOUNT\") */\n      tag_157\n      jumpi\n      mload(0x40)\n      0x08c379a000000000000000000000000000000000000000000000000000000000\n      dup2\n      mstore\n      0x04\n      add\n      tag_158\n      swap1\n      tag_135\n      jump\t// in\n    tag_158:\n      mload(0x40)\n      dup1\n      swap2\n      sub\n      swap1\n      revert\n    tag_157:\n        /* \"contracts/t3_waa.sol\":4353:4360  tokenIn */\n      dup4\n        /* \"contracts/t3_waa.sol\":4353:4373  tokenIn.transferFrom */\n      0xffffffffffffffffffffffffffffffffffffffff\n      and\n      0x23b872dd\n        /* \"contracts/t3_waa.sol\":4374:4384  msg.sender */\n      caller\n        /* \"contracts/t3_waa.sol\":4394:4398  this */\n      address\n        /* \"contracts/t3_waa.sol\":4401:4409  amountIn */\n      dup9\n        /* \"contracts/t3_waa.sol\":4353:4410  tokenIn.transferFrom(msg.sender, address(this), amountIn) */\n      mload(0x40)\n      dup5\n      0xffffffff\n      and\n      0xe0\n      shl\n      dup2\n      mstore\n      0x04\n      add\n      tag_159\n      swap4\n      swap3\n      swap2\n      swap1\n      tag_145\n      jump\t// in\n    tag_159:\n      0x20\n      mload(0x40)\n      dup1\n      dup4\n      sub\n      dup2\n      0x00\n      dup8\n      gas\n      call\n      iszero\n      dup1\n      iszero\n      tag_161\n      jumpi\n      returndatasize\n      0x00\n      dup1\n      returndatacopy\n      revert(0x00, returndatasize)\n    tag_161:\n      pop\n      pop\n      pop\n      pop\n      mload(0x40)\n      returndatasize\n      not(0x1f)\n      0x1f\n      dup3\n      add\n      and\n      dup3\n      add\n      dup1\n      0x40\n      mstore\n      pop\n      dup2\n      add\n      swap1\n      tag_162\n      swap2\n      swap1\n      tag_149\n      jump\t// in\n    tag_162:\n      pop\n        /* \"contracts/t3_waa.sol\":4425:4433  tokenOut */\n      dup1\n        /* \"contracts/t3_waa.sol\":4425:4442  tokenOut.transfer */\n      0xffffffffffffffffffffffffffffffffffffffff\n      and\n      0xa9059cbb\n        /* \"contracts/t3_waa.sol\":4443:4453  msg.sender */\n      caller\n        /* \"contracts/t3_waa.sol\":4455:4464  amountOut */\n      dup5\n        /* \"contracts/t3_waa.sol\":4425:4465  tokenOut.transfer(msg.sender, amountOut) */\n      mload(0x40)\n      dup4\n      0xffffffff\n      and\n      0xe0\n      shl\n      dup2\n      mstore\n      0x04\n      add\n      tag_163\n      swap3\n      swap2\n      swap1\n      tag_151\n      jump\t// in\n    tag_163:\n      0x20\n      mload(0x40)\n      dup1\n      dup4\n      sub\n      dup2\n      0x00\n      dup8\n      gas\n      call\n      iszero\n      dup1\n      iszero\n      tag_165\n      jumpi\n      returndatasize\n      0x00\n      dup1\n      returndatacopy\n      revert(0x00, returndatasize)\n    tag_165:\n      pop\n      pop\n      pop\n      pop\n      mload(0x40)\n      returndatasize\n      not(0x1f)\n      0x1f\n      dup3\n      add\n      and\n      dup3\n      add\n      dup1\n      0x40\n      mstore\n      pop\n      dup2\n      add\n      swap1\n      tag_166\n      swap2\n      swap1\n      tag_149\n      jump\t// in\n    tag_166:\n      pop\n        /* \"contracts/t3_waa.sol\":3814:4477  if (tokenIn == token0) {... */\n    tag_155:\n        /* \"contracts/t3_waa.sol\":4528:4534  token0 */\n      0x05\n      0x00\n      swap1\n      sload\n      swap1\n      0x0100\n      exp\n      swap1\n      div\n      0xffffffffffffffffffffffffffffffffffffffff\n      and\n        /* \"contracts/t3_waa.sol\":4528:4544  token0.balanceOf */\n      0xffffffffffffffffffffffffffffffffffffffff\n      and\n      0x70a08231\n        /* \"contracts/t3_waa.sol\":4553:4557  this */\n      address\n        /* \"contracts/t3_waa.sol\":4528:4559  token0.balanceOf(address(this)) */\n      mload(0x40)\n      dup3\n      0xffffffff\n      and\n      0xe0\n      shl\n      dup2\n      mstore\n      0x04\n      add\n      tag_167\n      swap2\n      swap1\n      tag_168\n      jump\t// in\n    tag_167:\n      0x20\n      mload(0x40)\n      dup1\n      dup4\n      sub\n      dup2\n      dup7\n      gas\n      staticcall\n      iszero\n      dup1\n      iszero\n      tag_170\n      jumpi\n      returndatasize\n      0x00\n      dup1\n      returndatacopy\n      revert(0x00, returndatasize)\n    tag_170:\n      pop\n      pop\n      pop\n      pop\n      mload(0x40)\n      returndatasize\n      not(0x1f)\n      0x1f\n      dup3\n      add\n      and\n      dup3\n      add\n      dup1\n      0x40\n      mstore\n      pop\n      dup2\n      add\n      swap1\n      tag_171\n      swap2\n      swap1\n      tag_172\n      jump\t// in\n    tag_171:\n        /* \"contracts/t3_waa.sol\":4517:4525  reserve0 */\n      0x07\n        /* \"contracts/t3_waa.sol\":4517:4559  reserve0 = token0.balanceOf(address(this)) */\n      dup2\n      swap1\n      sstore\n      pop\n        /* \"contracts/t3_waa.sol\":4581:4587  token1 */\n      0x06\n      0x00\n      swap1\n      sload\n      swap1\n      0x0100\n      exp\n      swap1\n      div\n      0xffffffffffffffffffffffffffffffffffffffff\n      and\n        /* \"contracts/t3_waa.sol\":4581:4597  token1.balanceOf */\n      0xffffffffffffffffffffffffffffffffffffffff\n      and\n      0x70a08231\n        /* \"contracts/t3_waa.sol\":4606:4610  this */\n      address\n        /* \"contracts/t3_waa.sol\":4581:4612  token1.balanceOf(address(this)) */\n      mload(0x40)\n      dup3\n      0xffffffff\n      and\n      0xe0\n      shl\n      dup2\n      mstore\n      0x04\n      add\n      tag_173\n      swap2\n      swap1\n      tag_168\n      jump\t// in\n    tag_173:\n      0x20\n      mload(0x40)\n      dup1\n      dup4\n      sub\n      dup2\n      dup7\n      gas\n      staticcall\n      iszero\n      dup1\n      iszero\n      tag_175\n      jumpi\n      returndatasize\n      0x00\n      dup1\n      returndatacopy\n      revert(0x00, returndatasize)\n    tag_175:\n      pop\n      pop\n      pop\n      pop\n      mload(0x40)\n      returndatasize\n      not(0x1f)\n      0x1f\n      dup3\n      add\n      and\n      dup3\n      add\n      dup1\n      0x40\n      mstore\n      pop\n      dup2\n      add\n      swap1\n      tag_176\n      swap2\n      swap1\n      tag_172\n      jump\t// in\n    tag_176:\n        /* \"contracts/t3_waa.sol\":4570:4578  reserve1 */\n      0x08\n        /* \"contracts/t3_waa.sol\":4570:4612  reserve1 = token1.balanceOf(address(this)) */\n      dup2\n      swap1\n      sstore\n      pop\n        /* \"contracts/t3_waa.sol\":4635:4645  msg.sender */\n      caller\n        /* \"contracts/t3_waa.sol\":4630:4704  Swap(msg.sender, amountIn, address(tokenIn), amountOut, address(tokenOut)) */\n      0xffffffffffffffffffffffffffffffffffffffff\n      and\n      0x24043855bfbfea0ccea141e5a73d7116bf0bfe083ea900a791f4b407ff03e525\n        /* \"contracts/t3_waa.sol\":4647:4655  amountIn */\n      dup7\n        /* \"contracts/t3_waa.sol\":4665:4672  tokenIn */\n      dup7\n        /* \"contracts/t3_waa.sol\":4675:4684  amountOut */\n      dup6\n        /* \"contracts/t3_waa.sol\":4694:4702  tokenOut */\n      dup6\n        /* \"contracts/t3_waa.sol\":4630:4704  Swap(msg.sender, amountIn, address(tokenIn), amountOut, address(tokenOut)) */\n      mload(0x40)\n      tag_177\n      swap5\n      swap4\n      swap3\n      swap2\n      swap1\n      tag_178\n      jump\t// in\n    tag_177:\n      mload(0x40)\n      dup1\n      swap2\n      sub\n      swap1\n      log2\n        /* \"contracts/t3_waa.sol\":3550:4712  function swap(uint amountIn, IERC20 tokenIn, uint tokenOutMin) external returns (uint amountOut, IERC20 tokenOut) {... */\n      swap4\n      pop\n      swap4\n      swap2\n      pop\n      pop\n      jump\t// out\n        /* \"contracts/t3_waa.sol\":611:631  uint public reserve0 */\n    tag_62:\n      sload(0x07)\n      dup2\n      jump\t// out\n        /* \"contracts/t3_waa.sol\":638:658  uint public reserve1 */\n    tag_65:\n      sload(0x08)\n      dup2\n      jump\t// out\n        /* \"@openzeppelin/contracts/token/ERC20/ERC20.sol\":3299:3415  function balanceOf(address account) public view virtual returns (uint256) {... */\n    tag_70:\n        /* \"@openzeppelin/contracts/token/ERC20/ERC20.sol\":3364:3371  uint256 */\n      0x00\n        /* \"@openzeppelin/contracts/token/ERC20/ERC20.sol\":3390:3399  _balances */\n      dup1\n        /* \"@openzeppelin/contracts/token/ERC20/ERC20.sol\":3390:3408  _balances[account] */\n      0x00\n        /* \"@openzeppelin/contracts/token/ERC20/ERC20.sol\":3400:3407  account */\n      dup4\n        /* \"@openzeppelin/contracts/token/ERC20/ERC20.sol\":3390:3408  _balances[account] */\n      0xffffffffffffffffffffffffffffffffffffffff\n      and\n      0xffffffffffffffffffffffffffffffffffffffff\n      and\n      dup2\n      mstore\n      0x20\n      add\n      swap1\n      dup2\n      mstore\n      0x20\n      add\n      0x00\n      keccak256\n      sload\n        /* \"@openzeppelin/contracts/token/ERC20/ERC20.sol\":3383:3408  return _balances[account] */\n      swap1\n      pop\n        /* \"@openzeppelin/contracts/token/ERC20/ERC20.sol\":3299:3415  function balanceOf(address account) public view virtual returns (uint256) {... */\n      swap2\n      swap1\n      pop\n      jump\t// out\n        /* \"@openzeppelin/contracts/token/ERC20/ERC20.sol\":2276:2369  function symbol() public view virtual returns (string memory) {... */\n    tag_73:\n        /* \"@openzeppelin/contracts/token/ERC20/ERC20.sol\":2323:2336  string memory */\n      0x60\n        /* \"@openzeppelin/contracts/token/ERC20/ERC20.sol\":2355:2362  _symbol */\n      0x04\n        /* \"@openzeppelin/contracts/token/ERC20/ERC20.sol\":2348:2362  return _symbol */\n      dup1\n      sload\n      tag_181\n      swap1\n      tag_114\n      jump\t// in\n    tag_181:\n      dup1\n      0x1f\n      add\n      0x20\n      dup1\n      swap2\n      div\n      mul\n      0x20\n      add\n      mload(0x40)\n      swap1\n      dup2\n      add\n      0x40\n      mstore\n      dup1\n      swap3\n      swap2\n      swap1\n      dup2\n      dup2\n      mstore\n      0x20\n      add\n      dup3\n      dup1\n      sload\n      tag_182\n      swap1\n      tag_114\n      jump\t// in\n    tag_182:\n      dup1\n      iszero\n      tag_183\n      jumpi\n      dup1\n      0x1f\n      lt\n      tag_184\n      jumpi\n      0x0100\n      dup1\n      dup4\n      sload\n      div\n      mul\n      dup4\n      mstore\n      swap2\n      0x20\n      add\n      swap2\n      jump(tag_183)\n    tag_184:\n      dup3\n      add\n      swap2\n      swap1\n      0x00\n      mstore\n      keccak256(0x00, 0x20)\n      swap1\n    tag_185:\n      dup2\n      sload\n      dup2\n      mstore\n      swap1\n      0x01\n      add\n      swap1\n      0x20\n      add\n      dup1\n      dup4\n      gt\n      tag_185\n      jumpi\n      dup3\n      swap1\n      sub\n      0x1f\n      and\n      dup3\n      add\n      swap2\n    tag_183:\n      pop\n      pop\n      pop\n      pop\n      pop\n      swap1\n      pop\n        /* \"@openzeppelin/contracts/token/ERC20/ERC20.sol\":2276:2369  function symbol() public view virtual returns (string memory) {... */\n      swap1\n      jump\t// out\n        /* \"contracts/t3_waa.sol\":2160:3070  function removeLiquidity(uint liquidity) external  returns (uint amount0, uint amount1) {... */\n    tag_78:\n        /* \"contracts/t3_waa.sol\":2220:2232  uint amount0 */\n      0x00\n        /* \"contracts/t3_waa.sol\":2234:2246  uint amount1 */\n      dup1\n        /* \"contracts/t3_waa.sol\":2308:2322  uint _balance0 */\n      0x00\n        /* \"contracts/t3_waa.sol\":2325:2331  token0 */\n      0x05\n      0x00\n      swap1\n      sload\n      swap1\n      0x0100\n      exp\n      swap1\n      div\n      0xffffffffffffffffffffffffffffffffffffffff\n      and\n        /* \"contracts/t3_waa.sol\":2325:2341  token0.balanceOf */\n      0xffffffffffffffffffffffffffffffffffffffff\n      and\n      0x70a08231\n        /* \"contracts/t3_waa.sol\":2350:2354  this */\n      address\n        /* \"contracts/t3_waa.sol\":2325:2356  token0.balanceOf(address(this)) */\n      mload(0x40)\n      dup3\n      0xffffffff\n      and\n      0xe0\n      shl\n      dup2\n      mstore\n      0x04\n      add\n      tag_187\n      swap2\n      swap1\n      tag_168\n      jump\t// in\n    tag_187:\n      0x20\n      mload(0x40)\n      dup1\n      dup4\n      sub\n      dup2\n      dup7\n      gas\n      staticcall\n      iszero\n      dup1\n      iszero\n      tag_189\n      jumpi\n      returndatasize\n      0x00\n      dup1\n      returndatacopy\n      revert(0x00, returndatasize)\n    tag_189:\n      pop\n      pop\n      pop\n      pop\n      mload(0x40)\n      returndatasize\n      not(0x1f)\n      0x1f\n      dup3\n      add\n      and\n      dup3\n      add\n      dup1\n      0x40\n      mstore\n      pop\n      dup2\n      add\n      swap1\n      tag_190\n      swap2\n      swap1\n      tag_172\n      jump\t// in\n    tag_190:\n        /* \"contracts/t3_waa.sol\":2308:2356  uint _balance0 = token0.balanceOf(address(this)) */\n      swap1\n      pop\n        /* \"contracts/t3_waa.sol\":2367:2381  uint _balance1 */\n      0x00\n        /* \"contracts/t3_waa.sol\":2384:2390  token1 */\n      0x06\n      0x00\n      swap1\n      sload\n      swap1\n      0x0100\n      exp\n      swap1\n      div\n      0xffffffffffffffffffffffffffffffffffffffff\n      and\n        /* \"contracts/t3_waa.sol\":2384:2400  token1.balanceOf */\n      0xffffffffffffffffffffffffffffffffffffffff\n      and\n      0x70a08231\n        /* \"contracts/t3_waa.sol\":2409:2413  this */\n      address\n        /* \"contracts/t3_waa.sol\":2384:2415  token1.balanceOf(address(this)) */\n      mload(0x40)\n      dup3\n      0xffffffff\n      and\n      0xe0\n      shl\n      dup2\n      mstore\n      0x04\n      add\n      tag_191\n      swap2\n      swap1\n      tag_168\n      jump\t// in\n    tag_191:\n      0x20\n      mload(0x40)\n      dup1\n      dup4\n      sub\n      dup2\n      dup7\n      gas\n      staticcall\n      iszero\n      dup1\n      iszero\n      tag_193\n      jumpi\n      returndatasize\n      0x00\n      dup1\n      returndatacopy\n      revert(0x00, returndatasize)\n    tag_193:\n      pop\n      pop\n      pop\n      pop\n      mload(0x40)\n      returndatasize\n      not(0x1f)\n      0x1f\n      dup3\n      add\n      and\n      dup3\n      add\n      dup1\n      0x40\n      mstore\n      pop\n      dup2\n      add\n      swap1\n      tag_194\n      swap2\n      swap1\n      tag_172\n      jump\t// in\n    tag_194:\n        /* \"contracts/t3_waa.sol\":2367:2415  uint _balance1 = token1.balanceOf(address(this)) */\n      swap1\n      pop\n        /* \"contracts/t3_waa.sol\":2450:2467  uint _totalSupply */\n      0x00\n        /* \"contracts/t3_waa.sol\":2470:2483  totalSupply() */\n      tag_195\n        /* \"contracts/t3_waa.sol\":2470:2481  totalSupply */\n      tag_44\n        /* \"contracts/t3_waa.sol\":2470:2483  totalSupply() */\n      jump\t// in\n    tag_195:\n        /* \"contracts/t3_waa.sol\":2450:2483  uint _totalSupply = totalSupply() */\n      swap1\n      pop\n        /* \"contracts/t3_waa.sol\":2528:2540  _totalSupply */\n      dup1\n        /* \"contracts/t3_waa.sol\":2516:2525  _balance0 */\n      dup4\n        /* \"contracts/t3_waa.sol\":2504:2513  liquidity */\n      dup8\n        /* \"contracts/t3_waa.sol\":2504:2525  liquidity * _balance0 */\n      tag_196\n      swap2\n      swap1\n      tag_109\n      jump\t// in\n    tag_196:\n        /* \"contracts/t3_waa.sol\":2504:2540  liquidity * _balance0 / _totalSupply */\n      tag_197\n      swap2\n      swap1\n      tag_111\n      jump\t// in\n    tag_197:\n        /* \"contracts/t3_waa.sol\":2494:2540  amount0 = liquidity * _balance0 / _totalSupply */\n      swap5\n      pop\n        /* \"contracts/t3_waa.sol\":2585:2597  _totalSupply */\n      dup1\n        /* \"contracts/t3_waa.sol\":2573:2582  _balance1 */\n      dup3\n        /* \"contracts/t3_waa.sol\":2561:2570  liquidity */\n      dup8\n        /* \"contracts/t3_waa.sol\":2561:2582  liquidity * _balance1 */\n      tag_198\n      swap2\n      swap1\n      tag_109\n      jump\t// in\n    tag_198:\n        /* \"contracts/t3_waa.sol\":2561:2597  liquidity * _balance1 / _totalSupply */\n      tag_199\n      swap2\n      swap1\n      tag_111\n      jump\t// in\n    tag_199:\n        /* \"contracts/t3_waa.sol\":2551:2597  amount1 = liquidity * _balance1 / _totalSupply */\n      swap4\n      pop\n        /* \"contracts/t3_waa.sol\":2628:2629  0 */\n      0x00\n        /* \"contracts/t3_waa.sol\":2618:2625  amount0 */\n      dup6\n        /* \"contracts/t3_waa.sol\":2618:2629  amount0 > 0 */\n      gt\n        /* \"contracts/t3_waa.sol\":2618:2644  amount0 > 0 && amount1 > 0 */\n      dup1\n      iszero\n      tag_200\n      jumpi\n      pop\n        /* \"contracts/t3_waa.sol\":2643:2644  0 */\n      0x00\n        /* \"contracts/t3_waa.sol\":2633:2640  amount1 */\n      dup5\n        /* \"contracts/t3_waa.sol\":2633:2644  amount1 > 0 */\n      gt\n        /* \"contracts/t3_waa.sol\":2618:2644  amount0 > 0 && amount1 > 0 */\n    tag_200:\n        /* \"contracts/t3_waa.sol\":2610:2678  require(amount0 > 0 && amount1 > 0, \"INSUFFICIENT_LIQUIDITY_MINTED\") */\n      tag_201\n      jumpi\n      mload(0x40)\n      0x08c379a000000000000000000000000000000000000000000000000000000000\n      dup2\n      mstore\n      0x04\n      add\n      tag_202\n      swap1\n      tag_203\n      jump\t// in\n    tag_202:\n      mload(0x40)\n      dup1\n      swap2\n      sub\n      swap1\n      revert\n    tag_201:\n        /* \"contracts/t3_waa.sol\":2718:2746  _burn(msg.sender, liquidity) */\n      tag_204\n        /* \"contracts/t3_waa.sol\":2724:2734  msg.sender */\n      caller\n        /* \"contracts/t3_waa.sol\":2736:2745  liquidity */\n      dup8\n        /* \"contracts/t3_waa.sol\":2718:2723  _burn */\n      tag_205\n        /* \"contracts/t3_waa.sol\":2718:2746  _burn(msg.sender, liquidity) */\n      jump\t// in\n    tag_204:\n        /* \"contracts/t3_waa.sol\":2788:2794  token0 */\n      0x05\n      0x00\n      swap1\n      sload\n      swap1\n      0x0100\n      exp\n      swap1\n      div\n      0xffffffffffffffffffffffffffffffffffffffff\n      and\n        /* \"contracts/t3_waa.sol\":2788:2803  token0.transfer */\n      0xffffffffffffffffffffffffffffffffffffffff\n      and\n      0xa9059cbb\n        /* \"contracts/t3_waa.sol\":2804:2814  msg.sender */\n      caller\n        /* \"contracts/t3_waa.sol\":2816:2823  amount0 */\n      dup8\n        /* \"contracts/t3_waa.sol\":2788:2824  token0.transfer(msg.sender, amount0) */\n      mload(0x40)\n      dup4\n      0xffffffff\n      and\n      0xe0\n      shl\n      dup2\n      mstore\n      0x04\n      add\n      tag_206\n      swap3\n      swap2\n      swap1\n      tag_151\n      jump\t// in\n    tag_206:\n      0x20\n      mload(0x40)\n      dup1\n      dup4\n      sub\n      dup2\n      0x00\n      dup8\n      gas\n      call\n      iszero\n      dup1\n      iszero\n      tag_208\n      jumpi\n      returndatasize\n      0x00\n      dup1\n      returndatacopy\n      revert(0x00, returndatasize)\n    tag_208:\n      pop\n      pop\n      pop\n      pop\n      mload(0x40)\n      returndatasize\n      not(0x1f)\n      0x1f\n      dup3\n      add\n      and\n      dup3\n      add\n      dup1\n      0x40\n      mstore\n      pop\n      dup2\n      add\n      swap1\n      tag_209\n      swap2\n      swap1\n      tag_149\n      jump\t// in\n    tag_209:\n      pop\n        /* \"contracts/t3_waa.sol\":2835:2841  token1 */\n      0x06\n      0x00\n      swap1\n      sload\n      swap1\n      0x0100\n      exp\n      swap1\n      div\n      0xffffffffffffffffffffffffffffffffffffffff\n      and\n        /* \"contracts/t3_waa.sol\":2835:2850  token1.transfer */\n      0xffffffffffffffffffffffffffffffffffffffff\n      and\n      0xa9059cbb\n        /* \"contracts/t3_waa.sol\":2851:2861  msg.sender */\n      caller\n        /* \"contracts/t3_waa.sol\":2863:2870  amount1 */\n      dup7\n        /* \"contracts/t3_waa.sol\":2835:2871  token1.transfer(msg.sender, amount1) */\n      mload(0x40)\n      dup4\n      0xffffffff\n      and\n      0xe0\n      shl\n      dup2\n      mstore\n      0x04\n      add\n      tag_210\n      swap3\n      swap2\n      swap1\n      tag_151\n      jump\t// in\n    tag_210:\n      0x20\n      mload(0x40)\n      dup1\n      dup4\n      sub\n      dup2\n      0x00\n      dup8\n      gas\n      call\n      iszero\n      dup1\n      iszero\n      tag_212\n      jumpi\n      returndatasize\n      0x00\n      dup1\n      returndatacopy\n      revert(0x00, returndatasize)\n    tag_212:\n      pop\n      pop\n      pop\n      pop\n      mload(0x40)\n      returndatasize\n      not(0x1f)\n      0x1f\n      dup3\n      add\n      and\n      dup3\n      add\n      dup1\n      0x40\n      mstore\n      pop\n      dup2\n      add\n      swap1\n      tag_213\n      swap2\n      swap1\n      tag_149\n      jump\t// in\n    tag_213:\n      pop\n        /* \"contracts/t3_waa.sol\":2926:2932  token0 */\n      0x05\n      0x00\n      swap1\n      sload\n      swap1\n      0x0100\n      exp\n      swap1\n      div\n      0xffffffffffffffffffffffffffffffffffffffff\n      and\n        /* \"contracts/t3_waa.sol\":2926:2942  token0.balanceOf */\n      0xffffffffffffffffffffffffffffffffffffffff\n      and\n      0x70a08231\n        /* \"contracts/t3_waa.sol\":2951:2955  this */\n      address\n        /* \"contracts/t3_waa.sol\":2926:2957  token0.balanceOf(address(this)) */\n      mload(0x40)\n      dup3\n      0xffffffff\n      and\n      0xe0\n      shl\n      dup2\n      mstore\n      0x04\n      add\n      tag_214\n      swap2\n      swap1\n      tag_168\n      jump\t// in\n    tag_214:\n      0x20\n      mload(0x40)\n      dup1\n      dup4\n      sub\n      dup2\n      dup7\n      gas\n      staticcall\n      iszero\n      dup1\n      iszero\n      tag_216\n      jumpi\n      returndatasize\n      0x00\n      dup1\n      returndatacopy\n      revert(0x00, returndatasize)\n    tag_216:\n      pop\n      pop\n      pop\n      pop\n      mload(0x40)\n      returndatasize\n      not(0x1f)\n      0x1f\n      dup3\n      add\n      and\n      dup3\n      add\n      dup1\n      0x40\n      mstore\n      pop\n      dup2\n      add\n      swap1\n      tag_217\n      swap2\n      swap1\n      tag_172\n      jump\t// in\n    tag_217:\n        /* \"contracts/t3_waa.sol\":2915:2923  reserve0 */\n      0x07\n        /* \"contracts/t3_waa.sol\":2915:2957  reserve0 = token0.balanceOf(address(this)) */\n      dup2\n      swap1\n      sstore\n      pop\n        /* \"contracts/t3_waa.sol\":2979:2985  token1 */\n      0x06\n      0x00\n      swap1\n      sload\n      swap1\n      0x0100\n      exp\n      swap1\n      div\n      0xffffffffffffffffffffffffffffffffffffffff\n      and\n        /* \"contracts/t3_waa.sol\":2979:2995  token1.balanceOf */\n      0xffffffffffffffffffffffffffffffffffffffff\n      and\n      0x70a08231\n        /* \"contracts/t3_waa.sol\":3004:3008  this */\n      address\n        /* \"contracts/t3_waa.sol\":2979:3010  token1.balanceOf(address(this)) */\n      mload(0x40)\n      dup3\n      0xffffffff\n      and\n      0xe0\n      shl\n      dup2\n      mstore\n      0x04\n      add\n      tag_218\n      swap2\n      swap1\n      tag_168\n      jump\t// in\n    tag_218:\n      0x20\n      mload(0x40)\n      dup1\n      dup4\n      sub\n      dup2\n      dup7\n      gas\n      staticcall\n      iszero\n      dup1\n      iszero\n      tag_220\n      jumpi\n      returndatasize\n      0x00\n      dup1\n      returndatacopy\n      revert(0x00, returndatasize)\n    tag_220:\n      pop\n      pop\n      pop\n      pop\n      mload(0x40)\n      returndatasize\n      not(0x1f)\n      0x1f\n      dup3\n      add\n      and\n      dup3\n      add\n      dup1\n      0x40\n      mstore\n      pop\n      dup2\n      add\n      swap1\n      tag_221\n      swap2\n      swap1\n      tag_172\n      jump\t// in\n    tag_221:\n        /* \"contracts/t3_waa.sol\":2968:2976  reserve1 */\n      0x08\n        /* \"contracts/t3_waa.sol\":2968:3010  reserve1 = token1.balanceOf(address(this)) */\n      dup2\n      swap1\n      sstore\n      pop\n        /* \"contracts/t3_waa.sol\":3033:3043  msg.sender */\n      caller\n        /* \"contracts/t3_waa.sol\":3028:3062  Burn(msg.sender, amount0, amount1) */\n      0xffffffffffffffffffffffffffffffffffffffff\n      and\n      0x49995e5dd6158cf69ad3e9777c46755a1a826a446c6416992167462dad033b2a\n        /* \"contracts/t3_waa.sol\":3045:3052  amount0 */\n      dup7\n        /* \"contracts/t3_waa.sol\":3054:3061  amount1 */\n      dup7\n        /* \"contracts/t3_waa.sol\":3028:3062  Burn(msg.sender, amount0, amount1) */\n      mload(0x40)\n      tag_222\n      swap3\n      swap2\n      swap1\n      tag_80\n      jump\t// in\n    tag_222:\n      mload(0x40)\n      dup1\n      swap2\n      sub\n      swap1\n      log2\n        /* \"contracts/t3_waa.sol\":2248:3070  {... */\n      pop\n      pop\n      pop\n        /* \"contracts/t3_waa.sol\":2160:3070  function removeLiquidity(uint liquidity) external  returns (uint amount0, uint amount1) {... */\n      swap2\n      pop\n      swap2\n      jump\t// out\n        /* \"contracts/t3_waa.sol\":1022:1983  function addLiquidity(uint amount0Input, uint amount1Input) public returns(uint liquidity) {... */\n    tag_84:\n        /* \"contracts/t3_waa.sol\":1097:1111  uint liquidity */\n      0x00\n        /* \"contracts/t3_waa.sol\":1167:1173  token0 */\n      0x05\n      0x00\n      swap1\n      sload\n      swap1\n      0x0100\n      exp\n      swap1\n      div\n      0xffffffffffffffffffffffffffffffffffffffff\n      and\n        /* \"contracts/t3_waa.sol\":1167:1186  token0.transferFrom */\n      0xffffffffffffffffffffffffffffffffffffffff\n      and\n      0x23b872dd\n        /* \"contracts/t3_waa.sol\":1187:1197  msg.sender */\n      caller\n        /* \"contracts/t3_waa.sol\":1207:1211  this */\n      address\n        /* \"contracts/t3_waa.sol\":1214:1226  amount0Input */\n      dup7\n        /* \"contracts/t3_waa.sol\":1167:1227  token0.transferFrom(msg.sender, address(this), amount0Input) */\n      mload(0x40)\n      dup5\n      0xffffffff\n      and\n      0xe0\n      shl\n      dup2\n      mstore\n      0x04\n      add\n      tag_224\n      swap4\n      swap3\n      swap2\n      swap1\n      tag_145\n      jump\t// in\n    tag_224:\n      0x20\n      mload(0x40)\n      dup1\n      dup4\n      sub\n      dup2\n      0x00\n      dup8\n      gas\n      call\n      iszero\n      dup1\n      iszero\n      tag_226\n      jumpi\n      returndatasize\n      0x00\n      dup1\n      returndatacopy\n      revert(0x00, returndatasize)\n    tag_226:\n      pop\n      pop\n      pop\n      pop\n      mload(0x40)\n      returndatasize\n      not(0x1f)\n      0x1f\n      dup3\n      add\n      and\n      dup3\n      add\n      dup1\n      0x40\n      mstore\n      pop\n      dup2\n      add\n      swap1\n      tag_227\n      swap2\n      swap1\n      tag_149\n      jump\t// in\n    tag_227:\n      pop\n        /* \"contracts/t3_waa.sol\":1238:1244  token1 */\n      0x06\n      0x00\n      swap1\n      sload\n      swap1\n      0x0100\n      exp\n      swap1\n      div\n      0xffffffffffffffffffffffffffffffffffffffff\n      and\n        /* \"contracts/t3_waa.sol\":1238:1257  token1.transferFrom */\n      0xffffffffffffffffffffffffffffffffffffffff\n      and\n      0x23b872dd\n        /* \"contracts/t3_waa.sol\":1258:1268  msg.sender */\n      caller\n        /* \"contracts/t3_waa.sol\":1278:1282  this */\n      address\n        /* \"contracts/t3_waa.sol\":1285:1297  amount1Input */\n      dup6\n        /* \"contracts/t3_waa.sol\":1238:1298  token1.transferFrom(msg.sender, address(this), amount1Input) */\n      mload(0x40)\n      dup5\n      0xffffffff\n      and\n      0xe0\n      shl\n      dup2\n      mstore\n      0x04\n      add\n      tag_228\n      swap4\n      swap3\n      swap2\n      swap1\n      tag_145\n      jump\t// in\n    tag_228:\n      0x20\n      mload(0x40)\n      dup1\n      dup4\n      sub\n      dup2\n      0x00\n      dup8\n      gas\n      call\n      iszero\n      dup1\n      iszero\n      tag_230\n      jumpi\n      returndatasize\n      0x00\n      dup1\n      returndatacopy\n      revert(0x00, returndatasize)\n    tag_230:\n      pop\n      pop\n      pop\n      pop\n      mload(0x40)\n      returndatasize\n      not(0x1f)\n      0x1f\n      dup3\n      add\n      and\n      dup3\n      add\n      dup1\n      0x40\n      mstore\n      pop\n      dup2\n      add\n      swap1\n      tag_231\n      swap2\n      swap1\n      tag_149\n      jump\t// in\n    tag_231:\n      pop\n        /* \"contracts/t3_waa.sol\":1333:1350  uint _totalSupply */\n      0x00\n        /* \"contracts/t3_waa.sol\":1353:1366  totalSupply() */\n      tag_232\n        /* \"contracts/t3_waa.sol\":1353:1364  totalSupply */\n      tag_44\n        /* \"contracts/t3_waa.sol\":1353:1366  totalSupply() */\n      jump\t// in\n    tag_232:\n        /* \"contracts/t3_waa.sol\":1333:1366  uint _totalSupply = totalSupply() */\n      swap1\n      pop\n        /* \"contracts/t3_waa.sol\":1398:1399  0 */\n      0x00\n        /* \"contracts/t3_waa.sol\":1382:1394  _totalSupply */\n      dup2\n        /* \"contracts/t3_waa.sol\":1382:1399  _totalSupply == 0 */\n      sub\n        /* \"contracts/t3_waa.sol\":1379:1599  if(_totalSupply == 0) {... */\n      tag_233\n      jumpi\n        /* \"contracts/t3_waa.sol\":1428:1461  sqrt(amount0Input * amount1Input) */\n      tag_234\n        /* \"contracts/t3_waa.sol\":1448:1460  amount1Input */\n      dup4\n        /* \"contracts/t3_waa.sol\":1433:1445  amount0Input */\n      dup6\n        /* \"contracts/t3_waa.sol\":1433:1460  amount0Input * amount1Input */\n      tag_235\n      swap2\n      swap1\n      tag_109\n      jump\t// in\n    tag_235:\n        /* \"contracts/t3_waa.sol\":1428:1432  sqrt */\n      tag_236\n        /* \"contracts/t3_waa.sol\":1428:1461  sqrt(amount0Input * amount1Input) */\n      jump\t// in\n    tag_234:\n        /* \"contracts/t3_waa.sol\":1416:1461  liquidity = sqrt(amount0Input * amount1Input) */\n      swap2\n      pop\n        /* \"contracts/t3_waa.sol\":1379:1599  if(_totalSupply == 0) {... */\n      jump(tag_237)\n    tag_233:\n        /* \"contracts/t3_waa.sol\":1506:1587  min(amount0Input * _totalSupply / reserve0, amount1Input * _totalSupply/reserve1) */\n      tag_238\n        /* \"contracts/t3_waa.sol\":1540:1548  reserve0 */\n      sload(0x07)\n        /* \"contracts/t3_waa.sol\":1525:1537  _totalSupply */\n      dup3\n        /* \"contracts/t3_waa.sol\":1510:1522  amount0Input */\n      dup7\n        /* \"contracts/t3_waa.sol\":1510:1537  amount0Input * _totalSupply */\n      tag_239\n      swap2\n      swap1\n      tag_109\n      jump\t// in\n    tag_239:\n        /* \"contracts/t3_waa.sol\":1510:1548  amount0Input * _totalSupply / reserve0 */\n      tag_240\n      swap2\n      swap1\n      tag_111\n      jump\t// in\n    tag_240:\n        /* \"contracts/t3_waa.sol\":1578:1586  reserve1 */\n      sload(0x08)\n        /* \"contracts/t3_waa.sol\":1565:1577  _totalSupply */\n      dup4\n        /* \"contracts/t3_waa.sol\":1550:1562  amount1Input */\n      dup7\n        /* \"contracts/t3_waa.sol\":1550:1577  amount1Input * _totalSupply */\n      tag_241\n      swap2\n      swap1\n      tag_109\n      jump\t// in\n    tag_241:\n        /* \"contracts/t3_waa.sol\":1550:1586  amount1Input * _totalSupply/reserve1 */\n      tag_242\n      swap2\n      swap1\n      tag_111\n      jump\t// in\n    tag_242:\n        /* \"contracts/t3_waa.sol\":1506:1509  min */\n      tag_243\n        /* \"contracts/t3_waa.sol\":1506:1587  min(amount0Input * _totalSupply / reserve0, amount1Input * _totalSupply/reserve1) */\n      jump\t// in\n    tag_238:\n        /* \"contracts/t3_waa.sol\":1494:1587  liquidity = min(amount0Input * _totalSupply / reserve0, amount1Input * _totalSupply/reserve1) */\n      swap2\n      pop\n        /* \"contracts/t3_waa.sol\":1379:1599  if(_totalSupply == 0) {... */\n    tag_237:\n        /* \"contracts/t3_waa.sol\":1639:1640  0 */\n      0x00\n        /* \"contracts/t3_waa.sol\":1627:1636  liquidity */\n      dup3\n        /* \"contracts/t3_waa.sol\":1627:1640  liquidity > 0 */\n      gt\n        /* \"contracts/t3_waa.sol\":1619:1674  require(liquidity > 0, \"INSUFFICIENT_LIQUIDITY_MINTED\") */\n      tag_244\n      jumpi\n      mload(0x40)\n      0x08c379a000000000000000000000000000000000000000000000000000000000\n      dup2\n      mstore\n      0x04\n      add\n      tag_245\n      swap1\n      tag_203\n      jump\t// in\n    tag_245:\n      mload(0x40)\n      dup1\n      swap2\n      sub\n      swap1\n      revert\n    tag_244:\n        /* \"contracts/t3_waa.sol\":1776:1782  token0 */\n      0x05\n      0x00\n      swap1\n      sload\n      swap1\n      0x0100\n      exp\n      swap1\n      div\n      0xffffffffffffffffffffffffffffffffffffffff\n      and\n        /* \"contracts/t3_waa.sol\":1776:1792  token0.balanceOf */\n      0xffffffffffffffffffffffffffffffffffffffff\n      and\n      0x70a08231\n        /* \"contracts/t3_waa.sol\":1801:1805  this */\n      address\n        /* \"contracts/t3_waa.sol\":1776:1807  token0.balanceOf(address(this)) */\n      mload(0x40)\n      dup3\n      0xffffffff\n      and\n      0xe0\n      shl\n      dup2\n      mstore\n      0x04\n      add\n      tag_246\n      swap2\n      swap1\n      tag_168\n      jump\t// in\n    tag_246:\n      0x20\n      mload(0x40)\n      dup1\n      dup4\n      sub\n      dup2\n      dup7\n      gas\n      staticcall\n      iszero\n      dup1\n      iszero\n      tag_248\n      jumpi\n      returndatasize\n      0x00\n      dup1\n      returndatacopy\n      revert(0x00, returndatasize)\n    tag_248:\n      pop\n      pop\n      pop\n      pop\n      mload(0x40)\n      returndatasize\n      not(0x1f)\n      0x1f\n      dup3\n      add\n      and\n      dup3\n      add\n      dup1\n      0x40\n      mstore\n      pop\n      dup2\n      add\n      swap1\n      tag_249\n      swap2\n      swap1\n      tag_172\n      jump\t// in\n    tag_249:\n        /* \"contracts/t3_waa.sol\":1765:1773  reserve0 */\n      0x07\n        /* \"contracts/t3_waa.sol\":1765:1807  reserve0 = token0.balanceOf(address(this)) */\n      dup2\n      swap1\n      sstore\n      pop\n        /* \"contracts/t3_waa.sol\":1829:1835  token1 */\n      0x06\n      0x00\n      swap1\n      sload\n      swap1\n      0x0100\n      exp\n      swap1\n      div\n      0xffffffffffffffffffffffffffffffffffffffff\n      and\n        /* \"contracts/t3_waa.sol\":1829:1845  token1.balanceOf */\n      0xffffffffffffffffffffffffffffffffffffffff\n      and\n      0x70a08231\n        /* \"contracts/t3_waa.sol\":1854:1858  this */\n      address\n        /* \"contracts/t3_waa.sol\":1829:1860  token1.balanceOf(address(this)) */\n      mload(0x40)\n      dup3\n      0xffffffff\n      and\n      0xe0\n      shl\n      dup2\n      mstore\n      0x04\n      add\n      tag_250\n      swap2\n      swap1\n      tag_168\n      jump\t// in\n    tag_250:\n      0x20\n      mload(0x40)\n      dup1\n      dup4\n      sub\n      dup2\n      dup7\n      gas\n      staticcall\n      iszero\n      dup1\n      iszero\n      tag_252\n      jumpi\n      returndatasize\n      0x00\n      dup1\n      returndatacopy\n      revert(0x00, returndatasize)\n    tag_252:\n      pop\n      pop\n      pop\n      pop\n      mload(0x40)\n      returndatasize\n      not(0x1f)\n      0x1f\n      dup3\n      add\n      and\n      dup3\n      add\n      dup1\n      0x40\n      mstore\n      pop\n      dup2\n      add\n      swap1\n      tag_253\n      swap2\n      swap1\n      tag_172\n      jump\t// in\n    tag_253:\n        /* \"contracts/t3_waa.sol\":1818:1826  reserve1 */\n      0x08\n        /* \"contracts/t3_waa.sol\":1818:1860  reserve1 = token1.balanceOf(address(this)) */\n      dup2\n      swap1\n      sstore\n      pop\n        /* \"contracts/t3_waa.sol\":1885:1913  _mint(msg.sender, liquidity) */\n      tag_254\n        /* \"contracts/t3_waa.sol\":1891:1901  msg.sender */\n      caller\n        /* \"contracts/t3_waa.sol\":1903:1912  liquidity */\n      dup4\n        /* \"contracts/t3_waa.sol\":1885:1890  _mint */\n      tag_255\n        /* \"contracts/t3_waa.sol\":1885:1913  _mint(msg.sender, liquidity) */\n      jump\t// in\n    tag_254:\n        /* \"contracts/t3_waa.sol\":1936:1946  msg.sender */\n      caller\n        /* \"contracts/t3_waa.sol\":1931:1975  Mint(msg.sender, amount0Input, amount1Input) */\n      0xffffffffffffffffffffffffffffffffffffffff\n      and\n      0x4c209b5fc8ad50758f13e2e1088ba56a560dff690a1c6fef26394f4c03821c4f\n        /* \"contracts/t3_waa.sol\":1948:1960  amount0Input */\n      dup6\n        /* \"contracts/t3_waa.sol\":1962:1974  amount1Input */\n      dup6\n        /* \"contracts/t3_waa.sol\":1931:1975  Mint(msg.sender, amount0Input, amount1Input) */\n      mload(0x40)\n      tag_256\n      swap3\n      swap2\n      swap1\n      tag_80\n      jump\t// in\n    tag_256:\n      mload(0x40)\n      dup1\n      swap2\n      sub\n      swap1\n      log2\n        /* \"contracts/t3_waa.sol\":1113:1983  {... */\n      pop\n        /* \"contracts/t3_waa.sol\":1022:1983  function addLiquidity(uint amount0Input, uint amount1Input) public returns(uint liquidity) {... */\n      swap3\n      swap2\n      pop\n      pop\n      jump\t// out\n        /* \"@openzeppelin/contracts/token/ERC20/ERC20.sol\":3610:3788  function transfer(address to, uint256 value) public virtual returns (bool) {... */\n    tag_88:\n        /* \"@openzeppelin/contracts/token/ERC20/ERC20.sol\":3679:3683  bool */\n      0x00\n        /* \"@openzeppelin/contracts/token/ERC20/ERC20.sol\":3695:3708  address owner */\n      dup1\n        /* \"@openzeppelin/contracts/token/ERC20/ERC20.sol\":3711:3723  _msgSender() */\n      tag_258\n        /* \"@openzeppelin/contracts/token/ERC20/ERC20.sol\":3711:3721  _msgSender */\n      tag_121\n        /* \"@openzeppelin/contracts/token/ERC20/ERC20.sol\":3711:3723  _msgSender() */\n      jump\t// in\n    tag_258:\n        /* \"@openzeppelin/contracts/token/ERC20/ERC20.sol\":3695:3723  address owner = _msgSender() */\n      swap1\n      pop\n        /* \"@openzeppelin/contracts/token/ERC20/ERC20.sol\":3733:3760  _transfer(owner, to, value) */\n      tag_259\n        /* \"@openzeppelin/contracts/token/ERC20/ERC20.sol\":3743:3748  owner */\n      dup2\n        /* \"@openzeppelin/contracts/token/ERC20/ERC20.sol\":3750:3752  to */\n      dup6\n        /* \"@openzeppelin/contracts/token/ERC20/ERC20.sol\":3754:3759  value */\n      dup6\n        /* \"@openzeppelin/contracts/token/ERC20/ERC20.sol\":3733:3742  _transfer */\n      tag_130\n        /* \"@openzeppelin/contracts/token/ERC20/ERC20.sol\":3733:3760  _transfer(owner, to, value) */\n      jump\t// in\n    tag_259:\n        /* \"@openzeppelin/contracts/token/ERC20/ERC20.sol\":3777:3781  true */\n      0x01\n        /* \"@openzeppelin/contracts/token/ERC20/ERC20.sol\":3770:3781  return true */\n      swap2\n      pop\n      pop\n        /* \"@openzeppelin/contracts/token/ERC20/ERC20.sol\":3610:3788  function transfer(address to, uint256 value) public virtual returns (bool) {... */\n      swap3\n      swap2\n      pop\n      pop\n      jump\t// out\n        /* \"contracts/t3_waa.sol\":552:572  IERC20 public token1 */\n    tag_91:\n      0x06\n      0x00\n      swap1\n      sload\n      swap1\n      0x0100\n      exp\n      swap1\n      div\n      0xffffffffffffffffffffffffffffffffffffffff\n      and\n      dup2\n      jump\t// out\n        /* \"@openzeppelin/contracts/token/ERC20/ERC20.sol\":3846:3986  function allowance(address owner, address spender) public view virtual returns (uint256) {... */\n    tag_96:\n        /* \"@openzeppelin/contracts/token/ERC20/ERC20.sol\":3926:3933  uint256 */\n      0x00\n        /* \"@openzeppelin/contracts/token/ERC20/ERC20.sol\":3952:3963  _allowances */\n      0x01\n        /* \"@openzeppelin/contracts/token/ERC20/ERC20.sol\":3952:3970  _allowances[owner] */\n      0x00\n        /* \"@openzeppelin/contracts/token/ERC20/ERC20.sol\":3964:3969  owner */\n      dup5\n        /* \"@openzeppelin/contracts/token/ERC20/ERC20.sol\":3952:3970  _allowances[owner] */\n      0xffffffffffffffffffffffffffffffffffffffff\n      and\n      0xffffffffffffffffffffffffffffffffffffffff\n      and\n      dup2\n      mstore\n      0x20\n      add\n      swap1\n      dup2\n      mstore\n      0x20\n      add\n      0x00\n      keccak256\n        /* \"@openzeppelin/contracts/token/ERC20/ERC20.sol\":3952:3979  _allowances[owner][spender] */\n      0x00\n        /* \"@openzeppelin/contracts/token/ERC20/ERC20.sol\":3971:3978  spender */\n      dup4\n        /* \"@openzeppelin/contracts/token/ERC20/ERC20.sol\":3952:3979  _allowances[owner][spender] */\n      0xffffffffffffffffffffffffffffffffffffffff\n      and\n      0xffffffffffffffffffffffffffffffffffffffff\n      and\n      dup2\n      mstore\n      0x20\n      add\n      swap1\n      dup2\n      mstore\n      0x20\n      add\n      0x00\n      keccak256\n      sload\n        /* \"@openzeppelin/contracts/token/ERC20/ERC20.sol\":3945:3979  return _allowances[owner][spender] */\n      swap1\n      pop\n        /* \"@openzeppelin/contracts/token/ERC20/ERC20.sol\":3846:3986  function allowance(address owner, address spender) public view virtual returns (uint256) {... */\n      swap3\n      swap2\n      pop\n      pop\n      jump\t// out\n        /* \"@openzeppelin/contracts/utils/Context.sol\":656:752  function _msgSender() internal view virtual returns (address) {... */\n    tag_121:\n        /* \"@openzeppelin/contracts/utils/Context.sol\":709:716  address */\n      0x00\n        /* \"@openzeppelin/contracts/utils/Context.sol\":735:745  msg.sender */\n      caller\n        /* \"@openzeppelin/contracts/utils/Context.sol\":728:745  return msg.sender */\n      swap1\n      pop\n        /* \"@openzeppelin/contracts/utils/Context.sol\":656:752  function _msgSender() internal view virtual returns (address) {... */\n      swap1\n      jump\t// out\n        /* \"@openzeppelin/contracts/token/ERC20/ERC20.sol\":8989:9117  function _approve(address owner, address spender, uint256 value) internal {... */\n    tag_123:\n        /* \"@openzeppelin/contracts/token/ERC20/ERC20.sol\":9073:9110  _approve(owner, spender, value, true) */\n      tag_263\n        /* \"@openzeppelin/contracts/token/ERC20/ERC20.sol\":9082:9087  owner */\n      dup4\n        /* \"@openzeppelin/contracts/token/ERC20/ERC20.sol\":9089:9096  spender */\n      dup4\n        /* \"@openzeppelin/contracts/token/ERC20/ERC20.sol\":9098:9103  value */\n      dup4\n        /* \"@openzeppelin/contracts/token/ERC20/ERC20.sol\":9105:9109  true */\n      0x01\n        /* \"@openzeppelin/contracts/token/ERC20/ERC20.sol\":9073:9081  _approve */\n      tag_264\n        /* \"@openzeppelin/contracts/token/ERC20/ERC20.sol\":9073:9110  _approve(owner, spender, value, true) */\n      jump\t// in\n    tag_263:\n        /* \"@openzeppelin/contracts/token/ERC20/ERC20.sol\":8989:9117  function _approve(address owner, address spender, uint256 value) internal {... */\n      pop\n      pop\n      pop\n      jump\t// out\n        /* \"@openzeppelin/contracts/token/ERC20/ERC20.sol\":10663:11140  function _spendAllowance(address owner, address spender, uint256 value) internal virtual {... */\n    tag_128:\n        /* \"@openzeppelin/contracts/token/ERC20/ERC20.sol\":10762:10786  uint256 currentAllowance */\n      0x00\n        /* \"@openzeppelin/contracts/token/ERC20/ERC20.sol\":10789:10814  allowance(owner, spender) */\n      tag_266\n        /* \"@openzeppelin/contracts/token/ERC20/ERC20.sol\":10799:10804  owner */\n      dup5\n        /* \"@openzeppelin/contracts/token/ERC20/ERC20.sol\":10806:10813  spender */\n      dup5\n        /* \"@openzeppelin/contracts/token/ERC20/ERC20.sol\":10789:10798  allowance */\n      tag_96\n        /* \"@openzeppelin/contracts/token/ERC20/ERC20.sol\":10789:10814  allowance(owner, spender) */\n      jump\t// in\n    tag_266:\n        /* \"@openzeppelin/contracts/token/ERC20/ERC20.sol\":10762:10814  uint256 currentAllowance = allowance(owner, spender) */\n      swap1\n      pop\n        /* \"@openzeppelin/contracts/token/ERC20/ERC20.sol\":10848:10865  type(uint256).max */\n      0xffffffffffffffffffffffffffffffffffffffffffffffffffffffffffffffff\n        /* \"@openzeppelin/contracts/token/ERC20/ERC20.sol\":10828:10844  currentAllowance */\n      dup2\n        /* \"@openzeppelin/contracts/token/ERC20/ERC20.sol\":10828:10865  currentAllowance != type(uint256).max */\n      eq\n        /* \"@openzeppelin/contracts/token/ERC20/ERC20.sol\":10824:11134  if (currentAllowance != type(uint256).max) {... */\n      tag_267\n      jumpi\n        /* \"@openzeppelin/contracts/token/ERC20/ERC20.sol\":10904:10909  value */\n      dup2\n        /* \"@openzeppelin/contracts/token/ERC20/ERC20.sol\":10885:10901  currentAllowance */\n      dup2\n        /* \"@openzeppelin/contracts/token/ERC20/ERC20.sol\":10885:10909  currentAllowance < value */\n      lt\n        /* \"@openzeppelin/contracts/token/ERC20/ERC20.sol\":10881:11011  if (currentAllowance < value) {... */\n      iszero\n      tag_268\n      jumpi\n        /* \"@openzeppelin/contracts/token/ERC20/ERC20.sol\":10963:10970  spender */\n      dup3\n        /* \"@openzeppelin/contracts/token/ERC20/ERC20.sol\":10972:10988  currentAllowance */\n      dup2\n        /* \"@openzeppelin/contracts/token/ERC20/ERC20.sol\":10990:10995  value */\n      dup4\n        /* \"@openzeppelin/contracts/token/ERC20/ERC20.sol\":10936:10996  ERC20InsufficientAllowance(spender, currentAllowance, value) */\n      mload(0x40)\n      0xfb8f41b200000000000000000000000000000000000000000000000000000000\n      dup2\n      mstore\n      0x04\n      add\n      tag_269\n      swap4\n      swap3\n      swap2\n      swap1\n      tag_270\n      jump\t// in\n    tag_269:\n      mload(0x40)\n      dup1\n      swap2\n      sub\n      swap1\n      revert\n        /* \"@openzeppelin/contracts/token/ERC20/ERC20.sol\":10881:11011  if (currentAllowance < value) {... */\n    tag_268:\n        /* \"@openzeppelin/contracts/token/ERC20/ERC20.sol\":11052:11109  _approve(owner, spender, currentAllowance - value, false) */\n      tag_271\n        /* \"@openzeppelin/contracts/token/ERC20/ERC20.sol\":11061:11066  owner */\n      dup5\n        /* \"@openzeppelin/contracts/token/ERC20/ERC20.sol\":11068:11075  spender */\n      dup5\n        /* \"@openzeppelin/contracts/token/ERC20/ERC20.sol\":11096:11101  value */\n      dup5\n        /* \"@openzeppelin/contracts/token/ERC20/ERC20.sol\":11077:11093  currentAllowance */\n      dup5\n        /* \"@openzeppelin/contracts/token/ERC20/ERC20.sol\":11077:11101  currentAllowance - value */\n      sub\n        /* \"@openzeppelin/contracts/token/ERC20/ERC20.sol\":11103:11108  false */\n      0x00\n        /* \"@openzeppelin/contracts/token/ERC20/ERC20.sol\":11052:11060  _approve */\n      tag_264\n        /* \"@openzeppelin/contracts/token/ERC20/ERC20.sol\":11052:11109  _approve(owner, spender, currentAllowance - value, false) */\n      jump\t// in\n    tag_271:\n        /* \"@openzeppelin/contracts/token/ERC20/ERC20.sol\":10824:11134  if (currentAllowance != type(uint256).max) {... */\n    tag_267:\n        /* \"@openzeppelin/contracts/token/ERC20/ERC20.sol\":10752:11140  {... */\n      pop\n        /* \"@openzeppelin/contracts/token/ERC20/ERC20.sol\":10663:11140  function _spendAllowance(address owner, address spender, uint256 value) internal virtual {... */\n      pop\n      pop\n      pop\n      jump\t// out\n        /* \"@openzeppelin/contracts/token/ERC20/ERC20.sol\":5656:5956  function _transfer(address from, address to, uint256 value) internal {... */\n    tag_130:\n        /* \"@openzeppelin/contracts/token/ERC20/ERC20.sol\":5755:5756  0 */\n      0x00\n        /* \"@openzeppelin/contracts/token/ERC20/ERC20.sol\":5739:5757  from == address(0) */\n      0xffffffffffffffffffffffffffffffffffffffff\n      and\n        /* \"@openzeppelin/contracts/token/ERC20/ERC20.sol\":5739:5743  from */\n      dup4\n        /* \"@openzeppelin/contracts/token/ERC20/ERC20.sol\":5739:5757  from == address(0) */\n      0xffffffffffffffffffffffffffffffffffffffff\n      and\n      sub\n        /* \"@openzeppelin/contracts/token/ERC20/ERC20.sol\":5735:5821  if (from == address(0)) {... */\n      tag_273\n      jumpi\n        /* \"@openzeppelin/contracts/token/ERC20/ERC20.sol\":5807:5808  0 */\n      0x00\n        /* \"@openzeppelin/contracts/token/ERC20/ERC20.sol\":5780:5810  ERC20InvalidSender(address(0)) */\n      mload(0x40)\n      0x96c6fd1e00000000000000000000000000000000000000000000000000000000\n      dup2\n      mstore\n      0x04\n      add\n      tag_274\n      swap2\n      swap1\n      tag_168\n      jump\t// in\n    tag_274:\n      mload(0x40)\n      dup1\n      swap2\n      sub\n      swap1\n      revert\n        /* \"@openzeppelin/contracts/token/ERC20/ERC20.sol\":5735:5821  if (from == address(0)) {... */\n    tag_273:\n        /* \"@openzeppelin/contracts/token/ERC20/ERC20.sol\":5848:5849  0 */\n      0x00\n        /* \"@openzeppelin/contracts/token/ERC20/ERC20.sol\":5834:5850  to == address(0) */\n      0xffffffffffffffffffffffffffffffffffffffff\n      and\n        /* \"@openzeppelin/contracts/token/ERC20/ERC20.sol\":5834:5836  to */\n      dup3\n        /* \"@openzeppelin/contracts/token/ERC20/ERC20.sol\":5834:5850  to == address(0) */\n      0xffffffffffffffffffffffffffffffffffffffff\n      and\n      sub\n        /* \"@openzeppelin/contracts/token/ERC20/ERC20.sol\":5830:5916  if (to == address(0)) {... */\n      tag_275\n      jumpi\n        /* \"@openzeppelin/contracts/token/ERC20/ERC20.sol\":5902:5903  0 */\n      0x00\n        /* \"@openzeppelin/contracts/token/ERC20/ERC20.sol\":5873:5905  ERC20InvalidReceiver(address(0)) */\n      mload(0x40)\n      0xec442f0500000000000000000000000000000000000000000000000000000000\n      dup2\n      mstore\n      0x04\n      add\n      tag_276\n      swap2\n      swap1\n      tag_168\n      jump\t// in\n    tag_276:\n      mload(0x40)\n      dup1\n      swap2\n      sub\n      swap1\n      revert\n        /* \"@openzeppelin/contracts/token/ERC20/ERC20.sol\":5830:5916  if (to == address(0)) {... */\n    tag_275:\n        /* \"@openzeppelin/contracts/token/ERC20/ERC20.sol\":5925:5949  _update(from, to, value) */\n      tag_277\n        /* \"@openzeppelin/contracts/token/ERC20/ERC20.sol\":5933:5937  from */\n      dup4\n        /* \"@openzeppelin/contracts/token/ERC20/ERC20.sol\":5939:5941  to */\n      dup4\n        /* \"@openzeppelin/contracts/token/ERC20/ERC20.sol\":5943:5948  value */\n      dup4\n        /* \"@openzeppelin/contracts/token/ERC20/ERC20.sol\":5925:5932  _update */\n      tag_278\n        /* \"@openzeppelin/contracts/token/ERC20/ERC20.sol\":5925:5949  _update(from, to, value) */\n      jump\t// in\n    tag_277:\n        /* \"@openzeppelin/contracts/token/ERC20/ERC20.sol\":5656:5956  function _transfer(address from, address to, uint256 value) internal {... */\n      pop\n      pop\n      pop\n      jump\t// out\n        /* \"@openzeppelin/contracts/token/ERC20/ERC20.sol\":8247:8453  function _burn(address account, uint256 value) internal {... */\n    tag_205:\n        /* \"@openzeppelin/contracts/token/ERC20/ERC20.sol\":8336:8337  0 */\n      0x00\n        /* \"@openzeppelin/contracts/token/ERC20/ERC20.sol\":8317:8338  account == address(0) */\n      0xffffffffffffffffffffffffffffffffffffffff\n      and\n        /* \"@openzeppelin/contracts/token/ERC20/ERC20.sol\":8317:8324  account */\n      dup3\n        /* \"@openzeppelin/contracts/token/ERC20/ERC20.sol\":8317:8338  account == address(0) */\n      0xffffffffffffffffffffffffffffffffffffffff\n      and\n      sub\n        /* \"@openzeppelin/contracts/token/ERC20/ERC20.sol\":8313:8402  if (account == address(0)) {... */\n      tag_280\n      jumpi\n        /* \"@openzeppelin/contracts/token/ERC20/ERC20.sol\":8388:8389  0 */\n      0x00\n        /* \"@openzeppelin/contracts/token/ERC20/ERC20.sol\":8361:8391  ERC20InvalidSender(address(0)) */\n      mload(0x40)\n      0x96c6fd1e00000000000000000000000000000000000000000000000000000000\n      dup2\n      mstore\n      0x04\n      add\n      tag_281\n      swap2\n      swap1\n      tag_168\n      jump\t// in\n    tag_281:\n      mload(0x40)\n      dup1\n      swap2\n      sub\n      swap1\n      revert\n        /* \"@openzeppelin/contracts/token/ERC20/ERC20.sol\":8313:8402  if (account == address(0)) {... */\n    tag_280:\n        /* \"@openzeppelin/contracts/token/ERC20/ERC20.sol\":8411:8446  _update(account, address(0), value) */\n      tag_282\n        /* \"@openzeppelin/contracts/token/ERC20/ERC20.sol\":8419:8426  account */\n      dup3\n        /* \"@openzeppelin/contracts/token/ERC20/ERC20.sol\":8436:8437  0 */\n      0x00\n        /* \"@openzeppelin/contracts/token/ERC20/ERC20.sol\":8440:8445  value */\n      dup4\n        /* \"@openzeppelin/contracts/token/ERC20/ERC20.sol\":8411:8418  _update */\n      tag_278\n        /* \"@openzeppelin/contracts/token/ERC20/ERC20.sol\":8411:8446  _update(account, address(0), value) */\n      jump\t// in\n    tag_282:\n        /* \"@openzeppelin/contracts/token/ERC20/ERC20.sol\":8247:8453  function _burn(address account, uint256 value) internal {... */\n      pop\n      pop\n      jump\t// out\n        /* \"contracts/t3_waa.sol\":4720:5024  function sqrt(uint y) internal  pure returns (uint z) {... */\n    tag_236:\n        /* \"contracts/t3_waa.sol\":4766:4772  uint z */\n      0x00\n        /* \"contracts/t3_waa.sol\":4793:4794  3 */\n      0x03\n        /* \"contracts/t3_waa.sol\":4789:4790  y */\n      dup3\n        /* \"contracts/t3_waa.sol\":4789:4794  y > 3 */\n      gt\n        /* \"contracts/t3_waa.sol\":4785:5017  if (y > 3) {... */\n      iszero\n      tag_284\n      jumpi\n        /* \"contracts/t3_waa.sol\":4815:4816  y */\n      dup2\n        /* \"contracts/t3_waa.sol\":4811:4816  z = y */\n      swap1\n      pop\n        /* \"contracts/t3_waa.sol\":4831:4837  uint x */\n      0x00\n        /* \"contracts/t3_waa.sol\":4848:4849  1 */\n      0x01\n        /* \"contracts/t3_waa.sol\":4844:4845  2 */\n      0x02\n        /* \"contracts/t3_waa.sol\":4840:4841  y */\n      dup5\n        /* \"contracts/t3_waa.sol\":4840:4845  y / 2 */\n      tag_285\n      swap2\n      swap1\n      tag_111\n      jump\t// in\n    tag_285:\n        /* \"contracts/t3_waa.sol\":4840:4849  y / 2 + 1 */\n      tag_286\n      swap2\n      swap1\n      tag_107\n      jump\t// in\n    tag_286:\n        /* \"contracts/t3_waa.sol\":4831:4849  uint x = y / 2 + 1 */\n      swap1\n      pop\n        /* \"contracts/t3_waa.sol\":4864:4956  while (x < z) {... */\n    tag_287:\n        /* \"contracts/t3_waa.sol\":4875:4876  z */\n      dup2\n        /* \"contracts/t3_waa.sol\":4871:4872  x */\n      dup2\n        /* \"contracts/t3_waa.sol\":4871:4876  x < z */\n      lt\n        /* \"contracts/t3_waa.sol\":4864:4956  while (x < z) {... */\n      iszero\n      tag_288\n      jumpi\n        /* \"contracts/t3_waa.sol\":4901:4902  x */\n      dup1\n        /* \"contracts/t3_waa.sol\":4897:4902  z = x */\n      swap2\n      pop\n        /* \"contracts/t3_waa.sol\":4939:4940  2 */\n      0x02\n        /* \"contracts/t3_waa.sol\":4934:4935  x */\n      dup2\n        /* \"contracts/t3_waa.sol\":4930:4931  x */\n      dup3\n        /* \"contracts/t3_waa.sol\":4926:4927  y */\n      dup6\n        /* \"contracts/t3_waa.sol\":4926:4931  y / x */\n      tag_289\n      swap2\n      swap1\n      tag_111\n      jump\t// in\n    tag_289:\n        /* \"contracts/t3_waa.sol\":4926:4935  y / x + x */\n      tag_290\n      swap2\n      swap1\n      tag_107\n      jump\t// in\n    tag_290:\n        /* \"contracts/t3_waa.sol\":4925:4940  (y / x + x) / 2 */\n      tag_291\n      swap2\n      swap1\n      tag_111\n      jump\t// in\n    tag_291:\n        /* \"contracts/t3_waa.sol\":4921:4940  x = (y / x + x) / 2 */\n      swap1\n      pop\n        /* \"contracts/t3_waa.sol\":4864:4956  while (x < z) {... */\n      jump(tag_287)\n    tag_288:\n        /* \"contracts/t3_waa.sol\":4796:4967  {... */\n      pop\n        /* \"contracts/t3_waa.sol\":4785:5017  if (y > 3) {... */\n      jump(tag_292)\n    tag_284:\n        /* \"contracts/t3_waa.sol\":4982:4983  0 */\n      0x00\n        /* \"contracts/t3_waa.sol\":4977:4978  y */\n      dup3\n        /* \"contracts/t3_waa.sol\":4977:4983  y != 0 */\n      eq\n        /* \"contracts/t3_waa.sol\":4973:5017  if (y != 0) {... */\n      tag_293\n      jumpi\n        /* \"contracts/t3_waa.sol\":5004:5005  1 */\n      0x01\n        /* \"contracts/t3_waa.sol\":5000:5005  z = 1 */\n      swap1\n      pop\n        /* \"contracts/t3_waa.sol\":4973:5017  if (y != 0) {... */\n    tag_293:\n        /* \"contracts/t3_waa.sol\":4785:5017  if (y > 3) {... */\n    tag_292:\n        /* \"contracts/t3_waa.sol\":4720:5024  function sqrt(uint y) internal  pure returns (uint z) {... */\n      swap2\n      swap1\n      pop\n      jump\t// out\n        /* \"contracts/t3_waa.sol\":5032:5130  function min(uint x, uint y) internal  pure returns (uint z) {... */\n    tag_243:\n        /* \"contracts/t3_waa.sol\":5085:5091  uint z */\n      0x00\n        /* \"contracts/t3_waa.sol\":5112:5113  y */\n      dup2\n        /* \"contracts/t3_waa.sol\":5108:5109  x */\n      dup4\n        /* \"contracts/t3_waa.sol\":5108:5113  x > y */\n      gt\n        /* \"contracts/t3_waa.sol\":5108:5121  x > y ? y : x */\n      tag_295\n      jumpi\n        /* \"contracts/t3_waa.sol\":5120:5121  x */\n      dup3\n        /* \"contracts/t3_waa.sol\":5108:5121  x > y ? y : x */\n      jump(tag_296)\n    tag_295:\n        /* \"contracts/t3_waa.sol\":5116:5117  y */\n      dup2\n        /* \"contracts/t3_waa.sol\":5108:5121  x > y ? y : x */\n    tag_296:\n        /* \"contracts/t3_waa.sol\":5104:5121  z = x > y ? y : x */\n      swap1\n      pop\n        /* \"contracts/t3_waa.sol\":5032:5130  function min(uint x, uint y) internal  pure returns (uint z) {... */\n      swap3\n      swap2\n      pop\n      pop\n      jump\t// out\n        /* \"@openzeppelin/contracts/token/ERC20/ERC20.sol\":7721:7929  function _mint(address account, uint256 value) internal {... */\n    tag_255:\n        /* \"@openzeppelin/contracts/token/ERC20/ERC20.sol\":7810:7811  0 */\n      0x00\n        /* \"@openzeppelin/contracts/token/ERC20/ERC20.sol\":7791:7812  account == address(0) */\n      0xffffffffffffffffffffffffffffffffffffffff\n      and\n        /* \"@openzeppelin/contracts/token/ERC20/ERC20.sol\":7791:7798  account */\n      dup3\n        /* \"@openzeppelin/contracts/token/ERC20/ERC20.sol\":7791:7812  account == address(0) */\n      0xffffffffffffffffffffffffffffffffffffffff\n      and\n      sub\n        /* \"@openzeppelin/contracts/token/ERC20/ERC20.sol\":7787:7878  if (account == address(0)) {... */\n      tag_298\n      jumpi\n        /* \"@openzeppelin/contracts/token/ERC20/ERC20.sol\":7864:7865  0 */\n      0x00\n        /* \"@openzeppelin/contracts/token/ERC20/ERC20.sol\":7835:7867  ERC20InvalidReceiver(address(0)) */\n      mload(0x40)\n      0xec442f0500000000000000000000000000000000000000000000000000000000\n      dup2\n      mstore\n      0x04\n      add\n      tag_299\n      swap2\n      swap1\n      tag_168\n      jump\t// in\n    tag_299:\n      mload(0x40)\n      dup1\n      swap2\n      sub\n      swap1\n      revert\n        /* \"@openzeppelin/contracts/token/ERC20/ERC20.sol\":7787:7878  if (account == address(0)) {... */\n    tag_298:\n        /* \"@openzeppelin/contracts/token/ERC20/ERC20.sol\":7887:7922  _update(address(0), account, value) */\n      tag_300\n        /* \"@openzeppelin/contracts/token/ERC20/ERC20.sol\":7903:7904  0 */\n      0x00\n        /* \"@openzeppelin/contracts/token/ERC20/ERC20.sol\":7907:7914  account */\n      dup4\n        /* \"@openzeppelin/contracts/token/ERC20/ERC20.sol\":7916:7921  value */\n      dup4\n        /* \"@openzeppelin/contracts/token/ERC20/ERC20.sol\":7887:7894  _update */\n      tag_278\n        /* \"@openzeppelin/contracts/token/ERC20/ERC20.sol\":7887:7922  _update(address(0), account, value) */\n      jump\t// in\n    tag_300:\n        /* \"@openzeppelin/contracts/token/ERC20/ERC20.sol\":7721:7929  function _mint(address account, uint256 value) internal {... */\n      pop\n      pop\n      jump\t// out\n        /* \"@openzeppelin/contracts/token/ERC20/ERC20.sol\":9949:10381  function _approve(address owner, address spender, uint256 value, bool emitEvent) internal virtual {... */\n    tag_264:\n        /* \"@openzeppelin/contracts/token/ERC20/ERC20.sol\":10078:10079  0 */\n      0x00\n        /* \"@openzeppelin/contracts/token/ERC20/ERC20.sol\":10061:10080  owner == address(0) */\n      0xffffffffffffffffffffffffffffffffffffffff\n      and\n        /* \"@openzeppelin/contracts/token/ERC20/ERC20.sol\":10061:10066  owner */\n      dup5\n        /* \"@openzeppelin/contracts/token/ERC20/ERC20.sol\":10061:10080  owner == address(0) */\n      0xffffffffffffffffffffffffffffffffffffffff\n      and\n      sub\n        /* \"@openzeppelin/contracts/token/ERC20/ERC20.sol\":10057:10146  if (owner == address(0)) {... */\n      tag_302\n      jumpi\n        /* \"@openzeppelin/contracts/token/ERC20/ERC20.sol\":10132:10133  0 */\n      0x00\n        /* \"@openzeppelin/contracts/token/ERC20/ERC20.sol\":10103:10135  ERC20InvalidApprover(address(0)) */\n      mload(0x40)\n      0xe602df0500000000000000000000000000000000000000000000000000000000\n      dup2\n      mstore\n      0x04\n      add\n      tag_303\n      swap2\n      swap1\n      tag_168\n      jump\t// in\n    tag_303:\n      mload(0x40)\n      dup1\n      swap2\n      sub\n      swap1\n      revert\n        /* \"@openzeppelin/contracts/token/ERC20/ERC20.sol\":10057:10146  if (owner == address(0)) {... */\n    tag_302:\n        /* \"@openzeppelin/contracts/token/ERC20/ERC20.sol\":10178:10179  0 */\n      0x00\n        /* \"@openzeppelin/contracts/token/ERC20/ERC20.sol\":10159:10180  spender == address(0) */\n      0xffffffffffffffffffffffffffffffffffffffff\n      and\n        /* \"@openzeppelin/contracts/token/ERC20/ERC20.sol\":10159:10166  spender */\n      dup4\n        /* \"@openzeppelin/contracts/token/ERC20/ERC20.sol\":10159:10180  spender == address(0) */\n      0xffffffffffffffffffffffffffffffffffffffff\n      and\n      sub\n        /* \"@openzeppelin/contracts/token/ERC20/ERC20.sol\":10155:10245  if (spender == address(0)) {... */\n      tag_304\n      jumpi\n        /* \"@openzeppelin/contracts/token/ERC20/ERC20.sol\":10231:10232  0 */\n      0x00\n        /* \"@openzeppelin/contracts/token/ERC20/ERC20.sol\":10203:10234  ERC20InvalidSpender(address(0)) */\n      mload(0x40)\n      0x94280d6200000000000000000000000000000000000000000000000000000000\n      dup2\n      mstore\n      0x04\n      add\n      tag_305\n      swap2\n      swap1\n      tag_168\n      jump\t// in\n    tag_305:\n      mload(0x40)\n      dup1\n      swap2\n      sub\n      swap1\n      revert\n        /* \"@openzeppelin/contracts/token/ERC20/ERC20.sol\":10155:10245  if (spender == address(0)) {... */\n    tag_304:\n        /* \"@openzeppelin/contracts/token/ERC20/ERC20.sol\":10284:10289  value */\n      dup2\n        /* \"@openzeppelin/contracts/token/ERC20/ERC20.sol\":10254:10265  _allowances */\n      0x01\n        /* \"@openzeppelin/contracts/token/ERC20/ERC20.sol\":10254:10272  _allowances[owner] */\n      0x00\n        /* \"@openzeppelin/contracts/token/ERC20/ERC20.sol\":10266:10271  owner */\n      dup7\n        /* \"@openzeppelin/contracts/token/ERC20/ERC20.sol\":10254:10272  _allowances[owner] */\n      0xffffffffffffffffffffffffffffffffffffffff\n      and\n      0xffffffffffffffffffffffffffffffffffffffff\n      and\n      dup2\n      mstore\n      0x20\n      add\n      swap1\n      dup2\n      mstore\n      0x20\n      add\n      0x00\n      keccak256\n        /* \"@openzeppelin/contracts/token/ERC20/ERC20.sol\":10254:10281  _allowances[owner][spender] */\n      0x00\n        /* \"@openzeppelin/contracts/token/ERC20/ERC20.sol\":10273:10280  spender */\n      dup6\n        /* \"@openzeppelin/contracts/token/ERC20/ERC20.sol\":10254:10281  _allowances[owner][spender] */\n      0xffffffffffffffffffffffffffffffffffffffff\n      and\n      0xffffffffffffffffffffffffffffffffffffffff\n      and\n      dup2\n      mstore\n      0x20\n      add\n      swap1\n      dup2\n      mstore\n      0x20\n      add\n      0x00\n      keccak256\n        /* \"@openzeppelin/contracts/token/ERC20/ERC20.sol\":10254:10289  _allowances[owner][spender] = value */\n      dup2\n      swap1\n      sstore\n      pop\n        /* \"@openzeppelin/contracts/token/ERC20/ERC20.sol\":10303:10312  emitEvent */\n      dup1\n        /* \"@openzeppelin/contracts/token/ERC20/ERC20.sol\":10299:10375  if (emitEvent) {... */\n      iszero\n      tag_306\n      jumpi\n        /* \"@openzeppelin/contracts/token/ERC20/ERC20.sol\":10349:10356  spender */\n      dup3\n        /* \"@openzeppelin/contracts/token/ERC20/ERC20.sol\":10333:10364  Approval(owner, spender, value) */\n      0xffffffffffffffffffffffffffffffffffffffff\n      and\n        /* \"@openzeppelin/contracts/token/ERC20/ERC20.sol\":10342:10347  owner */\n      dup5\n        /* \"@openzeppelin/contracts/token/ERC20/ERC20.sol\":10333:10364  Approval(owner, spender, value) */\n      0xffffffffffffffffffffffffffffffffffffffff\n      and\n      0x8c5be1e5ebec7d5bd14f71427d1e84f3dd0314c0f7b2291e5b200ac8c7c3b925\n        /* \"@openzeppelin/contracts/token/ERC20/ERC20.sol\":10358:10363  value */\n      dup5\n        /* \"@openzeppelin/contracts/token/ERC20/ERC20.sol\":10333:10364  Approval(owner, spender, value) */\n      mload(0x40)\n      tag_307\n      swap2\n      swap1\n      tag_28\n      jump\t// in\n    tag_307:\n      mload(0x40)\n      dup1\n      swap2\n      sub\n      swap1\n      log3\n        /* \"@openzeppelin/contracts/token/ERC20/ERC20.sol\":10299:10375  if (emitEvent) {... */\n    tag_306:\n        /* \"@openzeppelin/contracts/token/ERC20/ERC20.sol\":9949:10381  function _approve(address owner, address spender, uint256 value, bool emitEvent) internal virtual {... */\n      pop\n      pop\n      pop\n      pop\n      jump\t// out\n        /* \"@openzeppelin/contracts/token/ERC20/ERC20.sol\":6271:7378  function _update(address from, address to, uint256 value) internal virtual {... */\n    tag_278:\n        /* \"@openzeppelin/contracts/token/ERC20/ERC20.sol\":6376:6377  0 */\n      0x00\n        /* \"@openzeppelin/contracts/token/ERC20/ERC20.sol\":6360:6378  from == address(0) */\n      0xffffffffffffffffffffffffffffffffffffffff\n      and\n        /* \"@openzeppelin/contracts/token/ERC20/ERC20.sol\":6360:6364  from */\n      dup4\n        /* \"@openzeppelin/contracts/token/ERC20/ERC20.sol\":6360:6378  from == address(0) */\n      0xffffffffffffffffffffffffffffffffffffffff\n      and\n      sub\n        /* \"@openzeppelin/contracts/token/ERC20/ERC20.sol\":6356:6896  if (from == address(0)) {... */\n      tag_309\n      jumpi\n        /* \"@openzeppelin/contracts/token/ERC20/ERC20.sol\":6512:6517  value */\n      dup1\n        /* \"@openzeppelin/contracts/token/ERC20/ERC20.sol\":6496:6508  _totalSupply */\n      0x02\n      0x00\n        /* \"@openzeppelin/contracts/token/ERC20/ERC20.sol\":6496:6517  _totalSupply += value */\n      dup3\n      dup3\n      sload\n      tag_310\n      swap2\n      swap1\n      tag_107\n      jump\t// in\n    tag_310:\n      swap3\n      pop\n      pop\n      dup2\n      swap1\n      sstore\n      pop\n        /* \"@openzeppelin/contracts/token/ERC20/ERC20.sol\":6356:6896  if (from == address(0)) {... */\n      jump(tag_311)\n    tag_309:\n        /* \"@openzeppelin/contracts/token/ERC20/ERC20.sol\":6548:6567  uint256 fromBalance */\n      0x00\n        /* \"@openzeppelin/contracts/token/ERC20/ERC20.sol\":6570:6579  _balances */\n      dup1\n        /* \"@openzeppelin/contracts/token/ERC20/ERC20.sol\":6570:6585  _balances[from] */\n      0x00\n        /* \"@openzeppelin/contracts/token/ERC20/ERC20.sol\":6580:6584  from */\n      dup6\n        /* \"@openzeppelin/contracts/token/ERC20/ERC20.sol\":6570:6585  _balances[from] */\n      0xffffffffffffffffffffffffffffffffffffffff\n      and\n      0xffffffffffffffffffffffffffffffffffffffff\n      and\n      dup2\n      mstore\n      0x20\n      add\n      swap1\n      dup2\n      mstore\n      0x20\n      add\n      0x00\n      keccak256\n      sload\n        /* \"@openzeppelin/contracts/token/ERC20/ERC20.sol\":6548:6585  uint256 fromBalance = _balances[from] */\n      swap1\n      pop\n        /* \"@openzeppelin/contracts/token/ERC20/ERC20.sol\":6617:6622  value */\n      dup2\n        /* \"@openzeppelin/contracts/token/ERC20/ERC20.sol\":6603:6614  fromBalance */\n      dup2\n        /* \"@openzeppelin/contracts/token/ERC20/ERC20.sol\":6603:6622  fromBalance < value */\n      lt\n        /* \"@openzeppelin/contracts/token/ERC20/ERC20.sol\":6599:6714  if (fromBalance < value) {... */\n      iszero\n      tag_312\n      jumpi\n        /* \"@openzeppelin/contracts/token/ERC20/ERC20.sol\":6674:6678  from */\n      dup4\n        /* \"@openzeppelin/contracts/token/ERC20/ERC20.sol\":6680:6691  fromBalance */\n      dup2\n        /* \"@openzeppelin/contracts/token/ERC20/ERC20.sol\":6693:6698  value */\n      dup4\n        /* \"@openzeppelin/contracts/token/ERC20/ERC20.sol\":6649:6699  ERC20InsufficientBalance(from, fromBalance, value) */\n      mload(0x40)\n      0xe450d38c00000000000000000000000000000000000000000000000000000000\n      dup2\n      mstore\n      0x04\n      add\n      tag_313\n      swap4\n      swap3\n      swap2\n      swap1\n      tag_270\n      jump\t// in\n    tag_313:\n      mload(0x40)\n      dup1\n      swap2\n      sub\n      swap1\n      revert\n        /* \"@openzeppelin/contracts/token/ERC20/ERC20.sol\":6599:6714  if (fromBalance < value) {... */\n    tag_312:\n        /* \"@openzeppelin/contracts/token/ERC20/ERC20.sol\":6866:6871  value */\n      dup2\n        /* \"@openzeppelin/contracts/token/ERC20/ERC20.sol\":6852:6863  fromBalance */\n      dup2\n        /* \"@openzeppelin/contracts/token/ERC20/ERC20.sol\":6852:6871  fromBalance - value */\n      sub\n        /* \"@openzeppelin/contracts/token/ERC20/ERC20.sol\":6834:6843  _balances */\n      0x00\n        /* \"@openzeppelin/contracts/token/ERC20/ERC20.sol\":6834:6849  _balances[from] */\n      dup1\n        /* \"@openzeppelin/contracts/token/ERC20/ERC20.sol\":6844:6848  from */\n      dup7\n        /* \"@openzeppelin/contracts/token/ERC20/ERC20.sol\":6834:6849  _balances[from] */\n      0xffffffffffffffffffffffffffffffffffffffff\n      and\n      0xffffffffffffffffffffffffffffffffffffffff\n      and\n      dup2\n      mstore\n      0x20\n      add\n      swap1\n      dup2\n      mstore\n      0x20\n      add\n      0x00\n      keccak256\n        /* \"@openzeppelin/contracts/token/ERC20/ERC20.sol\":6834:6871  _balances[from] = fromBalance - value */\n      dup2\n      swap1\n      sstore\n      pop\n        /* \"@openzeppelin/contracts/token/ERC20/ERC20.sol\":6534:6896  {... */\n      pop\n        /* \"@openzeppelin/contracts/token/ERC20/ERC20.sol\":6356:6896  if (from == address(0)) {... */\n    tag_311:\n        /* \"@openzeppelin/contracts/token/ERC20/ERC20.sol\":6924:6925  0 */\n      0x00\n        /* \"@openzeppelin/contracts/token/ERC20/ERC20.sol\":6910:6926  to == address(0) */\n      0xffffffffffffffffffffffffffffffffffffffff\n      and\n        /* \"@openzeppelin/contracts/token/ERC20/ERC20.sol\":6910:6912  to */\n      dup3\n        /* \"@openzeppelin/contracts/token/ERC20/ERC20.sol\":6910:6926  to == address(0) */\n      0xffffffffffffffffffffffffffffffffffffffff\n      and\n      sub\n        /* \"@openzeppelin/contracts/token/ERC20/ERC20.sol\":6906:7331  if (to == address(0)) {... */\n      tag_314\n      jumpi\n        /* \"@openzeppelin/contracts/token/ERC20/ERC20.sol\":7089:7094  value */\n      dup1\n        /* \"@openzeppelin/contracts/token/ERC20/ERC20.sol\":7073:7085  _totalSupply */\n      0x02\n      0x00\n        /* \"@openzeppelin/contracts/token/ERC20/ERC20.sol\":7073:7094  _totalSupply -= value */\n      dup3\n      dup3\n      sload\n      sub\n      swap3\n      pop\n      pop\n      dup2\n      swap1\n      sstore\n      pop\n        /* \"@openzeppelin/contracts/token/ERC20/ERC20.sol\":6906:7331  if (to == address(0)) {... */\n      jump(tag_315)\n    tag_314:\n        /* \"@openzeppelin/contracts/token/ERC20/ERC20.sol\":7301:7306  value */\n      dup1\n        /* \"@openzeppelin/contracts/token/ERC20/ERC20.sol\":7284:7293  _balances */\n      0x00\n        /* \"@openzeppelin/contracts/token/ERC20/ERC20.sol\":7284:7297  _balances[to] */\n      dup1\n        /* \"@openzeppelin/contracts/token/ERC20/ERC20.sol\":7294:7296  to */\n      dup5\n        /* \"@openzeppelin/contracts/token/ERC20/ERC20.sol\":7284:7297  _balances[to] */\n      0xffffffffffffffffffffffffffffffffffffffff\n      and\n      0xffffffffffffffffffffffffffffffffffffffff\n      and\n      dup2\n      mstore\n      0x20\n      add\n      swap1\n      dup2\n      mstore\n      0x20\n      add\n      0x00\n      keccak256\n      0x00\n        /* \"@openzeppelin/contracts/token/ERC20/ERC20.sol\":7284:7306  _balances[to] += value */\n      dup3\n      dup3\n      sload\n      add\n      swap3\n      pop\n      pop\n      dup2\n      swap1\n      sstore\n      pop\n        /* \"@openzeppelin/contracts/token/ERC20/ERC20.sol\":6906:7331  if (to == address(0)) {... */\n    tag_315:\n        /* \"@openzeppelin/contracts/token/ERC20/ERC20.sol\":7361:7363  to */\n      dup2\n        /* \"@openzeppelin/contracts/token/ERC20/ERC20.sol\":7346:7371  Transfer(from, to, value) */\n      0xffffffffffffffffffffffffffffffffffffffff\n      and\n        /* \"@openzeppelin/contracts/token/ERC20/ERC20.sol\":7355:7359  from */\n      dup4\n        /* \"@openzeppelin/contracts/token/ERC20/ERC20.sol\":7346:7371  Transfer(from, to, value) */\n      0xffffffffffffffffffffffffffffffffffffffff\n      and\n      0xddf252ad1be2c89b69c2b068fc378daa952ba7f163c4a11628f55a4df523b3ef\n        /* \"@openzeppelin/contracts/token/ERC20/ERC20.sol\":7365:7370  value */\n      dup4\n        /* \"@openzeppelin/contracts/token/ERC20/ERC20.sol\":7346:7371  Transfer(from, to, value) */\n      mload(0x40)\n      tag_316\n      swap2\n      swap1\n      tag_28\n      jump\t// in\n    tag_316:\n      mload(0x40)\n      dup1\n      swap2\n      sub\n      swap1\n      log3\n        /* \"@openzeppelin/contracts/token/ERC20/ERC20.sol\":6271:7378  function _update(address from, address to, uint256 value) internal virtual {... */\n      pop\n      pop\n      pop\n      jump\t// out\n        /* \"#utility.yul\":88:205   */\n    tag_318:\n        /* \"#utility.yul\":197:198   */\n      0x00\n        /* \"#utility.yul\":194:195   */\n      dup1\n        /* \"#utility.yul\":187:199   */\n      revert\n        /* \"#utility.yul\":334:411   */\n    tag_320:\n        /* \"#utility.yul\":371:378   */\n      0x00\n        /* \"#utility.yul\":400:405   */\n      dup2\n        /* \"#utility.yul\":389:405   */\n      swap1\n      pop\n        /* \"#utility.yul\":334:411   */\n      swap2\n      swap1\n      pop\n      jump\t// out\n        /* \"#utility.yul\":417:539   */\n    tag_321:\n        /* \"#utility.yul\":490:514   */\n      tag_368\n        /* \"#utility.yul\":508:513   */\n      dup2\n        /* \"#utility.yul\":490:514   */\n      tag_320\n      jump\t// in\n    tag_368:\n        /* \"#utility.yul\":483:488   */\n      dup2\n        /* \"#utility.yul\":480:515   */\n      eq\n        /* \"#utility.yul\":470:533   */\n      tag_369\n      jumpi\n        /* \"#utility.yul\":529:530   */\n      0x00\n        /* \"#utility.yul\":526:527   */\n      dup1\n        /* \"#utility.yul\":519:531   */\n      revert\n        /* \"#utility.yul\":470:533   */\n    tag_369:\n        /* \"#utility.yul\":417:539   */\n      pop\n      jump\t// out\n        /* \"#utility.yul\":545:684   */\n    tag_322:\n        /* \"#utility.yul\":591:596   */\n      0x00\n        /* \"#utility.yul\":629:635   */\n      dup2\n        /* \"#utility.yul\":616:636   */\n      calldataload\n        /* \"#utility.yul\":607:636   */\n      swap1\n      pop\n        /* \"#utility.yul\":645:678   */\n      tag_371\n        /* \"#utility.yul\":672:677   */\n      dup2\n        /* \"#utility.yul\":645:678   */\n      tag_321\n      jump\t// in\n    tag_371:\n        /* \"#utility.yul\":545:684   */\n      swap3\n      swap2\n      pop\n      pop\n      jump\t// out\n        /* \"#utility.yul\":690:1309   */\n    tag_25:\n        /* \"#utility.yul\":767:773   */\n      0x00\n        /* \"#utility.yul\":775:781   */\n      dup1\n        /* \"#utility.yul\":783:789   */\n      0x00\n        /* \"#utility.yul\":832:834   */\n      0x60\n        /* \"#utility.yul\":820:829   */\n      dup5\n        /* \"#utility.yul\":811:818   */\n      dup7\n        /* \"#utility.yul\":807:830   */\n      sub\n        /* \"#utility.yul\":803:835   */\n      slt\n        /* \"#utility.yul\":800:919   */\n      iszero\n      tag_373\n      jumpi\n        /* \"#utility.yul\":838:917   */\n      tag_374\n      tag_318\n      jump\t// in\n    tag_374:\n        /* \"#utility.yul\":800:919   */\n    tag_373:\n        /* \"#utility.yul\":958:959   */\n      0x00\n        /* \"#utility.yul\":983:1036   */\n      tag_375\n        /* \"#utility.yul\":1028:1035   */\n      dup7\n        /* \"#utility.yul\":1019:1025   */\n      dup3\n        /* \"#utility.yul\":1008:1017   */\n      dup8\n        /* \"#utility.yul\":1004:1026   */\n      add\n        /* \"#utility.yul\":983:1036   */\n      tag_322\n      jump\t// in\n    tag_375:\n        /* \"#utility.yul\":973:1036   */\n      swap4\n      pop\n        /* \"#utility.yul\":929:1046   */\n      pop\n        /* \"#utility.yul\":1085:1087   */\n      0x20\n        /* \"#utility.yul\":1111:1164   */\n      tag_376\n        /* \"#utility.yul\":1156:1163   */\n      dup7\n        /* \"#utility.yul\":1147:1153   */\n      dup3\n        /* \"#utility.yul\":1136:1145   */\n      dup8\n        /* \"#utility.yul\":1132:1154   */\n      add\n        /* \"#utility.yul\":1111:1164   */\n      tag_322\n      jump\t// in\n    tag_376:\n        /* \"#utility.yul\":1101:1164   */\n      swap3\n      pop\n        /* \"#utility.yul\":1056:1174   */\n      pop\n        /* \"#utility.yul\":1213:1215   */\n      0x40\n        /* \"#utility.yul\":1239:1292   */\n      tag_377\n        /* \"#utility.yul\":1284:1291   */\n      dup7\n        /* \"#utility.yul\":1275:1281   */\n      dup3\n        /* \"#utility.yul\":1264:1273   */\n      dup8\n        /* \"#utility.yul\":1260:1282   */\n      add\n        /* \"#utility.yul\":1239:1292   */\n      tag_322\n      jump\t// in\n    tag_377:\n        /* \"#utility.yul\":1229:1292   */\n      swap2\n      pop\n        /* \"#utility.yul\":1184:1302   */\n      pop\n        /* \"#utility.yul\":690:1309   */\n      swap3\n      pop\n      swap3\n      pop\n      swap3\n      jump\t// out\n        /* \"#utility.yul\":1315:1433   */\n    tag_323:\n        /* \"#utility.yul\":1402:1426   */\n      tag_379\n        /* \"#utility.yul\":1420:1425   */\n      dup2\n        /* \"#utility.yul\":1402:1426   */\n      tag_320\n      jump\t// in\n    tag_379:\n        /* \"#utility.yul\":1397:1400   */\n      dup3\n        /* \"#utility.yul\":1390:1427   */\n      mstore\n        /* \"#utility.yul\":1315:1433   */\n      pop\n      pop\n      jump\t// out\n        /* \"#utility.yul\":1439:1661   */\n    tag_28:\n        /* \"#utility.yul\":1532:1536   */\n      0x00\n        /* \"#utility.yul\":1570:1572   */\n      0x20\n        /* \"#utility.yul\":1559:1568   */\n      dup3\n        /* \"#utility.yul\":1555:1573   */\n      add\n        /* \"#utility.yul\":1547:1573   */\n      swap1\n      pop\n        /* \"#utility.yul\":1583:1654   */\n      tag_381\n        /* \"#utility.yul\":1651:1652   */\n      0x00\n        /* \"#utility.yul\":1640:1649   */\n      dup4\n        /* \"#utility.yul\":1636:1653   */\n      add\n        /* \"#utility.yul\":1627:1633   */\n      dup5\n        /* \"#utility.yul\":1583:1654   */\n      tag_323\n      jump\t// in\n    tag_381:\n        /* \"#utility.yul\":1439:1661   */\n      swap3\n      swap2\n      pop\n      pop\n      jump\t// out\n        /* \"#utility.yul\":1667:1766   */\n    tag_324:\n        /* \"#utility.yul\":1719:1725   */\n      0x00\n        /* \"#utility.yul\":1753:1758   */\n      dup2\n        /* \"#utility.yul\":1747:1759   */\n      mload\n        /* \"#utility.yul\":1737:1759   */\n      swap1\n      pop\n        /* \"#utility.yul\":1667:1766   */\n      swap2\n      swap1\n      pop\n      jump\t// out\n        /* \"#utility.yul\":1772:1941   */\n    tag_325:\n        /* \"#utility.yul\":1856:1867   */\n      0x00\n        /* \"#utility.yul\":1890:1896   */\n      dup3\n        /* \"#utility.yul\":1885:1888   */\n      dup3\n        /* \"#utility.yul\":1878:1897   */\n      mstore\n        /* \"#utility.yul\":1930:1934   */\n      0x20\n        /* \"#utility.yul\":1925:1928   */\n      dup3\n        /* \"#utility.yul\":1921:1935   */\n      add\n        /* \"#utility.yul\":1906:1935   */\n      swap1\n      pop\n        /* \"#utility.yul\":1772:1941   */\n      swap3\n      swap2\n      pop\n      pop\n      jump\t// out\n        /* \"#utility.yul\":1947:2086   */\n    tag_326:\n        /* \"#utility.yul\":2036:2042   */\n      dup3\n        /* \"#utility.yul\":2031:2034   */\n      dup2\n        /* \"#utility.yul\":2026:2029   */\n      dup4\n        /* \"#utility.yul\":2020:2043   */\n      mcopy\n        /* \"#utility.yul\":2077:2078   */\n      0x00\n        /* \"#utility.yul\":2068:2074   */\n      dup4\n        /* \"#utility.yul\":2063:2066   */\n      dup4\n        /* \"#utility.yul\":2059:2075   */\n      add\n        /* \"#utility.yul\":2052:2079   */\n      mstore\n        /* \"#utility.yul\":1947:2086   */\n      pop\n      pop\n      pop\n      jump\t// out\n        /* \"#utility.yul\":2092:2194   */\n    tag_327:\n        /* \"#utility.yul\":2133:2139   */\n      0x00\n        /* \"#utility.yul\":2184:2186   */\n      0x1f\n        /* \"#utility.yul\":2180:2187   */\n      not\n        /* \"#utility.yul\":2175:2177   */\n      0x1f\n        /* \"#utility.yul\":2168:2173   */\n      dup4\n        /* \"#utility.yul\":2164:2178   */\n      add\n        /* \"#utility.yul\":2160:2188   */\n      and\n        /* \"#utility.yul\":2150:2188   */\n      swap1\n      pop\n        /* \"#utility.yul\":2092:2194   */\n      swap2\n      swap1\n      pop\n      jump\t// out\n        /* \"#utility.yul\":2200:2577   */\n    tag_328:\n        /* \"#utility.yul\":2288:2291   */\n      0x00\n        /* \"#utility.yul\":2316:2355   */\n      tag_387\n        /* \"#utility.yul\":2349:2354   */\n      dup3\n        /* \"#utility.yul\":2316:2355   */\n      tag_324\n      jump\t// in\n    tag_387:\n        /* \"#utility.yul\":2371:2442   */\n      tag_388\n        /* \"#utility.yul\":2435:2441   */\n      dup2\n        /* \"#utility.yul\":2430:2433   */\n      dup6\n        /* \"#utility.yul\":2371:2442   */\n      tag_325\n      jump\t// in\n    tag_388:\n        /* \"#utility.yul\":2364:2442   */\n      swap4\n      pop\n        /* \"#utility.yul\":2451:2516   */\n      tag_389\n        /* \"#utility.yul\":2509:2515   */\n      dup2\n        /* \"#utility.yul\":2504:2507   */\n      dup6\n        /* \"#utility.yul\":2497:2501   */\n      0x20\n        /* \"#utility.yul\":2490:2495   */\n      dup7\n        /* \"#utility.yul\":2486:2502   */\n      add\n        /* \"#utility.yul\":2451:2516   */\n      tag_326\n      jump\t// in\n    tag_389:\n        /* \"#utility.yul\":2541:2570   */\n      tag_390\n        /* \"#utility.yul\":2563:2569   */\n      dup2\n        /* \"#utility.yul\":2541:2570   */\n      tag_327\n      jump\t// in\n    tag_390:\n        /* \"#utility.yul\":2536:2539   */\n      dup5\n        /* \"#utility.yul\":2532:2571   */\n      add\n        /* \"#utility.yul\":2525:2571   */\n      swap2\n      pop\n        /* \"#utility.yul\":2292:2577   */\n      pop\n        /* \"#utility.yul\":2200:2577   */\n      swap3\n      swap2\n      pop\n      pop\n      jump\t// out\n        /* \"#utility.yul\":2583:2896   */\n    tag_32:\n        /* \"#utility.yul\":2696:2700   */\n      0x00\n        /* \"#utility.yul\":2734:2736   */\n      0x20\n        /* \"#utility.yul\":2723:2732   */\n      dup3\n        /* \"#utility.yul\":2719:2737   */\n      add\n        /* \"#utility.yul\":2711:2737   */\n      swap1\n      pop\n        /* \"#utility.yul\":2783:2792   */\n      dup2\n        /* \"#utility.yul\":2777:2781   */\n      dup2\n        /* \"#utility.yul\":2773:2793   */\n      sub\n        /* \"#utility.yul\":2769:2770   */\n      0x00\n        /* \"#utility.yul\":2758:2767   */\n      dup4\n        /* \"#utility.yul\":2754:2771   */\n      add\n        /* \"#utility.yul\":2747:2794   */\n      mstore\n        /* \"#utility.yul\":2811:2889   */\n      tag_392\n        /* \"#utility.yul\":2884:2888   */\n      dup2\n        /* \"#utility.yul\":2875:2881   */\n      dup5\n        /* \"#utility.yul\":2811:2889   */\n      tag_328\n      jump\t// in\n    tag_392:\n        /* \"#utility.yul\":2803:2889   */\n      swap1\n      pop\n        /* \"#utility.yul\":2583:2896   */\n      swap3\n      swap2\n      pop\n      pop\n      jump\t// out\n        /* \"#utility.yul\":2902:3028   */\n    tag_329:\n        /* \"#utility.yul\":2939:2946   */\n      0x00\n        /* \"#utility.yul\":2979:3021   */\n      0xffffffffffffffffffffffffffffffffffffffff\n        /* \"#utility.yul\":2972:2977   */\n      dup3\n        /* \"#utility.yul\":2968:3022   */\n      and\n        /* \"#utility.yul\":2957:3022   */\n      swap1\n      pop\n        /* \"#utility.yul\":2902:3028   */\n      swap2\n      swap1\n      pop\n      jump\t// out\n        /* \"#utility.yul\":3034:3130   */\n    tag_330:\n        /* \"#utility.yul\":3071:3078   */\n      0x00\n        /* \"#utility.yul\":3100:3124   */\n      tag_395\n        /* \"#utility.yul\":3118:3123   */\n      dup3\n        /* \"#utility.yul\":3100:3124   */\n      tag_329\n      jump\t// in\n    tag_395:\n        /* \"#utility.yul\":3089:3124   */\n      swap1\n      pop\n        /* \"#utility.yul\":3034:3130   */\n      swap2\n      swap1\n      pop\n      jump\t// out\n        /* \"#utility.yul\":3136:3258   */\n    tag_331:\n        /* \"#utility.yul\":3209:3233   */\n      tag_397\n        /* \"#utility.yul\":3227:3232   */\n      dup2\n        /* \"#utility.yul\":3209:3233   */\n      tag_330\n      jump\t// in\n    tag_397:\n        /* \"#utility.yul\":3202:3207   */\n      dup2\n        /* \"#utility.yul\":3199:3234   */\n      eq\n        /* \"#utility.yul\":3189:3252   */\n      tag_398\n      jumpi\n        /* \"#utility.yul\":3248:3249   */\n      0x00\n        /* \"#utility.yul\":3245:3246   */\n      dup1\n        /* \"#utility.yul\":3238:3250   */\n      revert\n        /* \"#utility.yul\":3189:3252   */\n    tag_398:\n        /* \"#utility.yul\":3136:3258   */\n      pop\n      jump\t// out\n        /* \"#utility.yul\":3264:3403   */\n    tag_332:\n        /* \"#utility.yul\":3310:3315   */\n      0x00\n        /* \"#utility.yul\":3348:3354   */\n      dup2\n        /* \"#utility.yul\":3335:3355   */\n      calldataload\n        /* \"#utility.yul\":3326:3355   */\n      swap1\n      pop\n        /* \"#utility.yul\":3364:3397   */\n      tag_400\n        /* \"#utility.yul\":3391:3396   */\n      dup2\n        /* \"#utility.yul\":3364:3397   */\n      tag_331\n      jump\t// in\n    tag_400:\n        /* \"#utility.yul\":3264:3403   */\n      swap3\n      swap2\n      pop\n      pop\n      jump\t// out\n        /* \"#utility.yul\":3409:3883   */\n    tag_35:\n        /* \"#utility.yul\":3477:3483   */\n      0x00\n        /* \"#utility.yul\":3485:3491   */\n      dup1\n        /* \"#utility.yul\":3534:3536   */\n      0x40\n        /* \"#utility.yul\":3522:3531   */\n      dup4\n        /* \"#utility.yul\":3513:3520   */\n      dup6\n        /* \"#utility.yul\":3509:3532   */\n      sub\n        /* \"#utility.yul\":3505:3537   */\n      slt\n        /* \"#utility.yul\":3502:3621   */\n      iszero\n      tag_402\n      jumpi\n        /* \"#utility.yul\":3540:3619   */\n      tag_403\n      tag_318\n      jump\t// in\n    tag_403:\n        /* \"#utility.yul\":3502:3621   */\n    tag_402:\n        /* \"#utility.yul\":3660:3661   */\n      0x00\n        /* \"#utility.yul\":3685:3738   */\n      tag_404\n        /* \"#utility.yul\":3730:3737   */\n      dup6\n        /* \"#utility.yul\":3721:3727   */\n      dup3\n        /* \"#utility.yul\":3710:3719   */\n      dup7\n        /* \"#utility.yul\":3706:3728   */\n      add\n        /* \"#utility.yul\":3685:3738   */\n      tag_332\n      jump\t// in\n    tag_404:\n        /* \"#utility.yul\":3675:3738   */\n      swap3\n      pop\n        /* \"#utility.yul\":3631:3748   */\n      pop\n        /* \"#utility.yul\":3787:3789   */\n      0x20\n        /* \"#utility.yul\":3813:3866   */\n      tag_405\n        /* \"#utility.yul\":3858:3865   */\n      dup6\n        /* \"#utility.yul\":3849:3855   */\n      dup3\n        /* \"#utility.yul\":3838:3847   */\n      dup7\n        /* \"#utility.yul\":3834:3856   */\n      add\n        /* \"#utility.yul\":3813:3866   */\n      tag_322\n      jump\t// in\n    tag_405:\n        /* \"#utility.yul\":3803:3866   */\n      swap2\n      pop\n        /* \"#utility.yul\":3758:3876   */\n      pop\n        /* \"#utility.yul\":3409:3883   */\n      swap3\n      pop\n      swap3\n      swap1\n      pop\n      jump\t// out\n        /* \"#utility.yul\":3889:3979   */\n    tag_333:\n        /* \"#utility.yul\":3923:3930   */\n      0x00\n        /* \"#utility.yul\":3966:3971   */\n      dup2\n        /* \"#utility.yul\":3959:3972   */\n      iszero\n        /* \"#utility.yul\":3952:3973   */\n      iszero\n        /* \"#utility.yul\":3941:3973   */\n      swap1\n      pop\n        /* \"#utility.yul\":3889:3979   */\n      swap2\n      swap1\n      pop\n      jump\t// out\n        /* \"#utility.yul\":3985:4094   */\n    tag_334:\n        /* \"#utility.yul\":4066:4087   */\n      tag_408\n        /* \"#utility.yul\":4081:4086   */\n      dup2\n        /* \"#utility.yul\":4066:4087   */\n      tag_333\n      jump\t// in\n    tag_408:\n        /* \"#utility.yul\":4061:4064   */\n      dup3\n        /* \"#utility.yul\":4054:4088   */\n      mstore\n        /* \"#utility.yul\":3985:4094   */\n      pop\n      pop\n      jump\t// out\n        /* \"#utility.yul\":4100:4310   */\n    tag_38:\n        /* \"#utility.yul\":4187:4191   */\n      0x00\n        /* \"#utility.yul\":4225:4227   */\n      0x20\n        /* \"#utility.yul\":4214:4223   */\n      dup3\n        /* \"#utility.yul\":4210:4228   */\n      add\n        /* \"#utility.yul\":4202:4228   */\n      swap1\n      pop\n        /* \"#utility.yul\":4238:4303   */\n      tag_410\n        /* \"#utility.yul\":4300:4301   */\n      0x00\n        /* \"#utility.yul\":4289:4298   */\n      dup4\n        /* \"#utility.yul\":4285:4302   */\n      add\n        /* \"#utility.yul\":4276:4282   */\n      dup5\n        /* \"#utility.yul\":4238:4303   */\n      tag_334\n      jump\t// in\n    tag_410:\n        /* \"#utility.yul\":4100:4310   */\n      swap3\n      swap2\n      pop\n      pop\n      jump\t// out\n        /* \"#utility.yul\":4316:4376   */\n    tag_335:\n        /* \"#utility.yul\":4344:4347   */\n      0x00\n        /* \"#utility.yul\":4365:4370   */\n      dup2\n        /* \"#utility.yul\":4358:4370   */\n      swap1\n      pop\n        /* \"#utility.yul\":4316:4376   */\n      swap2\n      swap1\n      pop\n      jump\t// out\n        /* \"#utility.yul\":4382:4524   */\n    tag_336:\n        /* \"#utility.yul\":4432:4441   */\n      0x00\n        /* \"#utility.yul\":4465:4518   */\n      tag_413\n        /* \"#utility.yul\":4483:4517   */\n      tag_414\n        /* \"#utility.yul\":4492:4516   */\n      tag_415\n        /* \"#utility.yul\":4510:4515   */\n      dup5\n        /* \"#utility.yul\":4492:4516   */\n      tag_329\n      jump\t// in\n    tag_415:\n        /* \"#utility.yul\":4483:4517   */\n      tag_335\n      jump\t// in\n    tag_414:\n        /* \"#utility.yul\":4465:4518   */\n      tag_329\n      jump\t// in\n    tag_413:\n        /* \"#utility.yul\":4452:4518   */\n      swap1\n      pop\n        /* \"#utility.yul\":4382:4524   */\n      swap2\n      swap1\n      pop\n      jump\t// out\n        /* \"#utility.yul\":4530:4656   */\n    tag_337:\n        /* \"#utility.yul\":4580:4589   */\n      0x00\n        /* \"#utility.yul\":4613:4650   */\n      tag_417\n        /* \"#utility.yul\":4644:4649   */\n      dup3\n        /* \"#utility.yul\":4613:4650   */\n      tag_336\n      jump\t// in\n    tag_417:\n        /* \"#utility.yul\":4600:4650   */\n      swap1\n      pop\n        /* \"#utility.yul\":4530:4656   */\n      swap2\n      swap1\n      pop\n      jump\t// out\n        /* \"#utility.yul\":4662:4802   */\n    tag_338:\n        /* \"#utility.yul\":4726:4735   */\n      0x00\n        /* \"#utility.yul\":4759:4796   */\n      tag_419\n        /* \"#utility.yul\":4790:4795   */\n      dup3\n        /* \"#utility.yul\":4759:4796   */\n      tag_337\n      jump\t// in\n    tag_419:\n        /* \"#utility.yul\":4746:4796   */\n      swap1\n      pop\n        /* \"#utility.yul\":4662:4802   */\n      swap2\n      swap1\n      pop\n      jump\t// out\n        /* \"#utility.yul\":4808:4967   */\n    tag_339:\n        /* \"#utility.yul\":4909:4960   */\n      tag_421\n        /* \"#utility.yul\":4954:4959   */\n      dup2\n        /* \"#utility.yul\":4909:4960   */\n      tag_338\n      jump\t// in\n    tag_421:\n        /* \"#utility.yul\":4904:4907   */\n      dup3\n        /* \"#utility.yul\":4897:4961   */\n      mstore\n        /* \"#utility.yul\":4808:4967   */\n      pop\n      pop\n      jump\t// out\n        /* \"#utility.yul\":4973:5223   */\n    tag_42:\n        /* \"#utility.yul\":5080:5084   */\n      0x00\n        /* \"#utility.yul\":5118:5120   */\n      0x20\n        /* \"#utility.yul\":5107:5116   */\n      dup3\n        /* \"#utility.yul\":5103:5121   */\n      add\n        /* \"#utility.yul\":5095:5121   */\n      swap1\n      pop\n        /* \"#utility.yul\":5131:5216   */\n      tag_423\n        /* \"#utility.yul\":5213:5214   */\n      0x00\n        /* \"#utility.yul\":5202:5211   */\n      dup4\n        /* \"#utility.yul\":5198:5215   */\n      add\n        /* \"#utility.yul\":5189:5195   */\n      dup5\n        /* \"#utility.yul\":5131:5216   */\n      tag_339\n      jump\t// in\n    tag_423:\n        /* \"#utility.yul\":4973:5223   */\n      swap3\n      swap2\n      pop\n      pop\n      jump\t// out\n        /* \"#utility.yul\":5229:5848   */\n    tag_48:\n        /* \"#utility.yul\":5306:5312   */\n      0x00\n        /* \"#utility.yul\":5314:5320   */\n      dup1\n        /* \"#utility.yul\":5322:5328   */\n      0x00\n        /* \"#utility.yul\":5371:5373   */\n      0x60\n        /* \"#utility.yul\":5359:5368   */\n      dup5\n        /* \"#utility.yul\":5350:5357   */\n      dup7\n        /* \"#utility.yul\":5346:5369   */\n      sub\n        /* \"#utility.yul\":5342:5374   */\n      slt\n        /* \"#utility.yul\":5339:5458   */\n      iszero\n      tag_425\n      jumpi\n        /* \"#utility.yul\":5377:5456   */\n      tag_426\n      tag_318\n      jump\t// in\n    tag_426:\n        /* \"#utility.yul\":5339:5458   */\n    tag_425:\n        /* \"#utility.yul\":5497:5498   */\n      0x00\n        /* \"#utility.yul\":5522:5575   */\n      tag_427\n        /* \"#utility.yul\":5567:5574   */\n      dup7\n        /* \"#utility.yul\":5558:5564   */\n      dup3\n        /* \"#utility.yul\":5547:5556   */\n      dup8\n        /* \"#utility.yul\":5543:5565   */\n      add\n        /* \"#utility.yul\":5522:5575   */\n      tag_332\n      jump\t// in\n    tag_427:\n        /* \"#utility.yul\":5512:5575   */\n      swap4\n      pop\n        /* \"#utility.yul\":5468:5585   */\n      pop\n        /* \"#utility.yul\":5624:5626   */\n      0x20\n        /* \"#utility.yul\":5650:5703   */\n      tag_428\n        /* \"#utility.yul\":5695:5702   */\n      dup7\n        /* \"#utility.yul\":5686:5692   */\n      dup3\n        /* \"#utility.yul\":5675:5684   */\n      dup8\n        /* \"#utility.yul\":5671:5693   */\n      add\n        /* \"#utility.yul\":5650:5703   */\n      tag_332\n      jump\t// in\n    tag_428:\n        /* \"#utility.yul\":5640:5703   */\n      swap3\n      pop\n        /* \"#utility.yul\":5595:5713   */\n      pop\n        /* \"#utility.yul\":5752:5754   */\n      0x40\n        /* \"#utility.yul\":5778:5831   */\n      tag_429\n        /* \"#utility.yul\":5823:5830   */\n      dup7\n        /* \"#utility.yul\":5814:5820   */\n      dup3\n        /* \"#utility.yul\":5803:5812   */\n      dup8\n        /* \"#utility.yul\":5799:5821   */\n      add\n        /* \"#utility.yul\":5778:5831   */\n      tag_322\n      jump\t// in\n    tag_429:\n        /* \"#utility.yul\":5768:5831   */\n      swap2\n      pop\n        /* \"#utility.yul\":5723:5841   */\n      pop\n        /* \"#utility.yul\":5229:5848   */\n      swap3\n      pop\n      swap3\n      pop\n      swap3\n      jump\t// out\n        /* \"#utility.yul\":5854:5940   */\n    tag_340:\n        /* \"#utility.yul\":5889:5896   */\n      0x00\n        /* \"#utility.yul\":5929:5933   */\n      0xff\n        /* \"#utility.yul\":5922:5927   */\n      dup3\n        /* \"#utility.yul\":5918:5934   */\n      and\n        /* \"#utility.yul\":5907:5934   */\n      swap1\n      pop\n        /* \"#utility.yul\":5854:5940   */\n      swap2\n      swap1\n      pop\n      jump\t// out\n        /* \"#utility.yul\":5946:6058   */\n    tag_341:\n        /* \"#utility.yul\":6029:6051   */\n      tag_432\n        /* \"#utility.yul\":6045:6050   */\n      dup2\n        /* \"#utility.yul\":6029:6051   */\n      tag_340\n      jump\t// in\n    tag_432:\n        /* \"#utility.yul\":6024:6027   */\n      dup3\n        /* \"#utility.yul\":6017:6052   */\n      mstore\n        /* \"#utility.yul\":5946:6058   */\n      pop\n      pop\n      jump\t// out\n        /* \"#utility.yul\":6064:6278   */\n    tag_54:\n        /* \"#utility.yul\":6153:6157   */\n      0x00\n        /* \"#utility.yul\":6191:6193   */\n      0x20\n        /* \"#utility.yul\":6180:6189   */\n      dup3\n        /* \"#utility.yul\":6176:6194   */\n      add\n        /* \"#utility.yul\":6168:6194   */\n      swap1\n      pop\n        /* \"#utility.yul\":6204:6271   */\n      tag_434\n        /* \"#utility.yul\":6268:6269   */\n      0x00\n        /* \"#utility.yul\":6257:6266   */\n      dup4\n        /* \"#utility.yul\":6253:6270   */\n      add\n        /* \"#utility.yul\":6244:6250   */\n      dup5\n        /* \"#utility.yul\":6204:6271   */\n      tag_341\n      jump\t// in\n    tag_434:\n        /* \"#utility.yul\":6064:6278   */\n      swap3\n      swap2\n      pop\n      pop\n      jump\t// out\n        /* \"#utility.yul\":6284:6394   */\n    tag_342:\n        /* \"#utility.yul\":6335:6342   */\n      0x00\n        /* \"#utility.yul\":6364:6388   */\n      tag_436\n        /* \"#utility.yul\":6382:6387   */\n      dup3\n        /* \"#utility.yul\":6364:6388   */\n      tag_330\n      jump\t// in\n    tag_436:\n        /* \"#utility.yul\":6353:6388   */\n      swap1\n      pop\n        /* \"#utility.yul\":6284:6394   */\n      swap2\n      swap1\n      pop\n      jump\t// out\n        /* \"#utility.yul\":6400:6550   */\n    tag_343:\n        /* \"#utility.yul\":6487:6525   */\n      tag_438\n        /* \"#utility.yul\":6519:6524   */\n      dup2\n        /* \"#utility.yul\":6487:6525   */\n      tag_342\n      jump\t// in\n    tag_438:\n        /* \"#utility.yul\":6480:6485   */\n      dup2\n        /* \"#utility.yul\":6477:6526   */\n      eq\n        /* \"#utility.yul\":6467:6544   */\n      tag_439\n      jumpi\n        /* \"#utility.yul\":6540:6541   */\n      0x00\n        /* \"#utility.yul\":6537:6538   */\n      dup1\n        /* \"#utility.yul\":6530:6542   */\n      revert\n        /* \"#utility.yul\":6467:6544   */\n    tag_439:\n        /* \"#utility.yul\":6400:6550   */\n      pop\n      jump\t// out\n        /* \"#utility.yul\":6556:6723   */\n    tag_344:\n        /* \"#utility.yul\":6616:6621   */\n      0x00\n        /* \"#utility.yul\":6654:6660   */\n      dup2\n        /* \"#utility.yul\":6641:6661   */\n      calldataload\n        /* \"#utility.yul\":6632:6661   */\n      swap1\n      pop\n        /* \"#utility.yul\":6670:6717   */\n      tag_441\n        /* \"#utility.yul\":6711:6716   */\n      dup2\n        /* \"#utility.yul\":6670:6717   */\n      tag_343\n      jump\t// in\n    tag_441:\n        /* \"#utility.yul\":6556:6723   */\n      swap3\n      swap2\n      pop\n      pop\n      jump\t// out\n        /* \"#utility.yul\":6729:7376   */\n    tag_57:\n        /* \"#utility.yul\":6820:6826   */\n      0x00\n        /* \"#utility.yul\":6828:6834   */\n      dup1\n        /* \"#utility.yul\":6836:6842   */\n      0x00\n        /* \"#utility.yul\":6885:6887   */\n      0x60\n        /* \"#utility.yul\":6873:6882   */\n      dup5\n        /* \"#utility.yul\":6864:6871   */\n      dup7\n        /* \"#utility.yul\":6860:6883   */\n      sub\n        /* \"#utility.yul\":6856:6888   */\n      slt\n        /* \"#utility.yul\":6853:6972   */\n      iszero\n      tag_443\n      jumpi\n        /* \"#utility.yul\":6891:6970   */\n      tag_444\n      tag_318\n      jump\t// in\n    tag_444:\n        /* \"#utility.yul\":6853:6972   */\n    tag_443:\n        /* \"#utility.yul\":7011:7012   */\n      0x00\n        /* \"#utility.yul\":7036:7089   */\n      tag_445\n        /* \"#utility.yul\":7081:7088   */\n      dup7\n        /* \"#utility.yul\":7072:7078   */\n      dup3\n        /* \"#utility.yul\":7061:7070   */\n      dup8\n        /* \"#utility.yul\":7057:7079   */\n      add\n        /* \"#utility.yul\":7036:7089   */\n      tag_322\n      jump\t// in\n    tag_445:\n        /* \"#utility.yul\":7026:7089   */\n      swap4\n      pop\n        /* \"#utility.yul\":6982:7099   */\n      pop\n        /* \"#utility.yul\":7138:7140   */\n      0x20\n        /* \"#utility.yul\":7164:7231   */\n      tag_446\n        /* \"#utility.yul\":7223:7230   */\n      dup7\n        /* \"#utility.yul\":7214:7220   */\n      dup3\n        /* \"#utility.yul\":7203:7212   */\n      dup8\n        /* \"#utility.yul\":7199:7221   */\n      add\n        /* \"#utility.yul\":7164:7231   */\n      tag_344\n      jump\t// in\n    tag_446:\n        /* \"#utility.yul\":7154:7231   */\n      swap3\n      pop\n        /* \"#utility.yul\":7109:7241   */\n      pop\n        /* \"#utility.yul\":7280:7282   */\n      0x40\n        /* \"#utility.yul\":7306:7359   */\n      tag_447\n        /* \"#utility.yul\":7351:7358   */\n      dup7\n        /* \"#utility.yul\":7342:7348   */\n      dup3\n        /* \"#utility.yul\":7331:7340   */\n      dup8\n        /* \"#utility.yul\":7327:7349   */\n      add\n        /* \"#utility.yul\":7306:7359   */\n      tag_322\n      jump\t// in\n    tag_447:\n        /* \"#utility.yul\":7296:7359   */\n      swap2\n      pop\n        /* \"#utility.yul\":7251:7369   */\n      pop\n        /* \"#utility.yul\":6729:7376   */\n      swap3\n      pop\n      swap3\n      pop\n      swap3\n      jump\t// out\n        /* \"#utility.yul\":7382:7742   */\n    tag_60:\n        /* \"#utility.yul\":7517:7521   */\n      0x00\n        /* \"#utility.yul\":7555:7557   */\n      0x40\n        /* \"#utility.yul\":7544:7553   */\n      dup3\n        /* \"#utility.yul\":7540:7558   */\n      add\n        /* \"#utility.yul\":7532:7558   */\n      swap1\n      pop\n        /* \"#utility.yul\":7568:7639   */\n      tag_449\n        /* \"#utility.yul\":7636:7637   */\n      0x00\n        /* \"#utility.yul\":7625:7634   */\n      dup4\n        /* \"#utility.yul\":7621:7638   */\n      add\n        /* \"#utility.yul\":7612:7618   */\n      dup6\n        /* \"#utility.yul\":7568:7639   */\n      tag_323\n      jump\t// in\n    tag_449:\n        /* \"#utility.yul\":7649:7735   */\n      tag_450\n        /* \"#utility.yul\":7731:7733   */\n      0x20\n        /* \"#utility.yul\":7720:7729   */\n      dup4\n        /* \"#utility.yul\":7716:7734   */\n      add\n        /* \"#utility.yul\":7707:7713   */\n      dup5\n        /* \"#utility.yul\":7649:7735   */\n      tag_339\n      jump\t// in\n    tag_450:\n        /* \"#utility.yul\":7382:7742   */\n      swap4\n      swap3\n      pop\n      pop\n      pop\n      jump\t// out\n        /* \"#utility.yul\":7748:8077   */\n    tag_69:\n        /* \"#utility.yul\":7807:7813   */\n      0x00\n        /* \"#utility.yul\":7856:7858   */\n      0x20\n        /* \"#utility.yul\":7844:7853   */\n      dup3\n        /* \"#utility.yul\":7835:7842   */\n      dup5\n        /* \"#utility.yul\":7831:7854   */\n      sub\n        /* \"#utility.yul\":7827:7859   */\n      slt\n        /* \"#utility.yul\":7824:7943   */\n      iszero\n      tag_452\n      jumpi\n        /* \"#utility.yul\":7862:7941   */\n      tag_453\n      tag_318\n      jump\t// in\n    tag_453:\n        /* \"#utility.yul\":7824:7943   */\n    tag_452:\n        /* \"#utility.yul\":7982:7983   */\n      0x00\n        /* \"#utility.yul\":8007:8060   */\n      tag_454\n        /* \"#utility.yul\":8052:8059   */\n      dup5\n        /* \"#utility.yul\":8043:8049   */\n      dup3\n        /* \"#utility.yul\":8032:8041   */\n      dup6\n        /* \"#utility.yul\":8028:8050   */\n      add\n        /* \"#utility.yul\":8007:8060   */\n      tag_332\n      jump\t// in\n    tag_454:\n        /* \"#utility.yul\":7997:8060   */\n      swap2\n      pop\n        /* \"#utility.yul\":7953:8070   */\n      pop\n        /* \"#utility.yul\":7748:8077   */\n      swap3\n      swap2\n      pop\n      pop\n      jump\t// out\n        /* \"#utility.yul\":8083:8412   */\n    tag_77:\n        /* \"#utility.yul\":8142:8148   */\n      0x00\n        /* \"#utility.yul\":8191:8193   */\n      0x20\n        /* \"#utility.yul\":8179:8188   */\n      dup3\n        /* \"#utility.yul\":8170:8177   */\n      dup5\n        /* \"#utility.yul\":8166:8189   */\n      sub\n        /* \"#utility.yul\":8162:8194   */\n      slt\n        /* \"#utility.yul\":8159:8278   */\n      iszero\n      tag_456\n      jumpi\n        /* \"#utility.yul\":8197:8276   */\n      tag_457\n      tag_318\n      jump\t// in\n    tag_457:\n        /* \"#utility.yul\":8159:8278   */\n    tag_456:\n        /* \"#utility.yul\":8317:8318   */\n      0x00\n        /* \"#utility.yul\":8342:8395   */\n      tag_458\n        /* \"#utility.yul\":8387:8394   */\n      dup5\n        /* \"#utility.yul\":8378:8384   */\n      dup3\n        /* \"#utility.yul\":8367:8376   */\n      dup6\n        /* \"#utility.yul\":8363:8385   */\n      add\n        /* \"#utility.yul\":8342:8395   */\n      tag_322\n      jump\t// in\n    tag_458:\n        /* \"#utility.yul\":8332:8395   */\n      swap2\n      pop\n        /* \"#utility.yul\":8288:8405   */\n      pop\n        /* \"#utility.yul\":8083:8412   */\n      swap3\n      swap2\n      pop\n      pop\n      jump\t// out\n        /* \"#utility.yul\":8418:8750   */\n    tag_80:\n        /* \"#utility.yul\":8539:8543   */\n      0x00\n        /* \"#utility.yul\":8577:8579   */\n      0x40\n        /* \"#utility.yul\":8566:8575   */\n      dup3\n        /* \"#utility.yul\":8562:8580   */\n      add\n        /* \"#utility.yul\":8554:8580   */\n      swap1\n      pop\n        /* \"#utility.yul\":8590:8661   */\n      tag_460\n        /* \"#utility.yul\":8658:8659   */\n      0x00\n        /* \"#utility.yul\":8647:8656   */\n      dup4\n        /* \"#utility.yul\":8643:8660   */\n      add\n        /* \"#utility.yul\":8634:8640   */\n      dup6\n        /* \"#utility.yul\":8590:8661   */\n      tag_323\n      jump\t// in\n    tag_460:\n        /* \"#utility.yul\":8671:8743   */\n      tag_461\n        /* \"#utility.yul\":8739:8741   */\n      0x20\n        /* \"#utility.yul\":8728:8737   */\n      dup4\n        /* \"#utility.yul\":8724:8742   */\n      add\n        /* \"#utility.yul\":8715:8721   */\n      dup5\n        /* \"#utility.yul\":8671:8743   */\n      tag_323\n      jump\t// in\n    tag_461:\n        /* \"#utility.yul\":8418:8750   */\n      swap4\n      swap3\n      pop\n      pop\n      pop\n      jump\t// out\n        /* \"#utility.yul\":8756:9230   */\n    tag_83:\n        /* \"#utility.yul\":8824:8830   */\n      0x00\n        /* \"#utility.yul\":8832:8838   */\n      dup1\n        /* \"#utility.yul\":8881:8883   */\n      0x40\n        /* \"#utility.yul\":8869:8878   */\n      dup4\n        /* \"#utility.yul\":8860:8867   */\n      dup6\n        /* \"#utility.yul\":8856:8879   */\n      sub\n        /* \"#utility.yul\":8852:8884   */\n      slt\n        /* \"#utility.yul\":8849:8968   */\n      iszero\n      tag_463\n      jumpi\n        /* \"#utility.yul\":8887:8966   */\n      tag_464\n      tag_318\n      jump\t// in\n    tag_464:\n        /* \"#utility.yul\":8849:8968   */\n    tag_463:\n        /* \"#utility.yul\":9007:9008   */\n      0x00\n        /* \"#utility.yul\":9032:9085   */\n      tag_465\n        /* \"#utility.yul\":9077:9084   */\n      dup6\n        /* \"#utility.yul\":9068:9074   */\n      dup3\n        /* \"#utility.yul\":9057:9066   */\n      dup7\n        /* \"#utility.yul\":9053:9075   */\n      add\n        /* \"#utility.yul\":9032:9085   */\n      tag_322\n      jump\t// in\n    tag_465:\n        /* \"#utility.yul\":9022:9085   */\n      swap3\n      pop\n        /* \"#utility.yul\":8978:9095   */\n      pop\n        /* \"#utility.yul\":9134:9136   */\n      0x20\n        /* \"#utility.yul\":9160:9213   */\n      tag_466\n        /* \"#utility.yul\":9205:9212   */\n      dup6\n        /* \"#utility.yul\":9196:9202   */\n      dup3\n        /* \"#utility.yul\":9185:9194   */\n      dup7\n        /* \"#utility.yul\":9181:9203   */\n      add\n        /* \"#utility.yul\":9160:9213   */\n      tag_322\n      jump\t// in\n    tag_466:\n        /* \"#utility.yul\":9150:9213   */\n      swap2\n      pop\n        /* \"#utility.yul\":9105:9223   */\n      pop\n        /* \"#utility.yul\":8756:9230   */\n      swap3\n      pop\n      swap3\n      swap1\n      pop\n      jump\t// out\n        /* \"#utility.yul\":9236:9710   */\n    tag_95:\n        /* \"#utility.yul\":9304:9310   */\n      0x00\n        /* \"#utility.yul\":9312:9318   */\n      dup1\n        /* \"#utility.yul\":9361:9363   */\n      0x40\n        /* \"#utility.yul\":9349:9358   */\n      dup4\n        /* \"#utility.yul\":9340:9347   */\n      dup6\n        /* \"#utility.yul\":9336:9359   */\n      sub\n        /* \"#utility.yul\":9332:9364   */\n      slt\n        /* \"#utility.yul\":9329:9448   */\n      iszero\n      tag_468\n      jumpi\n        /* \"#utility.yul\":9367:9446   */\n      tag_469\n      tag_318\n      jump\t// in\n    tag_469:\n        /* \"#utility.yul\":9329:9448   */\n    tag_468:\n        /* \"#utility.yul\":9487:9488   */\n      0x00\n        /* \"#utility.yul\":9512:9565   */\n      tag_470\n        /* \"#utility.yul\":9557:9564   */\n      dup6\n        /* \"#utility.yul\":9548:9554   */\n      dup3\n        /* \"#utility.yul\":9537:9546   */\n      dup7\n        /* \"#utility.yul\":9533:9555   */\n      add\n        /* \"#utility.yul\":9512:9565   */\n      tag_332\n      jump\t// in\n    tag_470:\n        /* \"#utility.yul\":9502:9565   */\n      swap3\n      pop\n        /* \"#utility.yul\":9458:9575   */\n      pop\n        /* \"#utility.yul\":9614:9616   */\n      0x20\n        /* \"#utility.yul\":9640:9693   */\n      tag_471\n        /* \"#utility.yul\":9685:9692   */\n      dup6\n        /* \"#utility.yul\":9676:9682   */\n      dup3\n        /* \"#utility.yul\":9665:9674   */\n      dup7\n        /* \"#utility.yul\":9661:9683   */\n      add\n        /* \"#utility.yul\":9640:9693   */\n      tag_332\n      jump\t// in\n    tag_471:\n        /* \"#utility.yul\":9630:9693   */\n      swap2\n      pop\n        /* \"#utility.yul\":9585:9703   */\n      pop\n        /* \"#utility.yul\":9236:9710   */\n      swap3\n      pop\n      swap3\n      swap1\n      pop\n      jump\t// out\n        /* \"#utility.yul\":9716:9885   */\n    tag_345:\n        /* \"#utility.yul\":9856:9877   */\n      0x494e53554646494349454e545f414d4f554e5400000000000000000000000000\n        /* \"#utility.yul\":9852:9853   */\n      0x00\n        /* \"#utility.yul\":9844:9850   */\n      dup3\n        /* \"#utility.yul\":9840:9854   */\n      add\n        /* \"#utility.yul\":9833:9878   */\n      mstore\n        /* \"#utility.yul\":9716:9885   */\n      pop\n      jump\t// out\n        /* \"#utility.yul\":9891:10257   */\n    tag_346:\n        /* \"#utility.yul\":10033:10036   */\n      0x00\n        /* \"#utility.yul\":10054:10121   */\n      tag_474\n        /* \"#utility.yul\":10118:10120   */\n      0x13\n        /* \"#utility.yul\":10113:10116   */\n      dup4\n        /* \"#utility.yul\":10054:10121   */\n      tag_325\n      jump\t// in\n    tag_474:\n        /* \"#utility.yul\":10047:10121   */\n      swap2\n      pop\n        /* \"#utility.yul\":10130:10223   */\n      tag_475\n        /* \"#utility.yul\":10219:10222   */\n      dup3\n        /* \"#utility.yul\":10130:10223   */\n      tag_345\n      jump\t// in\n    tag_475:\n        /* \"#utility.yul\":10248:10250   */\n      0x20\n        /* \"#utility.yul\":10243:10246   */\n      dup3\n        /* \"#utility.yul\":10239:10251   */\n      add\n        /* \"#utility.yul\":10232:10251   */\n      swap1\n      pop\n        /* \"#utility.yul\":9891:10257   */\n      swap2\n      swap1\n      pop\n      jump\t// out\n        /* \"#utility.yul\":10263:10682   */\n    tag_101:\n        /* \"#utility.yul\":10429:10433   */\n      0x00\n        /* \"#utility.yul\":10467:10469   */\n      0x20\n        /* \"#utility.yul\":10456:10465   */\n      dup3\n        /* \"#utility.yul\":10452:10470   */\n      add\n        /* \"#utility.yul\":10444:10470   */\n      swap1\n      pop\n        /* \"#utility.yul\":10516:10525   */\n      dup2\n        /* \"#utility.yul\":10510:10514   */\n      dup2\n        /* \"#utility.yul\":10506:10526   */\n      sub\n        /* \"#utility.yul\":10502:10503   */\n      0x00\n        /* \"#utility.yul\":10491:10500   */\n      dup4\n        /* \"#utility.yul\":10487:10504   */\n      add\n        /* \"#utility.yul\":10480:10527   */\n      mstore\n        /* \"#utility.yul\":10544:10675   */\n      tag_477\n        /* \"#utility.yul\":10670:10674   */\n      dup2\n        /* \"#utility.yul\":10544:10675   */\n      tag_346\n      jump\t// in\n    tag_477:\n        /* \"#utility.yul\":10536:10675   */\n      swap1\n      pop\n        /* \"#utility.yul\":10263:10682   */\n      swap2\n      swap1\n      pop\n      jump\t// out\n        /* \"#utility.yul\":10688:10860   */\n    tag_347:\n        /* \"#utility.yul\":10828:10852   */\n      0x494e53554646494349454e545f4c495155494449545900000000000000000000\n        /* \"#utility.yul\":10824:10825   */\n      0x00\n        /* \"#utility.yul\":10816:10822   */\n      dup3\n        /* \"#utility.yul\":10812:10826   */\n      add\n        /* \"#utility.yul\":10805:10853   */\n      mstore\n        /* \"#utility.yul\":10688:10860   */\n      pop\n      jump\t// out\n        /* \"#utility.yul\":10866:11232   */\n    tag_348:\n        /* \"#utility.yul\":11008:11011   */\n      0x00\n        /* \"#utility.yul\":11029:11096   */\n      tag_480\n        /* \"#utility.yul\":11093:11095   */\n      0x16\n        /* \"#utility.yul\":11088:11091   */\n      dup4\n        /* \"#utility.yul\":11029:11096   */\n      tag_325\n      jump\t// in\n    tag_480:\n        /* \"#utility.yul\":11022:11096   */\n      swap2\n      pop\n        /* \"#utility.yul\":11105:11198   */\n      tag_481\n        /* \"#utility.yul\":11194:11197   */\n      dup3\n        /* \"#utility.yul\":11105:11198   */\n      tag_347\n      jump\t// in\n    tag_481:\n        /* \"#utility.yul\":11223:11225   */\n      0x20\n        /* \"#utility.yul\":11218:11221   */\n      dup3\n        /* \"#utility.yul\":11214:11226   */\n      add\n        /* \"#utility.yul\":11207:11226   */\n      swap1\n      pop\n        /* \"#utility.yul\":10866:11232   */\n      swap2\n      swap1\n      pop\n      jump\t// out\n        /* \"#utility.yul\":11238:11657   */\n    tag_105:\n        /* \"#utility.yul\":11404:11408   */\n      0x00\n        /* \"#utility.yul\":11442:11444   */\n      0x20\n        /* \"#utility.yul\":11431:11440   */\n      dup3\n        /* \"#utility.yul\":11427:11445   */\n      add\n        /* \"#utility.yul\":11419:11445   */\n      swap1\n      pop\n        /* \"#utility.yul\":11491:11500   */\n      dup2\n        /* \"#utility.yul\":11485:11489   */\n      dup2\n        /* \"#utility.yul\":11481:11501   */\n      sub\n        /* \"#utility.yul\":11477:11478   */\n      0x00\n        /* \"#utility.yul\":11466:11475   */\n      dup4\n        /* \"#utility.yul\":11462:11479   */\n      add\n        /* \"#utility.yul\":11455:11502   */\n      mstore\n        /* \"#utility.yul\":11519:11650   */\n      tag_483\n        /* \"#utility.yul\":11645:11649   */\n      dup2\n        /* \"#utility.yul\":11519:11650   */\n      tag_348\n      jump\t// in\n    tag_483:\n        /* \"#utility.yul\":11511:11650   */\n      swap1\n      pop\n        /* \"#utility.yul\":11238:11657   */\n      swap2\n      swap1\n      pop\n      jump\t// out\n        /* \"#utility.yul\":11663:11843   */\n    tag_349:\n        /* \"#utility.yul\":11711:11788   */\n      0x4e487b7100000000000000000000000000000000000000000000000000000000\n        /* \"#utility.yul\":11708:11709   */\n      0x00\n        /* \"#utility.yul\":11701:11789   */\n      mstore\n        /* \"#utility.yul\":11808:11812   */\n      0x11\n        /* \"#utility.yul\":11805:11806   */\n      0x04\n        /* \"#utility.yul\":11798:11813   */\n      mstore\n        /* \"#utility.yul\":11832:11836   */\n      0x24\n        /* \"#utility.yul\":11829:11830   */\n      0x00\n        /* \"#utility.yul\":11822:11837   */\n      revert\n        /* \"#utility.yul\":11849:12040   */\n    tag_107:\n        /* \"#utility.yul\":11889:11892   */\n      0x00\n        /* \"#utility.yul\":11908:11928   */\n      tag_486\n        /* \"#utility.yul\":11926:11927   */\n      dup3\n        /* \"#utility.yul\":11908:11928   */\n      tag_320\n      jump\t// in\n    tag_486:\n        /* \"#utility.yul\":11903:11928   */\n      swap2\n      pop\n        /* \"#utility.yul\":11942:11962   */\n      tag_487\n        /* \"#utility.yul\":11960:11961   */\n      dup4\n        /* \"#utility.yul\":11942:11962   */\n      tag_320\n      jump\t// in\n    tag_487:\n        /* \"#utility.yul\":11937:11962   */\n      swap3\n      pop\n        /* \"#utility.yul\":11985:11986   */\n      dup3\n        /* \"#utility.yul\":11982:11983   */\n      dup3\n        /* \"#utility.yul\":11978:11987   */\n      add\n        /* \"#utility.yul\":11971:11987   */\n      swap1\n      pop\n        /* \"#utility.yul\":12006:12009   */\n      dup1\n        /* \"#utility.yul\":12003:12004   */\n      dup3\n        /* \"#utility.yul\":12000:12010   */\n      gt\n        /* \"#utility.yul\":11997:12033   */\n      iszero\n      tag_488\n      jumpi\n        /* \"#utility.yul\":12013:12031   */\n      tag_489\n      tag_349\n      jump\t// in\n    tag_489:\n        /* \"#utility.yul\":11997:12033   */\n    tag_488:\n        /* \"#utility.yul\":11849:12040   */\n      swap3\n      swap2\n      pop\n      pop\n      jump\t// out\n        /* \"#utility.yul\":12046:12456   */\n    tag_109:\n        /* \"#utility.yul\":12086:12093   */\n      0x00\n        /* \"#utility.yul\":12109:12129   */\n      tag_491\n        /* \"#utility.yul\":12127:12128   */\n      dup3\n        /* \"#utility.yul\":12109:12129   */\n      tag_320\n      jump\t// in\n    tag_491:\n        /* \"#utility.yul\":12104:12129   */\n      swap2\n      pop\n        /* \"#utility.yul\":12143:12163   */\n      tag_492\n        /* \"#utility.yul\":12161:12162   */\n      dup4\n        /* \"#utility.yul\":12143:12163   */\n      tag_320\n      jump\t// in\n    tag_492:\n        /* \"#utility.yul\":12138:12163   */\n      swap3\n      pop\n        /* \"#utility.yul\":12198:12199   */\n      dup3\n        /* \"#utility.yul\":12195:12196   */\n      dup3\n        /* \"#utility.yul\":12191:12200   */\n      mul\n        /* \"#utility.yul\":12220:12250   */\n      tag_493\n        /* \"#utility.yul\":12238:12249   */\n      dup2\n        /* \"#utility.yul\":12220:12250   */\n      tag_320\n      jump\t// in\n    tag_493:\n        /* \"#utility.yul\":12209:12250   */\n      swap2\n      pop\n        /* \"#utility.yul\":12399:12400   */\n      dup3\n        /* \"#utility.yul\":12390:12397   */\n      dup3\n        /* \"#utility.yul\":12386:12401   */\n      div\n        /* \"#utility.yul\":12383:12384   */\n      dup5\n        /* \"#utility.yul\":12380:12402   */\n      eq\n        /* \"#utility.yul\":12360:12361   */\n      dup4\n        /* \"#utility.yul\":12353:12362   */\n      iszero\n        /* \"#utility.yul\":12333:12416   */\n      or\n        /* \"#utility.yul\":12310:12449   */\n      tag_494\n      jumpi\n        /* \"#utility.yul\":12429:12447   */\n      tag_495\n      tag_349\n      jump\t// in\n    tag_495:\n        /* \"#utility.yul\":12310:12449   */\n    tag_494:\n        /* \"#utility.yul\":12094:12456   */\n      pop\n        /* \"#utility.yul\":12046:12456   */\n      swap3\n      swap2\n      pop\n      pop\n      jump\t// out\n        /* \"#utility.yul\":12462:12642   */\n    tag_350:\n        /* \"#utility.yul\":12510:12587   */\n      0x4e487b7100000000000000000000000000000000000000000000000000000000\n        /* \"#utility.yul\":12507:12508   */\n      0x00\n        /* \"#utility.yul\":12500:12588   */\n      mstore\n        /* \"#utility.yul\":12607:12611   */\n      0x12\n        /* \"#utility.yul\":12604:12605   */\n      0x04\n        /* \"#utility.yul\":12597:12612   */\n      mstore\n        /* \"#utility.yul\":12631:12635   */\n      0x24\n        /* \"#utility.yul\":12628:12629   */\n      0x00\n        /* \"#utility.yul\":12621:12636   */\n      revert\n        /* \"#utility.yul\":12648:12833   */\n    tag_111:\n        /* \"#utility.yul\":12688:12689   */\n      0x00\n        /* \"#utility.yul\":12705:12725   */\n      tag_498\n        /* \"#utility.yul\":12723:12724   */\n      dup3\n        /* \"#utility.yul\":12705:12725   */\n      tag_320\n      jump\t// in\n    tag_498:\n        /* \"#utility.yul\":12700:12725   */\n      swap2\n      pop\n        /* \"#utility.yul\":12739:12759   */\n      tag_499\n        /* \"#utility.yul\":12757:12758   */\n      dup4\n        /* \"#utility.yul\":12739:12759   */\n      tag_320\n      jump\t// in\n    tag_499:\n        /* \"#utility.yul\":12734:12759   */\n      swap3\n      pop\n        /* \"#utility.yul\":12778:12779   */\n      dup3\n        /* \"#utility.yul\":12768:12803   */\n      tag_500\n      jumpi\n        /* \"#utility.yul\":12783:12801   */\n      tag_501\n      tag_350\n      jump\t// in\n    tag_501:\n        /* \"#utility.yul\":12768:12803   */\n    tag_500:\n        /* \"#utility.yul\":12825:12826   */\n      dup3\n        /* \"#utility.yul\":12822:12823   */\n      dup3\n        /* \"#utility.yul\":12818:12827   */\n      div\n        /* \"#utility.yul\":12813:12827   */\n      swap1\n      pop\n        /* \"#utility.yul\":12648:12833   */\n      swap3\n      swap2\n      pop\n      pop\n      jump\t// out\n        /* \"#utility.yul\":12839:13019   */\n    tag_351:\n        /* \"#utility.yul\":12887:12964   */\n      0x4e487b7100000000000000000000000000000000000000000000000000000000\n        /* \"#utility.yul\":12884:12885   */\n      0x00\n        /* \"#utility.yul\":12877:12965   */\n      mstore\n        /* \"#utility.yul\":12984:12988   */\n      0x22\n        /* \"#utility.yul\":12981:12982   */\n      0x04\n        /* \"#utility.yul\":12974:12989   */\n      mstore\n        /* \"#utility.yul\":13008:13012   */\n      0x24\n        /* \"#utility.yul\":13005:13006   */\n      0x00\n        /* \"#utility.yul\":12998:13013   */\n      revert\n        /* \"#utility.yul\":13025:13345   */\n    tag_114:\n        /* \"#utility.yul\":13069:13075   */\n      0x00\n        /* \"#utility.yul\":13106:13107   */\n      0x02\n        /* \"#utility.yul\":13100:13104   */\n      dup3\n        /* \"#utility.yul\":13096:13108   */\n      div\n        /* \"#utility.yul\":13086:13108   */\n      swap1\n      pop\n        /* \"#utility.yul\":13153:13154   */\n      0x01\n        /* \"#utility.yul\":13147:13151   */\n      dup3\n        /* \"#utility.yul\":13143:13155   */\n      and\n        /* \"#utility.yul\":13174:13192   */\n      dup1\n        /* \"#utility.yul\":13164:13245   */\n      tag_504\n      jumpi\n        /* \"#utility.yul\":13230:13234   */\n      0x7f\n        /* \"#utility.yul\":13222:13228   */\n      dup3\n        /* \"#utility.yul\":13218:13235   */\n      and\n        /* \"#utility.yul\":13208:13235   */\n      swap2\n      pop\n        /* \"#utility.yul\":13164:13245   */\n    tag_504:\n        /* \"#utility.yul\":13292:13294   */\n      0x20\n        /* \"#utility.yul\":13284:13290   */\n      dup3\n        /* \"#utility.yul\":13281:13295   */\n      lt\n        /* \"#utility.yul\":13261:13279   */\n      dup2\n        /* \"#utility.yul\":13258:13296   */\n      sub\n        /* \"#utility.yul\":13255:13339   */\n      tag_505\n      jumpi\n        /* \"#utility.yul\":13311:13329   */\n      tag_506\n      tag_351\n      jump\t// in\n    tag_506:\n        /* \"#utility.yul\":13255:13339   */\n    tag_505:\n        /* \"#utility.yul\":13076:13345   */\n      pop\n        /* \"#utility.yul\":13025:13345   */\n      swap2\n      swap1\n      pop\n      jump\t// out\n        /* \"#utility.yul\":13351:13527   */\n    tag_352:\n        /* \"#utility.yul\":13491:13519   */\n      0x494e53554646494349454e545f4f55545055545f414d4f554e54000000000000\n        /* \"#utility.yul\":13487:13488   */\n      0x00\n        /* \"#utility.yul\":13479:13485   */\n      dup3\n        /* \"#utility.yul\":13475:13489   */\n      add\n        /* \"#utility.yul\":13468:13520   */\n      mstore\n        /* \"#utility.yul\":13351:13527   */\n      pop\n      jump\t// out\n        /* \"#utility.yul\":13533:13899   */\n    tag_353:\n        /* \"#utility.yul\":13675:13678   */\n      0x00\n        /* \"#utility.yul\":13696:13763   */\n      tag_509\n        /* \"#utility.yul\":13760:13762   */\n      0x1a\n        /* \"#utility.yul\":13755:13758   */\n      dup4\n        /* \"#utility.yul\":13696:13763   */\n      tag_325\n      jump\t// in\n    tag_509:\n        /* \"#utility.yul\":13689:13763   */\n      swap2\n      pop\n        /* \"#utility.yul\":13772:13865   */\n      tag_510\n        /* \"#utility.yul\":13861:13864   */\n      dup3\n        /* \"#utility.yul\":13772:13865   */\n      tag_352\n      jump\t// in\n    tag_510:\n        /* \"#utility.yul\":13890:13892   */\n      0x20\n        /* \"#utility.yul\":13885:13888   */\n      dup3\n        /* \"#utility.yul\":13881:13893   */\n      add\n        /* \"#utility.yul\":13874:13893   */\n      swap1\n      pop\n        /* \"#utility.yul\":13533:13899   */\n      swap2\n      swap1\n      pop\n      jump\t// out\n        /* \"#utility.yul\":13905:14324   */\n    tag_135:\n        /* \"#utility.yul\":14071:14075   */\n      0x00\n        /* \"#utility.yul\":14109:14111   */\n      0x20\n        /* \"#utility.yul\":14098:14107   */\n      dup3\n        /* \"#utility.yul\":14094:14112   */\n      add\n        /* \"#utility.yul\":14086:14112   */\n      swap1\n      pop\n        /* \"#utility.yul\":14158:14167   */\n      dup2\n        /* \"#utility.yul\":14152:14156   */\n      dup2\n        /* \"#utility.yul\":14148:14168   */\n      sub\n        /* \"#utility.yul\":14144:14145   */\n      0x00\n        /* \"#utility.yul\":14133:14142   */\n      dup4\n        /* \"#utility.yul\":14129:14146   */\n      add\n        /* \"#utility.yul\":14122:14169   */\n      mstore\n        /* \"#utility.yul\":14186:14317   */\n      tag_512\n        /* \"#utility.yul\":14312:14316   */\n      dup2\n        /* \"#utility.yul\":14186:14317   */\n      tag_353\n      jump\t// in\n    tag_512:\n        /* \"#utility.yul\":14178:14317   */\n      swap1\n      pop\n        /* \"#utility.yul\":13905:14324   */\n      swap2\n      swap1\n      pop\n      jump\t// out\n        /* \"#utility.yul\":14330:14493   */\n    tag_354:\n        /* \"#utility.yul\":14470:14485   */\n      0x494e56414c49445f544f4b454e00000000000000000000000000000000000000\n        /* \"#utility.yul\":14466:14467   */\n      0x00\n        /* \"#utility.yul\":14458:14464   */\n      dup3\n        /* \"#utility.yul\":14454:14468   */\n      add\n        /* \"#utility.yul\":14447:14486   */\n      mstore\n        /* \"#utility.yul\":14330:14493   */\n      pop\n      jump\t// out\n        /* \"#utility.yul\":14499:14865   */\n    tag_355:\n        /* \"#utility.yul\":14641:14644   */\n      0x00\n        /* \"#utility.yul\":14662:14729   */\n      tag_515\n        /* \"#utility.yul\":14726:14728   */\n      0x0d\n        /* \"#utility.yul\":14721:14724   */\n      dup4\n        /* \"#utility.yul\":14662:14729   */\n      tag_325\n      jump\t// in\n    tag_515:\n        /* \"#utility.yul\":14655:14729   */\n      swap2\n      pop\n        /* \"#utility.yul\":14738:14831   */\n      tag_516\n        /* \"#utility.yul\":14827:14830   */\n      dup3\n        /* \"#utility.yul\":14738:14831   */\n      tag_354\n      jump\t// in\n    tag_516:\n        /* \"#utility.yul\":14856:14858   */\n      0x20\n        /* \"#utility.yul\":14851:14854   */\n      dup3\n        /* \"#utility.yul\":14847:14859   */\n      add\n        /* \"#utility.yul\":14840:14859   */\n      swap1\n      pop\n        /* \"#utility.yul\":14499:14865   */\n      swap2\n      swap1\n      pop\n      jump\t// out\n        /* \"#utility.yul\":14871:15290   */\n    tag_139:\n        /* \"#utility.yul\":15037:15041   */\n      0x00\n        /* \"#utility.yul\":15075:15077   */\n      0x20\n        /* \"#utility.yul\":15064:15073   */\n      dup3\n        /* \"#utility.yul\":15060:15078   */\n      add\n        /* \"#utility.yul\":15052:15078   */\n      swap1\n      pop\n        /* \"#utility.yul\":15124:15133   */\n      dup2\n        /* \"#utility.yul\":15118:15122   */\n      dup2\n        /* \"#utility.yul\":15114:15134   */\n      sub\n        /* \"#utility.yul\":15110:15111   */\n      0x00\n        /* \"#utility.yul\":15099:15108   */\n      dup4\n        /* \"#utility.yul\":15095:15112   */\n      add\n        /* \"#utility.yul\":15088:15135   */\n      mstore\n        /* \"#utility.yul\":15152:15283   */\n      tag_518\n        /* \"#utility.yul\":15278:15282   */\n      dup2\n        /* \"#utility.yul\":15152:15283   */\n      tag_355\n      jump\t// in\n    tag_518:\n        /* \"#utility.yul\":15144:15283   */\n      swap1\n      pop\n        /* \"#utility.yul\":14871:15290   */\n      swap2\n      swap1\n      pop\n      jump\t// out\n        /* \"#utility.yul\":15296:15414   */\n    tag_356:\n        /* \"#utility.yul\":15383:15407   */\n      tag_520\n        /* \"#utility.yul\":15401:15406   */\n      dup2\n        /* \"#utility.yul\":15383:15407   */\n      tag_330\n      jump\t// in\n    tag_520:\n        /* \"#utility.yul\":15378:15381   */\n      dup3\n        /* \"#utility.yul\":15371:15408   */\n      mstore\n        /* \"#utility.yul\":15296:15414   */\n      pop\n      pop\n      jump\t// out\n        /* \"#utility.yul\":15420:15862   */\n    tag_145:\n        /* \"#utility.yul\":15569:15573   */\n      0x00\n        /* \"#utility.yul\":15607:15609   */\n      0x60\n        /* \"#utility.yul\":15596:15605   */\n      dup3\n        /* \"#utility.yul\":15592:15610   */\n      add\n        /* \"#utility.yul\":15584:15610   */\n      swap1\n      pop\n        /* \"#utility.yul\":15620:15691   */\n      tag_522\n        /* \"#utility.yul\":15688:15689   */\n      0x00\n        /* \"#utility.yul\":15677:15686   */\n      dup4\n        /* \"#utility.yul\":15673:15690   */\n      add\n        /* \"#utility.yul\":15664:15670   */\n      dup7\n        /* \"#utility.yul\":15620:15691   */\n      tag_356\n      jump\t// in\n    tag_522:\n        /* \"#utility.yul\":15701:15773   */\n      tag_523\n        /* \"#utility.yul\":15769:15771   */\n      0x20\n        /* \"#utility.yul\":15758:15767   */\n      dup4\n        /* \"#utility.yul\":15754:15772   */\n      add\n        /* \"#utility.yul\":15745:15751   */\n      dup6\n        /* \"#utility.yul\":15701:15773   */\n      tag_356\n      jump\t// in\n    tag_523:\n        /* \"#utility.yul\":15783:15855   */\n      tag_524\n        /* \"#utility.yul\":15851:15853   */\n      0x40\n        /* \"#utility.yul\":15840:15849   */\n      dup4\n        /* \"#utility.yul\":15836:15854   */\n      add\n        /* \"#utility.yul\":15827:15833   */\n      dup5\n        /* \"#utility.yul\":15783:15855   */\n      tag_323\n      jump\t// in\n    tag_524:\n        /* \"#utility.yul\":15420:15862   */\n      swap5\n      swap4\n      pop\n      pop\n      pop\n      pop\n      jump\t// out\n        /* \"#utility.yul\":15868:15984   */\n    tag_357:\n        /* \"#utility.yul\":15938:15959   */\n      tag_526\n        /* \"#utility.yul\":15953:15958   */\n      dup2\n        /* \"#utility.yul\":15938:15959   */\n      tag_333\n      jump\t// in\n    tag_526:\n        /* \"#utility.yul\":15931:15936   */\n      dup2\n        /* \"#utility.yul\":15928:15960   */\n      eq\n        /* \"#utility.yul\":15918:15978   */\n      tag_527\n      jumpi\n        /* \"#utility.yul\":15974:15975   */\n      0x00\n        /* \"#utility.yul\":15971:15972   */\n      dup1\n        /* \"#utility.yul\":15964:15976   */\n      revert\n        /* \"#utility.yul\":15918:15978   */\n    tag_527:\n        /* \"#utility.yul\":15868:15984   */\n      pop\n      jump\t// out\n        /* \"#utility.yul\":15990:16127   */\n    tag_358:\n        /* \"#utility.yul\":16044:16049   */\n      0x00\n        /* \"#utility.yul\":16075:16081   */\n      dup2\n        /* \"#utility.yul\":16069:16082   */\n      mload\n        /* \"#utility.yul\":16060:16082   */\n      swap1\n      pop\n        /* \"#utility.yul\":16091:16121   */\n      tag_529\n        /* \"#utility.yul\":16115:16120   */\n      dup2\n        /* \"#utility.yul\":16091:16121   */\n      tag_357\n      jump\t// in\n    tag_529:\n        /* \"#utility.yul\":15990:16127   */\n      swap3\n      swap2\n      pop\n      pop\n      jump\t// out\n        /* \"#utility.yul\":16133:16478   */\n    tag_149:\n        /* \"#utility.yul\":16200:16206   */\n      0x00\n        /* \"#utility.yul\":16249:16251   */\n      0x20\n        /* \"#utility.yul\":16237:16246   */\n      dup3\n        /* \"#utility.yul\":16228:16235   */\n      dup5\n        /* \"#utility.yul\":16224:16247   */\n      sub\n        /* \"#utility.yul\":16220:16252   */\n      slt\n        /* \"#utility.yul\":16217:16336   */\n      iszero\n      tag_531\n      jumpi\n        /* \"#utility.yul\":16255:16334   */\n      tag_532\n      tag_318\n      jump\t// in\n    tag_532:\n        /* \"#utility.yul\":16217:16336   */\n    tag_531:\n        /* \"#utility.yul\":16375:16376   */\n      0x00\n        /* \"#utility.yul\":16400:16461   */\n      tag_533\n        /* \"#utility.yul\":16453:16460   */\n      dup5\n        /* \"#utility.yul\":16444:16450   */\n      dup3\n        /* \"#utility.yul\":16433:16442   */\n      dup6\n        /* \"#utility.yul\":16429:16451   */\n      add\n        /* \"#utility.yul\":16400:16461   */\n      tag_358\n      jump\t// in\n    tag_533:\n        /* \"#utility.yul\":16390:16461   */\n      swap2\n      pop\n        /* \"#utility.yul\":16346:16471   */\n      pop\n        /* \"#utility.yul\":16133:16478   */\n      swap3\n      swap2\n      pop\n      pop\n      jump\t// out\n        /* \"#utility.yul\":16484:16816   */\n    tag_151:\n        /* \"#utility.yul\":16605:16609   */\n      0x00\n        /* \"#utility.yul\":16643:16645   */\n      0x40\n        /* \"#utility.yul\":16632:16641   */\n      dup3\n        /* \"#utility.yul\":16628:16646   */\n      add\n        /* \"#utility.yul\":16620:16646   */\n      swap1\n      pop\n        /* \"#utility.yul\":16656:16727   */\n      tag_535\n        /* \"#utility.yul\":16724:16725   */\n      0x00\n        /* \"#utility.yul\":16713:16722   */\n      dup4\n        /* \"#utility.yul\":16709:16726   */\n      add\n        /* \"#utility.yul\":16700:16706   */\n      dup6\n        /* \"#utility.yul\":16656:16727   */\n      tag_356\n      jump\t// in\n    tag_535:\n        /* \"#utility.yul\":16737:16809   */\n      tag_536\n        /* \"#utility.yul\":16805:16807   */\n      0x20\n        /* \"#utility.yul\":16794:16803   */\n      dup4\n        /* \"#utility.yul\":16790:16808   */\n      add\n        /* \"#utility.yul\":16781:16787   */\n      dup5\n        /* \"#utility.yul\":16737:16809   */\n      tag_323\n      jump\t// in\n    tag_536:\n        /* \"#utility.yul\":16484:16816   */\n      swap4\n      swap3\n      pop\n      pop\n      pop\n      jump\t// out\n        /* \"#utility.yul\":16822:17044   */\n    tag_168:\n        /* \"#utility.yul\":16915:16919   */\n      0x00\n        /* \"#utility.yul\":16953:16955   */\n      0x20\n        /* \"#utility.yul\":16942:16951   */\n      dup3\n        /* \"#utility.yul\":16938:16956   */\n      add\n        /* \"#utility.yul\":16930:16956   */\n      swap1\n      pop\n        /* \"#utility.yul\":16966:17037   */\n      tag_538\n        /* \"#utility.yul\":17034:17035   */\n      0x00\n        /* \"#utility.yul\":17023:17032   */\n      dup4\n        /* \"#utility.yul\":17019:17036   */\n      add\n        /* \"#utility.yul\":17010:17016   */\n      dup5\n        /* \"#utility.yul\":16966:17037   */\n      tag_356\n      jump\t// in\n    tag_538:\n        /* \"#utility.yul\":16822:17044   */\n      swap3\n      swap2\n      pop\n      pop\n      jump\t// out\n        /* \"#utility.yul\":17050:17193   */\n    tag_359:\n        /* \"#utility.yul\":17107:17112   */\n      0x00\n        /* \"#utility.yul\":17138:17144   */\n      dup2\n        /* \"#utility.yul\":17132:17145   */\n      mload\n        /* \"#utility.yul\":17123:17145   */\n      swap1\n      pop\n        /* \"#utility.yul\":17154:17187   */\n      tag_540\n        /* \"#utility.yul\":17181:17186   */\n      dup2\n        /* \"#utility.yul\":17154:17187   */\n      tag_321\n      jump\t// in\n    tag_540:\n        /* \"#utility.yul\":17050:17193   */\n      swap3\n      swap2\n      pop\n      pop\n      jump\t// out\n        /* \"#utility.yul\":17199:17550   */\n    tag_172:\n        /* \"#utility.yul\":17269:17275   */\n      0x00\n        /* \"#utility.yul\":17318:17320   */\n      0x20\n        /* \"#utility.yul\":17306:17315   */\n      dup3\n        /* \"#utility.yul\":17297:17304   */\n      dup5\n        /* \"#utility.yul\":17293:17316   */\n      sub\n        /* \"#utility.yul\":17289:17321   */\n      slt\n        /* \"#utility.yul\":17286:17405   */\n      iszero\n      tag_542\n      jumpi\n        /* \"#utility.yul\":17324:17403   */\n      tag_543\n      tag_318\n      jump\t// in\n    tag_543:\n        /* \"#utility.yul\":17286:17405   */\n    tag_542:\n        /* \"#utility.yul\":17444:17445   */\n      0x00\n        /* \"#utility.yul\":17469:17533   */\n      tag_544\n        /* \"#utility.yul\":17525:17532   */\n      dup5\n        /* \"#utility.yul\":17516:17522   */\n      dup3\n        /* \"#utility.yul\":17505:17514   */\n      dup6\n        /* \"#utility.yul\":17501:17523   */\n      add\n        /* \"#utility.yul\":17469:17533   */\n      tag_359\n      jump\t// in\n    tag_544:\n        /* \"#utility.yul\":17459:17533   */\n      swap2\n      pop\n        /* \"#utility.yul\":17415:17543   */\n      pop\n        /* \"#utility.yul\":17199:17550   */\n      swap3\n      swap2\n      pop\n      pop\n      jump\t// out\n        /* \"#utility.yul\":17556:18109   */\n    tag_178:\n        /* \"#utility.yul\":17733:17737   */\n      0x00\n        /* \"#utility.yul\":17771:17774   */\n      0x80\n        /* \"#utility.yul\":17760:17769   */\n      dup3\n        /* \"#utility.yul\":17756:17775   */\n      add\n        /* \"#utility.yul\":17748:17775   */\n      swap1\n      pop\n        /* \"#utility.yul\":17785:17856   */\n      tag_546\n        /* \"#utility.yul\":17853:17854   */\n      0x00\n        /* \"#utility.yul\":17842:17851   */\n      dup4\n        /* \"#utility.yul\":17838:17855   */\n      add\n        /* \"#utility.yul\":17829:17835   */\n      dup8\n        /* \"#utility.yul\":17785:17856   */\n      tag_323\n      jump\t// in\n    tag_546:\n        /* \"#utility.yul\":17866:17938   */\n      tag_547\n        /* \"#utility.yul\":17934:17936   */\n      0x20\n        /* \"#utility.yul\":17923:17932   */\n      dup4\n        /* \"#utility.yul\":17919:17937   */\n      add\n        /* \"#utility.yul\":17910:17916   */\n      dup7\n        /* \"#utility.yul\":17866:17938   */\n      tag_356\n      jump\t// in\n    tag_547:\n        /* \"#utility.yul\":17948:18020   */\n      tag_548\n        /* \"#utility.yul\":18016:18018   */\n      0x40\n        /* \"#utility.yul\":18005:18014   */\n      dup4\n        /* \"#utility.yul\":18001:18019   */\n      add\n        /* \"#utility.yul\":17992:17998   */\n      dup6\n        /* \"#utility.yul\":17948:18020   */\n      tag_323\n      jump\t// in\n    tag_548:\n        /* \"#utility.yul\":18030:18102   */\n      tag_549\n        /* \"#utility.yul\":18098:18100   */\n      0x60\n        /* \"#utility.yul\":18087:18096   */\n      dup4\n        /* \"#utility.yul\":18083:18101   */\n      add\n        /* \"#utility.yul\":18074:18080   */\n      dup5\n        /* \"#utility.yul\":18030:18102   */\n      tag_356\n      jump\t// in\n    tag_549:\n        /* \"#utility.yul\":17556:18109   */\n      swap6\n      swap5\n      pop\n      pop\n      pop\n      pop\n      pop\n      jump\t// out\n        /* \"#utility.yul\":18115:18294   */\n    tag_360:\n        /* \"#utility.yul\":18255:18286   */\n      0x494e53554646494349454e545f4c49515549444954595f4d494e544544000000\n        /* \"#utility.yul\":18251:18252   */\n      0x00\n        /* \"#utility.yul\":18243:18249   */\n      dup3\n        /* \"#utility.yul\":18239:18253   */\n      add\n        /* \"#utility.yul\":18232:18287   */\n      mstore\n        /* \"#utility.yul\":18115:18294   */\n      pop\n      jump\t// out\n        /* \"#utility.yul\":18300:18666   */\n    tag_361:\n        /* \"#utility.yul\":18442:18445   */\n      0x00\n        /* \"#utility.yul\":18463:18530   */\n      tag_552\n        /* \"#utility.yul\":18527:18529   */\n      0x1d\n        /* \"#utility.yul\":18522:18525   */\n      dup4\n        /* \"#utility.yul\":18463:18530   */\n      tag_325\n      jump\t// in\n    tag_552:\n        /* \"#utility.yul\":18456:18530   */\n      swap2\n      pop\n        /* \"#utility.yul\":18539:18632   */\n      tag_553\n        /* \"#utility.yul\":18628:18631   */\n      dup3\n        /* \"#utility.yul\":18539:18632   */\n      tag_360\n      jump\t// in\n    tag_553:\n        /* \"#utility.yul\":18657:18659   */\n      0x20\n        /* \"#utility.yul\":18652:18655   */\n      dup3\n        /* \"#utility.yul\":18648:18660   */\n      add\n        /* \"#utility.yul\":18641:18660   */\n      swap1\n      pop\n        /* \"#utility.yul\":18300:18666   */\n      swap2\n      swap1\n      pop\n      jump\t// out\n        /* \"#utility.yul\":18672:19091   */\n    tag_203:\n        /* \"#utility.yul\":18838:18842   */\n      0x00\n        /* \"#utility.yul\":18876:18878   */\n      0x20\n        /* \"#utility.yul\":18865:18874   */\n      dup3\n        /* \"#utility.yul\":18861:18879   */\n      add\n        /* \"#utility.yul\":18853:18879   */\n      swap1\n      pop\n        /* \"#utility.yul\":18925:18934   */\n      dup2\n        /* \"#utility.yul\":18919:18923   */\n      dup2\n        /* \"#utility.yul\":18915:18935   */\n      sub\n        /* \"#utility.yul\":18911:18912   */\n      0x00\n        /* \"#utility.yul\":18900:18909   */\n      dup4\n        /* \"#utility.yul\":18896:18913   */\n      add\n        /* \"#utility.yul\":18889:18936   */\n      mstore\n        /* \"#utility.yul\":18953:19084   */\n      tag_555\n        /* \"#utility.yul\":19079:19083   */\n      dup2\n        /* \"#utility.yul\":18953:19084   */\n      tag_361\n      jump\t// in\n    tag_555:\n        /* \"#utility.yul\":18945:19084   */\n      swap1\n      pop\n        /* \"#utility.yul\":18672:19091   */\n      swap2\n      swap1\n      pop\n      jump\t// out\n        /* \"#utility.yul\":19097:19539   */\n    tag_270:\n        /* \"#utility.yul\":19246:19250   */\n      0x00\n        /* \"#utility.yul\":19284:19286   */\n      0x60\n        /* \"#utility.yul\":19273:19282   */\n      dup3\n        /* \"#utility.yul\":19269:19287   */\n      add\n        /* \"#utility.yul\":19261:19287   */\n      swap1\n      pop\n        /* \"#utility.yul\":19297:19368   */\n      tag_557\n        /* \"#utility.yul\":19365:19366   */\n      0x00\n        /* \"#utility.yul\":19354:19363   */\n      dup4\n        /* \"#utility.yul\":19350:19367   */\n      add\n        /* \"#utility.yul\":19341:19347   */\n      dup7\n        /* \"#utility.yul\":19297:19368   */\n      tag_356\n      jump\t// in\n    tag_557:\n        /* \"#utility.yul\":19378:19450   */\n      tag_558\n        /* \"#utility.yul\":19446:19448   */\n      0x20\n        /* \"#utility.yul\":19435:19444   */\n      dup4\n        /* \"#utility.yul\":19431:19449   */\n      add\n        /* \"#utility.yul\":19422:19428   */\n      dup6\n        /* \"#utility.yul\":19378:19450   */\n      tag_323\n      jump\t// in\n    tag_558:\n        /* \"#utility.yul\":19460:19532   */\n      tag_559\n        /* \"#utility.yul\":19528:19530   */\n      0x40\n        /* \"#utility.yul\":19517:19526   */\n      dup4\n        /* \"#utility.yul\":19513:19531   */\n      add\n        /* \"#utility.yul\":19504:19510   */\n      dup5\n        /* \"#utility.yul\":19460:19532   */\n      tag_323\n      jump\t// in\n    tag_559:\n        /* \"#utility.yul\":19097:19539   */\n      swap5\n      swap4\n      pop\n      pop\n      pop\n      pop\n      jump\t// out\n\n    auxdata: 0xa2646970667358221220abbda7e48efd3fcde71769aac16418257904e482010f78e51ac5cfa70cce265964736f6c634300081a0033\n}\n",
				"bytecode": {
					"linkReferences": {},
					"object": "608060405234801561000f575f80fd5b50604051612b41380380612b41833981810160405281019061003191906101b5565b6040518060400160405280600a81526020017f53696d706c6553776170000000000000000000000000000000000000000000008152506040518060400160405280600281526020017f535300000000000000000000000000000000000000000000000000000000000081525081600390816100ac919061042d565b5080600490816100bc919061042d565b5050508160055f6101000a81548173ffffffffffffffffffffffffffffffffffffffff021916908373ffffffffffffffffffffffffffffffffffffffff1602179055508060065f6101000a81548173ffffffffffffffffffffffffffffffffffffffff021916908373ffffffffffffffffffffffffffffffffffffffff16021790555050506104fc565b5f80fd5b5f73ffffffffffffffffffffffffffffffffffffffff82169050919050565b5f6101738261014a565b9050919050565b5f61018482610169565b9050919050565b6101948161017a565b811461019e575f80fd5b50565b5f815190506101af8161018b565b92915050565b5f80604083850312156101cb576101ca610146565b5b5f6101d8858286016101a1565b92505060206101e9858286016101a1565b9150509250929050565b5f81519050919050565b7f4e487b71000000000000000000000000000000000000000000000000000000005f52604160045260245ffd5b7f4e487b71000000000000000000000000000000000000000000000000000000005f52602260045260245ffd5b5f600282049050600182168061026e57607f821691505b6020821081036102815761028061022a565b5b50919050565b5f819050815f5260205f209050919050565b5f6020601f8301049050919050565b5f82821b905092915050565b5f600883026102e37fffffffffffffffffffffffffffffffffffffffffffffffffffffffffffffffff826102a8565b6102ed86836102a8565b95508019841693508086168417925050509392505050565b5f819050919050565b5f819050919050565b5f61033161032c61032784610305565b61030e565b610305565b9050919050565b5f819050919050565b61034a83610317565b61035e61035682610338565b8484546102b4565b825550505050565b5f90565b610372610366565b61037d818484610341565b505050565b5b818110156103a0576103955f8261036a565b600181019050610383565b5050565b601f8211156103e5576103b681610287565b6103bf84610299565b810160208510156103ce578190505b6103e26103da85610299565b830182610382565b50505b505050565b5f82821c905092915050565b5f6104055f19846008026103ea565b1980831691505092915050565b5f61041d83836103f6565b9150826002028217905092915050565b610436826101f3565b67ffffffffffffffff81111561044f5761044e6101fd565b5b6104598254610257565b6104648282856103a4565b5f60209050601f831160018114610495575f8415610483578287015190505b61048d8582610412565b8655506104f4565b601f1984166104a386610287565b5f5b828110156104ca578489015182556001820191506020850194506020810190506104a5565b868310156104e757848901516104e3601f8916826103f6565b8355505b6001600288020188555050505b505050505050565b612638806105095f395ff3fe608060405234801561000f575f80fd5b5060043610610109575f3560e01c8063443cb4bc116100a05780639c8f9f231161006f5780639c8f9f23146102d05780639cd441da14610301578063a9059cbb14610331578063d21220a714610361578063dd62ed3e1461037f57610109565b8063443cb4bc146102465780635a76f25e1461026457806370a082311461028257806395d89b41146102b257610109565b806318160ddd116100dc57806318160ddd146101a957806323b872dd146101c7578063313ce567146101f7578063432643491461021557610109565b8063054d50d41461010d57806306fdde031461013d578063095ea7b31461015b5780630dfe16811461018b575b5f80fd5b61012760048036038101906101229190611c99565b6103af565b6040516101349190611cf8565b60405180910390f35b61014561046a565b6040516101529190611d81565b60405180910390f35b61017560048036038101906101709190611dfb565b6104fa565b6040516101829190611e53565b60405180910390f35b61019361051c565b6040516101a09190611ec7565b60405180910390f35b6101b1610541565b6040516101be9190611cf8565b60405180910390f35b6101e160048036038101906101dc9190611ee0565b61054a565b6040516101ee9190611e53565b60405180910390f35b6101ff610578565b60405161020c9190611f4b565b60405180910390f35b61022f600480360381019061022a9190611f9f565b610580565b60405161023d929190611fef565b60405180910390f35b61024e610b80565b60405161025b9190611cf8565b60405180910390f35b61026c610b86565b6040516102799190611cf8565b60405180910390f35b61029c60048036038101906102979190612016565b610b8c565b6040516102a99190611cf8565b60405180910390f35b6102ba610bd1565b6040516102c79190611d81565b60405180910390f35b6102ea60048036038101906102e59190612041565b610c61565b6040516102f892919061206c565b60405180910390f35b61031b60048036038101906103169190612093565b6110ff565b6040516103289190611cf8565b60405180910390f35b61034b60048036038101906103469190611dfb565b611489565b6040516103589190611e53565b60405180910390f35b6103696114ab565b6040516103769190611ec7565b60405180910390f35b610399600480360381019061039491906120d1565b6114d0565b6040516103a69190611cf8565b60405180910390f35b5f8084116103f2576040517f08c379a00000000000000000000000000000000000000000000000000000000081526004016103e990612159565b60405180910390fd5b5f8311801561040057505f82115b61043f576040517f08c379a0000000000000000000000000000000000000000000000000000000008152600401610436906121c1565b60405180910390fd5b838361044b919061220c565b8285610457919061223f565b61046191906122ad565b90509392505050565b6060600380546104799061230a565b80601f01602080910402602001604051908101604052809291908181526020018280546104a59061230a565b80156104f05780601f106104c7576101008083540402835291602001916104f0565b820191905f5260205f20905b8154815290600101906020018083116104d357829003601f168201915b5050505050905090565b5f80610504611552565b9050610511818585611559565b600191505092915050565b60055f9054906101000a900473ffffffffffffffffffffffffffffffffffffffff1681565b5f600254905090565b5f80610554611552565b905061056185828561156b565b61056c8585856115fd565b60019150509392505050565b5f6012905090565b5f805f85116105c4576040517f08c379a00000000000000000000000000000000000000000000000000000000081526004016105bb90612384565b60405180910390fd5b60055f9054906101000a900473ffffffffffffffffffffffffffffffffffffffff1673ffffffffffffffffffffffffffffffffffffffff168473ffffffffffffffffffffffffffffffffffffffff16148061066b575060065f9054906101000a900473ffffffffffffffffffffffffffffffffffffffff1673ffffffffffffffffffffffffffffffffffffffff168473ffffffffffffffffffffffffffffffffffffffff16145b6106aa576040517f08c379a00000000000000000000000000000000000000000000000000000000081526004016106a1906123ec565b60405180910390fd5b60055f9054906101000a900473ffffffffffffffffffffffffffffffffffffffff1673ffffffffffffffffffffffffffffffffffffffff168473ffffffffffffffffffffffffffffffffffffffff16036108745760065f9054906101000a900473ffffffffffffffffffffffffffffffffffffffff169050610731856007546008546103af565b9150828211610775576040517f08c379a000000000000000000000000000000000000000000000000000000000815260040161076c90612384565b60405180910390fd5b8373ffffffffffffffffffffffffffffffffffffffff166323b872dd3330886040518463ffffffff1660e01b81526004016107b293929190612419565b6020604051808303815f875af11580156107ce573d5f803e3d5ffd5b505050506040513d601f19601f820116820180604052508101906107f29190612478565b508073ffffffffffffffffffffffffffffffffffffffff1663a9059cbb33846040518363ffffffff1660e01b815260040161082e9291906124a3565b6020604051808303815f875af115801561084a573d5f803e3d5ffd5b505050506040513d601f19601f8201168201806040525081019061086e9190612478565b506109e6565b60055f9054906101000a900473ffffffffffffffffffffffffffffffffffffffff1690506108a7856008546007546103af565b91508282116108eb576040517f08c379a00000000000000000000000000000000000000000000000000000000081526004016108e290612384565b60405180910390fd5b8373ffffffffffffffffffffffffffffffffffffffff166323b872dd3330886040518463ffffffff1660e01b815260040161092893929190612419565b6020604051808303815f875af1158015610944573d5f803e3d5ffd5b505050506040513d601f19601f820116820180604052508101906109689190612478565b508073ffffffffffffffffffffffffffffffffffffffff1663a9059cbb33846040518363ffffffff1660e01b81526004016109a49291906124a3565b6020604051808303815f875af11580156109c0573d5f803e3d5ffd5b505050506040513d601f19601f820116820180604052508101906109e49190612478565b505b60055f9054906101000a900473ffffffffffffffffffffffffffffffffffffffff1673ffffffffffffffffffffffffffffffffffffffff166370a08231306040518263ffffffff1660e01b8152600401610a4091906124ca565b602060405180830381865afa158015610a5b573d5f803e3d5ffd5b505050506040513d601f19601f82011682018060405250810190610a7f91906124f7565b60078190555060065f9054906101000a900473ffffffffffffffffffffffffffffffffffffffff1673ffffffffffffffffffffffffffffffffffffffff166370a08231306040518263ffffffff1660e01b8152600401610adf91906124ca565b602060405180830381865afa158015610afa573d5f803e3d5ffd5b505050506040513d601f19601f82011682018060405250810190610b1e91906124f7565b6008819055503373ffffffffffffffffffffffffffffffffffffffff167f24043855bfbfea0ccea141e5a73d7116bf0bfe083ea900a791f4b407ff03e52586868585604051610b709493929190612522565b60405180910390a2935093915050565b60075481565b60085481565b5f805f8373ffffffffffffffffffffffffffffffffffffffff1673ffffffffffffffffffffffffffffffffffffffff1681526020019081526020015f20549050919050565b606060048054610be09061230a565b80601f0160208091040260200160405190810160405280929190818152602001828054610c0c9061230a565b8015610c575780601f10610c2e57610100808354040283529160200191610c57565b820191905f5260205f20905b815481529060010190602001808311610c3a57829003601f168201915b5050505050905090565b5f805f60055f9054906101000a900473ffffffffffffffffffffffffffffffffffffffff1673ffffffffffffffffffffffffffffffffffffffff166370a08231306040518263ffffffff1660e01b8152600401610cbe91906124ca565b602060405180830381865afa158015610cd9573d5f803e3d5ffd5b505050506040513d601f19601f82011682018060405250810190610cfd91906124f7565b90505f60065f9054906101000a900473ffffffffffffffffffffffffffffffffffffffff1673ffffffffffffffffffffffffffffffffffffffff166370a08231306040518263ffffffff1660e01b8152600401610d5a91906124ca565b602060405180830381865afa158015610d75573d5f803e3d5ffd5b505050506040513d601f19601f82011682018060405250810190610d9991906124f7565b90505f610da4610541565b9050808387610db3919061223f565b610dbd91906122ad565b9450808287610dcc919061223f565b610dd691906122ad565b93505f85118015610de657505f84115b610e25576040517f08c379a0000000000000000000000000000000000000000000000000000000008152600401610e1c906125af565b60405180910390fd5b610e2f33876116ed565b60055f9054906101000a900473ffffffffffffffffffffffffffffffffffffffff1673ffffffffffffffffffffffffffffffffffffffff1663a9059cbb33876040518363ffffffff1660e01b8152600401610e8b9291906124a3565b6020604051808303815f875af1158015610ea7573d5f803e3d5ffd5b505050506040513d601f19601f82011682018060405250810190610ecb9190612478565b5060065f9054906101000a900473ffffffffffffffffffffffffffffffffffffffff1673ffffffffffffffffffffffffffffffffffffffff1663a9059cbb33866040518363ffffffff1660e01b8152600401610f289291906124a3565b6020604051808303815f875af1158015610f44573d5f803e3d5ffd5b505050506040513d601f19601f82011682018060405250810190610f689190612478565b5060055f9054906101000a900473ffffffffffffffffffffffffffffffffffffffff1673ffffffffffffffffffffffffffffffffffffffff166370a08231306040518263ffffffff1660e01b8152600401610fc391906124ca565b602060405180830381865afa158015610fde573d5f803e3d5ffd5b505050506040513d601f19601f8201168201806040525081019061100291906124f7565b60078190555060065f9054906101000a900473ffffffffffffffffffffffffffffffffffffffff1673ffffffffffffffffffffffffffffffffffffffff166370a08231306040518263ffffffff1660e01b815260040161106291906124ca565b602060405180830381865afa15801561107d573d5f803e3d5ffd5b505050506040513d601f19601f820116820180604052508101906110a191906124f7565b6008819055503373ffffffffffffffffffffffffffffffffffffffff167f49995e5dd6158cf69ad3e9777c46755a1a826a446c6416992167462dad033b2a86866040516110ef92919061206c565b60405180910390a2505050915091565b5f60055f9054906101000a900473ffffffffffffffffffffffffffffffffffffffff1673ffffffffffffffffffffffffffffffffffffffff166323b872dd3330866040518463ffffffff1660e01b815260040161115e93929190612419565b6020604051808303815f875af115801561117a573d5f803e3d5ffd5b505050506040513d601f19601f8201168201806040525081019061119e9190612478565b5060065f9054906101000a900473ffffffffffffffffffffffffffffffffffffffff1673ffffffffffffffffffffffffffffffffffffffff166323b872dd3330856040518463ffffffff1660e01b81526004016111fd93929190612419565b6020604051808303815f875af1158015611219573d5f803e3d5ffd5b505050506040513d601f19601f8201168201806040525081019061123d9190612478565b505f611247610541565b90505f810361126b57611264838561125f919061223f565b61176c565b91506112a8565b6112a5600754828661127d919061223f565b61128791906122ad565b6008548386611296919061223f565b6112a091906122ad565b6117e3565b91505b5f82116112ea576040517f08c379a00000000000000000000000000000000000000000000000000000000081526004016112e1906125af565b60405180910390fd5b60055f9054906101000a900473ffffffffffffffffffffffffffffffffffffffff1673ffffffffffffffffffffffffffffffffffffffff166370a08231306040518263ffffffff1660e01b815260040161134491906124ca565b602060405180830381865afa15801561135f573d5f803e3d5ffd5b505050506040513d601f19601f8201168201806040525081019061138391906124f7565b60078190555060065f9054906101000a900473ffffffffffffffffffffffffffffffffffffffff1673ffffffffffffffffffffffffffffffffffffffff166370a08231306040518263ffffffff1660e01b81526004016113e391906124ca565b602060405180830381865afa1580156113fe573d5f803e3d5ffd5b505050506040513d601f19601f8201168201806040525081019061142291906124f7565b60088190555061143233836117fb565b3373ffffffffffffffffffffffffffffffffffffffff167f4c209b5fc8ad50758f13e2e1088ba56a560dff690a1c6fef26394f4c03821c4f858560405161147a92919061206c565b60405180910390a25092915050565b5f80611493611552565b90506114a08185856115fd565b600191505092915050565b60065f9054906101000a900473ffffffffffffffffffffffffffffffffffffffff1681565b5f60015f8473ffffffffffffffffffffffffffffffffffffffff1673ffffffffffffffffffffffffffffffffffffffff1681526020019081526020015f205f8373ffffffffffffffffffffffffffffffffffffffff1673ffffffffffffffffffffffffffffffffffffffff1681526020019081526020015f2054905092915050565b5f33905090565b611566838383600161187a565b505050565b5f61157684846114d0565b90507fffffffffffffffffffffffffffffffffffffffffffffffffffffffffffffffff81146115f757818110156115e8578281836040517ffb8f41b20000000000000000000000000000000000000000000000000000000081526004016115df939291906125cd565b60405180910390fd5b6115f684848484035f61187a565b5b50505050565b5f73ffffffffffffffffffffffffffffffffffffffff168373ffffffffffffffffffffffffffffffffffffffff160361166d575f6040517f96c6fd1e00000000000000000000000000000000000000000000000000000000815260040161166491906124ca565b60405180910390fd5b5f73ffffffffffffffffffffffffffffffffffffffff168273ffffffffffffffffffffffffffffffffffffffff16036116dd575f6040517fec442f050000000000000000000000000000000000000000000000000000000081526004016116d491906124ca565b60405180910390fd5b6116e8838383611a49565b505050565b5f73ffffffffffffffffffffffffffffffffffffffff168273ffffffffffffffffffffffffffffffffffffffff160361175d575f6040517f96c6fd1e00000000000000000000000000000000000000000000000000000000815260040161175491906124ca565b60405180910390fd5b611768825f83611a49565b5050565b5f60038211156117d1578190505f600160028461178991906122ad565b611793919061220c565b90505b818110156117cb5780915060028182856117b091906122ad565b6117ba919061220c565b6117c491906122ad565b9050611796565b506117de565b5f82146117dd57600190505b5b919050565b5f8183116117f157826117f3565b815b905092915050565b5f73ffffffffffffffffffffffffffffffffffffffff168273ffffffffffffffffffffffffffffffffffffffff160361186b575f6040517fec442f0500000000000000000000000000000000000000000000000000000000815260040161186291906124ca565b60405180910390fd5b6118765f8383611a49565b5050565b5f73ffffffffffffffffffffffffffffffffffffffff168473ffffffffffffffffffffffffffffffffffffffff16036118ea575f6040517fe602df050000000000000000000000000000000000000000000000000000000081526004016118e191906124ca565b60405180910390fd5b5f73ffffffffffffffffffffffffffffffffffffffff168373ffffffffffffffffffffffffffffffffffffffff160361195a575f6040517f94280d6200000000000000000000000000000000000000000000000000000000815260040161195191906124ca565b60405180910390fd5b8160015f8673ffffffffffffffffffffffffffffffffffffffff1673ffffffffffffffffffffffffffffffffffffffff1681526020019081526020015f205f8573ffffffffffffffffffffffffffffffffffffffff1673ffffffffffffffffffffffffffffffffffffffff1681526020019081526020015f20819055508015611a43578273ffffffffffffffffffffffffffffffffffffffff168473ffffffffffffffffffffffffffffffffffffffff167f8c5be1e5ebec7d5bd14f71427d1e84f3dd0314c0f7b2291e5b200ac8c7c3b92584604051611a3a9190611cf8565b60405180910390a35b50505050565b5f73ffffffffffffffffffffffffffffffffffffffff168373ffffffffffffffffffffffffffffffffffffffff1603611a99578060025f828254611a8d919061220c565b92505081905550611b67565b5f805f8573ffffffffffffffffffffffffffffffffffffffff1673ffffffffffffffffffffffffffffffffffffffff1681526020019081526020015f2054905081811015611b22578381836040517fe450d38c000000000000000000000000000000000000000000000000000000008152600401611b19939291906125cd565b60405180910390fd5b8181035f808673ffffffffffffffffffffffffffffffffffffffff1673ffffffffffffffffffffffffffffffffffffffff1681526020019081526020015f2081905550505b5f73ffffffffffffffffffffffffffffffffffffffff168273ffffffffffffffffffffffffffffffffffffffff1603611bae578060025f8282540392505081905550611bf8565b805f808473ffffffffffffffffffffffffffffffffffffffff1673ffffffffffffffffffffffffffffffffffffffff1681526020019081526020015f205f82825401925050819055505b8173ffffffffffffffffffffffffffffffffffffffff168373ffffffffffffffffffffffffffffffffffffffff167fddf252ad1be2c89b69c2b068fc378daa952ba7f163c4a11628f55a4df523b3ef83604051611c559190611cf8565b60405180910390a3505050565b5f80fd5b5f819050919050565b611c7881611c66565b8114611c82575f80fd5b50565b5f81359050611c9381611c6f565b92915050565b5f805f60608486031215611cb057611caf611c62565b5b5f611cbd86828701611c85565b9350506020611cce86828701611c85565b9250506040611cdf86828701611c85565b9150509250925092565b611cf281611c66565b82525050565b5f602082019050611d0b5f830184611ce9565b92915050565b5f81519050919050565b5f82825260208201905092915050565b8281835e5f83830152505050565b5f601f19601f8301169050919050565b5f611d5382611d11565b611d5d8185611d1b565b9350611d6d818560208601611d2b565b611d7681611d39565b840191505092915050565b5f6020820190508181035f830152611d998184611d49565b905092915050565b5f73ffffffffffffffffffffffffffffffffffffffff82169050919050565b5f611dca82611da1565b9050919050565b611dda81611dc0565b8114611de4575f80fd5b50565b5f81359050611df581611dd1565b92915050565b5f8060408385031215611e1157611e10611c62565b5b5f611e1e85828601611de7565b9250506020611e2f85828601611c85565b9150509250929050565b5f8115159050919050565b611e4d81611e39565b82525050565b5f602082019050611e665f830184611e44565b92915050565b5f819050919050565b5f611e8f611e8a611e8584611da1565b611e6c565b611da1565b9050919050565b5f611ea082611e75565b9050919050565b5f611eb182611e96565b9050919050565b611ec181611ea7565b82525050565b5f602082019050611eda5f830184611eb8565b92915050565b5f805f60608486031215611ef757611ef6611c62565b5b5f611f0486828701611de7565b9350506020611f1586828701611de7565b9250506040611f2686828701611c85565b9150509250925092565b5f60ff82169050919050565b611f4581611f30565b82525050565b5f602082019050611f5e5f830184611f3c565b92915050565b5f611f6e82611dc0565b9050919050565b611f7e81611f64565b8114611f88575f80fd5b50565b5f81359050611f9981611f75565b92915050565b5f805f60608486031215611fb657611fb5611c62565b5b5f611fc386828701611c85565b9350506020611fd486828701611f8b565b9250506040611fe586828701611c85565b9150509250925092565b5f6040820190506120025f830185611ce9565b61200f6020830184611eb8565b9392505050565b5f6020828403121561202b5761202a611c62565b5b5f61203884828501611de7565b91505092915050565b5f6020828403121561205657612055611c62565b5b5f61206384828501611c85565b91505092915050565b5f60408201905061207f5f830185611ce9565b61208c6020830184611ce9565b9392505050565b5f80604083850312156120a9576120a8611c62565b5b5f6120b685828601611c85565b92505060206120c785828601611c85565b9150509250929050565b5f80604083850312156120e7576120e6611c62565b5b5f6120f485828601611de7565b925050602061210585828601611de7565b9150509250929050565b7f494e53554646494349454e545f414d4f554e54000000000000000000000000005f82015250565b5f612143601383611d1b565b915061214e8261210f565b602082019050919050565b5f6020820190508181035f83015261217081612137565b9050919050565b7f494e53554646494349454e545f4c4951554944495459000000000000000000005f82015250565b5f6121ab601683611d1b565b91506121b682612177565b602082019050919050565b5f6020820190508181035f8301526121d88161219f565b9050919050565b7f4e487b71000000000000000000000000000000000000000000000000000000005f52601160045260245ffd5b5f61221682611c66565b915061222183611c66565b9250828201905080821115612239576122386121df565b5b92915050565b5f61224982611c66565b915061225483611c66565b925082820261226281611c66565b91508282048414831517612279576122786121df565b5b5092915050565b7f4e487b71000000000000000000000000000000000000000000000000000000005f52601260045260245ffd5b5f6122b782611c66565b91506122c283611c66565b9250826122d2576122d1612280565b5b828204905092915050565b7f4e487b71000000000000000000000000000000000000000000000000000000005f52602260045260245ffd5b5f600282049050600182168061232157607f821691505b602082108103612334576123336122dd565b5b50919050565b7f494e53554646494349454e545f4f55545055545f414d4f554e540000000000005f82015250565b5f61236e601a83611d1b565b91506123798261233a565b602082019050919050565b5f6020820190508181035f83015261239b81612362565b9050919050565b7f494e56414c49445f544f4b454e000000000000000000000000000000000000005f82015250565b5f6123d6600d83611d1b565b91506123e1826123a2565b602082019050919050565b5f6020820190508181035f830152612403816123ca565b9050919050565b61241381611dc0565b82525050565b5f60608201905061242c5f83018661240a565b612439602083018561240a565b6124466040830184611ce9565b949350505050565b61245781611e39565b8114612461575f80fd5b50565b5f815190506124728161244e565b92915050565b5f6020828403121561248d5761248c611c62565b5b5f61249a84828501612464565b91505092915050565b5f6040820190506124b65f83018561240a565b6124c36020830184611ce9565b9392505050565b5f6020820190506124dd5f83018461240a565b92915050565b5f815190506124f181611c6f565b92915050565b5f6020828403121561250c5761250b611c62565b5b5f612519848285016124e3565b91505092915050565b5f6080820190506125355f830187611ce9565b612542602083018661240a565b61254f6040830185611ce9565b61255c606083018461240a565b95945050505050565b7f494e53554646494349454e545f4c49515549444954595f4d494e5445440000005f82015250565b5f612599601d83611d1b565b91506125a482612565565b602082019050919050565b5f6020820190508181035f8301526125c68161258d565b9050919050565b5f6060820190506125e05f83018661240a565b6125ed6020830185611ce9565b6125fa6040830184611ce9565b94935050505056fea2646970667358221220abbda7e48efd3fcde71769aac16418257904e482010f78e51ac5cfa70cce265964736f6c634300081a0033",
					"opcodes": "PUSH1 0x80 PUSH1 0x40 MSTORE CALLVALUE DUP1 ISZERO PUSH2 0xF JUMPI PUSH0 DUP1 REVERT JUMPDEST POP PUSH1 0x40 MLOAD PUSH2 0x2B41 CODESIZE SUB DUP1 PUSH2 0x2B41 DUP4 CODECOPY DUP2 DUP2 ADD PUSH1 0x40 MSTORE DUP2 ADD SWAP1 PUSH2 0x31 SWAP2 SWAP1 PUSH2 0x1B5 JUMP JUMPDEST PUSH1 0x40 MLOAD DUP1 PUSH1 0x40 ADD PUSH1 0x40 MSTORE DUP1 PUSH1 0xA DUP2 MSTORE PUSH1 0x20 ADD PUSH32 0x53696D706C655377617000000000000000000000000000000000000000000000 DUP2 MSTORE POP PUSH1 0x40 MLOAD DUP1 PUSH1 0x40 ADD PUSH1 0x40 MSTORE DUP1 PUSH1 0x2 DUP2 MSTORE PUSH1 0x20 ADD PUSH32 0x5353000000000000000000000000000000000000000000000000000000000000 DUP2 MSTORE POP DUP2 PUSH1 0x3 SWAP1 DUP2 PUSH2 0xAC SWAP2 SWAP1 PUSH2 0x42D JUMP JUMPDEST POP DUP1 PUSH1 0x4 SWAP1 DUP2 PUSH2 0xBC SWAP2 SWAP1 PUSH2 0x42D JUMP JUMPDEST POP POP POP DUP2 PUSH1 0x5 PUSH0 PUSH2 0x100 EXP DUP2 SLOAD DUP2 PUSH20 0xFFFFFFFFFFFFFFFFFFFFFFFFFFFFFFFFFFFFFFFF MUL NOT AND SWAP1 DUP4 PUSH20 0xFFFFFFFFFFFFFFFFFFFFFFFFFFFFFFFFFFFFFFFF AND MUL OR SWAP1 SSTORE POP DUP1 PUSH1 0x6 PUSH0 PUSH2 0x100 EXP DUP2 SLOAD DUP2 PUSH20 0xFFFFFFFFFFFFFFFFFFFFFFFFFFFFFFFFFFFFFFFF MUL NOT AND SWAP1 DUP4 PUSH20 0xFFFFFFFFFFFFFFFFFFFFFFFFFFFFFFFFFFFFFFFF AND MUL OR SWAP1 SSTORE POP POP POP PUSH2 0x4FC JUMP JUMPDEST PUSH0 DUP1 REVERT JUMPDEST PUSH0 PUSH20 0xFFFFFFFFFFFFFFFFFFFFFFFFFFFFFFFFFFFFFFFF DUP3 AND SWAP1 POP SWAP2 SWAP1 POP JUMP JUMPDEST PUSH0 PUSH2 0x173 DUP3 PUSH2 0x14A JUMP JUMPDEST SWAP1 POP SWAP2 SWAP1 POP JUMP JUMPDEST PUSH0 PUSH2 0x184 DUP3 PUSH2 0x169 JUMP JUMPDEST SWAP1 POP SWAP2 SWAP1 POP JUMP JUMPDEST PUSH2 0x194 DUP2 PUSH2 0x17A JUMP JUMPDEST DUP2 EQ PUSH2 0x19E JUMPI PUSH0 DUP1 REVERT JUMPDEST POP JUMP JUMPDEST PUSH0 DUP2 MLOAD SWAP1 POP PUSH2 0x1AF DUP2 PUSH2 0x18B JUMP JUMPDEST SWAP3 SWAP2 POP POP JUMP JUMPDEST PUSH0 DUP1 PUSH1 0x40 DUP4 DUP6 SUB SLT ISZERO PUSH2 0x1CB JUMPI PUSH2 0x1CA PUSH2 0x146 JUMP JUMPDEST JUMPDEST PUSH0 PUSH2 0x1D8 DUP6 DUP3 DUP7 ADD PUSH2 0x1A1 JUMP JUMPDEST SWAP3 POP POP PUSH1 0x20 PUSH2 0x1E9 DUP6 DUP3 DUP7 ADD PUSH2 0x1A1 JUMP JUMPDEST SWAP2 POP POP SWAP3 POP SWAP3 SWAP1 POP JUMP JUMPDEST PUSH0 DUP2 MLOAD SWAP1 POP SWAP2 SWAP1 POP JUMP JUMPDEST PUSH32 0x4E487B7100000000000000000000000000000000000000000000000000000000 PUSH0 MSTORE PUSH1 0x41 PUSH1 0x4 MSTORE PUSH1 0x24 PUSH0 REVERT JUMPDEST PUSH32 0x4E487B7100000000000000000000000000000000000000000000000000000000 PUSH0 MSTORE PUSH1 0x22 PUSH1 0x4 MSTORE PUSH1 0x24 PUSH0 REVERT JUMPDEST PUSH0 PUSH1 0x2 DUP3 DIV SWAP1 POP PUSH1 0x1 DUP3 AND DUP1 PUSH2 0x26E JUMPI PUSH1 0x7F DUP3 AND SWAP2 POP JUMPDEST PUSH1 0x20 DUP3 LT DUP2 SUB PUSH2 0x281 JUMPI PUSH2 0x280 PUSH2 0x22A JUMP JUMPDEST JUMPDEST POP SWAP2 SWAP1 POP JUMP JUMPDEST PUSH0 DUP2 SWAP1 POP DUP2 PUSH0 MSTORE PUSH1 0x20 PUSH0 KECCAK256 SWAP1 POP SWAP2 SWAP1 POP JUMP JUMPDEST PUSH0 PUSH1 0x20 PUSH1 0x1F DUP4 ADD DIV SWAP1 POP SWAP2 SWAP1 POP JUMP JUMPDEST PUSH0 DUP3 DUP3 SHL SWAP1 POP SWAP3 SWAP2 POP POP JUMP JUMPDEST PUSH0 PUSH1 0x8 DUP4 MUL PUSH2 0x2E3 PUSH32 0xFFFFFFFFFFFFFFFFFFFFFFFFFFFFFFFFFFFFFFFFFFFFFFFFFFFFFFFFFFFFFFFF DUP3 PUSH2 0x2A8 JUMP JUMPDEST PUSH2 0x2ED DUP7 DUP4 PUSH2 0x2A8 JUMP JUMPDEST SWAP6 POP DUP1 NOT DUP5 AND SWAP4 POP DUP1 DUP7 AND DUP5 OR SWAP3 POP POP POP SWAP4 SWAP3 POP POP POP JUMP JUMPDEST PUSH0 DUP2 SWAP1 POP SWAP2 SWAP1 POP JUMP JUMPDEST PUSH0 DUP2 SWAP1 POP SWAP2 SWAP1 POP JUMP JUMPDEST PUSH0 PUSH2 0x331 PUSH2 0x32C PUSH2 0x327 DUP5 PUSH2 0x305 JUMP JUMPDEST PUSH2 0x30E JUMP JUMPDEST PUSH2 0x305 JUMP JUMPDEST SWAP1 POP SWAP2 SWAP1 POP JUMP JUMPDEST PUSH0 DUP2 SWAP1 POP SWAP2 SWAP1 POP JUMP JUMPDEST PUSH2 0x34A DUP4 PUSH2 0x317 JUMP JUMPDEST PUSH2 0x35E PUSH2 0x356 DUP3 PUSH2 0x338 JUMP JUMPDEST DUP5 DUP5 SLOAD PUSH2 0x2B4 JUMP JUMPDEST DUP3 SSTORE POP POP POP POP JUMP JUMPDEST PUSH0 SWAP1 JUMP JUMPDEST PUSH2 0x372 PUSH2 0x366 JUMP JUMPDEST PUSH2 0x37D DUP2 DUP5 DUP5 PUSH2 0x341 JUMP JUMPDEST POP POP POP JUMP JUMPDEST JUMPDEST DUP2 DUP2 LT ISZERO PUSH2 0x3A0 JUMPI PUSH2 0x395 PUSH0 DUP3 PUSH2 0x36A JUMP JUMPDEST PUSH1 0x1 DUP2 ADD SWAP1 POP PUSH2 0x383 JUMP JUMPDEST POP POP JUMP JUMPDEST PUSH1 0x1F DUP3 GT ISZERO PUSH2 0x3E5 JUMPI PUSH2 0x3B6 DUP2 PUSH2 0x287 JUMP JUMPDEST PUSH2 0x3BF DUP5 PUSH2 0x299 JUMP JUMPDEST DUP2 ADD PUSH1 0x20 DUP6 LT ISZERO PUSH2 0x3CE JUMPI DUP2 SWAP1 POP JUMPDEST PUSH2 0x3E2 PUSH2 0x3DA DUP6 PUSH2 0x299 JUMP JUMPDEST DUP4 ADD DUP3 PUSH2 0x382 JUMP JUMPDEST POP POP JUMPDEST POP POP POP JUMP JUMPDEST PUSH0 DUP3 DUP3 SHR SWAP1 POP SWAP3 SWAP2 POP POP JUMP JUMPDEST PUSH0 PUSH2 0x405 PUSH0 NOT DUP5 PUSH1 0x8 MUL PUSH2 0x3EA JUMP JUMPDEST NOT DUP1 DUP4 AND SWAP2 POP POP SWAP3 SWAP2 POP POP JUMP JUMPDEST PUSH0 PUSH2 0x41D DUP4 DUP4 PUSH2 0x3F6 JUMP JUMPDEST SWAP2 POP DUP3 PUSH1 0x2 MUL DUP3 OR SWAP1 POP SWAP3 SWAP2 POP POP JUMP JUMPDEST PUSH2 0x436 DUP3 PUSH2 0x1F3 JUMP JUMPDEST PUSH8 0xFFFFFFFFFFFFFFFF DUP2 GT ISZERO PUSH2 0x44F JUMPI PUSH2 0x44E PUSH2 0x1FD JUMP JUMPDEST JUMPDEST PUSH2 0x459 DUP3 SLOAD PUSH2 0x257 JUMP JUMPDEST PUSH2 0x464 DUP3 DUP3 DUP6 PUSH2 0x3A4 JUMP JUMPDEST PUSH0 PUSH1 0x20 SWAP1 POP PUSH1 0x1F DUP4 GT PUSH1 0x1 DUP2 EQ PUSH2 0x495 JUMPI PUSH0 DUP5 ISZERO PUSH2 0x483 JUMPI DUP3 DUP8 ADD MLOAD SWAP1 POP JUMPDEST PUSH2 0x48D DUP6 DUP3 PUSH2 0x412 JUMP JUMPDEST DUP7 SSTORE POP PUSH2 0x4F4 JUMP JUMPDEST PUSH1 0x1F NOT DUP5 AND PUSH2 0x4A3 DUP7 PUSH2 0x287 JUMP JUMPDEST PUSH0 JUMPDEST DUP3 DUP2 LT ISZERO PUSH2 0x4CA JUMPI DUP5 DUP10 ADD MLOAD DUP3 SSTORE PUSH1 0x1 DUP3 ADD SWAP2 POP PUSH1 0x20 DUP6 ADD SWAP5 POP PUSH1 0x20 DUP2 ADD SWAP1 POP PUSH2 0x4A5 JUMP JUMPDEST DUP7 DUP4 LT ISZERO PUSH2 0x4E7 JUMPI DUP5 DUP10 ADD MLOAD PUSH2 0x4E3 PUSH1 0x1F DUP10 AND DUP3 PUSH2 0x3F6 JUMP JUMPDEST DUP4 SSTORE POP JUMPDEST PUSH1 0x1 PUSH1 0x2 DUP9 MUL ADD DUP9 SSTORE POP POP POP JUMPDEST POP POP POP POP POP POP JUMP JUMPDEST PUSH2 0x2638 DUP1 PUSH2 0x509 PUSH0 CODECOPY PUSH0 RETURN INVALID PUSH1 0x80 PUSH1 0x40 MSTORE CALLVALUE DUP1 ISZERO PUSH2 0xF JUMPI PUSH0 DUP1 REVERT JUMPDEST POP PUSH1 0x4 CALLDATASIZE LT PUSH2 0x109 JUMPI PUSH0 CALLDATALOAD PUSH1 0xE0 SHR DUP1 PUSH4 0x443CB4BC GT PUSH2 0xA0 JUMPI DUP1 PUSH4 0x9C8F9F23 GT PUSH2 0x6F JUMPI DUP1 PUSH4 0x9C8F9F23 EQ PUSH2 0x2D0 JUMPI DUP1 PUSH4 0x9CD441DA EQ PUSH2 0x301 JUMPI DUP1 PUSH4 0xA9059CBB EQ PUSH2 0x331 JUMPI DUP1 PUSH4 0xD21220A7 EQ PUSH2 0x361 JUMPI DUP1 PUSH4 0xDD62ED3E EQ PUSH2 0x37F JUMPI PUSH2 0x109 JUMP JUMPDEST DUP1 PUSH4 0x443CB4BC EQ PUSH2 0x246 JUMPI DUP1 PUSH4 0x5A76F25E EQ PUSH2 0x264 JUMPI DUP1 PUSH4 0x70A08231 EQ PUSH2 0x282 JUMPI DUP1 PUSH4 0x95D89B41 EQ PUSH2 0x2B2 JUMPI PUSH2 0x109 JUMP JUMPDEST DUP1 PUSH4 0x18160DDD GT PUSH2 0xDC JUMPI DUP1 PUSH4 0x18160DDD EQ PUSH2 0x1A9 JUMPI DUP1 PUSH4 0x23B872DD EQ PUSH2 0x1C7 JUMPI DUP1 PUSH4 0x313CE567 EQ PUSH2 0x1F7 JUMPI DUP1 PUSH4 0x43264349 EQ PUSH2 0x215 JUMPI PUSH2 0x109 JUMP JUMPDEST DUP1 PUSH4 0x54D50D4 EQ PUSH2 0x10D JUMPI DUP1 PUSH4 0x6FDDE03 EQ PUSH2 0x13D JUMPI DUP1 PUSH4 0x95EA7B3 EQ PUSH2 0x15B JUMPI DUP1 PUSH4 0xDFE1681 EQ PUSH2 0x18B JUMPI JUMPDEST PUSH0 DUP1 REVERT JUMPDEST PUSH2 0x127 PUSH1 0x4 DUP1 CALLDATASIZE SUB DUP2 ADD SWAP1 PUSH2 0x122 SWAP2 SWAP1 PUSH2 0x1C99 JUMP JUMPDEST PUSH2 0x3AF JUMP JUMPDEST PUSH1 0x40 MLOAD PUSH2 0x134 SWAP2 SWAP1 PUSH2 0x1CF8 JUMP JUMPDEST PUSH1 0x40 MLOAD DUP1 SWAP2 SUB SWAP1 RETURN JUMPDEST PUSH2 0x145 PUSH2 0x46A JUMP JUMPDEST PUSH1 0x40 MLOAD PUSH2 0x152 SWAP2 SWAP1 PUSH2 0x1D81 JUMP JUMPDEST PUSH1 0x40 MLOAD DUP1 SWAP2 SUB SWAP1 RETURN JUMPDEST PUSH2 0x175 PUSH1 0x4 DUP1 CALLDATASIZE SUB DUP2 ADD SWAP1 PUSH2 0x170 SWAP2 SWAP1 PUSH2 0x1DFB JUMP JUMPDEST PUSH2 0x4FA JUMP JUMPDEST PUSH1 0x40 MLOAD PUSH2 0x182 SWAP2 SWAP1 PUSH2 0x1E53 JUMP JUMPDEST PUSH1 0x40 MLOAD DUP1 SWAP2 SUB SWAP1 RETURN JUMPDEST PUSH2 0x193 PUSH2 0x51C JUMP JUMPDEST PUSH1 0x40 MLOAD PUSH2 0x1A0 SWAP2 SWAP1 PUSH2 0x1EC7 JUMP JUMPDEST PUSH1 0x40 MLOAD DUP1 SWAP2 SUB SWAP1 RETURN JUMPDEST PUSH2 0x1B1 PUSH2 0x541 JUMP JUMPDEST PUSH1 0x40 MLOAD PUSH2 0x1BE SWAP2 SWAP1 PUSH2 0x1CF8 JUMP JUMPDEST PUSH1 0x40 MLOAD DUP1 SWAP2 SUB SWAP1 RETURN JUMPDEST PUSH2 0x1E1 PUSH1 0x4 DUP1 CALLDATASIZE SUB DUP2 ADD SWAP1 PUSH2 0x1DC SWAP2 SWAP1 PUSH2 0x1EE0 JUMP JUMPDEST PUSH2 0x54A JUMP JUMPDEST PUSH1 0x40 MLOAD PUSH2 0x1EE SWAP2 SWAP1 PUSH2 0x1E53 JUMP JUMPDEST PUSH1 0x40 MLOAD DUP1 SWAP2 SUB SWAP1 RETURN JUMPDEST PUSH2 0x1FF PUSH2 0x578 JUMP JUMPDEST PUSH1 0x40 MLOAD PUSH2 0x20C SWAP2 SWAP1 PUSH2 0x1F4B JUMP JUMPDEST PUSH1 0x40 MLOAD DUP1 SWAP2 SUB SWAP1 RETURN JUMPDEST PUSH2 0x22F PUSH1 0x4 DUP1 CALLDATASIZE SUB DUP2 ADD SWAP1 PUSH2 0x22A SWAP2 SWAP1 PUSH2 0x1F9F JUMP JUMPDEST PUSH2 0x580 JUMP JUMPDEST PUSH1 0x40 MLOAD PUSH2 0x23D SWAP3 SWAP2 SWAP1 PUSH2 0x1FEF JUMP JUMPDEST PUSH1 0x40 MLOAD DUP1 SWAP2 SUB SWAP1 RETURN JUMPDEST PUSH2 0x24E PUSH2 0xB80 JUMP JUMPDEST PUSH1 0x40 MLOAD PUSH2 0x25B SWAP2 SWAP1 PUSH2 0x1CF8 JUMP JUMPDEST PUSH1 0x40 MLOAD DUP1 SWAP2 SUB SWAP1 RETURN JUMPDEST PUSH2 0x26C PUSH2 0xB86 JUMP JUMPDEST PUSH1 0x40 MLOAD PUSH2 0x279 SWAP2 SWAP1 PUSH2 0x1CF8 JUMP JUMPDEST PUSH1 0x40 MLOAD DUP1 SWAP2 SUB SWAP1 RETURN JUMPDEST PUSH2 0x29C PUSH1 0x4 DUP1 CALLDATASIZE SUB DUP2 ADD SWAP1 PUSH2 0x297 SWAP2 SWAP1 PUSH2 0x2016 JUMP JUMPDEST PUSH2 0xB8C JUMP JUMPDEST PUSH1 0x40 MLOAD PUSH2 0x2A9 SWAP2 SWAP1 PUSH2 0x1CF8 JUMP JUMPDEST PUSH1 0x40 MLOAD DUP1 SWAP2 SUB SWAP1 RETURN JUMPDEST PUSH2 0x2BA PUSH2 0xBD1 JUMP JUMPDEST PUSH1 0x40 MLOAD PUSH2 0x2C7 SWAP2 SWAP1 PUSH2 0x1D81 JUMP JUMPDEST PUSH1 0x40 MLOAD DUP1 SWAP2 SUB SWAP1 RETURN JUMPDEST PUSH2 0x2EA PUSH1 0x4 DUP1 CALLDATASIZE SUB DUP2 ADD SWAP1 PUSH2 0x2E5 SWAP2 SWAP1 PUSH2 0x2041 JUMP JUMPDEST PUSH2 0xC61 JUMP JUMPDEST PUSH1 0x40 MLOAD PUSH2 0x2F8 SWAP3 SWAP2 SWAP1 PUSH2 0x206C JUMP JUMPDEST PUSH1 0x40 MLOAD DUP1 SWAP2 SUB SWAP1 RETURN JUMPDEST PUSH2 0x31B PUSH1 0x4 DUP1 CALLDATASIZE SUB DUP2 ADD SWAP1 PUSH2 0x316 SWAP2 SWAP1 PUSH2 0x2093 JUMP JUMPDEST PUSH2 0x10FF JUMP JUMPDEST PUSH1 0x40 MLOAD PUSH2 0x328 SWAP2 SWAP1 PUSH2 0x1CF8 JUMP JUMPDEST PUSH1 0x40 MLOAD DUP1 SWAP2 SUB SWAP1 RETURN JUMPDEST PUSH2 0x34B PUSH1 0x4 DUP1 CALLDATASIZE SUB DUP2 ADD SWAP1 PUSH2 0x346 SWAP2 SWAP1 PUSH2 0x1DFB JUMP JUMPDEST PUSH2 0x1489 JUMP JUMPDEST PUSH1 0x40 MLOAD PUSH2 0x358 SWAP2 SWAP1 PUSH2 0x1E53 JUMP JUMPDEST PUSH1 0x40 MLOAD DUP1 SWAP2 SUB SWAP1 RETURN JUMPDEST PUSH2 0x369 PUSH2 0x14AB JUMP JUMPDEST PUSH1 0x40 MLOAD PUSH2 0x376 SWAP2 SWAP1 PUSH2 0x1EC7 JUMP JUMPDEST PUSH1 0x40 MLOAD DUP1 SWAP2 SUB SWAP1 RETURN JUMPDEST PUSH2 0x399 PUSH1 0x4 DUP1 CALLDATASIZE SUB DUP2 ADD SWAP1 PUSH2 0x394 SWAP2 SWAP1 PUSH2 0x20D1 JUMP JUMPDEST PUSH2 0x14D0 JUMP JUMPDEST PUSH1 0x40 MLOAD PUSH2 0x3A6 SWAP2 SWAP1 PUSH2 0x1CF8 JUMP JUMPDEST PUSH1 0x40 MLOAD DUP1 SWAP2 SUB SWAP1 RETURN JUMPDEST PUSH0 DUP1 DUP5 GT PUSH2 0x3F2 JUMPI PUSH1 0x40 MLOAD PUSH32 0x8C379A000000000000000000000000000000000000000000000000000000000 DUP2 MSTORE PUSH1 0x4 ADD PUSH2 0x3E9 SWAP1 PUSH2 0x2159 JUMP JUMPDEST PUSH1 0x40 MLOAD DUP1 SWAP2 SUB SWAP1 REVERT JUMPDEST PUSH0 DUP4 GT DUP1 ISZERO PUSH2 0x400 JUMPI POP PUSH0 DUP3 GT JUMPDEST PUSH2 0x43F JUMPI PUSH1 0x40 MLOAD PUSH32 0x8C379A000000000000000000000000000000000000000000000000000000000 DUP2 MSTORE PUSH1 0x4 ADD PUSH2 0x436 SWAP1 PUSH2 0x21C1 JUMP JUMPDEST PUSH1 0x40 MLOAD DUP1 SWAP2 SUB SWAP1 REVERT JUMPDEST DUP4 DUP4 PUSH2 0x44B SWAP2 SWAP1 PUSH2 0x220C JUMP JUMPDEST DUP3 DUP6 PUSH2 0x457 SWAP2 SWAP1 PUSH2 0x223F JUMP JUMPDEST PUSH2 0x461 SWAP2 SWAP1 PUSH2 0x22AD JUMP JUMPDEST SWAP1 POP SWAP4 SWAP3 POP POP POP JUMP JUMPDEST PUSH1 0x60 PUSH1 0x3 DUP1 SLOAD PUSH2 0x479 SWAP1 PUSH2 0x230A JUMP JUMPDEST DUP1 PUSH1 0x1F ADD PUSH1 0x20 DUP1 SWAP2 DIV MUL PUSH1 0x20 ADD PUSH1 0x40 MLOAD SWAP1 DUP2 ADD PUSH1 0x40 MSTORE DUP1 SWAP3 SWAP2 SWAP1 DUP2 DUP2 MSTORE PUSH1 0x20 ADD DUP3 DUP1 SLOAD PUSH2 0x4A5 SWAP1 PUSH2 0x230A JUMP JUMPDEST DUP1 ISZERO PUSH2 0x4F0 JUMPI DUP1 PUSH1 0x1F LT PUSH2 0x4C7 JUMPI PUSH2 0x100 DUP1 DUP4 SLOAD DIV MUL DUP4 MSTORE SWAP2 PUSH1 0x20 ADD SWAP2 PUSH2 0x4F0 JUMP JUMPDEST DUP3 ADD SWAP2 SWAP1 PUSH0 MSTORE PUSH1 0x20 PUSH0 KECCAK256 SWAP1 JUMPDEST DUP2 SLOAD DUP2 MSTORE SWAP1 PUSH1 0x1 ADD SWAP1 PUSH1 0x20 ADD DUP1 DUP4 GT PUSH2 0x4D3 JUMPI DUP3 SWAP1 SUB PUSH1 0x1F AND DUP3 ADD SWAP2 JUMPDEST POP POP POP POP POP SWAP1 POP SWAP1 JUMP JUMPDEST PUSH0 DUP1 PUSH2 0x504 PUSH2 0x1552 JUMP JUMPDEST SWAP1 POP PUSH2 0x511 DUP2 DUP6 DUP6 PUSH2 0x1559 JUMP JUMPDEST PUSH1 0x1 SWAP2 POP POP SWAP3 SWAP2 POP POP JUMP JUMPDEST PUSH1 0x5 PUSH0 SWAP1 SLOAD SWAP1 PUSH2 0x100 EXP SWAP1 DIV PUSH20 0xFFFFFFFFFFFFFFFFFFFFFFFFFFFFFFFFFFFFFFFF AND DUP2 JUMP JUMPDEST PUSH0 PUSH1 0x2 SLOAD SWAP1 POP SWAP1 JUMP JUMPDEST PUSH0 DUP1 PUSH2 0x554 PUSH2 0x1552 JUMP JUMPDEST SWAP1 POP PUSH2 0x561 DUP6 DUP3 DUP6 PUSH2 0x156B JUMP JUMPDEST PUSH2 0x56C DUP6 DUP6 DUP6 PUSH2 0x15FD JUMP JUMPDEST PUSH1 0x1 SWAP2 POP POP SWAP4 SWAP3 POP POP POP JUMP JUMPDEST PUSH0 PUSH1 0x12 SWAP1 POP SWAP1 JUMP JUMPDEST PUSH0 DUP1 PUSH0 DUP6 GT PUSH2 0x5C4 JUMPI PUSH1 0x40 MLOAD PUSH32 0x8C379A000000000000000000000000000000000000000000000000000000000 DUP2 MSTORE PUSH1 0x4 ADD PUSH2 0x5BB SWAP1 PUSH2 0x2384 JUMP JUMPDEST PUSH1 0x40 MLOAD DUP1 SWAP2 SUB SWAP1 REVERT JUMPDEST PUSH1 0x5 PUSH0 SWAP1 SLOAD SWAP1 PUSH2 0x100 EXP SWAP1 DIV PUSH20 0xFFFFFFFFFFFFFFFFFFFFFFFFFFFFFFFFFFFFFFFF AND PUSH20 0xFFFFFFFFFFFFFFFFFFFFFFFFFFFFFFFFFFFFFFFF AND DUP5 PUSH20 0xFFFFFFFFFFFFFFFFFFFFFFFFFFFFFFFFFFFFFFFF AND EQ DUP1 PUSH2 0x66B JUMPI POP PUSH1 0x6 PUSH0 SWAP1 SLOAD SWAP1 PUSH2 0x100 EXP SWAP1 DIV PUSH20 0xFFFFFFFFFFFFFFFFFFFFFFFFFFFFFFFFFFFFFFFF AND PUSH20 0xFFFFFFFFFFFFFFFFFFFFFFFFFFFFFFFFFFFFFFFF AND DUP5 PUSH20 0xFFFFFFFFFFFFFFFFFFFFFFFFFFFFFFFFFFFFFFFF AND EQ JUMPDEST PUSH2 0x6AA JUMPI PUSH1 0x40 MLOAD PUSH32 0x8C379A000000000000000000000000000000000000000000000000000000000 DUP2 MSTORE PUSH1 0x4 ADD PUSH2 0x6A1 SWAP1 PUSH2 0x23EC JUMP JUMPDEST PUSH1 0x40 MLOAD DUP1 SWAP2 SUB SWAP1 REVERT JUMPDEST PUSH1 0x5 PUSH0 SWAP1 SLOAD SWAP1 PUSH2 0x100 EXP SWAP1 DIV PUSH20 0xFFFFFFFFFFFFFFFFFFFFFFFFFFFFFFFFFFFFFFFF AND PUSH20 0xFFFFFFFFFFFFFFFFFFFFFFFFFFFFFFFFFFFFFFFF AND DUP5 PUSH20 0xFFFFFFFFFFFFFFFFFFFFFFFFFFFFFFFFFFFFFFFF AND SUB PUSH2 0x874 JUMPI PUSH1 0x6 PUSH0 SWAP1 SLOAD SWAP1 PUSH2 0x100 EXP SWAP1 DIV PUSH20 0xFFFFFFFFFFFFFFFFFFFFFFFFFFFFFFFFFFFFFFFF AND SWAP1 POP PUSH2 0x731 DUP6 PUSH1 0x7 SLOAD PUSH1 0x8 SLOAD PUSH2 0x3AF JUMP JUMPDEST SWAP2 POP DUP3 DUP3 GT PUSH2 0x775 JUMPI PUSH1 0x40 MLOAD PUSH32 0x8C379A000000000000000000000000000000000000000000000000000000000 DUP2 MSTORE PUSH1 0x4 ADD PUSH2 0x76C SWAP1 PUSH2 0x2384 JUMP JUMPDEST PUSH1 0x40 MLOAD DUP1 SWAP2 SUB SWAP1 REVERT JUMPDEST DUP4 PUSH20 0xFFFFFFFFFFFFFFFFFFFFFFFFFFFFFFFFFFFFFFFF AND PUSH4 0x23B872DD CALLER ADDRESS DUP9 PUSH1 0x40 MLOAD DUP5 PUSH4 0xFFFFFFFF AND PUSH1 0xE0 SHL DUP2 MSTORE PUSH1 0x4 ADD PUSH2 0x7B2 SWAP4 SWAP3 SWAP2 SWAP1 PUSH2 0x2419 JUMP JUMPDEST PUSH1 0x20 PUSH1 0x40 MLOAD DUP1 DUP4 SUB DUP2 PUSH0 DUP8 GAS CALL ISZERO DUP1 ISZERO PUSH2 0x7CE JUMPI RETURNDATASIZE PUSH0 DUP1 RETURNDATACOPY RETURNDATASIZE PUSH0 REVERT JUMPDEST POP POP POP POP PUSH1 0x40 MLOAD RETURNDATASIZE PUSH1 0x1F NOT PUSH1 0x1F DUP3 ADD AND DUP3 ADD DUP1 PUSH1 0x40 MSTORE POP DUP2 ADD SWAP1 PUSH2 0x7F2 SWAP2 SWAP1 PUSH2 0x2478 JUMP JUMPDEST POP DUP1 PUSH20 0xFFFFFFFFFFFFFFFFFFFFFFFFFFFFFFFFFFFFFFFF AND PUSH4 0xA9059CBB CALLER DUP5 PUSH1 0x40 MLOAD DUP4 PUSH4 0xFFFFFFFF AND PUSH1 0xE0 SHL DUP2 MSTORE PUSH1 0x4 ADD PUSH2 0x82E SWAP3 SWAP2 SWAP1 PUSH2 0x24A3 JUMP JUMPDEST PUSH1 0x20 PUSH1 0x40 MLOAD DUP1 DUP4 SUB DUP2 PUSH0 DUP8 GAS CALL ISZERO DUP1 ISZERO PUSH2 0x84A JUMPI RETURNDATASIZE PUSH0 DUP1 RETURNDATACOPY RETURNDATASIZE PUSH0 REVERT JUMPDEST POP POP POP POP PUSH1 0x40 MLOAD RETURNDATASIZE PUSH1 0x1F NOT PUSH1 0x1F DUP3 ADD AND DUP3 ADD DUP1 PUSH1 0x40 MSTORE POP DUP2 ADD SWAP1 PUSH2 0x86E SWAP2 SWAP1 PUSH2 0x2478 JUMP JUMPDEST POP PUSH2 0x9E6 JUMP JUMPDEST PUSH1 0x5 PUSH0 SWAP1 SLOAD SWAP1 PUSH2 0x100 EXP SWAP1 DIV PUSH20 0xFFFFFFFFFFFFFFFFFFFFFFFFFFFFFFFFFFFFFFFF AND SWAP1 POP PUSH2 0x8A7 DUP6 PUSH1 0x8 SLOAD PUSH1 0x7 SLOAD PUSH2 0x3AF JUMP JUMPDEST SWAP2 POP DUP3 DUP3 GT PUSH2 0x8EB JUMPI PUSH1 0x40 MLOAD PUSH32 0x8C379A000000000000000000000000000000000000000000000000000000000 DUP2 MSTORE PUSH1 0x4 ADD PUSH2 0x8E2 SWAP1 PUSH2 0x2384 JUMP JUMPDEST PUSH1 0x40 MLOAD DUP1 SWAP2 SUB SWAP1 REVERT JUMPDEST DUP4 PUSH20 0xFFFFFFFFFFFFFFFFFFFFFFFFFFFFFFFFFFFFFFFF AND PUSH4 0x23B872DD CALLER ADDRESS DUP9 PUSH1 0x40 MLOAD DUP5 PUSH4 0xFFFFFFFF AND PUSH1 0xE0 SHL DUP2 MSTORE PUSH1 0x4 ADD PUSH2 0x928 SWAP4 SWAP3 SWAP2 SWAP1 PUSH2 0x2419 JUMP JUMPDEST PUSH1 0x20 PUSH1 0x40 MLOAD DUP1 DUP4 SUB DUP2 PUSH0 DUP8 GAS CALL ISZERO DUP1 ISZERO PUSH2 0x944 JUMPI RETURNDATASIZE PUSH0 DUP1 RETURNDATACOPY RETURNDATASIZE PUSH0 REVERT JUMPDEST POP POP POP POP PUSH1 0x40 MLOAD RETURNDATASIZE PUSH1 0x1F NOT PUSH1 0x1F DUP3 ADD AND DUP3 ADD DUP1 PUSH1 0x40 MSTORE POP DUP2 ADD SWAP1 PUSH2 0x968 SWAP2 SWAP1 PUSH2 0x2478 JUMP JUMPDEST POP DUP1 PUSH20 0xFFFFFFFFFFFFFFFFFFFFFFFFFFFFFFFFFFFFFFFF AND PUSH4 0xA9059CBB CALLER DUP5 PUSH1 0x40 MLOAD DUP4 PUSH4 0xFFFFFFFF AND PUSH1 0xE0 SHL DUP2 MSTORE PUSH1 0x4 ADD PUSH2 0x9A4 SWAP3 SWAP2 SWAP1 PUSH2 0x24A3 JUMP JUMPDEST PUSH1 0x20 PUSH1 0x40 MLOAD DUP1 DUP4 SUB DUP2 PUSH0 DUP8 GAS CALL ISZERO DUP1 ISZERO PUSH2 0x9C0 JUMPI RETURNDATASIZE PUSH0 DUP1 RETURNDATACOPY RETURNDATASIZE PUSH0 REVERT JUMPDEST POP POP POP POP PUSH1 0x40 MLOAD RETURNDATASIZE PUSH1 0x1F NOT PUSH1 0x1F DUP3 ADD AND DUP3 ADD DUP1 PUSH1 0x40 MSTORE POP DUP2 ADD SWAP1 PUSH2 0x9E4 SWAP2 SWAP1 PUSH2 0x2478 JUMP JUMPDEST POP JUMPDEST PUSH1 0x5 PUSH0 SWAP1 SLOAD SWAP1 PUSH2 0x100 EXP SWAP1 DIV PUSH20 0xFFFFFFFFFFFFFFFFFFFFFFFFFFFFFFFFFFFFFFFF AND PUSH20 0xFFFFFFFFFFFFFFFFFFFFFFFFFFFFFFFFFFFFFFFF AND PUSH4 0x70A08231 ADDRESS PUSH1 0x40 MLOAD DUP3 PUSH4 0xFFFFFFFF AND PUSH1 0xE0 SHL DUP2 MSTORE PUSH1 0x4 ADD PUSH2 0xA40 SWAP2 SWAP1 PUSH2 0x24CA JUMP JUMPDEST PUSH1 0x20 PUSH1 0x40 MLOAD DUP1 DUP4 SUB DUP2 DUP7 GAS STATICCALL ISZERO DUP1 ISZERO PUSH2 0xA5B JUMPI RETURNDATASIZE PUSH0 DUP1 RETURNDATACOPY RETURNDATASIZE PUSH0 REVERT JUMPDEST POP POP POP POP PUSH1 0x40 MLOAD RETURNDATASIZE PUSH1 0x1F NOT PUSH1 0x1F DUP3 ADD AND DUP3 ADD DUP1 PUSH1 0x40 MSTORE POP DUP2 ADD SWAP1 PUSH2 0xA7F SWAP2 SWAP1 PUSH2 0x24F7 JUMP JUMPDEST PUSH1 0x7 DUP2 SWAP1 SSTORE POP PUSH1 0x6 PUSH0 SWAP1 SLOAD SWAP1 PUSH2 0x100 EXP SWAP1 DIV PUSH20 0xFFFFFFFFFFFFFFFFFFFFFFFFFFFFFFFFFFFFFFFF AND PUSH20 0xFFFFFFFFFFFFFFFFFFFFFFFFFFFFFFFFFFFFFFFF AND PUSH4 0x70A08231 ADDRESS PUSH1 0x40 MLOAD DUP3 PUSH4 0xFFFFFFFF AND PUSH1 0xE0 SHL DUP2 MSTORE PUSH1 0x4 ADD PUSH2 0xADF SWAP2 SWAP1 PUSH2 0x24CA JUMP JUMPDEST PUSH1 0x20 PUSH1 0x40 MLOAD DUP1 DUP4 SUB DUP2 DUP7 GAS STATICCALL ISZERO DUP1 ISZERO PUSH2 0xAFA JUMPI RETURNDATASIZE PUSH0 DUP1 RETURNDATACOPY RETURNDATASIZE PUSH0 REVERT JUMPDEST POP POP POP POP PUSH1 0x40 MLOAD RETURNDATASIZE PUSH1 0x1F NOT PUSH1 0x1F DUP3 ADD AND DUP3 ADD DUP1 PUSH1 0x40 MSTORE POP DUP2 ADD SWAP1 PUSH2 0xB1E SWAP2 SWAP1 PUSH2 0x24F7 JUMP JUMPDEST PUSH1 0x8 DUP2 SWAP1 SSTORE POP CALLER PUSH20 0xFFFFFFFFFFFFFFFFFFFFFFFFFFFFFFFFFFFFFFFF AND PUSH32 0x24043855BFBFEA0CCEA141E5A73D7116BF0BFE083EA900A791F4B407FF03E525 DUP7 DUP7 DUP6 DUP6 PUSH1 0x40 MLOAD PUSH2 0xB70 SWAP5 SWAP4 SWAP3 SWAP2 SWAP1 PUSH2 0x2522 JUMP JUMPDEST PUSH1 0x40 MLOAD DUP1 SWAP2 SUB SWAP1 LOG2 SWAP4 POP SWAP4 SWAP2 POP POP JUMP JUMPDEST PUSH1 0x7 SLOAD DUP2 JUMP JUMPDEST PUSH1 0x8 SLOAD DUP2 JUMP JUMPDEST PUSH0 DUP1 PUSH0 DUP4 PUSH20 0xFFFFFFFFFFFFFFFFFFFFFFFFFFFFFFFFFFFFFFFF AND PUSH20 0xFFFFFFFFFFFFFFFFFFFFFFFFFFFFFFFFFFFFFFFF AND DUP2 MSTORE PUSH1 0x20 ADD SWAP1 DUP2 MSTORE PUSH1 0x20 ADD PUSH0 KECCAK256 SLOAD SWAP1 POP SWAP2 SWAP1 POP JUMP JUMPDEST PUSH1 0x60 PUSH1 0x4 DUP1 SLOAD PUSH2 0xBE0 SWAP1 PUSH2 0x230A JUMP JUMPDEST DUP1 PUSH1 0x1F ADD PUSH1 0x20 DUP1 SWAP2 DIV MUL PUSH1 0x20 ADD PUSH1 0x40 MLOAD SWAP1 DUP2 ADD PUSH1 0x40 MSTORE DUP1 SWAP3 SWAP2 SWAP1 DUP2 DUP2 MSTORE PUSH1 0x20 ADD DUP3 DUP1 SLOAD PUSH2 0xC0C SWAP1 PUSH2 0x230A JUMP JUMPDEST DUP1 ISZERO PUSH2 0xC57 JUMPI DUP1 PUSH1 0x1F LT PUSH2 0xC2E JUMPI PUSH2 0x100 DUP1 DUP4 SLOAD DIV MUL DUP4 MSTORE SWAP2 PUSH1 0x20 ADD SWAP2 PUSH2 0xC57 JUMP JUMPDEST DUP3 ADD SWAP2 SWAP1 PUSH0 MSTORE PUSH1 0x20 PUSH0 KECCAK256 SWAP1 JUMPDEST DUP2 SLOAD DUP2 MSTORE SWAP1 PUSH1 0x1 ADD SWAP1 PUSH1 0x20 ADD DUP1 DUP4 GT PUSH2 0xC3A JUMPI DUP3 SWAP1 SUB PUSH1 0x1F AND DUP3 ADD SWAP2 JUMPDEST POP POP POP POP POP SWAP1 POP SWAP1 JUMP JUMPDEST PUSH0 DUP1 PUSH0 PUSH1 0x5 PUSH0 SWAP1 SLOAD SWAP1 PUSH2 0x100 EXP SWAP1 DIV PUSH20 0xFFFFFFFFFFFFFFFFFFFFFFFFFFFFFFFFFFFFFFFF AND PUSH20 0xFFFFFFFFFFFFFFFFFFFFFFFFFFFFFFFFFFFFFFFF AND PUSH4 0x70A08231 ADDRESS PUSH1 0x40 MLOAD DUP3 PUSH4 0xFFFFFFFF AND PUSH1 0xE0 SHL DUP2 MSTORE PUSH1 0x4 ADD PUSH2 0xCBE SWAP2 SWAP1 PUSH2 0x24CA JUMP JUMPDEST PUSH1 0x20 PUSH1 0x40 MLOAD DUP1 DUP4 SUB DUP2 DUP7 GAS STATICCALL ISZERO DUP1 ISZERO PUSH2 0xCD9 JUMPI RETURNDATASIZE PUSH0 DUP1 RETURNDATACOPY RETURNDATASIZE PUSH0 REVERT JUMPDEST POP POP POP POP PUSH1 0x40 MLOAD RETURNDATASIZE PUSH1 0x1F NOT PUSH1 0x1F DUP3 ADD AND DUP3 ADD DUP1 PUSH1 0x40 MSTORE POP DUP2 ADD SWAP1 PUSH2 0xCFD SWAP2 SWAP1 PUSH2 0x24F7 JUMP JUMPDEST SWAP1 POP PUSH0 PUSH1 0x6 PUSH0 SWAP1 SLOAD SWAP1 PUSH2 0x100 EXP SWAP1 DIV PUSH20 0xFFFFFFFFFFFFFFFFFFFFFFFFFFFFFFFFFFFFFFFF AND PUSH20 0xFFFFFFFFFFFFFFFFFFFFFFFFFFFFFFFFFFFFFFFF AND PUSH4 0x70A08231 ADDRESS PUSH1 0x40 MLOAD DUP3 PUSH4 0xFFFFFFFF AND PUSH1 0xE0 SHL DUP2 MSTORE PUSH1 0x4 ADD PUSH2 0xD5A SWAP2 SWAP1 PUSH2 0x24CA JUMP JUMPDEST PUSH1 0x20 PUSH1 0x40 MLOAD DUP1 DUP4 SUB DUP2 DUP7 GAS STATICCALL ISZERO DUP1 ISZERO PUSH2 0xD75 JUMPI RETURNDATASIZE PUSH0 DUP1 RETURNDATACOPY RETURNDATASIZE PUSH0 REVERT JUMPDEST POP POP POP POP PUSH1 0x40 MLOAD RETURNDATASIZE PUSH1 0x1F NOT PUSH1 0x1F DUP3 ADD AND DUP3 ADD DUP1 PUSH1 0x40 MSTORE POP DUP2 ADD SWAP1 PUSH2 0xD99 SWAP2 SWAP1 PUSH2 0x24F7 JUMP JUMPDEST SWAP1 POP PUSH0 PUSH2 0xDA4 PUSH2 0x541 JUMP JUMPDEST SWAP1 POP DUP1 DUP4 DUP8 PUSH2 0xDB3 SWAP2 SWAP1 PUSH2 0x223F JUMP JUMPDEST PUSH2 0xDBD SWAP2 SWAP1 PUSH2 0x22AD JUMP JUMPDEST SWAP5 POP DUP1 DUP3 DUP8 PUSH2 0xDCC SWAP2 SWAP1 PUSH2 0x223F JUMP JUMPDEST PUSH2 0xDD6 SWAP2 SWAP1 PUSH2 0x22AD JUMP JUMPDEST SWAP4 POP PUSH0 DUP6 GT DUP1 ISZERO PUSH2 0xDE6 JUMPI POP PUSH0 DUP5 GT JUMPDEST PUSH2 0xE25 JUMPI PUSH1 0x40 MLOAD PUSH32 0x8C379A000000000000000000000000000000000000000000000000000000000 DUP2 MSTORE PUSH1 0x4 ADD PUSH2 0xE1C SWAP1 PUSH2 0x25AF JUMP JUMPDEST PUSH1 0x40 MLOAD DUP1 SWAP2 SUB SWAP1 REVERT JUMPDEST PUSH2 0xE2F CALLER DUP8 PUSH2 0x16ED JUMP JUMPDEST PUSH1 0x5 PUSH0 SWAP1 SLOAD SWAP1 PUSH2 0x100 EXP SWAP1 DIV PUSH20 0xFFFFFFFFFFFFFFFFFFFFFFFFFFFFFFFFFFFFFFFF AND PUSH20 0xFFFFFFFFFFFFFFFFFFFFFFFFFFFFFFFFFFFFFFFF AND PUSH4 0xA9059CBB CALLER DUP8 PUSH1 0x40 MLOAD DUP4 PUSH4 0xFFFFFFFF AND PUSH1 0xE0 SHL DUP2 MSTORE PUSH1 0x4 ADD PUSH2 0xE8B SWAP3 SWAP2 SWAP1 PUSH2 0x24A3 JUMP JUMPDEST PUSH1 0x20 PUSH1 0x40 MLOAD DUP1 DUP4 SUB DUP2 PUSH0 DUP8 GAS CALL ISZERO DUP1 ISZERO PUSH2 0xEA7 JUMPI RETURNDATASIZE PUSH0 DUP1 RETURNDATACOPY RETURNDATASIZE PUSH0 REVERT JUMPDEST POP POP POP POP PUSH1 0x40 MLOAD RETURNDATASIZE PUSH1 0x1F NOT PUSH1 0x1F DUP3 ADD AND DUP3 ADD DUP1 PUSH1 0x40 MSTORE POP DUP2 ADD SWAP1 PUSH2 0xECB SWAP2 SWAP1 PUSH2 0x2478 JUMP JUMPDEST POP PUSH1 0x6 PUSH0 SWAP1 SLOAD SWAP1 PUSH2 0x100 EXP SWAP1 DIV PUSH20 0xFFFFFFFFFFFFFFFFFFFFFFFFFFFFFFFFFFFFFFFF AND PUSH20 0xFFFFFFFFFFFFFFFFFFFFFFFFFFFFFFFFFFFFFFFF AND PUSH4 0xA9059CBB CALLER DUP7 PUSH1 0x40 MLOAD DUP4 PUSH4 0xFFFFFFFF AND PUSH1 0xE0 SHL DUP2 MSTORE PUSH1 0x4 ADD PUSH2 0xF28 SWAP3 SWAP2 SWAP1 PUSH2 0x24A3 JUMP JUMPDEST PUSH1 0x20 PUSH1 0x40 MLOAD DUP1 DUP4 SUB DUP2 PUSH0 DUP8 GAS CALL ISZERO DUP1 ISZERO PUSH2 0xF44 JUMPI RETURNDATASIZE PUSH0 DUP1 RETURNDATACOPY RETURNDATASIZE PUSH0 REVERT JUMPDEST POP POP POP POP PUSH1 0x40 MLOAD RETURNDATASIZE PUSH1 0x1F NOT PUSH1 0x1F DUP3 ADD AND DUP3 ADD DUP1 PUSH1 0x40 MSTORE POP DUP2 ADD SWAP1 PUSH2 0xF68 SWAP2 SWAP1 PUSH2 0x2478 JUMP JUMPDEST POP PUSH1 0x5 PUSH0 SWAP1 SLOAD SWAP1 PUSH2 0x100 EXP SWAP1 DIV PUSH20 0xFFFFFFFFFFFFFFFFFFFFFFFFFFFFFFFFFFFFFFFF AND PUSH20 0xFFFFFFFFFFFFFFFFFFFFFFFFFFFFFFFFFFFFFFFF AND PUSH4 0x70A08231 ADDRESS PUSH1 0x40 MLOAD DUP3 PUSH4 0xFFFFFFFF AND PUSH1 0xE0 SHL DUP2 MSTORE PUSH1 0x4 ADD PUSH2 0xFC3 SWAP2 SWAP1 PUSH2 0x24CA JUMP JUMPDEST PUSH1 0x20 PUSH1 0x40 MLOAD DUP1 DUP4 SUB DUP2 DUP7 GAS STATICCALL ISZERO DUP1 ISZERO PUSH2 0xFDE JUMPI RETURNDATASIZE PUSH0 DUP1 RETURNDATACOPY RETURNDATASIZE PUSH0 REVERT JUMPDEST POP POP POP POP PUSH1 0x40 MLOAD RETURNDATASIZE PUSH1 0x1F NOT PUSH1 0x1F DUP3 ADD AND DUP3 ADD DUP1 PUSH1 0x40 MSTORE POP DUP2 ADD SWAP1 PUSH2 0x1002 SWAP2 SWAP1 PUSH2 0x24F7 JUMP JUMPDEST PUSH1 0x7 DUP2 SWAP1 SSTORE POP PUSH1 0x6 PUSH0 SWAP1 SLOAD SWAP1 PUSH2 0x100 EXP SWAP1 DIV PUSH20 0xFFFFFFFFFFFFFFFFFFFFFFFFFFFFFFFFFFFFFFFF AND PUSH20 0xFFFFFFFFFFFFFFFFFFFFFFFFFFFFFFFFFFFFFFFF AND PUSH4 0x70A08231 ADDRESS PUSH1 0x40 MLOAD DUP3 PUSH4 0xFFFFFFFF AND PUSH1 0xE0 SHL DUP2 MSTORE PUSH1 0x4 ADD PUSH2 0x1062 SWAP2 SWAP1 PUSH2 0x24CA JUMP JUMPDEST PUSH1 0x20 PUSH1 0x40 MLOAD DUP1 DUP4 SUB DUP2 DUP7 GAS STATICCALL ISZERO DUP1 ISZERO PUSH2 0x107D JUMPI RETURNDATASIZE PUSH0 DUP1 RETURNDATACOPY RETURNDATASIZE PUSH0 REVERT JUMPDEST POP POP POP POP PUSH1 0x40 MLOAD RETURNDATASIZE PUSH1 0x1F NOT PUSH1 0x1F DUP3 ADD AND DUP3 ADD DUP1 PUSH1 0x40 MSTORE POP DUP2 ADD SWAP1 PUSH2 0x10A1 SWAP2 SWAP1 PUSH2 0x24F7 JUMP JUMPDEST PUSH1 0x8 DUP2 SWAP1 SSTORE POP CALLER PUSH20 0xFFFFFFFFFFFFFFFFFFFFFFFFFFFFFFFFFFFFFFFF AND PUSH32 0x49995E5DD6158CF69AD3E9777C46755A1A826A446C6416992167462DAD033B2A DUP7 DUP7 PUSH1 0x40 MLOAD PUSH2 0x10EF SWAP3 SWAP2 SWAP1 PUSH2 0x206C JUMP JUMPDEST PUSH1 0x40 MLOAD DUP1 SWAP2 SUB SWAP1 LOG2 POP POP POP SWAP2 POP SWAP2 JUMP JUMPDEST PUSH0 PUSH1 0x5 PUSH0 SWAP1 SLOAD SWAP1 PUSH2 0x100 EXP SWAP1 DIV PUSH20 0xFFFFFFFFFFFFFFFFFFFFFFFFFFFFFFFFFFFFFFFF AND PUSH20 0xFFFFFFFFFFFFFFFFFFFFFFFFFFFFFFFFFFFFFFFF AND PUSH4 0x23B872DD CALLER ADDRESS DUP7 PUSH1 0x40 MLOAD DUP5 PUSH4 0xFFFFFFFF AND PUSH1 0xE0 SHL DUP2 MSTORE PUSH1 0x4 ADD PUSH2 0x115E SWAP4 SWAP3 SWAP2 SWAP1 PUSH2 0x2419 JUMP JUMPDEST PUSH1 0x20 PUSH1 0x40 MLOAD DUP1 DUP4 SUB DUP2 PUSH0 DUP8 GAS CALL ISZERO DUP1 ISZERO PUSH2 0x117A JUMPI RETURNDATASIZE PUSH0 DUP1 RETURNDATACOPY RETURNDATASIZE PUSH0 REVERT JUMPDEST POP POP POP POP PUSH1 0x40 MLOAD RETURNDATASIZE PUSH1 0x1F NOT PUSH1 0x1F DUP3 ADD AND DUP3 ADD DUP1 PUSH1 0x40 MSTORE POP DUP2 ADD SWAP1 PUSH2 0x119E SWAP2 SWAP1 PUSH2 0x2478 JUMP JUMPDEST POP PUSH1 0x6 PUSH0 SWAP1 SLOAD SWAP1 PUSH2 0x100 EXP SWAP1 DIV PUSH20 0xFFFFFFFFFFFFFFFFFFFFFFFFFFFFFFFFFFFFFFFF AND PUSH20 0xFFFFFFFFFFFFFFFFFFFFFFFFFFFFFFFFFFFFFFFF AND PUSH4 0x23B872DD CALLER ADDRESS DUP6 PUSH1 0x40 MLOAD DUP5 PUSH4 0xFFFFFFFF AND PUSH1 0xE0 SHL DUP2 MSTORE PUSH1 0x4 ADD PUSH2 0x11FD SWAP4 SWAP3 SWAP2 SWAP1 PUSH2 0x2419 JUMP JUMPDEST PUSH1 0x20 PUSH1 0x40 MLOAD DUP1 DUP4 SUB DUP2 PUSH0 DUP8 GAS CALL ISZERO DUP1 ISZERO PUSH2 0x1219 JUMPI RETURNDATASIZE PUSH0 DUP1 RETURNDATACOPY RETURNDATASIZE PUSH0 REVERT JUMPDEST POP POP POP POP PUSH1 0x40 MLOAD RETURNDATASIZE PUSH1 0x1F NOT PUSH1 0x1F DUP3 ADD AND DUP3 ADD DUP1 PUSH1 0x40 MSTORE POP DUP2 ADD SWAP1 PUSH2 0x123D SWAP2 SWAP1 PUSH2 0x2478 JUMP JUMPDEST POP PUSH0 PUSH2 0x1247 PUSH2 0x541 JUMP JUMPDEST SWAP1 POP PUSH0 DUP2 SUB PUSH2 0x126B JUMPI PUSH2 0x1264 DUP4 DUP6 PUSH2 0x125F SWAP2 SWAP1 PUSH2 0x223F JUMP JUMPDEST PUSH2 0x176C JUMP JUMPDEST SWAP2 POP PUSH2 0x12A8 JUMP JUMPDEST PUSH2 0x12A5 PUSH1 0x7 SLOAD DUP3 DUP7 PUSH2 0x127D SWAP2 SWAP1 PUSH2 0x223F JUMP JUMPDEST PUSH2 0x1287 SWAP2 SWAP1 PUSH2 0x22AD JUMP JUMPDEST PUSH1 0x8 SLOAD DUP4 DUP7 PUSH2 0x1296 SWAP2 SWAP1 PUSH2 0x223F JUMP JUMPDEST PUSH2 0x12A0 SWAP2 SWAP1 PUSH2 0x22AD JUMP JUMPDEST PUSH2 0x17E3 JUMP JUMPDEST SWAP2 POP JUMPDEST PUSH0 DUP3 GT PUSH2 0x12EA JUMPI PUSH1 0x40 MLOAD PUSH32 0x8C379A000000000000000000000000000000000000000000000000000000000 DUP2 MSTORE PUSH1 0x4 ADD PUSH2 0x12E1 SWAP1 PUSH2 0x25AF JUMP JUMPDEST PUSH1 0x40 MLOAD DUP1 SWAP2 SUB SWAP1 REVERT JUMPDEST PUSH1 0x5 PUSH0 SWAP1 SLOAD SWAP1 PUSH2 0x100 EXP SWAP1 DIV PUSH20 0xFFFFFFFFFFFFFFFFFFFFFFFFFFFFFFFFFFFFFFFF AND PUSH20 0xFFFFFFFFFFFFFFFFFFFFFFFFFFFFFFFFFFFFFFFF AND PUSH4 0x70A08231 ADDRESS PUSH1 0x40 MLOAD DUP3 PUSH4 0xFFFFFFFF AND PUSH1 0xE0 SHL DUP2 MSTORE PUSH1 0x4 ADD PUSH2 0x1344 SWAP2 SWAP1 PUSH2 0x24CA JUMP JUMPDEST PUSH1 0x20 PUSH1 0x40 MLOAD DUP1 DUP4 SUB DUP2 DUP7 GAS STATICCALL ISZERO DUP1 ISZERO PUSH2 0x135F JUMPI RETURNDATASIZE PUSH0 DUP1 RETURNDATACOPY RETURNDATASIZE PUSH0 REVERT JUMPDEST POP POP POP POP PUSH1 0x40 MLOAD RETURNDATASIZE PUSH1 0x1F NOT PUSH1 0x1F DUP3 ADD AND DUP3 ADD DUP1 PUSH1 0x40 MSTORE POP DUP2 ADD SWAP1 PUSH2 0x1383 SWAP2 SWAP1 PUSH2 0x24F7 JUMP JUMPDEST PUSH1 0x7 DUP2 SWAP1 SSTORE POP PUSH1 0x6 PUSH0 SWAP1 SLOAD SWAP1 PUSH2 0x100 EXP SWAP1 DIV PUSH20 0xFFFFFFFFFFFFFFFFFFFFFFFFFFFFFFFFFFFFFFFF AND PUSH20 0xFFFFFFFFFFFFFFFFFFFFFFFFFFFFFFFFFFFFFFFF AND PUSH4 0x70A08231 ADDRESS PUSH1 0x40 MLOAD DUP3 PUSH4 0xFFFFFFFF AND PUSH1 0xE0 SHL DUP2 MSTORE PUSH1 0x4 ADD PUSH2 0x13E3 SWAP2 SWAP1 PUSH2 0x24CA JUMP JUMPDEST PUSH1 0x20 PUSH1 0x40 MLOAD DUP1 DUP4 SUB DUP2 DUP7 GAS STATICCALL ISZERO DUP1 ISZERO PUSH2 0x13FE JUMPI RETURNDATASIZE PUSH0 DUP1 RETURNDATACOPY RETURNDATASIZE PUSH0 REVERT JUMPDEST POP POP POP POP PUSH1 0x40 MLOAD RETURNDATASIZE PUSH1 0x1F NOT PUSH1 0x1F DUP3 ADD AND DUP3 ADD DUP1 PUSH1 0x40 MSTORE POP DUP2 ADD SWAP1 PUSH2 0x1422 SWAP2 SWAP1 PUSH2 0x24F7 JUMP JUMPDEST PUSH1 0x8 DUP2 SWAP1 SSTORE POP PUSH2 0x1432 CALLER DUP4 PUSH2 0x17FB JUMP JUMPDEST CALLER PUSH20 0xFFFFFFFFFFFFFFFFFFFFFFFFFFFFFFFFFFFFFFFF AND PUSH32 0x4C209B5FC8AD50758F13E2E1088BA56A560DFF690A1C6FEF26394F4C03821C4F DUP6 DUP6 PUSH1 0x40 MLOAD PUSH2 0x147A SWAP3 SWAP2 SWAP1 PUSH2 0x206C JUMP JUMPDEST PUSH1 0x40 MLOAD DUP1 SWAP2 SUB SWAP1 LOG2 POP SWAP3 SWAP2 POP POP JUMP JUMPDEST PUSH0 DUP1 PUSH2 0x1493 PUSH2 0x1552 JUMP JUMPDEST SWAP1 POP PUSH2 0x14A0 DUP2 DUP6 DUP6 PUSH2 0x15FD JUMP JUMPDEST PUSH1 0x1 SWAP2 POP POP SWAP3 SWAP2 POP POP JUMP JUMPDEST PUSH1 0x6 PUSH0 SWAP1 SLOAD SWAP1 PUSH2 0x100 EXP SWAP1 DIV PUSH20 0xFFFFFFFFFFFFFFFFFFFFFFFFFFFFFFFFFFFFFFFF AND DUP2 JUMP JUMPDEST PUSH0 PUSH1 0x1 PUSH0 DUP5 PUSH20 0xFFFFFFFFFFFFFFFFFFFFFFFFFFFFFFFFFFFFFFFF AND PUSH20 0xFFFFFFFFFFFFFFFFFFFFFFFFFFFFFFFFFFFFFFFF AND DUP2 MSTORE PUSH1 0x20 ADD SWAP1 DUP2 MSTORE PUSH1 0x20 ADD PUSH0 KECCAK256 PUSH0 DUP4 PUSH20 0xFFFFFFFFFFFFFFFFFFFFFFFFFFFFFFFFFFFFFFFF AND PUSH20 0xFFFFFFFFFFFFFFFFFFFFFFFFFFFFFFFFFFFFFFFF AND DUP2 MSTORE PUSH1 0x20 ADD SWAP1 DUP2 MSTORE PUSH1 0x20 ADD PUSH0 KECCAK256 SLOAD SWAP1 POP SWAP3 SWAP2 POP POP JUMP JUMPDEST PUSH0 CALLER SWAP1 POP SWAP1 JUMP JUMPDEST PUSH2 0x1566 DUP4 DUP4 DUP4 PUSH1 0x1 PUSH2 0x187A JUMP JUMPDEST POP POP POP JUMP JUMPDEST PUSH0 PUSH2 0x1576 DUP5 DUP5 PUSH2 0x14D0 JUMP JUMPDEST SWAP1 POP PUSH32 0xFFFFFFFFFFFFFFFFFFFFFFFFFFFFFFFFFFFFFFFFFFFFFFFFFFFFFFFFFFFFFFFF DUP2 EQ PUSH2 0x15F7 JUMPI DUP2 DUP2 LT ISZERO PUSH2 0x15E8 JUMPI DUP3 DUP2 DUP4 PUSH1 0x40 MLOAD PUSH32 0xFB8F41B200000000000000000000000000000000000000000000000000000000 DUP2 MSTORE PUSH1 0x4 ADD PUSH2 0x15DF SWAP4 SWAP3 SWAP2 SWAP1 PUSH2 0x25CD JUMP JUMPDEST PUSH1 0x40 MLOAD DUP1 SWAP2 SUB SWAP1 REVERT JUMPDEST PUSH2 0x15F6 DUP5 DUP5 DUP5 DUP5 SUB PUSH0 PUSH2 0x187A JUMP JUMPDEST JUMPDEST POP POP POP POP JUMP JUMPDEST PUSH0 PUSH20 0xFFFFFFFFFFFFFFFFFFFFFFFFFFFFFFFFFFFFFFFF AND DUP4 PUSH20 0xFFFFFFFFFFFFFFFFFFFFFFFFFFFFFFFFFFFFFFFF AND SUB PUSH2 0x166D JUMPI PUSH0 PUSH1 0x40 MLOAD PUSH32 0x96C6FD1E00000000000000000000000000000000000000000000000000000000 DUP2 MSTORE PUSH1 0x4 ADD PUSH2 0x1664 SWAP2 SWAP1 PUSH2 0x24CA JUMP JUMPDEST PUSH1 0x40 MLOAD DUP1 SWAP2 SUB SWAP1 REVERT JUMPDEST PUSH0 PUSH20 0xFFFFFFFFFFFFFFFFFFFFFFFFFFFFFFFFFFFFFFFF AND DUP3 PUSH20 0xFFFFFFFFFFFFFFFFFFFFFFFFFFFFFFFFFFFFFFFF AND SUB PUSH2 0x16DD JUMPI PUSH0 PUSH1 0x40 MLOAD PUSH32 0xEC442F0500000000000000000000000000000000000000000000000000000000 DUP2 MSTORE PUSH1 0x4 ADD PUSH2 0x16D4 SWAP2 SWAP1 PUSH2 0x24CA JUMP JUMPDEST PUSH1 0x40 MLOAD DUP1 SWAP2 SUB SWAP1 REVERT JUMPDEST PUSH2 0x16E8 DUP4 DUP4 DUP4 PUSH2 0x1A49 JUMP JUMPDEST POP POP POP JUMP JUMPDEST PUSH0 PUSH20 0xFFFFFFFFFFFFFFFFFFFFFFFFFFFFFFFFFFFFFFFF AND DUP3 PUSH20 0xFFFFFFFFFFFFFFFFFFFFFFFFFFFFFFFFFFFFFFFF AND SUB PUSH2 0x175D JUMPI PUSH0 PUSH1 0x40 MLOAD PUSH32 0x96C6FD1E00000000000000000000000000000000000000000000000000000000 DUP2 MSTORE PUSH1 0x4 ADD PUSH2 0x1754 SWAP2 SWAP1 PUSH2 0x24CA JUMP JUMPDEST PUSH1 0x40 MLOAD DUP1 SWAP2 SUB SWAP1 REVERT JUMPDEST PUSH2 0x1768 DUP3 PUSH0 DUP4 PUSH2 0x1A49 JUMP JUMPDEST POP POP JUMP JUMPDEST PUSH0 PUSH1 0x3 DUP3 GT ISZERO PUSH2 0x17D1 JUMPI DUP2 SWAP1 POP PUSH0 PUSH1 0x1 PUSH1 0x2 DUP5 PUSH2 0x1789 SWAP2 SWAP1 PUSH2 0x22AD JUMP JUMPDEST PUSH2 0x1793 SWAP2 SWAP1 PUSH2 0x220C JUMP JUMPDEST SWAP1 POP JUMPDEST DUP2 DUP2 LT ISZERO PUSH2 0x17CB JUMPI DUP1 SWAP2 POP PUSH1 0x2 DUP2 DUP3 DUP6 PUSH2 0x17B0 SWAP2 SWAP1 PUSH2 0x22AD JUMP JUMPDEST PUSH2 0x17BA SWAP2 SWAP1 PUSH2 0x220C JUMP JUMPDEST PUSH2 0x17C4 SWAP2 SWAP1 PUSH2 0x22AD JUMP JUMPDEST SWAP1 POP PUSH2 0x1796 JUMP JUMPDEST POP PUSH2 0x17DE JUMP JUMPDEST PUSH0 DUP3 EQ PUSH2 0x17DD JUMPI PUSH1 0x1 SWAP1 POP JUMPDEST JUMPDEST SWAP2 SWAP1 POP JUMP JUMPDEST PUSH0 DUP2 DUP4 GT PUSH2 0x17F1 JUMPI DUP3 PUSH2 0x17F3 JUMP JUMPDEST DUP2 JUMPDEST SWAP1 POP SWAP3 SWAP2 POP POP JUMP JUMPDEST PUSH0 PUSH20 0xFFFFFFFFFFFFFFFFFFFFFFFFFFFFFFFFFFFFFFFF AND DUP3 PUSH20 0xFFFFFFFFFFFFFFFFFFFFFFFFFFFFFFFFFFFFFFFF AND SUB PUSH2 0x186B JUMPI PUSH0 PUSH1 0x40 MLOAD PUSH32 0xEC442F0500000000000000000000000000000000000000000000000000000000 DUP2 MSTORE PUSH1 0x4 ADD PUSH2 0x1862 SWAP2 SWAP1 PUSH2 0x24CA JUMP JUMPDEST PUSH1 0x40 MLOAD DUP1 SWAP2 SUB SWAP1 REVERT JUMPDEST PUSH2 0x1876 PUSH0 DUP4 DUP4 PUSH2 0x1A49 JUMP JUMPDEST POP POP JUMP JUMPDEST PUSH0 PUSH20 0xFFFFFFFFFFFFFFFFFFFFFFFFFFFFFFFFFFFFFFFF AND DUP5 PUSH20 0xFFFFFFFFFFFFFFFFFFFFFFFFFFFFFFFFFFFFFFFF AND SUB PUSH2 0x18EA JUMPI PUSH0 PUSH1 0x40 MLOAD PUSH32 0xE602DF0500000000000000000000000000000000000000000000000000000000 DUP2 MSTORE PUSH1 0x4 ADD PUSH2 0x18E1 SWAP2 SWAP1 PUSH2 0x24CA JUMP JUMPDEST PUSH1 0x40 MLOAD DUP1 SWAP2 SUB SWAP1 REVERT JUMPDEST PUSH0 PUSH20 0xFFFFFFFFFFFFFFFFFFFFFFFFFFFFFFFFFFFFFFFF AND DUP4 PUSH20 0xFFFFFFFFFFFFFFFFFFFFFFFFFFFFFFFFFFFFFFFF AND SUB PUSH2 0x195A JUMPI PUSH0 PUSH1 0x40 MLOAD PUSH32 0x94280D6200000000000000000000000000000000000000000000000000000000 DUP2 MSTORE PUSH1 0x4 ADD PUSH2 0x1951 SWAP2 SWAP1 PUSH2 0x24CA JUMP JUMPDEST PUSH1 0x40 MLOAD DUP1 SWAP2 SUB SWAP1 REVERT JUMPDEST DUP2 PUSH1 0x1 PUSH0 DUP7 PUSH20 0xFFFFFFFFFFFFFFFFFFFFFFFFFFFFFFFFFFFFFFFF AND PUSH20 0xFFFFFFFFFFFFFFFFFFFFFFFFFFFFFFFFFFFFFFFF AND DUP2 MSTORE PUSH1 0x20 ADD SWAP1 DUP2 MSTORE PUSH1 0x20 ADD PUSH0 KECCAK256 PUSH0 DUP6 PUSH20 0xFFFFFFFFFFFFFFFFFFFFFFFFFFFFFFFFFFFFFFFF AND PUSH20 0xFFFFFFFFFFFFFFFFFFFFFFFFFFFFFFFFFFFFFFFF AND DUP2 MSTORE PUSH1 0x20 ADD SWAP1 DUP2 MSTORE PUSH1 0x20 ADD PUSH0 KECCAK256 DUP2 SWAP1 SSTORE POP DUP1 ISZERO PUSH2 0x1A43 JUMPI DUP3 PUSH20 0xFFFFFFFFFFFFFFFFFFFFFFFFFFFFFFFFFFFFFFFF AND DUP5 PUSH20 0xFFFFFFFFFFFFFFFFFFFFFFFFFFFFFFFFFFFFFFFF AND PUSH32 0x8C5BE1E5EBEC7D5BD14F71427D1E84F3DD0314C0F7B2291E5B200AC8C7C3B925 DUP5 PUSH1 0x40 MLOAD PUSH2 0x1A3A SWAP2 SWAP1 PUSH2 0x1CF8 JUMP JUMPDEST PUSH1 0x40 MLOAD DUP1 SWAP2 SUB SWAP1 LOG3 JUMPDEST POP POP POP POP JUMP JUMPDEST PUSH0 PUSH20 0xFFFFFFFFFFFFFFFFFFFFFFFFFFFFFFFFFFFFFFFF AND DUP4 PUSH20 0xFFFFFFFFFFFFFFFFFFFFFFFFFFFFFFFFFFFFFFFF AND SUB PUSH2 0x1A99 JUMPI DUP1 PUSH1 0x2 PUSH0 DUP3 DUP3 SLOAD PUSH2 0x1A8D SWAP2 SWAP1 PUSH2 0x220C JUMP JUMPDEST SWAP3 POP POP DUP2 SWAP1 SSTORE POP PUSH2 0x1B67 JUMP JUMPDEST PUSH0 DUP1 PUSH0 DUP6 PUSH20 0xFFFFFFFFFFFFFFFFFFFFFFFFFFFFFFFFFFFFFFFF AND PUSH20 0xFFFFFFFFFFFFFFFFFFFFFFFFFFFFFFFFFFFFFFFF AND DUP2 MSTORE PUSH1 0x20 ADD SWAP1 DUP2 MSTORE PUSH1 0x20 ADD PUSH0 KECCAK256 SLOAD SWAP1 POP DUP2 DUP2 LT ISZERO PUSH2 0x1B22 JUMPI DUP4 DUP2 DUP4 PUSH1 0x40 MLOAD PUSH32 0xE450D38C00000000000000000000000000000000000000000000000000000000 DUP2 MSTORE PUSH1 0x4 ADD PUSH2 0x1B19 SWAP4 SWAP3 SWAP2 SWAP1 PUSH2 0x25CD JUMP JUMPDEST PUSH1 0x40 MLOAD DUP1 SWAP2 SUB SWAP1 REVERT JUMPDEST DUP2 DUP2 SUB PUSH0 DUP1 DUP7 PUSH20 0xFFFFFFFFFFFFFFFFFFFFFFFFFFFFFFFFFFFFFFFF AND PUSH20 0xFFFFFFFFFFFFFFFFFFFFFFFFFFFFFFFFFFFFFFFF AND DUP2 MSTORE PUSH1 0x20 ADD SWAP1 DUP2 MSTORE PUSH1 0x20 ADD PUSH0 KECCAK256 DUP2 SWAP1 SSTORE POP POP JUMPDEST PUSH0 PUSH20 0xFFFFFFFFFFFFFFFFFFFFFFFFFFFFFFFFFFFFFFFF AND DUP3 PUSH20 0xFFFFFFFFFFFFFFFFFFFFFFFFFFFFFFFFFFFFFFFF AND SUB PUSH2 0x1BAE JUMPI DUP1 PUSH1 0x2 PUSH0 DUP3 DUP3 SLOAD SUB SWAP3 POP POP DUP2 SWAP1 SSTORE POP PUSH2 0x1BF8 JUMP JUMPDEST DUP1 PUSH0 DUP1 DUP5 PUSH20 0xFFFFFFFFFFFFFFFFFFFFFFFFFFFFFFFFFFFFFFFF AND PUSH20 0xFFFFFFFFFFFFFFFFFFFFFFFFFFFFFFFFFFFFFFFF AND DUP2 MSTORE PUSH1 0x20 ADD SWAP1 DUP2 MSTORE PUSH1 0x20 ADD PUSH0 KECCAK256 PUSH0 DUP3 DUP3 SLOAD ADD SWAP3 POP POP DUP2 SWAP1 SSTORE POP JUMPDEST DUP2 PUSH20 0xFFFFFFFFFFFFFFFFFFFFFFFFFFFFFFFFFFFFFFFF AND DUP4 PUSH20 0xFFFFFFFFFFFFFFFFFFFFFFFFFFFFFFFFFFFFFFFF AND PUSH32 0xDDF252AD1BE2C89B69C2B068FC378DAA952BA7F163C4A11628F55A4DF523B3EF DUP4 PUSH1 0x40 MLOAD PUSH2 0x1C55 SWAP2 SWAP1 PUSH2 0x1CF8 JUMP JUMPDEST PUSH1 0x40 MLOAD DUP1 SWAP2 SUB SWAP1 LOG3 POP POP POP JUMP JUMPDEST PUSH0 DUP1 REVERT JUMPDEST PUSH0 DUP2 SWAP1 POP SWAP2 SWAP1 POP JUMP JUMPDEST PUSH2 0x1C78 DUP2 PUSH2 0x1C66 JUMP JUMPDEST DUP2 EQ PUSH2 0x1C82 JUMPI PUSH0 DUP1 REVERT JUMPDEST POP JUMP JUMPDEST PUSH0 DUP2 CALLDATALOAD SWAP1 POP PUSH2 0x1C93 DUP2 PUSH2 0x1C6F JUMP JUMPDEST SWAP3 SWAP2 POP POP JUMP JUMPDEST PUSH0 DUP1 PUSH0 PUSH1 0x60 DUP5 DUP7 SUB SLT ISZERO PUSH2 0x1CB0 JUMPI PUSH2 0x1CAF PUSH2 0x1C62 JUMP JUMPDEST JUMPDEST PUSH0 PUSH2 0x1CBD DUP7 DUP3 DUP8 ADD PUSH2 0x1C85 JUMP JUMPDEST SWAP4 POP POP PUSH1 0x20 PUSH2 0x1CCE DUP7 DUP3 DUP8 ADD PUSH2 0x1C85 JUMP JUMPDEST SWAP3 POP POP PUSH1 0x40 PUSH2 0x1CDF DUP7 DUP3 DUP8 ADD PUSH2 0x1C85 JUMP JUMPDEST SWAP2 POP POP SWAP3 POP SWAP3 POP SWAP3 JUMP JUMPDEST PUSH2 0x1CF2 DUP2 PUSH2 0x1C66 JUMP JUMPDEST DUP3 MSTORE POP POP JUMP JUMPDEST PUSH0 PUSH1 0x20 DUP3 ADD SWAP1 POP PUSH2 0x1D0B PUSH0 DUP4 ADD DUP5 PUSH2 0x1CE9 JUMP JUMPDEST SWAP3 SWAP2 POP POP JUMP JUMPDEST PUSH0 DUP2 MLOAD SWAP1 POP SWAP2 SWAP1 POP JUMP JUMPDEST PUSH0 DUP3 DUP3 MSTORE PUSH1 0x20 DUP3 ADD SWAP1 POP SWAP3 SWAP2 POP POP JUMP JUMPDEST DUP3 DUP2 DUP4 MCOPY PUSH0 DUP4 DUP4 ADD MSTORE POP POP POP JUMP JUMPDEST PUSH0 PUSH1 0x1F NOT PUSH1 0x1F DUP4 ADD AND SWAP1 POP SWAP2 SWAP1 POP JUMP JUMPDEST PUSH0 PUSH2 0x1D53 DUP3 PUSH2 0x1D11 JUMP JUMPDEST PUSH2 0x1D5D DUP2 DUP6 PUSH2 0x1D1B JUMP JUMPDEST SWAP4 POP PUSH2 0x1D6D DUP2 DUP6 PUSH1 0x20 DUP7 ADD PUSH2 0x1D2B JUMP JUMPDEST PUSH2 0x1D76 DUP2 PUSH2 0x1D39 JUMP JUMPDEST DUP5 ADD SWAP2 POP POP SWAP3 SWAP2 POP POP JUMP JUMPDEST PUSH0 PUSH1 0x20 DUP3 ADD SWAP1 POP DUP2 DUP2 SUB PUSH0 DUP4 ADD MSTORE PUSH2 0x1D99 DUP2 DUP5 PUSH2 0x1D49 JUMP JUMPDEST SWAP1 POP SWAP3 SWAP2 POP POP JUMP JUMPDEST PUSH0 PUSH20 0xFFFFFFFFFFFFFFFFFFFFFFFFFFFFFFFFFFFFFFFF DUP3 AND SWAP1 POP SWAP2 SWAP1 POP JUMP JUMPDEST PUSH0 PUSH2 0x1DCA DUP3 PUSH2 0x1DA1 JUMP JUMPDEST SWAP1 POP SWAP2 SWAP1 POP JUMP JUMPDEST PUSH2 0x1DDA DUP2 PUSH2 0x1DC0 JUMP JUMPDEST DUP2 EQ PUSH2 0x1DE4 JUMPI PUSH0 DUP1 REVERT JUMPDEST POP JUMP JUMPDEST PUSH0 DUP2 CALLDATALOAD SWAP1 POP PUSH2 0x1DF5 DUP2 PUSH2 0x1DD1 JUMP JUMPDEST SWAP3 SWAP2 POP POP JUMP JUMPDEST PUSH0 DUP1 PUSH1 0x40 DUP4 DUP6 SUB SLT ISZERO PUSH2 0x1E11 JUMPI PUSH2 0x1E10 PUSH2 0x1C62 JUMP JUMPDEST JUMPDEST PUSH0 PUSH2 0x1E1E DUP6 DUP3 DUP7 ADD PUSH2 0x1DE7 JUMP JUMPDEST SWAP3 POP POP PUSH1 0x20 PUSH2 0x1E2F DUP6 DUP3 DUP7 ADD PUSH2 0x1C85 JUMP JUMPDEST SWAP2 POP POP SWAP3 POP SWAP3 SWAP1 POP JUMP JUMPDEST PUSH0 DUP2 ISZERO ISZERO SWAP1 POP SWAP2 SWAP1 POP JUMP JUMPDEST PUSH2 0x1E4D DUP2 PUSH2 0x1E39 JUMP JUMPDEST DUP3 MSTORE POP POP JUMP JUMPDEST PUSH0 PUSH1 0x20 DUP3 ADD SWAP1 POP PUSH2 0x1E66 PUSH0 DUP4 ADD DUP5 PUSH2 0x1E44 JUMP JUMPDEST SWAP3 SWAP2 POP POP JUMP JUMPDEST PUSH0 DUP2 SWAP1 POP SWAP2 SWAP1 POP JUMP JUMPDEST PUSH0 PUSH2 0x1E8F PUSH2 0x1E8A PUSH2 0x1E85 DUP5 PUSH2 0x1DA1 JUMP JUMPDEST PUSH2 0x1E6C JUMP JUMPDEST PUSH2 0x1DA1 JUMP JUMPDEST SWAP1 POP SWAP2 SWAP1 POP JUMP JUMPDEST PUSH0 PUSH2 0x1EA0 DUP3 PUSH2 0x1E75 JUMP JUMPDEST SWAP1 POP SWAP2 SWAP1 POP JUMP JUMPDEST PUSH0 PUSH2 0x1EB1 DUP3 PUSH2 0x1E96 JUMP JUMPDEST SWAP1 POP SWAP2 SWAP1 POP JUMP JUMPDEST PUSH2 0x1EC1 DUP2 PUSH2 0x1EA7 JUMP JUMPDEST DUP3 MSTORE POP POP JUMP JUMPDEST PUSH0 PUSH1 0x20 DUP3 ADD SWAP1 POP PUSH2 0x1EDA PUSH0 DUP4 ADD DUP5 PUSH2 0x1EB8 JUMP JUMPDEST SWAP3 SWAP2 POP POP JUMP JUMPDEST PUSH0 DUP1 PUSH0 PUSH1 0x60 DUP5 DUP7 SUB SLT ISZERO PUSH2 0x1EF7 JUMPI PUSH2 0x1EF6 PUSH2 0x1C62 JUMP JUMPDEST JUMPDEST PUSH0 PUSH2 0x1F04 DUP7 DUP3 DUP8 ADD PUSH2 0x1DE7 JUMP JUMPDEST SWAP4 POP POP PUSH1 0x20 PUSH2 0x1F15 DUP7 DUP3 DUP8 ADD PUSH2 0x1DE7 JUMP JUMPDEST SWAP3 POP POP PUSH1 0x40 PUSH2 0x1F26 DUP7 DUP3 DUP8 ADD PUSH2 0x1C85 JUMP JUMPDEST SWAP2 POP POP SWAP3 POP SWAP3 POP SWAP3 JUMP JUMPDEST PUSH0 PUSH1 0xFF DUP3 AND SWAP1 POP SWAP2 SWAP1 POP JUMP JUMPDEST PUSH2 0x1F45 DUP2 PUSH2 0x1F30 JUMP JUMPDEST DUP3 MSTORE POP POP JUMP JUMPDEST PUSH0 PUSH1 0x20 DUP3 ADD SWAP1 POP PUSH2 0x1F5E PUSH0 DUP4 ADD DUP5 PUSH2 0x1F3C JUMP JUMPDEST SWAP3 SWAP2 POP POP JUMP JUMPDEST PUSH0 PUSH2 0x1F6E DUP3 PUSH2 0x1DC0 JUMP JUMPDEST SWAP1 POP SWAP2 SWAP1 POP JUMP JUMPDEST PUSH2 0x1F7E DUP2 PUSH2 0x1F64 JUMP JUMPDEST DUP2 EQ PUSH2 0x1F88 JUMPI PUSH0 DUP1 REVERT JUMPDEST POP JUMP JUMPDEST PUSH0 DUP2 CALLDATALOAD SWAP1 POP PUSH2 0x1F99 DUP2 PUSH2 0x1F75 JUMP JUMPDEST SWAP3 SWAP2 POP POP JUMP JUMPDEST PUSH0 DUP1 PUSH0 PUSH1 0x60 DUP5 DUP7 SUB SLT ISZERO PUSH2 0x1FB6 JUMPI PUSH2 0x1FB5 PUSH2 0x1C62 JUMP JUMPDEST JUMPDEST PUSH0 PUSH2 0x1FC3 DUP7 DUP3 DUP8 ADD PUSH2 0x1C85 JUMP JUMPDEST SWAP4 POP POP PUSH1 0x20 PUSH2 0x1FD4 DUP7 DUP3 DUP8 ADD PUSH2 0x1F8B JUMP JUMPDEST SWAP3 POP POP PUSH1 0x40 PUSH2 0x1FE5 DUP7 DUP3 DUP8 ADD PUSH2 0x1C85 JUMP JUMPDEST SWAP2 POP POP SWAP3 POP SWAP3 POP SWAP3 JUMP JUMPDEST PUSH0 PUSH1 0x40 DUP3 ADD SWAP1 POP PUSH2 0x2002 PUSH0 DUP4 ADD DUP6 PUSH2 0x1CE9 JUMP JUMPDEST PUSH2 0x200F PUSH1 0x20 DUP4 ADD DUP5 PUSH2 0x1EB8 JUMP JUMPDEST SWAP4 SWAP3 POP POP POP JUMP JUMPDEST PUSH0 PUSH1 0x20 DUP3 DUP5 SUB SLT ISZERO PUSH2 0x202B JUMPI PUSH2 0x202A PUSH2 0x1C62 JUMP JUMPDEST JUMPDEST PUSH0 PUSH2 0x2038 DUP5 DUP3 DUP6 ADD PUSH2 0x1DE7 JUMP JUMPDEST SWAP2 POP POP SWAP3 SWAP2 POP POP JUMP JUMPDEST PUSH0 PUSH1 0x20 DUP3 DUP5 SUB SLT ISZERO PUSH2 0x2056 JUMPI PUSH2 0x2055 PUSH2 0x1C62 JUMP JUMPDEST JUMPDEST PUSH0 PUSH2 0x2063 DUP5 DUP3 DUP6 ADD PUSH2 0x1C85 JUMP JUMPDEST SWAP2 POP POP SWAP3 SWAP2 POP POP JUMP JUMPDEST PUSH0 PUSH1 0x40 DUP3 ADD SWAP1 POP PUSH2 0x207F PUSH0 DUP4 ADD DUP6 PUSH2 0x1CE9 JUMP JUMPDEST PUSH2 0x208C PUSH1 0x20 DUP4 ADD DUP5 PUSH2 0x1CE9 JUMP JUMPDEST SWAP4 SWAP3 POP POP POP JUMP JUMPDEST PUSH0 DUP1 PUSH1 0x40 DUP4 DUP6 SUB SLT ISZERO PUSH2 0x20A9 JUMPI PUSH2 0x20A8 PUSH2 0x1C62 JUMP JUMPDEST JUMPDEST PUSH0 PUSH2 0x20B6 DUP6 DUP3 DUP7 ADD PUSH2 0x1C85 JUMP JUMPDEST SWAP3 POP POP PUSH1 0x20 PUSH2 0x20C7 DUP6 DUP3 DUP7 ADD PUSH2 0x1C85 JUMP JUMPDEST SWAP2 POP POP SWAP3 POP SWAP3 SWAP1 POP JUMP JUMPDEST PUSH0 DUP1 PUSH1 0x40 DUP4 DUP6 SUB SLT ISZERO PUSH2 0x20E7 JUMPI PUSH2 0x20E6 PUSH2 0x1C62 JUMP JUMPDEST JUMPDEST PUSH0 PUSH2 0x20F4 DUP6 DUP3 DUP7 ADD PUSH2 0x1DE7 JUMP JUMPDEST SWAP3 POP POP PUSH1 0x20 PUSH2 0x2105 DUP6 DUP3 DUP7 ADD PUSH2 0x1DE7 JUMP JUMPDEST SWAP2 POP POP SWAP3 POP SWAP3 SWAP1 POP JUMP JUMPDEST PUSH32 0x494E53554646494349454E545F414D4F554E5400000000000000000000000000 PUSH0 DUP3 ADD MSTORE POP JUMP JUMPDEST PUSH0 PUSH2 0x2143 PUSH1 0x13 DUP4 PUSH2 0x1D1B JUMP JUMPDEST SWAP2 POP PUSH2 0x214E DUP3 PUSH2 0x210F JUMP JUMPDEST PUSH1 0x20 DUP3 ADD SWAP1 POP SWAP2 SWAP1 POP JUMP JUMPDEST PUSH0 PUSH1 0x20 DUP3 ADD SWAP1 POP DUP2 DUP2 SUB PUSH0 DUP4 ADD MSTORE PUSH2 0x2170 DUP2 PUSH2 0x2137 JUMP JUMPDEST SWAP1 POP SWAP2 SWAP1 POP JUMP JUMPDEST PUSH32 0x494E53554646494349454E545F4C495155494449545900000000000000000000 PUSH0 DUP3 ADD MSTORE POP JUMP JUMPDEST PUSH0 PUSH2 0x21AB PUSH1 0x16 DUP4 PUSH2 0x1D1B JUMP JUMPDEST SWAP2 POP PUSH2 0x21B6 DUP3 PUSH2 0x2177 JUMP JUMPDEST PUSH1 0x20 DUP3 ADD SWAP1 POP SWAP2 SWAP1 POP JUMP JUMPDEST PUSH0 PUSH1 0x20 DUP3 ADD SWAP1 POP DUP2 DUP2 SUB PUSH0 DUP4 ADD MSTORE PUSH2 0x21D8 DUP2 PUSH2 0x219F JUMP JUMPDEST SWAP1 POP SWAP2 SWAP1 POP JUMP JUMPDEST PUSH32 0x4E487B7100000000000000000000000000000000000000000000000000000000 PUSH0 MSTORE PUSH1 0x11 PUSH1 0x4 MSTORE PUSH1 0x24 PUSH0 REVERT JUMPDEST PUSH0 PUSH2 0x2216 DUP3 PUSH2 0x1C66 JUMP JUMPDEST SWAP2 POP PUSH2 0x2221 DUP4 PUSH2 0x1C66 JUMP JUMPDEST SWAP3 POP DUP3 DUP3 ADD SWAP1 POP DUP1 DUP3 GT ISZERO PUSH2 0x2239 JUMPI PUSH2 0x2238 PUSH2 0x21DF JUMP JUMPDEST JUMPDEST SWAP3 SWAP2 POP POP JUMP JUMPDEST PUSH0 PUSH2 0x2249 DUP3 PUSH2 0x1C66 JUMP JUMPDEST SWAP2 POP PUSH2 0x2254 DUP4 PUSH2 0x1C66 JUMP JUMPDEST SWAP3 POP DUP3 DUP3 MUL PUSH2 0x2262 DUP2 PUSH2 0x1C66 JUMP JUMPDEST SWAP2 POP DUP3 DUP3 DIV DUP5 EQ DUP4 ISZERO OR PUSH2 0x2279 JUMPI PUSH2 0x2278 PUSH2 0x21DF JUMP JUMPDEST JUMPDEST POP SWAP3 SWAP2 POP POP JUMP JUMPDEST PUSH32 0x4E487B7100000000000000000000000000000000000000000000000000000000 PUSH0 MSTORE PUSH1 0x12 PUSH1 0x4 MSTORE PUSH1 0x24 PUSH0 REVERT JUMPDEST PUSH0 PUSH2 0x22B7 DUP3 PUSH2 0x1C66 JUMP JUMPDEST SWAP2 POP PUSH2 0x22C2 DUP4 PUSH2 0x1C66 JUMP JUMPDEST SWAP3 POP DUP3 PUSH2 0x22D2 JUMPI PUSH2 0x22D1 PUSH2 0x2280 JUMP JUMPDEST JUMPDEST DUP3 DUP3 DIV SWAP1 POP SWAP3 SWAP2 POP POP JUMP JUMPDEST PUSH32 0x4E487B7100000000000000000000000000000000000000000000000000000000 PUSH0 MSTORE PUSH1 0x22 PUSH1 0x4 MSTORE PUSH1 0x24 PUSH0 REVERT JUMPDEST PUSH0 PUSH1 0x2 DUP3 DIV SWAP1 POP PUSH1 0x1 DUP3 AND DUP1 PUSH2 0x2321 JUMPI PUSH1 0x7F DUP3 AND SWAP2 POP JUMPDEST PUSH1 0x20 DUP3 LT DUP2 SUB PUSH2 0x2334 JUMPI PUSH2 0x2333 PUSH2 0x22DD JUMP JUMPDEST JUMPDEST POP SWAP2 SWAP1 POP JUMP JUMPDEST PUSH32 0x494E53554646494349454E545F4F55545055545F414D4F554E54000000000000 PUSH0 DUP3 ADD MSTORE POP JUMP JUMPDEST PUSH0 PUSH2 0x236E PUSH1 0x1A DUP4 PUSH2 0x1D1B JUMP JUMPDEST SWAP2 POP PUSH2 0x2379 DUP3 PUSH2 0x233A JUMP JUMPDEST PUSH1 0x20 DUP3 ADD SWAP1 POP SWAP2 SWAP1 POP JUMP JUMPDEST PUSH0 PUSH1 0x20 DUP3 ADD SWAP1 POP DUP2 DUP2 SUB PUSH0 DUP4 ADD MSTORE PUSH2 0x239B DUP2 PUSH2 0x2362 JUMP JUMPDEST SWAP1 POP SWAP2 SWAP1 POP JUMP JUMPDEST PUSH32 0x494E56414C49445F544F4B454E00000000000000000000000000000000000000 PUSH0 DUP3 ADD MSTORE POP JUMP JUMPDEST PUSH0 PUSH2 0x23D6 PUSH1 0xD DUP4 PUSH2 0x1D1B JUMP JUMPDEST SWAP2 POP PUSH2 0x23E1 DUP3 PUSH2 0x23A2 JUMP JUMPDEST PUSH1 0x20 DUP3 ADD SWAP1 POP SWAP2 SWAP1 POP JUMP JUMPDEST PUSH0 PUSH1 0x20 DUP3 ADD SWAP1 POP DUP2 DUP2 SUB PUSH0 DUP4 ADD MSTORE PUSH2 0x2403 DUP2 PUSH2 0x23CA JUMP JUMPDEST SWAP1 POP SWAP2 SWAP1 POP JUMP JUMPDEST PUSH2 0x2413 DUP2 PUSH2 0x1DC0 JUMP JUMPDEST DUP3 MSTORE POP POP JUMP JUMPDEST PUSH0 PUSH1 0x60 DUP3 ADD SWAP1 POP PUSH2 0x242C PUSH0 DUP4 ADD DUP7 PUSH2 0x240A JUMP JUMPDEST PUSH2 0x2439 PUSH1 0x20 DUP4 ADD DUP6 PUSH2 0x240A JUMP JUMPDEST PUSH2 0x2446 PUSH1 0x40 DUP4 ADD DUP5 PUSH2 0x1CE9 JUMP JUMPDEST SWAP5 SWAP4 POP POP POP POP JUMP JUMPDEST PUSH2 0x2457 DUP2 PUSH2 0x1E39 JUMP JUMPDEST DUP2 EQ PUSH2 0x2461 JUMPI PUSH0 DUP1 REVERT JUMPDEST POP JUMP JUMPDEST PUSH0 DUP2 MLOAD SWAP1 POP PUSH2 0x2472 DUP2 PUSH2 0x244E JUMP JUMPDEST SWAP3 SWAP2 POP POP JUMP JUMPDEST PUSH0 PUSH1 0x20 DUP3 DUP5 SUB SLT ISZERO PUSH2 0x248D JUMPI PUSH2 0x248C PUSH2 0x1C62 JUMP JUMPDEST JUMPDEST PUSH0 PUSH2 0x249A DUP5 DUP3 DUP6 ADD PUSH2 0x2464 JUMP JUMPDEST SWAP2 POP POP SWAP3 SWAP2 POP POP JUMP JUMPDEST PUSH0 PUSH1 0x40 DUP3 ADD SWAP1 POP PUSH2 0x24B6 PUSH0 DUP4 ADD DUP6 PUSH2 0x240A JUMP JUMPDEST PUSH2 0x24C3 PUSH1 0x20 DUP4 ADD DUP5 PUSH2 0x1CE9 JUMP JUMPDEST SWAP4 SWAP3 POP POP POP JUMP JUMPDEST PUSH0 PUSH1 0x20 DUP3 ADD SWAP1 POP PUSH2 0x24DD PUSH0 DUP4 ADD DUP5 PUSH2 0x240A JUMP JUMPDEST SWAP3 SWAP2 POP POP JUMP JUMPDEST PUSH0 DUP2 MLOAD SWAP1 POP PUSH2 0x24F1 DUP2 PUSH2 0x1C6F JUMP JUMPDEST SWAP3 SWAP2 POP POP JUMP JUMPDEST PUSH0 PUSH1 0x20 DUP3 DUP5 SUB SLT ISZERO PUSH2 0x250C JUMPI PUSH2 0x250B PUSH2 0x1C62 JUMP JUMPDEST JUMPDEST PUSH0 PUSH2 0x2519 DUP5 DUP3 DUP6 ADD PUSH2 0x24E3 JUMP JUMPDEST SWAP2 POP POP SWAP3 SWAP2 POP POP JUMP JUMPDEST PUSH0 PUSH1 0x80 DUP3 ADD SWAP1 POP PUSH2 0x2535 PUSH0 DUP4 ADD DUP8 PUSH2 0x1CE9 JUMP JUMPDEST PUSH2 0x2542 PUSH1 0x20 DUP4 ADD DUP7 PUSH2 0x240A JUMP JUMPDEST PUSH2 0x254F PUSH1 0x40 DUP4 ADD DUP6 PUSH2 0x1CE9 JUMP JUMPDEST PUSH2 0x255C PUSH1 0x60 DUP4 ADD DUP5 PUSH2 0x240A JUMP JUMPDEST SWAP6 SWAP5 POP POP POP POP POP JUMP JUMPDEST PUSH32 0x494E53554646494349454E545F4C49515549444954595F4D494E544544000000 PUSH0 DUP3 ADD MSTORE POP JUMP JUMPDEST PUSH0 PUSH2 0x2599 PUSH1 0x1D DUP4 PUSH2 0x1D1B JUMP JUMPDEST SWAP2 POP PUSH2 0x25A4 DUP3 PUSH2 0x2565 JUMP JUMPDEST PUSH1 0x20 DUP3 ADD SWAP1 POP SWAP2 SWAP1 POP JUMP JUMPDEST PUSH0 PUSH1 0x20 DUP3 ADD SWAP1 POP DUP2 DUP2 SUB PUSH0 DUP4 ADD MSTORE PUSH2 0x25C6 DUP2 PUSH2 0x258D JUMP JUMPDEST SWAP1 POP SWAP2 SWAP1 POP JUMP JUMPDEST PUSH0 PUSH1 0x60 DUP3 ADD SWAP1 POP PUSH2 0x25E0 PUSH0 DUP4 ADD DUP7 PUSH2 0x240A JUMP JUMPDEST PUSH2 0x25ED PUSH1 0x20 DUP4 ADD DUP6 PUSH2 0x1CE9 JUMP JUMPDEST PUSH2 0x25FA PUSH1 0x40 DUP4 ADD DUP5 PUSH2 0x1CE9 JUMP JUMPDEST SWAP5 SWAP4 POP POP POP POP JUMP INVALID LOG2 PUSH5 0x6970667358 0x22 SLT KECCAK256 0xAB 0xBD 0xA7 0xE4 DUP15 REVERT EXTCODEHASH 0xCD 0xE7 OR PUSH10 0xAAC16418257904E48201 0xF PUSH25 0xE51AC5CFA70CCE265964736F6C634300081A00330000000000 "
				},
				"gasEstimates": {
					"creation": {
						"codeDepositCost": "1956800",
						"executionCost": "infinite",
						"totalCost": "infinite"
					},
					"external": {
						"addLiquidity(uint256,uint256)": "infinite",
						"allowance(address,address)": "infinite",
						"approve(address,uint256)": "infinite",
						"balanceOf(address)": "2896",
						"decimals()": "405",
						"getAmountOut(uint256,uint256,uint256)": "infinite",
						"name()": "infinite",
						"removeLiquidity(uint256)": "infinite",
						"reserve0()": "2448",
						"reserve1()": "2470",
						"swap(uint256,address,uint256)": "infinite",
						"symbol()": "infinite",
						"token0()": "infinite",
						"token1()": "infinite",
						"totalSupply()": "2455",
						"transfer(address,uint256)": "infinite",
						"transferFrom(address,address,uint256)": "infinite"
					},
					"internal": {
						"min(uint256,uint256)": "63",
						"sqrt(uint256)": "infinite"
					}
				},
				"methodIdentifiers": {
					"addLiquidity(uint256,uint256)": "9cd441da",
					"allowance(address,address)": "dd62ed3e",
					"approve(address,uint256)": "095ea7b3",
					"balanceOf(address)": "70a08231",
					"decimals()": "313ce567",
					"getAmountOut(uint256,uint256,uint256)": "054d50d4",
					"name()": "06fdde03",
					"removeLiquidity(uint256)": "9c8f9f23",
					"reserve0()": "443cb4bc",
					"reserve1()": "5a76f25e",
					"swap(uint256,address,uint256)": "43264349",
					"symbol()": "95d89b41",
					"token0()": "0dfe1681",
					"token1()": "d21220a7",
					"totalSupply()": "18160ddd",
					"transfer(address,uint256)": "a9059cbb",
					"transferFrom(address,address,uint256)": "23b872dd"
				}
			},
			"storageLayout": {
				"storage": [
					{
						"astId": 159,
						"contract": "contracts/t3_waa.sol:SimpleSwap",
						"label": "_balances",
						"offset": 0,
						"slot": "0",
						"type": "t_mapping(t_address,t_uint256)"
					},
					{
						"astId": 165,
						"contract": "contracts/t3_waa.sol:SimpleSwap",
						"label": "_allowances",
						"offset": 0,
						"slot": "1",
						"type": "t_mapping(t_address,t_mapping(t_address,t_uint256))"
					},
					{
						"astId": 167,
						"contract": "contracts/t3_waa.sol:SimpleSwap",
						"label": "_totalSupply",
						"offset": 0,
						"slot": "2",
						"type": "t_uint256"
					},
					{
						"astId": 169,
						"contract": "contracts/t3_waa.sol:SimpleSwap",
						"label": "_name",
						"offset": 0,
						"slot": "3",
						"type": "t_string_storage"
					},
					{
						"astId": 171,
						"contract": "contracts/t3_waa.sol:SimpleSwap",
						"label": "_symbol",
						"offset": 0,
						"slot": "4",
						"type": "t_string_storage"
					},
					{
						"astId": 793,
						"contract": "contracts/t3_waa.sol:SimpleSwap",
						"label": "token0",
						"offset": 0,
						"slot": "5",
						"type": "t_contract(IERC20)729"
					},
					{
						"astId": 796,
						"contract": "contracts/t3_waa.sol:SimpleSwap",
						"label": "token1",
						"offset": 0,
						"slot": "6",
						"type": "t_contract(IERC20)729"
					},
					{
						"astId": 798,
						"contract": "contracts/t3_waa.sol:SimpleSwap",
						"label": "reserve0",
						"offset": 0,
						"slot": "7",
						"type": "t_uint256"
					},
					{
						"astId": 800,
						"contract": "contracts/t3_waa.sol:SimpleSwap",
						"label": "reserve1",
						"offset": 0,
						"slot": "8",
						"type": "t_uint256"
					}
				],
				"types": {
					"t_address": {
						"encoding": "inplace",
						"label": "address",
						"numberOfBytes": "20"
					},
					"t_contract(IERC20)729": {
						"encoding": "inplace",
						"label": "contract IERC20",
						"numberOfBytes": "20"
					},
					"t_mapping(t_address,t_mapping(t_address,t_uint256))": {
						"encoding": "mapping",
						"key": "t_address",
						"label": "mapping(address => mapping(address => uint256))",
						"numberOfBytes": "32",
						"value": "t_mapping(t_address,t_uint256)"
					},
					"t_mapping(t_address,t_uint256)": {
						"encoding": "mapping",
						"key": "t_address",
						"label": "mapping(address => uint256)",
						"numberOfBytes": "32",
						"value": "t_uint256"
					},
					"t_string_storage": {
						"encoding": "bytes",
						"label": "string",
						"numberOfBytes": "32"
					},
					"t_uint256": {
						"encoding": "inplace",
						"label": "uint256",
						"numberOfBytes": "32"
					}
				}
			},
			"userdoc": {
				"kind": "user",
				"methods": {},
				"version": 1
			}
		}
	}
}