{
	"data": {
		"bytecode": {
			"linkReferences": {},
			"object": "6080604052348015600e575f80fd5b50610d0e8061001c5f395ff3fe608060405260043610610054575f3560e01c80630e401b441461005857806319aeb4901461008257806320c5429b146100aa5780632fb565e8146100d25780636d13eed0146100fa578063efef39a11461013b575b5f80fd5b348015610063575f80fd5b5061006c610157565b60405161007991906108a0565b60405180910390f35b34801561008d575f80fd5b506100a860048036038101906100a391906108ee565b610286565b005b3480156100b5575f80fd5b506100d060048036038101906100cb919061093e565b6103cc565b005b3480156100dd575f80fd5b506100f860048036038101906100f39190610969565b6104a5565b005b348015610105575f80fd5b50610120600480360381019061011b919061093e565b61057f565b604051610132969594939291906109c5565b60405180910390f35b6101556004803603810190610150919061093e565b6105e4565b005b6060805f805b5f8054905081101561027d5760015f828154811061017e5761017d610a24565b5b905f5260205f2090600602016005015403610270575f81815481106101a6576101a5610a24565b5b905f5260205f2090600602016040518060c00160405290815f8201548152602001600182015481526020016002820154815260200160038201548152602001600482015f9054906101000a900473ffffffffffffffffffffffffffffffffffffffff1673ffffffffffffffffffffffffffffffffffffffff1673ffffffffffffffffffffffffffffffffffffffff16815260200160058201548152505083838151811061025657610255610a24565b5b6020026020010181905250818061026c90610a7e565b9250505b808060010191505061015d565b50819250505090565b610290838361066f565b6102cf576040517f08c379a00000000000000000000000000000000000000000000000000000000081526004016102c690610b6b565b60405180910390fd5b5f808054905090505f6040518060c001604052806001846102f09190610b89565b81526020018681526020018581526020018481526020013373ffffffffffffffffffffffffffffffffffffffff1681526020016001815250908060018154018082558091505060019003905f5260205f2090600602015f909190919091505f820151815f01556020820151816001015560408201518160020155606082015181600301556080820151816004015f6101000a81548173ffffffffffffffffffffffffffffffffffffffff021916908373ffffffffffffffffffffffffffffffffffffffff16021790555060a08201518160050155505050505050565b3373ffffffffffffffffffffffffffffffffffffffff165f82815481106103f6576103f5610a24565b5b905f5260205f2090600602016004015f9054906101000a900473ffffffffffffffffffffffffffffffffffffffff1673ffffffffffffffffffffffffffffffffffffffff161461047b576040517f08c379a000000000000000000000000000000000000000000000000000000000815260040161047290610c2c565b60405180910390fd5b5f80828154811061048f5761048e610a24565b5b905f5260205f2090600602016005018190555050565b3373ffffffffffffffffffffffffffffffffffffffff165f83815481106104cf576104ce610a24565b5b905f5260205f2090600602016004015f9054906101000a900473ffffffffffffffffffffffffffffffffffffffff1673ffffffffffffffffffffffffffffffffffffffff1614610554576040517f08c379a000000000000000000000000000000000000000000000000000000000815260040161054b90610cba565b60405180910390fd5b805f838154811061056857610567610a24565b5b905f5260205f209060060201600301819055505050565b5f818154811061058d575f80fd5b905f5260205f2090600602015f91509050805f015490806001015490806002015490806003015490806004015f9054906101000a900473ffffffffffffffffffffffffffffffffffffffff16908060050154905086565b335f82815481106105f8576105f7610a24565b5b905f5260205f2090600602016004015f6101000a81548173ffffffffffffffffffffffffffffffffffffffff021916908373ffffffffffffffffffffffffffffffffffffffff16021790555060025f828154811061065957610658610a24565b5b905f5260205f2090600602016005018190555050565b5f80600190505f5b5f8054905081101561071d57845f828154811061069757610696610a24565b5b905f5260205f209060060201600101541480156106d55750835f82815481106106c3576106c2610a24565b5b905f5260205f20906006020160020154145b8015610703575060015f82815481106106f1576106f0610a24565b5b905f5260205f20906006020160050154145b15610710575f915061071d565b8080600101915050610677565b508091505092915050565b5f81519050919050565b5f82825260208201905092915050565b5f819050602082019050919050565b5f819050919050565b61076381610751565b82525050565b5f73ffffffffffffffffffffffffffffffffffffffff82169050919050565b5f61079282610769565b9050919050565b6107a281610788565b82525050565b60c082015f8201516107bc5f85018261075a565b5060208201516107cf602085018261075a565b5060408201516107e2604085018261075a565b5060608201516107f5606085018261075a565b5060808201516108086080850182610799565b5060a082015161081b60a085018261075a565b50505050565b5f61082c83836107a8565b60c08301905092915050565b5f602082019050919050565b5f61084e82610728565b6108588185610732565b935061086383610742565b805f5b8381101561089357815161087a8882610821565b975061088583610838565b925050600181019050610866565b5085935050505092915050565b5f6020820190508181035f8301526108b88184610844565b905092915050565b5f80fd5b6108cd81610751565b81146108d7575f80fd5b50565b5f813590506108e8816108c4565b92915050565b5f805f60608486031215610905576109046108c0565b5b5f610912868287016108da565b9350506020610923868287016108da565b9250506040610934868287016108da565b9150509250925092565b5f60208284031215610953576109526108c0565b5b5f610960848285016108da565b91505092915050565b5f806040838503121561097f5761097e6108c0565b5b5f61098c858286016108da565b925050602061099d858286016108da565b9150509250929050565b6109b081610751565b82525050565b6109bf81610788565b82525050565b5f60c0820190506109d85f8301896109a7565b6109e560208301886109a7565b6109f260408301876109a7565b6109ff60608301866109a7565b610a0c60808301856109b6565b610a1960a08301846109a7565b979650505050505050565b7f4e487b71000000000000000000000000000000000000000000000000000000005f52603260045260245ffd5b7f4e487b71000000000000000000000000000000000000000000000000000000005f52601160045260245ffd5b5f610a8882610751565b91507fffffffffffffffffffffffffffffffffffffffffffffffffffffffffffffffff8203610aba57610ab9610a51565b5b600182019050919050565b5f82825260208201905092915050565b7f6f6e6c79206f6e652076616c6964204e544620746f6b656e20776974682073615f8201527f6d65207365726965732063616e206265206c6973742e20706c6561736520726560208201527f667265736820616e6420636865636b20746865206f72646572732e0000000000604082015250565b5f610b55605b83610ac5565b9150610b6082610ad5565b606082019050919050565b5f6020820190508181035f830152610b8281610b49565b9050919050565b5f610b9382610751565b9150610b9e83610751565b9250828201905080821115610bb657610bb5610a51565b5b92915050565b7f6f6e6c7920746865206f726465722773206f776e65722063616e207265766f6b5f8201527f6500000000000000000000000000000000000000000000000000000000000000602082015250565b5f610c16602183610ac5565b9150610c2182610bbc565b604082019050919050565b5f6020820190508181035f830152610c4381610c0a565b9050919050565b7f6f6e6c7920746865206f726465722773206f776e65722063616e2075706461745f8201527f6500000000000000000000000000000000000000000000000000000000000000602082015250565b5f610ca4602183610ac5565b9150610caf82610c4a565b604082019050919050565b5f6020820190508181035f830152610cd181610c98565b905091905056fea2646970667358221220458f4e2270d3a9c04a94faf85e5366a94f78a84688babafd8e63f708987ad08864736f6c634300081a0033",
			"opcodes": "PUSH1 0x80 PUSH1 0x40 MSTORE CALLVALUE DUP1 ISZERO PUSH1 0xE JUMPI PUSH0 DUP1 REVERT JUMPDEST POP PUSH2 0xD0E DUP1 PUSH2 0x1C PUSH0 CODECOPY PUSH0 RETURN INVALID PUSH1 0x80 PUSH1 0x40 MSTORE PUSH1 0x4 CALLDATASIZE LT PUSH2 0x54 JUMPI PUSH0 CALLDATALOAD PUSH1 0xE0 SHR DUP1 PUSH4 0xE401B44 EQ PUSH2 0x58 JUMPI DUP1 PUSH4 0x19AEB490 EQ PUSH2 0x82 JUMPI DUP1 PUSH4 0x20C5429B EQ PUSH2 0xAA JUMPI DUP1 PUSH4 0x2FB565E8 EQ PUSH2 0xD2 JUMPI DUP1 PUSH4 0x6D13EED0 EQ PUSH2 0xFA JUMPI DUP1 PUSH4 0xEFEF39A1 EQ PUSH2 0x13B JUMPI JUMPDEST PUSH0 DUP1 REVERT JUMPDEST CALLVALUE DUP1 ISZERO PUSH2 0x63 JUMPI PUSH0 DUP1 REVERT JUMPDEST POP PUSH2 0x6C PUSH2 0x157 JUMP JUMPDEST PUSH1 0x40 MLOAD PUSH2 0x79 SWAP2 SWAP1 PUSH2 0x8A0 JUMP JUMPDEST PUSH1 0x40 MLOAD DUP1 SWAP2 SUB SWAP1 RETURN JUMPDEST CALLVALUE DUP1 ISZERO PUSH2 0x8D JUMPI PUSH0 DUP1 REVERT JUMPDEST POP PUSH2 0xA8 PUSH1 0x4 DUP1 CALLDATASIZE SUB DUP2 ADD SWAP1 PUSH2 0xA3 SWAP2 SWAP1 PUSH2 0x8EE JUMP JUMPDEST PUSH2 0x286 JUMP JUMPDEST STOP JUMPDEST CALLVALUE DUP1 ISZERO PUSH2 0xB5 JUMPI PUSH0 DUP1 REVERT JUMPDEST POP PUSH2 0xD0 PUSH1 0x4 DUP1 CALLDATASIZE SUB DUP2 ADD SWAP1 PUSH2 0xCB SWAP2 SWAP1 PUSH2 0x93E JUMP JUMPDEST PUSH2 0x3CC JUMP JUMPDEST STOP JUMPDEST CALLVALUE DUP1 ISZERO PUSH2 0xDD JUMPI PUSH0 DUP1 REVERT JUMPDEST POP PUSH2 0xF8 PUSH1 0x4 DUP1 CALLDATASIZE SUB DUP2 ADD SWAP1 PUSH2 0xF3 SWAP2 SWAP1 PUSH2 0x969 JUMP JUMPDEST PUSH2 0x4A5 JUMP JUMPDEST STOP JUMPDEST CALLVALUE DUP1 ISZERO PUSH2 0x105 JUMPI PUSH0 DUP1 REVERT JUMPDEST POP PUSH2 0x120 PUSH1 0x4 DUP1 CALLDATASIZE SUB DUP2 ADD SWAP1 PUSH2 0x11B SWAP2 SWAP1 PUSH2 0x93E JUMP JUMPDEST PUSH2 0x57F JUMP JUMPDEST PUSH1 0x40 MLOAD PUSH2 0x132 SWAP7 SWAP6 SWAP5 SWAP4 SWAP3 SWAP2 SWAP1 PUSH2 0x9C5 JUMP JUMPDEST PUSH1 0x40 MLOAD DUP1 SWAP2 SUB SWAP1 RETURN JUMPDEST PUSH2 0x155 PUSH1 0x4 DUP1 CALLDATASIZE SUB DUP2 ADD SWAP1 PUSH2 0x150 SWAP2 SWAP1 PUSH2 0x93E JUMP JUMPDEST PUSH2 0x5E4 JUMP JUMPDEST STOP JUMPDEST PUSH1 0x60 DUP1 PUSH0 DUP1 JUMPDEST PUSH0 DUP1 SLOAD SWAP1 POP DUP2 LT ISZERO PUSH2 0x27D JUMPI PUSH1 0x1 PUSH0 DUP3 DUP2 SLOAD DUP2 LT PUSH2 0x17E JUMPI PUSH2 0x17D PUSH2 0xA24 JUMP JUMPDEST JUMPDEST SWAP1 PUSH0 MSTORE PUSH1 0x20 PUSH0 KECCAK256 SWAP1 PUSH1 0x6 MUL ADD PUSH1 0x5 ADD SLOAD SUB PUSH2 0x270 JUMPI PUSH0 DUP2 DUP2 SLOAD DUP2 LT PUSH2 0x1A6 JUMPI PUSH2 0x1A5 PUSH2 0xA24 JUMP JUMPDEST JUMPDEST SWAP1 PUSH0 MSTORE PUSH1 0x20 PUSH0 KECCAK256 SWAP1 PUSH1 0x6 MUL ADD PUSH1 0x40 MLOAD DUP1 PUSH1 0xC0 ADD PUSH1 0x40 MSTORE SWAP1 DUP2 PUSH0 DUP3 ADD SLOAD DUP2 MSTORE PUSH1 0x20 ADD PUSH1 0x1 DUP3 ADD SLOAD DUP2 MSTORE PUSH1 0x20 ADD PUSH1 0x2 DUP3 ADD SLOAD DUP2 MSTORE PUSH1 0x20 ADD PUSH1 0x3 DUP3 ADD SLOAD DUP2 MSTORE PUSH1 0x20 ADD PUSH1 0x4 DUP3 ADD PUSH0 SWAP1 SLOAD SWAP1 PUSH2 0x100 EXP SWAP1 DIV PUSH20 0xFFFFFFFFFFFFFFFFFFFFFFFFFFFFFFFFFFFFFFFF AND PUSH20 0xFFFFFFFFFFFFFFFFFFFFFFFFFFFFFFFFFFFFFFFF AND PUSH20 0xFFFFFFFFFFFFFFFFFFFFFFFFFFFFFFFFFFFFFFFF AND DUP2 MSTORE PUSH1 0x20 ADD PUSH1 0x5 DUP3 ADD SLOAD DUP2 MSTORE POP POP DUP4 DUP4 DUP2 MLOAD DUP2 LT PUSH2 0x256 JUMPI PUSH2 0x255 PUSH2 0xA24 JUMP JUMPDEST JUMPDEST PUSH1 0x20 MUL PUSH1 0x20 ADD ADD DUP2 SWAP1 MSTORE POP DUP2 DUP1 PUSH2 0x26C SWAP1 PUSH2 0xA7E JUMP JUMPDEST SWAP3 POP POP JUMPDEST DUP1 DUP1 PUSH1 0x1 ADD SWAP2 POP POP PUSH2 0x15D JUMP JUMPDEST POP DUP2 SWAP3 POP POP POP SWAP1 JUMP JUMPDEST PUSH2 0x290 DUP4 DUP4 PUSH2 0x66F JUMP JUMPDEST PUSH2 0x2CF JUMPI PUSH1 0x40 MLOAD PUSH32 0x8C379A000000000000000000000000000000000000000000000000000000000 DUP2 MSTORE PUSH1 0x4 ADD PUSH2 0x2C6 SWAP1 PUSH2 0xB6B JUMP JUMPDEST PUSH1 0x40 MLOAD DUP1 SWAP2 SUB SWAP1 REVERT JUMPDEST PUSH0 DUP1 DUP1 SLOAD SWAP1 POP SWAP1 POP PUSH0 PUSH1 0x40 MLOAD DUP1 PUSH1 0xC0 ADD PUSH1 0x40 MSTORE DUP1 PUSH1 0x1 DUP5 PUSH2 0x2F0 SWAP2 SWAP1 PUSH2 0xB89 JUMP JUMPDEST DUP2 MSTORE PUSH1 0x20 ADD DUP7 DUP2 MSTORE PUSH1 0x20 ADD DUP6 DUP2 MSTORE PUSH1 0x20 ADD DUP5 DUP2 MSTORE PUSH1 0x20 ADD CALLER PUSH20 0xFFFFFFFFFFFFFFFFFFFFFFFFFFFFFFFFFFFFFFFF AND DUP2 MSTORE PUSH1 0x20 ADD PUSH1 0x1 DUP2 MSTORE POP SWAP1 DUP1 PUSH1 0x1 DUP2 SLOAD ADD DUP1 DUP3 SSTORE DUP1 SWAP2 POP POP PUSH1 0x1 SWAP1 SUB SWAP1 PUSH0 MSTORE PUSH1 0x20 PUSH0 KECCAK256 SWAP1 PUSH1 0x6 MUL ADD PUSH0 SWAP1 SWAP2 SWAP1 SWAP2 SWAP1 SWAP2 POP PUSH0 DUP3 ADD MLOAD DUP2 PUSH0 ADD SSTORE PUSH1 0x20 DUP3 ADD MLOAD DUP2 PUSH1 0x1 ADD SSTORE PUSH1 0x40 DUP3 ADD MLOAD DUP2 PUSH1 0x2 ADD SSTORE PUSH1 0x60 DUP3 ADD MLOAD DUP2 PUSH1 0x3 ADD SSTORE PUSH1 0x80 DUP3 ADD MLOAD DUP2 PUSH1 0x4 ADD PUSH0 PUSH2 0x100 EXP DUP2 SLOAD DUP2 PUSH20 0xFFFFFFFFFFFFFFFFFFFFFFFFFFFFFFFFFFFFFFFF MUL NOT AND SWAP1 DUP4 PUSH20 0xFFFFFFFFFFFFFFFFFFFFFFFFFFFFFFFFFFFFFFFF AND MUL OR SWAP1 SSTORE POP PUSH1 0xA0 DUP3 ADD MLOAD DUP2 PUSH1 0x5 ADD SSTORE POP POP POP POP POP POP JUMP JUMPDEST CALLER PUSH20 0xFFFFFFFFFFFFFFFFFFFFFFFFFFFFFFFFFFFFFFFF AND PUSH0 DUP3 DUP2 SLOAD DUP2 LT PUSH2 0x3F6 JUMPI PUSH2 0x3F5 PUSH2 0xA24 JUMP JUMPDEST JUMPDEST SWAP1 PUSH0 MSTORE PUSH1 0x20 PUSH0 KECCAK256 SWAP1 PUSH1 0x6 MUL ADD PUSH1 0x4 ADD PUSH0 SWAP1 SLOAD SWAP1 PUSH2 0x100 EXP SWAP1 DIV PUSH20 0xFFFFFFFFFFFFFFFFFFFFFFFFFFFFFFFFFFFFFFFF AND PUSH20 0xFFFFFFFFFFFFFFFFFFFFFFFFFFFFFFFFFFFFFFFF AND EQ PUSH2 0x47B JUMPI PUSH1 0x40 MLOAD PUSH32 0x8C379A000000000000000000000000000000000000000000000000000000000 DUP2 MSTORE PUSH1 0x4 ADD PUSH2 0x472 SWAP1 PUSH2 0xC2C JUMP JUMPDEST PUSH1 0x40 MLOAD DUP1 SWAP2 SUB SWAP1 REVERT JUMPDEST PUSH0 DUP1 DUP3 DUP2 SLOAD DUP2 LT PUSH2 0x48F JUMPI PUSH2 0x48E PUSH2 0xA24 JUMP JUMPDEST JUMPDEST SWAP1 PUSH0 MSTORE PUSH1 0x20 PUSH0 KECCAK256 SWAP1 PUSH1 0x6 MUL ADD PUSH1 0x5 ADD DUP2 SWAP1 SSTORE POP POP JUMP JUMPDEST CALLER PUSH20 0xFFFFFFFFFFFFFFFFFFFFFFFFFFFFFFFFFFFFFFFF AND PUSH0 DUP4 DUP2 SLOAD DUP2 LT PUSH2 0x4CF JUMPI PUSH2 0x4CE PUSH2 0xA24 JUMP JUMPDEST JUMPDEST SWAP1 PUSH0 MSTORE PUSH1 0x20 PUSH0 KECCAK256 SWAP1 PUSH1 0x6 MUL ADD PUSH1 0x4 ADD PUSH0 SWAP1 SLOAD SWAP1 PUSH2 0x100 EXP SWAP1 DIV PUSH20 0xFFFFFFFFFFFFFFFFFFFFFFFFFFFFFFFFFFFFFFFF AND PUSH20 0xFFFFFFFFFFFFFFFFFFFFFFFFFFFFFFFFFFFFFFFF AND EQ PUSH2 0x554 JUMPI PUSH1 0x40 MLOAD PUSH32 0x8C379A000000000000000000000000000000000000000000000000000000000 DUP2 MSTORE PUSH1 0x4 ADD PUSH2 0x54B SWAP1 PUSH2 0xCBA JUMP JUMPDEST PUSH1 0x40 MLOAD DUP1 SWAP2 SUB SWAP1 REVERT JUMPDEST DUP1 PUSH0 DUP4 DUP2 SLOAD DUP2 LT PUSH2 0x568 JUMPI PUSH2 0x567 PUSH2 0xA24 JUMP JUMPDEST JUMPDEST SWAP1 PUSH0 MSTORE PUSH1 0x20 PUSH0 KECCAK256 SWAP1 PUSH1 0x6 MUL ADD PUSH1 0x3 ADD DUP2 SWAP1 SSTORE POP POP POP JUMP JUMPDEST PUSH0 DUP2 DUP2 SLOAD DUP2 LT PUSH2 0x58D JUMPI PUSH0 DUP1 REVERT JUMPDEST SWAP1 PUSH0 MSTORE PUSH1 0x20 PUSH0 KECCAK256 SWAP1 PUSH1 0x6 MUL ADD PUSH0 SWAP2 POP SWAP1 POP DUP1 PUSH0 ADD SLOAD SWAP1 DUP1 PUSH1 0x1 ADD SLOAD SWAP1 DUP1 PUSH1 0x2 ADD SLOAD SWAP1 DUP1 PUSH1 0x3 ADD SLOAD SWAP1 DUP1 PUSH1 0x4 ADD PUSH0 SWAP1 SLOAD SWAP1 PUSH2 0x100 EXP SWAP1 DIV PUSH20 0xFFFFFFFFFFFFFFFFFFFFFFFFFFFFFFFFFFFFFFFF AND SWAP1 DUP1 PUSH1 0x5 ADD SLOAD SWAP1 POP DUP7 JUMP JUMPDEST CALLER PUSH0 DUP3 DUP2 SLOAD DUP2 LT PUSH2 0x5F8 JUMPI PUSH2 0x5F7 PUSH2 0xA24 JUMP JUMPDEST JUMPDEST SWAP1 PUSH0 MSTORE PUSH1 0x20 PUSH0 KECCAK256 SWAP1 PUSH1 0x6 MUL ADD PUSH1 0x4 ADD PUSH0 PUSH2 0x100 EXP DUP2 SLOAD DUP2 PUSH20 0xFFFFFFFFFFFFFFFFFFFFFFFFFFFFFFFFFFFFFFFF MUL NOT AND SWAP1 DUP4 PUSH20 0xFFFFFFFFFFFFFFFFFFFFFFFFFFFFFFFFFFFFFFFF AND MUL OR SWAP1 SSTORE POP PUSH1 0x2 PUSH0 DUP3 DUP2 SLOAD DUP2 LT PUSH2 0x659 JUMPI PUSH2 0x658 PUSH2 0xA24 JUMP JUMPDEST JUMPDEST SWAP1 PUSH0 MSTORE PUSH1 0x20 PUSH0 KECCAK256 SWAP1 PUSH1 0x6 MUL ADD PUSH1 0x5 ADD DUP2 SWAP1 SSTORE POP POP JUMP JUMPDEST PUSH0 DUP1 PUSH1 0x1 SWAP1 POP PUSH0 JUMPDEST PUSH0 DUP1 SLOAD SWAP1 POP DUP2 LT ISZERO PUSH2 0x71D JUMPI DUP5 PUSH0 DUP3 DUP2 SLOAD DUP2 LT PUSH2 0x697 JUMPI PUSH2 0x696 PUSH2 0xA24 JUMP JUMPDEST JUMPDEST SWAP1 PUSH0 MSTORE PUSH1 0x20 PUSH0 KECCAK256 SWAP1 PUSH1 0x6 MUL ADD PUSH1 0x1 ADD SLOAD EQ DUP1 ISZERO PUSH2 0x6D5 JUMPI POP DUP4 PUSH0 DUP3 DUP2 SLOAD DUP2 LT PUSH2 0x6C3 JUMPI PUSH2 0x6C2 PUSH2 0xA24 JUMP JUMPDEST JUMPDEST SWAP1 PUSH0 MSTORE PUSH1 0x20 PUSH0 KECCAK256 SWAP1 PUSH1 0x6 MUL ADD PUSH1 0x2 ADD SLOAD EQ JUMPDEST DUP1 ISZERO PUSH2 0x703 JUMPI POP PUSH1 0x1 PUSH0 DUP3 DUP2 SLOAD DUP2 LT PUSH2 0x6F1 JUMPI PUSH2 0x6F0 PUSH2 0xA24 JUMP JUMPDEST JUMPDEST SWAP1 PUSH0 MSTORE PUSH1 0x20 PUSH0 KECCAK256 SWAP1 PUSH1 0x6 MUL ADD PUSH1 0x5 ADD SLOAD EQ JUMPDEST ISZERO PUSH2 0x710 JUMPI PUSH0 SWAP2 POP PUSH2 0x71D JUMP JUMPDEST DUP1 DUP1 PUSH1 0x1 ADD SWAP2 POP POP PUSH2 0x677 JUMP JUMPDEST POP DUP1 SWAP2 POP POP SWAP3 SWAP2 POP POP JUMP JUMPDEST PUSH0 DUP2 MLOAD SWAP1 POP SWAP2 SWAP1 POP JUMP JUMPDEST PUSH0 DUP3 DUP3 MSTORE PUSH1 0x20 DUP3 ADD SWAP1 POP SWAP3 SWAP2 POP POP JUMP JUMPDEST PUSH0 DUP2 SWAP1 POP PUSH1 0x20 DUP3 ADD SWAP1 POP SWAP2 SWAP1 POP JUMP JUMPDEST PUSH0 DUP2 SWAP1 POP SWAP2 SWAP1 POP JUMP JUMPDEST PUSH2 0x763 DUP2 PUSH2 0x751 JUMP JUMPDEST DUP3 MSTORE POP POP JUMP JUMPDEST PUSH0 PUSH20 0xFFFFFFFFFFFFFFFFFFFFFFFFFFFFFFFFFFFFFFFF DUP3 AND SWAP1 POP SWAP2 SWAP1 POP JUMP JUMPDEST PUSH0 PUSH2 0x792 DUP3 PUSH2 0x769 JUMP JUMPDEST SWAP1 POP SWAP2 SWAP1 POP JUMP JUMPDEST PUSH2 0x7A2 DUP2 PUSH2 0x788 JUMP JUMPDEST DUP3 MSTORE POP POP JUMP JUMPDEST PUSH1 0xC0 DUP3 ADD PUSH0 DUP3 ADD MLOAD PUSH2 0x7BC PUSH0 DUP6 ADD DUP3 PUSH2 0x75A JUMP JUMPDEST POP PUSH1 0x20 DUP3 ADD MLOAD PUSH2 0x7CF PUSH1 0x20 DUP6 ADD DUP3 PUSH2 0x75A JUMP JUMPDEST POP PUSH1 0x40 DUP3 ADD MLOAD PUSH2 0x7E2 PUSH1 0x40 DUP6 ADD DUP3 PUSH2 0x75A JUMP JUMPDEST POP PUSH1 0x60 DUP3 ADD MLOAD PUSH2 0x7F5 PUSH1 0x60 DUP6 ADD DUP3 PUSH2 0x75A JUMP JUMPDEST POP PUSH1 0x80 DUP3 ADD MLOAD PUSH2 0x808 PUSH1 0x80 DUP6 ADD DUP3 PUSH2 0x799 JUMP JUMPDEST POP PUSH1 0xA0 DUP3 ADD MLOAD PUSH2 0x81B PUSH1 0xA0 DUP6 ADD DUP3 PUSH2 0x75A JUMP JUMPDEST POP POP POP POP JUMP JUMPDEST PUSH0 PUSH2 0x82C DUP4 DUP4 PUSH2 0x7A8 JUMP JUMPDEST PUSH1 0xC0 DUP4 ADD SWAP1 POP SWAP3 SWAP2 POP POP JUMP JUMPDEST PUSH0 PUSH1 0x20 DUP3 ADD SWAP1 POP SWAP2 SWAP1 POP JUMP JUMPDEST PUSH0 PUSH2 0x84E DUP3 PUSH2 0x728 JUMP JUMPDEST PUSH2 0x858 DUP2 DUP6 PUSH2 0x732 JUMP JUMPDEST SWAP4 POP PUSH2 0x863 DUP4 PUSH2 0x742 JUMP JUMPDEST DUP1 PUSH0 JUMPDEST DUP4 DUP2 LT ISZERO PUSH2 0x893 JUMPI DUP2 MLOAD PUSH2 0x87A DUP9 DUP3 PUSH2 0x821 JUMP JUMPDEST SWAP8 POP PUSH2 0x885 DUP4 PUSH2 0x838 JUMP JUMPDEST SWAP3 POP POP PUSH1 0x1 DUP2 ADD SWAP1 POP PUSH2 0x866 JUMP JUMPDEST POP DUP6 SWAP4 POP POP POP POP SWAP3 SWAP2 POP POP JUMP JUMPDEST PUSH0 PUSH1 0x20 DUP3 ADD SWAP1 POP DUP2 DUP2 SUB PUSH0 DUP4 ADD MSTORE PUSH2 0x8B8 DUP2 DUP5 PUSH2 0x844 JUMP JUMPDEST SWAP1 POP SWAP3 SWAP2 POP POP JUMP JUMPDEST PUSH0 DUP1 REVERT JUMPDEST PUSH2 0x8CD DUP2 PUSH2 0x751 JUMP JUMPDEST DUP2 EQ PUSH2 0x8D7 JUMPI PUSH0 DUP1 REVERT JUMPDEST POP JUMP JUMPDEST PUSH0 DUP2 CALLDATALOAD SWAP1 POP PUSH2 0x8E8 DUP2 PUSH2 0x8C4 JUMP JUMPDEST SWAP3 SWAP2 POP POP JUMP JUMPDEST PUSH0 DUP1 PUSH0 PUSH1 0x60 DUP5 DUP7 SUB SLT ISZERO PUSH2 0x905 JUMPI PUSH2 0x904 PUSH2 0x8C0 JUMP JUMPDEST JUMPDEST PUSH0 PUSH2 0x912 DUP7 DUP3 DUP8 ADD PUSH2 0x8DA JUMP JUMPDEST SWAP4 POP POP PUSH1 0x20 PUSH2 0x923 DUP7 DUP3 DUP8 ADD PUSH2 0x8DA JUMP JUMPDEST SWAP3 POP POP PUSH1 0x40 PUSH2 0x934 DUP7 DUP3 DUP8 ADD PUSH2 0x8DA JUMP JUMPDEST SWAP2 POP POP SWAP3 POP SWAP3 POP SWAP3 JUMP JUMPDEST PUSH0 PUSH1 0x20 DUP3 DUP5 SUB SLT ISZERO PUSH2 0x953 JUMPI PUSH2 0x952 PUSH2 0x8C0 JUMP JUMPDEST JUMPDEST PUSH0 PUSH2 0x960 DUP5 DUP3 DUP6 ADD PUSH2 0x8DA JUMP JUMPDEST SWAP2 POP POP SWAP3 SWAP2 POP POP JUMP JUMPDEST PUSH0 DUP1 PUSH1 0x40 DUP4 DUP6 SUB SLT ISZERO PUSH2 0x97F JUMPI PUSH2 0x97E PUSH2 0x8C0 JUMP JUMPDEST JUMPDEST PUSH0 PUSH2 0x98C DUP6 DUP3 DUP7 ADD PUSH2 0x8DA JUMP JUMPDEST SWAP3 POP POP PUSH1 0x20 PUSH2 0x99D DUP6 DUP3 DUP7 ADD PUSH2 0x8DA JUMP JUMPDEST SWAP2 POP POP SWAP3 POP SWAP3 SWAP1 POP JUMP JUMPDEST PUSH2 0x9B0 DUP2 PUSH2 0x751 JUMP JUMPDEST DUP3 MSTORE POP POP JUMP JUMPDEST PUSH2 0x9BF DUP2 PUSH2 0x788 JUMP JUMPDEST DUP3 MSTORE POP POP JUMP JUMPDEST PUSH0 PUSH1 0xC0 DUP3 ADD SWAP1 POP PUSH2 0x9D8 PUSH0 DUP4 ADD DUP10 PUSH2 0x9A7 JUMP JUMPDEST PUSH2 0x9E5 PUSH1 0x20 DUP4 ADD DUP9 PUSH2 0x9A7 JUMP JUMPDEST PUSH2 0x9F2 PUSH1 0x40 DUP4 ADD DUP8 PUSH2 0x9A7 JUMP JUMPDEST PUSH2 0x9FF PUSH1 0x60 DUP4 ADD DUP7 PUSH2 0x9A7 JUMP JUMPDEST PUSH2 0xA0C PUSH1 0x80 DUP4 ADD DUP6 PUSH2 0x9B6 JUMP JUMPDEST PUSH2 0xA19 PUSH1 0xA0 DUP4 ADD DUP5 PUSH2 0x9A7 JUMP JUMPDEST SWAP8 SWAP7 POP POP POP POP POP POP POP JUMP JUMPDEST PUSH32 0x4E487B7100000000000000000000000000000000000000000000000000000000 PUSH0 MSTORE PUSH1 0x32 PUSH1 0x4 MSTORE PUSH1 0x24 PUSH0 REVERT JUMPDEST PUSH32 0x4E487B7100000000000000000000000000000000000000000000000000000000 PUSH0 MSTORE PUSH1 0x11 PUSH1 0x4 MSTORE PUSH1 0x24 PUSH0 REVERT JUMPDEST PUSH0 PUSH2 0xA88 DUP3 PUSH2 0x751 JUMP JUMPDEST SWAP2 POP PUSH32 0xFFFFFFFFFFFFFFFFFFFFFFFFFFFFFFFFFFFFFFFFFFFFFFFFFFFFFFFFFFFFFFFF DUP3 SUB PUSH2 0xABA JUMPI PUSH2 0xAB9 PUSH2 0xA51 JUMP JUMPDEST JUMPDEST PUSH1 0x1 DUP3 ADD SWAP1 POP SWAP2 SWAP1 POP JUMP JUMPDEST PUSH0 DUP3 DUP3 MSTORE PUSH1 0x20 DUP3 ADD SWAP1 POP SWAP3 SWAP2 POP POP JUMP JUMPDEST PUSH32 0x6F6E6C79206F6E652076616C6964204E544620746F6B656E2077697468207361 PUSH0 DUP3 ADD MSTORE PUSH32 0x6D65207365726965732063616E206265206C6973742E20706C65617365207265 PUSH1 0x20 DUP3 ADD MSTORE PUSH32 0x667265736820616E6420636865636B20746865206F72646572732E0000000000 PUSH1 0x40 DUP3 ADD MSTORE POP JUMP JUMPDEST PUSH0 PUSH2 0xB55 PUSH1 0x5B DUP4 PUSH2 0xAC5 JUMP JUMPDEST SWAP2 POP PUSH2 0xB60 DUP3 PUSH2 0xAD5 JUMP JUMPDEST PUSH1 0x60 DUP3 ADD SWAP1 POP SWAP2 SWAP1 POP JUMP JUMPDEST PUSH0 PUSH1 0x20 DUP3 ADD SWAP1 POP DUP2 DUP2 SUB PUSH0 DUP4 ADD MSTORE PUSH2 0xB82 DUP2 PUSH2 0xB49 JUMP JUMPDEST SWAP1 POP SWAP2 SWAP1 POP JUMP JUMPDEST PUSH0 PUSH2 0xB93 DUP3 PUSH2 0x751 JUMP JUMPDEST SWAP2 POP PUSH2 0xB9E DUP4 PUSH2 0x751 JUMP JUMPDEST SWAP3 POP DUP3 DUP3 ADD SWAP1 POP DUP1 DUP3 GT ISZERO PUSH2 0xBB6 JUMPI PUSH2 0xBB5 PUSH2 0xA51 JUMP JUMPDEST JUMPDEST SWAP3 SWAP2 POP POP JUMP JUMPDEST PUSH32 0x6F6E6C7920746865206F726465722773206F776E65722063616E207265766F6B PUSH0 DUP3 ADD MSTORE PUSH32 0x6500000000000000000000000000000000000000000000000000000000000000 PUSH1 0x20 DUP3 ADD MSTORE POP JUMP JUMPDEST PUSH0 PUSH2 0xC16 PUSH1 0x21 DUP4 PUSH2 0xAC5 JUMP JUMPDEST SWAP2 POP PUSH2 0xC21 DUP3 PUSH2 0xBBC JUMP JUMPDEST PUSH1 0x40 DUP3 ADD SWAP1 POP SWAP2 SWAP1 POP JUMP JUMPDEST PUSH0 PUSH1 0x20 DUP3 ADD SWAP1 POP DUP2 DUP2 SUB PUSH0 DUP4 ADD MSTORE PUSH2 0xC43 DUP2 PUSH2 0xC0A JUMP JUMPDEST SWAP1 POP SWAP2 SWAP1 POP JUMP JUMPDEST PUSH32 0x6F6E6C7920746865206F726465722773206F776E65722063616E207570646174 PUSH0 DUP3 ADD MSTORE PUSH32 0x6500000000000000000000000000000000000000000000000000000000000000 PUSH1 0x20 DUP3 ADD MSTORE POP JUMP JUMPDEST PUSH0 PUSH2 0xCA4 PUSH1 0x21 DUP4 PUSH2 0xAC5 JUMP JUMPDEST SWAP2 POP PUSH2 0xCAF DUP3 PUSH2 0xC4A JUMP JUMPDEST PUSH1 0x40 DUP3 ADD SWAP1 POP SWAP2 SWAP1 POP JUMP JUMPDEST PUSH0 PUSH1 0x20 DUP3 ADD SWAP1 POP DUP2 DUP2 SUB PUSH0 DUP4 ADD MSTORE PUSH2 0xCD1 DUP2 PUSH2 0xC98 JUMP JUMPDEST SWAP1 POP SWAP2 SWAP1 POP JUMP INVALID LOG2 PUSH5 0x6970667358 0x22 SLT KECCAK256 GASLIMIT DUP16 0x4E 0x22 PUSH17 0xD3A9C04A94FAF85E5366A94F78A84688BA 0xBA REVERT DUP15 PUSH4 0xF708987A 0xD0 DUP9 PUSH5 0x736F6C6343 STOP ADDMOD BYTE STOP CALLER "
		},
		"gasEstimates": {
			"creation": {
				"codeDepositCost": "668400",
				"executionCost": "700",
				"totalCost": "669100"
			},
			"external": {
				"AllOrders(uint256)": "infinite",
				"list(uint256,uint256,uint256)": "infinite",
				"purchase(uint256)": "51232",
				"revoke(uint256)": "11994",
				"showList()": "infinite",
				"update(uint256,uint256)": "infinite"
			},
			"internal": {
				"notExists(uint256,uint256)": "infinite"
			}
		},
		"methodIdentifiers": {
			"AllOrders(uint256)": "6d13eed0",
			"list(uint256,uint256,uint256)": "19aeb490",
			"purchase(uint256)": "efef39a1",
			"revoke(uint256)": "20c5429b",
			"showList()": "0e401b44",
			"update(uint256,uint256)": "2fb565e8"
		}
	},
	"abi": [
		{
			"inputs": [
				{
					"internalType": "uint256",
					"name": "",
					"type": "uint256"
				}
			],
			"name": "AllOrders",
			"outputs": [
				{
					"internalType": "uint256",
					"name": "oId",
					"type": "uint256"
				},
				{
					"internalType": "uint256",
					"name": "seriesId",
					"type": "uint256"
				},
				{
					"internalType": "uint256",
					"name": "tokenId",
					"type": "uint256"
				},
				{
					"internalType": "uint256",
					"name": "price",
					"type": "uint256"
				},
				{
					"internalType": "address",
					"name": "owner",
					"type": "address"
				},
				{
					"internalType": "uint256",
					"name": "status",
					"type": "uint256"
				}
			],
			"stateMutability": "view",
			"type": "function"
		},
		{
			"inputs": [
				{
					"internalType": "uint256",
					"name": "sId",
					"type": "uint256"
				},
				{
					"internalType": "uint256",
					"name": "tId",
					"type": "uint256"
				},
				{
					"internalType": "uint256",
					"name": "p",
					"type": "uint256"
				}
			],
			"name": "list",
			"outputs": [],
			"stateMutability": "nonpayable",
			"type": "function"
		},
		{
			"inputs": [
				{
					"internalType": "uint256",
					"name": "oIndex",
					"type": "uint256"
				}
			],
			"name": "purchase",
			"outputs": [],
			"stateMutability": "payable",
			"type": "function"
		},
		{
			"inputs": [
				{
					"internalType": "uint256",
					"name": "oIndex",
					"type": "uint256"
				}
			],
			"name": "revoke",
			"outputs": [],
			"stateMutability": "nonpayable",
			"type": "function"
		},
		{
			"inputs": [],
			"name": "showList",
			"outputs": [
				{
					"components": [
						{
							"internalType": "uint256",
							"name": "oId",
							"type": "uint256"
						},
						{
							"internalType": "uint256",
							"name": "seriesId",
							"type": "uint256"
						},
						{
							"internalType": "uint256",
							"name": "tokenId",
							"type": "uint256"
						},
						{
							"internalType": "uint256",
							"name": "price",
							"type": "uint256"
						},
						{
							"internalType": "address",
							"name": "owner",
							"type": "address"
						},
						{
							"internalType": "uint256",
							"name": "status",
							"type": "uint256"
						}
					],
					"internalType": "struct NFTSwap.Order[]",
					"name": "",
					"type": "tuple[]"
				}
			],
			"stateMutability": "view",
			"type": "function"
		},
		{
			"inputs": [
				{
					"internalType": "uint256",
					"name": "oIndex",
					"type": "uint256"
				},
				{
					"internalType": "uint256",
					"name": "p",
					"type": "uint256"
				}
			],
			"name": "update",
			"outputs": [],
			"stateMutability": "nonpayable",
			"type": "function"
		}
	]
}